:10000000D3C00000FFC00000FDC00000FBC0000026
:10001000F9C00000F7C00000F5C00000F3C0000008
:10002000F1C00000EFC00000EDC00000EBC0000018
:10003000E9C00000E7C00000E5C00000E3C0000028
:10004000E1C00000DFC00000DDC00000DBC0000038
:10005000D9C00000D7C00000D5C0000097C2000082
:10006000D1C0000006C30000DBC20000CBC000000E
:10007000C9C00000C7C00000C5C00000C3C0000068
:10008000C1C00000BFC00000BDC00000BBC0000078
:10009000B9C00000B7C00000B5C00000B3C0000088
:1000A000B1C00000AFC00000ADC00000ABC0000098
:1000B000A9C00000A7C00000A5C00000A3C00000A8
:1000C000A1C000009FC000009DC000009BC00000B8
:1000D00099C0000097C0000095C0000093C00000C8
:1000E00091C0000000002200250028002B002E00F7
:1000F0003100340002010000050108010B0100007D
:100100002100240027002A002D00300033000101C7
:100110000000040107010A01050505050705080897
:100120000808020202020A0A080804040404010181
:100130000101010101010303030303030303040796
:1001400007070C0C0C0C0C0C0C0C0202020206062D
:100150000606060606060B0B0B0B0B0B0B0B010220
:1001600010202008081020401020408002010201C9
:100170000804020101020408102040808040201081
:1001800008040201800402018040201008040201DA
:100190000804020101020408102040800102040842
:1001A000102040806F03930411241FBECFEFD1E2D3
:1001B000DEBFCDBF00E00CBF22E0ACE1B2E001C089
:1001C0001D92AF3CB207E1F712E0A0E0B2E0EEEB27
:1001D000FDE000E00BBF02C007900D92AC31B1070B
:1001E000D9F710E0C3EDD0E000E005C02197010988
:1001F000802FFE019DD3C23DD10780E00807B1F7F3
:10020000A8D2CCC5FDCECF92DF92EF92FF920F9392
:100210001F93CF93DF936C017A018B01C0E0D0E094
:10022000CE15DF0589F0D8016D918D01D601ED91D4
:10023000FC910190F081E02DC6011995892B11F4F4
:100240007E0102C02196ECCFC701DF91CF911F91B3
:100250000F91FF90EF90DF90CF900895089580E088
:1002600090E00895FC01538D448D252F30E0842FBC
:1002700090E0821B930B541710F0CF9608950197CE
:100280000895FC01918D828D981761F0828DDF01B8
:10029000A80FB11D5D968C91928D9F5F9F73928F79
:1002A00090E008958FEF9FEF0895FC01918D828D6E
:1002B000981731F0828DE80FF11D858D90E008953B
:1002C0008FEF9FEF0895FC01918D228D892F90E093
:1002D000805C9F4F821B91098F739927089588E254
:1002E00092E0F1DF21E0892B09F420E0822F0895CC
:1002F000FC01848DDF01A80FB11DA35ABF4F2C91C3
:10030000848D90E001968F739927848FA689B78991
:100310002C93A089B1898C9180648C93938D848D6A
:10032000981306C00288F389E02D80818F7D808339
:100330000895EF92FF920F931F93CF93DF93EC01F9
:1003400081E0888F9B8D8C8D981305C0E889F98991
:10035000808185FD23C0F62E0B8D10E00F5F1F4FAF
:100360000F731127E02E8C8DE8120BC00FB607FC1F
:10037000FACFE889F989808185FFF5CFCE01B8DF12
:10038000F2CF8B8DFE01E80FF11DE35AFF4FF08293
:100390000B8FEA89FB898081806207C0EE89FF8923
:1003A0006083E889F98980818064808381E090E0BE
:1003B000DF91CF911F910F91FF90EF900895CF9310
:1003C000DF93EC01888D8823C1F0EA89FB89808165
:1003D00085FD05C0A889B9898C9186FD0EC00FB630
:1003E00007FCF5CF808185FFF2CFA889B9898C9170
:1003F00085FFEDCFCE017CDFE8CFDF91CF9108956F
:10040000B0D40F931F93CF93DF93EC018881998130
:10041000009729F02A813B812617370780F48B014A
:100420006F5F7F4FBAD3009761F0998388831B83F6
:100430000A832C813D81232B11F4FC01108281E081
:1004400001C080E0DF91CF911F910F910895EF924D
:10045000FF920F931F93CF93DF93EC017B018A01EF
:10046000BA01CFDF2881398181110CC021153105F6
:1004700011F0C901FAD2198218821D821C821B82D6
:100480001A8205C01D830C83B701C90180D4CE0137
:10049000DF91CF911F910F91FF90EF900895EF9210
:1004A000FF920F931F93CF93DF931F921F92CDB7AD
:1004B000DEB7EE24E39488E292E005DF892B51F168
:1004C00088E292E0DEDEF82E89831A820091C9026A
:1004D0001091CA020F5F1F4FB80185EC92E091DFC7
:1004E000882391F02091C5023091C6028091C90203
:1004F0009091CA02BE016F5F7F4F820F931F47D456
:100500001093CA020093C9028AE0F812D4CFE09295
:100510001C02D1CF0F900F90DF91CF911F910F91BF
:10052000FF90EF900895DBDE811125C080E090E020
:10053000892B41F080E090E0892B21F00E9400009F
:1005400081111BC080E090E0892B41F080E090E0B9
:10055000892B21F00E940000811112C080E090E000
:10056000892B99F080E090E0892B79F00E940000BF
:10057000811109C0089593DFD9CF0E940000E2CF16
:100580000E940000EBCF0C94000008951F920F9280
:100590000FB60F9211242F933F938F939F93AF9396
:1005A000BF938091240290912502A0912602B091E0
:1005B00027023091230223E0230F2D3720F40196E8
:1005C000A11DB11D05C026E8230F0296A11DB11D76
:1005D000209323028093240290932502A093260265
:1005E000B093270280911F0290912002A0912102D6
:1005F000B09122020196A11DB11D80931F0290931C
:100600002002A0932102B0932202BF91AF919F914B
:100610008F913F912F910F900FBE0F901F901895C3
:100620001F920F920FB60F9211240BB60F922F93B9
:100630003F934F935F936F937F938F939F93AF936A
:10064000BF93EF93FF9388E292E052DEFF91EF9128
:10065000BF91AF919F918F917F916F915F914F91DA
:100660003F912F910F900BBE0F900FBE0F901F90D8
:1006700018951F920F920FB60F9211240BB60F927E
:100680002F938F939F93EF93FF93E0913802F09114
:1006900039028081E0913E02F0913F0282FD12C05A
:1006A0009081809141028F5F8F7320914202821767
:1006B00051F0E0914102F0E0E85DFD4F958F8093AD
:1006C000410201C08081FF91EF919F918F912F9105
:1006D0000F900BBE0F900FBE0F901F901895E8E281
:1006E000F2E01382128288EE93E0A0E0B0E084830F
:1006F0009583A683B7838AE092E09183808385EC1B
:1007000090E09587848784EC90E09787868780ECDB
:1007100090E0918B808B81EC90E0938B828B82ECCC
:1007200090E0958B848B86EC90E0978B868B118E76
:10073000128E138E148EE5ECF2E011821082138279
:1007400012821582148240E050E06AE172E0CF012B
:100750007ECE789484B5826084BD84B5816084BD8A
:1007600085B5826085BD85B5816085BD80916E004F
:10077000816080936E001092810080918100826080
:1007800080938100809181008160809381008091BD
:1007900080008160809380008091B10084608093AC
:1007A000B1008091B00081608093B0008091910091
:1007B000826080939100809191008160809391008C
:1007C000809190008160809390008091A100826070
:1007D0008093A1008091A10081608093A10080910D
:1007E000A00081608093A0008091210182608093AD
:1007F000210180912101816080932101809120015C
:1008000081608093200180917A00846080937A00D7
:1008100080917A00826080937A0080917A00816072
:1008200080937A0080917A00806880937A00109299
:10083000C100E0913802F091390282E08083E091BA
:100840003402F09135021082E0913602F0913702C5
:1008500080E1808310924002E0913C02F0913D02E1
:1008600086E08083E0913A02F0913B0280818061D2
:100870008083E0913A02F0913B028081886080831E
:10088000E0913A02F0913B02808180688083E091A0
:100890003A02F0913B0280818F7D8083EBE6F1E0AC
:1008A0002491E5E2F1E08491882399F090E0880FAB
:1008B000991FFC01E250FF4FA591B491FC01EC514E
:1008C000FF4F859194918FB7F894EC91E22BEC93C4
:1008D0008FBFC1E0D0E080911D0290911E02892B54
:1008E00001F580911C028823E1F010921C02809196
:1008F000C9029091CA02892B69F068E172E0809187
:10090000C5029091C6023AD2892B21F4D0931E02DF
:10091000C0931D0240E050E06AE172E085EC92E095
:1009200096DD01DED8CF8091C5029091C6029DC0B0
:10093000EE0FFF1F881F8BBF0790F691E02D1994D3
:10094000CF93DF938230910510F482E090E0E09144
:10095000CD02F091CE0220E030E0C0E0D0E0309750
:1009600011F14081518148175907C0F048175907C4
:1009700061F482819381209719F09B838A832BC035
:100980009093CE028093CD0226C02115310519F037
:100990004217530718F49A01BE01DF01EF010280EC
:1009A000F381E02DDCCF2115310509F1281B390B2E
:1009B0002430310590F412968D919C911397611516
:1009C000710521F0FB019383828304C09093CE02D2
:1009D0008093CD02FD01329644C0FD01E20FF31F6A
:1009E00081939193225031092D933C933AC02091E9
:1009F000CB023091CC02232B41F4209102023091A2
:100A000003023093CC022093CB022091000230915C
:100A100001022115310541F42DB73EB74091040282
:100A200050910502241B350BE091CB02F091CC02D2
:100A3000E217F307A0F42E1B3F0B2817390778F0B5
:100A4000AC014E5F5F4F2417350748F04E0F5F1F14
:100A50005093CC024093CB028193919302C0E0E08B
:100A6000F0E0CF01DF91CF9108950F931F93CF93C3
:100A7000DF93009709F48CC0FC0132971382128235
:100A80000091CD021091CE020115110581F4208153
:100A90003181820F931F2091CB023091CC02281715
:100AA000390779F5F093CC02E093CB0271C0D801FD
:100AB00040E050E0AE17BF0750F412962D913C91E4
:100AC0001397AD012115310509F1D901F3CF9D012E
:100AD000DA013383228360817181860F971F821729
:100AE000930769F4EC0128813981260F371F2E5FA7
:100AF0003F4F318320838A819B8193838283452B5F
:100B000029F4F093CE02E093CD0242C01396FC93F9
:100B1000EE931297ED01499159919E01240F351FD3
:100B2000E217F30771F480819181840F951F02967B
:100B300011969C938E938281938113969C938E93AE
:100B40001297E0E0F0E0D80112968D919C911397F6
:100B5000009719F0F8018C01F6CF8D919C919801C6
:100B60002E5F3F4F820F931F2091CB023091CC021A
:100B70002817390769F4309729F41092CE021092A1
:100B8000CD0202C0138212821093CC020093CB02DA
:100B9000DF91CF911F910F9108956F927F928F9265
:100BA0009F92AF92BF92CF92DF92EF92FF920F93FC
:100BB0001F93CF93DF93EC01009781F4CB01DF917A
:100BC000CF911F910F91FF90EF90DF90CF90BF904A
:100BD000AF909F908F907F906F90B2CEFC01E60F08
:100BE000F71F9C0122503109E217F30708F4A8C04F
:100BF000D9010D911C91119706171707A8F0053020
:100C0000110508F49BC0C80104978617970708F4DC
:100C100095C002501109061B170B019311936D9398
:100C20007C93CF0122DF8AC05B01A01AB10A4C017C
:100C3000800E911EA091CD02B091CE0240E050E016
:100C4000E12CF12C109709F44AC0A815B905D1F58B
:100C50006D907C901197630182E0C80ED11CCA147C
:100C6000DB0480F1A3014A195B096A0182E0C80E26
:100C7000D11C1296BC9012971396AC91B5E0CB168E
:100C8000D10440F0B282A38351834083D9016D9394
:100C90007C930AC00E5F1F4FC301800F911FF901A3
:100CA00091838083EB2DFA2FE114F10431F0D70109
:100CB0001396FC93EE93129741C0F093CE02E0930B
:100CC000CD023CC08D919C9111974817590708F4AB
:100CD000AC017D0112960D90BC91A02DB3CF8091F7
:100CE000CB029091CC0288159905E1F4461757077D
:100CF000C8F48091000290910102009741F48DB7F1
:100D00009EB74091040250910502841B950BE81791
:100D1000F907B0F4F093CC02E093CB02F9017183B0
:100D200060830CC0CB010CDE7C01009749F0A80168
:100D3000BE011BD0CE0199DEC70104C0CE0102C0A6
:100D400080E090E0DF91CF911F910F91FF90EF90A5
:100D5000DF90CF90BF90AF909F908F907F906F90DB
:100D6000089581E090E0F89419C0FB01DC0102C015
:100D700001900D9241505040D8F70895FB01DC01DD
:100D80008D91019080190110D9F3990B0895FB0101
:100D9000DC0101900D920020E1F7089510E0C3ED11
:100DA000D0E000E005C0802FFE01C2DD2196011DCC
:0E0DB000C43DD10780E00807B1F7F894FFCFEB
:100DBE000000CF0280000000000099010301320103
:0C0DCE00DF016301410155014D300000C0
:00000001FF
