:1000000048C1000077C1000075C1000073C1000045
:1000100071C100006FC100006DC100006BC1000024
:1000200069C1000067C1000065C1000063C1000034
:1000300061C100005FC100005DC100005BC1000044
:1000400059C100003AC5000055C1000053C100006D
:1000500032C600009DC500004DC100009AC70000D7
:1000600049C1000020C30000F5C2000043C10000E8
:1000700041C100003FC100003DC100003BC1000084
:10008000EFC4000037C1000035C1000033C10000DB
:1000900031C100002FC100002DC100002BC10000A4
:1000A00029C1000027C10000AEC4000023C1000028
:1000B00021C100001FC100001DC1000077C4000065
:1000C00019C1000017C1000015C1000013C10000D4
:1000D00011C100000FC100000DC100000BC10000E4
:1000E00009C1000068026B025A025E026402A202A9
:1000F0006F02730279027D02810287028B028F02F6
:10010000A202950299029D02420B9E0A7F0BF00A01
:10011000040B7F0B7F0B190B7F0B7F0B6B0B7F0B84
:100120007F0B2D0B7F0B560B7F0B7F0BB20AC70A81
:10013000DB0A4E414E494E495459494E46CDCCCC2E
:100140003D0AD7233C17B7D13877CC2B329595E6AB
:10015000241FB14F0A000020410000C84200401C8B
:100160004620BCBE4CCA1B0E5AAEC59D7400002171
:1001700000240027002A002D003000330001010078
:1001800000040107010A0100002200250028002BBD
:10019000002E003100340002010000050108010BAF
:1001A00001000020002300260029002C002F00322F
:1001B000000001000003010601090105050505070E
:1001C0000508080808020202020A0A0808040404D2
:1001D00004010101010101010103030303030303FE
:1001E00003040707070C0C0C0C0C0C0C0C0202028D
:1001F0000206060606060606060B0B0B0B0B0B0B80
:100200000B0102102020080810204010204080021E
:10021000010201080402010102040810204080804C
:1002200040201008040201800402018040201008D0
:1002300004020108040201010204081020408001A8
:100240000204081020408000000A0B02090C0D0E69
:100250000807030401000000000000000000000087
:10026000000000000000000000000000000000008E
:10027000000000121110000000000000000000004B
:100280000000000000000000000000000000A915B0
:10029000A11511241FBECFEFD1E2DEBFCDBF00E01C
:1002A0000CBF12E0A0E0B2E0ECE9F8E300E00BBF25
:1002B00002C007900D92A038B107D9F724E0A0E85A
:1002C000B2E001C01D92AF3BB207E1F711E0C8E414
:1002D000D1E000E006C021970109802FFE010E94B5
:1002E000071AC734D10780E00807A9F70E94560D06
:1002F0000C943D1C85CE089580E090E00895FC01AB
:10030000538D448D252F30E0842F90E0821B930B7A
:10031000541710F0CF96089501970895FC01918D20
:10032000828D981761F0828DDF01A80FB11D5D9657
:100330008C91928D9F5F9F73928F90E008958FEFC5
:100340009FEF0895FC01918D828D981731F0828D79
:10035000E80FF11D858D90E008958FEF9FEF0895D0
:10036000FC01918D228D892F90E0805C9F4F821B34
:1003700091098F739927089580E992E0F1DF21E0D8
:10038000892B09F420E0822F0895FC01848DDF0180
:10039000A80FB11DA35ABF4F2C91848D90E00196F8
:1003A0008F739927848FA689B7892C93A089B189E7
:1003B0008C9180648C93938D848D981306C00288F1
:1003C000F389E02D80818F7D80830895EF92FF92E5
:1003D0000F931F93CF93DF93EC0181E0888F9B8D68
:1003E0008C8D981305C0E889F989808185FD23C02B
:1003F000F62E0B8D10E00F5F1F4F0F731127E02EAD
:100400008C8DE8120BC00FB607FCFACFE889F9898A
:10041000808185FFF5CFCE01B8DFF2CF8B8DFE0155
:10042000E80FF11DE35AFF4FF0820B8FEA89FB8939
:100430008081806207C0EE89FF896083E889F9893D
:1004400080818064808381E090E0DF91CF911F9173
:100450000F91FF90EF900895CF93DF93EC01888D7B
:100460008823C1F0EA89FB89808185FD05C0A889C0
:10047000B9898C9186FD0EC00FB607FCF5CF80813F
:1004800085FFF2CFA889B9898C9185FFEDCFCE0188
:100490007CDFE8CFDF91CF91089590E0FC013197A8
:1004A000E231F10508F04EC08827EE58FF4F8F4F1C
:1004B0000C94071A809180008F7703C08091800090
:1004C0008F7D80938000089580918000877FF9CF91
:1004D00084B58F7702C084B58F7D84BD08958091E7
:1004E000B0008F7703C08091B0008F7D8093B00003
:1004F0000895809190008F7707C0809190008F7D44
:1005000003C080919000877F809390000895809130
:10051000A0008F7707C08091A0008F7D03C08091DD
:10052000A000877F8093A0000895809120018F779D
:1005300007C0809120018F7D03C080912001877FBB
:10054000809320010895CF93DF9390E0FC01EF5F4B
:10055000FD4F2491FC01E554FE4F8491882361F105
:1005600090E0880F991FFC01E359FE4FC591D4918B
:10057000FC01E957FE4FA591B491611109C09FB7E5
:10058000F8948881209582238883EC912E230BC0D8
:10059000623061F49FB7F8943881822F809583236D
:1005A0008883EC912E2B2C939FBF06C08FB7F894B5
:1005B000E8812E2B28838FBFDF91CF910895CF93B1
:1005C000C1E080E992E0CCDE892B79F080E992E00D
:1005D000A5DE8A3019F4C0938402F3CF81328CF304
:1005E000682F8EEB93E065D5ECCFCF910895C4DEF4
:1005F000811125C080E090E0892B41F080E090E0FF
:10060000892B21F00E94000081111BC080E090E046
:10061000892B41F080E090E0892B21F00E940000BE
:10062000811112C080E090E0892B99F080E090E089
:10063000892B79F00E940000811109C00895BFDF65
:10064000D9CF0E940000E2CF0E940000EBCF0C94B3
:10065000000008951F920F920FB60F9211240BB64F
:100660000F922F933F934F935F936F937F938F934B
:100670009F93AF93BF93EF93FF9380E992E085DE62
:10068000FF91EF91BF91AF919F918F917F916F916A
:100690005F914F913F912F910F900BBE0F900FBE26
:1006A0000F901F9018951F920F920FB60F92112462
:1006B0000BB60F922F938F939F93EF93FF93E0913D
:1006C000A002F091A1028081E091A602F091A70220
:1006D00082FD12C090818091A9028F5F8F7320915B
:1006E000AA02821751F0E091A902F0E0E057FD4F15
:1006F000958F8093A90201C08081FF91EF919F9116
:100700008F912F910F900BBE0F900FBE0F901F90E7
:100710001895CF93DF93282F30E0F901E95BFD4F67
:100720008491F901EF5FFD4FD491F901E554FE4F3B
:10073000C491CC2389F08111B0DEEC2FF0E0EE0FF4
:10074000FF1FEF55FE4FA591B491EC91ED2381E091
:1007500090E021F480E002C080E090E0DF91CF9152
:1007600008951F93CF93DF93282F30E0F901E95BC1
:10077000FD4F8491F901EF5FFD4FD491F901E554EC
:10078000FE4FC491CC23C1F0162F811186DEEC2FD1
:10079000F0E0EE0FFF1FE957FE4FA591B4918FB720
:1007A000F894111105C09C91ED2FE095E92302C04A
:1007B000EC91ED2BEC938FBFDF91CF911F910895BA
:1007C000CF92DF92EF92FF920F931F93CF93DF931D
:1007D0006C018B017A01EC01C058DD4F888187FFE5
:1007E00004C0FB011182108224C08CE08C9D90011A
:1007F0008D9D300D11248881A901480F511D87FD61
:100800005A958091BD0390E04817590794F4888168
:10081000A901480F511D87FD5A95CA01FA01EE0F33
:10082000FF1F8E0F9F1FFC01E35DFC4F808186FD43
:1008300019C088818F5F88838CE08C9D90018D9D8D
:10084000300D11248881A901480F511D87FD5A954B
:100850008091BD0390E048175907B4F488818C302B
:100860003CF112C08881280F311D87FD3A95F901AE
:10087000EE0FFF1F2E0F3F1FF901E35DFC4F80813C
:1008800060E08F736EDFD5CFF8018081918104968F
:1008900080349C4918F480E49CE904C0F80180810C
:1008A00091810496F701918380838FEF888344C000
:1008B000F801408151818881B901680F711D87FD60
:1008C0007A95CB01FB01EE0FFF1F8E0F9F1FFC01DE
:1008D000E35DFC4F81819281840F951FF701918325
:1008E00080838881A901480F511D87FD5A95CA014F
:1008F000FA01EE0FFF1F8E0F9F1FFC01E35DFC4FFF
:10090000808186FF19C08881280F311D87FD3A95A7
:10091000F901EE0FFF1F2E0F3F1FF901E35DFC4FA2
:10092000808161E08F73DF91CF911F910F91FF90D4
:10093000EF90DF90CF9015CFDF91CF911F910F9166
:10094000FF90EF90DF90CF900895CF93DF93FC015D
:100950002381211111C0EC011616170614F461E071
:1009600001C060E08881FDDE61E08981FADE60E03F
:100970008981DF91CF91F5CEDF91CF910895CF930B
:10098000DF93EC01862F688349832A8361E0DBDDF6
:1009900061E08981D8DD61E08A81D5DD61E08A810D
:1009A000E0DE81E08B83DF91CF9108951F920F925B
:1009B0000FB60F9211240BB60F922F933F934F93C4
:1009C0005F936F937F938F939F93AF93BF93EF93B7
:1009D000FF9348E251E064E271E080E090E0F0DEF5
:1009E000FF91EF91BF91AF919F918F917F916F9107
:1009F0005F914F913F912F910F900BBE0F900FBEC3
:100A00000F901F9018951F920F920FB60F921124FE
:100A10000BB60F922F933F934F935F936F937F93F8
:100A20008F939F93AF93BF93EF93FF9348EA50E068
:100A300064EA70E083E090E0C3DEFF91EF91BF9144
:100A4000AF919F918F917F916F915F914F913F9166
:100A50002F910F900BBE0F900FBE0F901F90189507
:100A60001F920F920FB60F9211240BB60F922F9375
:100A70003F934F935F936F937F938F939F93AF9326
:100A8000BF93EF93FF9348E950E064E970E082E0A0
:100A900090E096DEFF91EF91BF91AF919F918F9182
:100AA0007F916F915F914F913F912F910F900BBE6E
:100AB0000F900FBE0F901F9018951F920F920FB6B8
:100AC0000F9211240BB60F922F933F934F935F9386
:100AD0006F937F938F939F93AF93BF93EF93FF9306
:100AE00048E850E064E870E081E090E069DEFF9162
:100AF000EF91BF91AF919F918F917F916F915F9196
:100B00004F913F912F910F900BBE0F900FBE0F9002
:100B10001F901895FC0180EF93E2A4E7B9E480836D
:100B20009183A283B38384839583A683B7838087CD
:100B30009187A287B38784879587A687B787808B9D
:100B4000918BA28BB38B848B958BA68BB78B808F6D
:100B5000918FA28FB38F848F958FA68FB78F80A32D
:100B600091A3A2A3B3A384A395A3A6A3B7A3DF01D4
:100B70009C96E458FF4F40EF53E264E779E4AE17E8
:100B8000BF0729F04D935D936D937D93F8CF089542
:100B90001F920F920FB60F9211240BB60F922F9344
:100BA0003F934F935F936F937F938F939F93AF93F5
:100BB000BF93CF93DF93EF93FF9383E0AADDEC0124
:100BC00082E0A7DDC80FD91F8EE0A3DDC80FD91FB3
:100BD0008FE09FDDC80FD91F82E19BDDC80FD91FB1
:100BE00083E197DDC80FD91F87E193DDC80FD91FB7
:100BF00089E18FDDC80FD91F85E28BDDC80FD91FB2
:100C000083E287DDC80FD91F81E283DDC80FD91FBA
:100C10008FE17FDDC80FD91F8DE27BDDC80FD91FA3
:100C20008BE277DDC80FD91F89E273DDC80FD91FAA
:100C300087E26FDDC80FD91F8BE16BDDC80FD91FAD
:100C40008DE167DDC80FD91F8FE263DDC80FD91FA3
:100C500080E25FDD8C0F9D1F21E0181619060CF055
:100C600020E02093740480916F0490917004A0910F
:100C70007104B09172040196A11DB11D80936F049F
:100C800090937004A0937104B0937204FF91EF915C
:100C9000DF91CF91BF91AF919F918F917F916F9194
:100CA0005F914F913F912F910F900BBE0F900FBE10
:100CB0000F901F9018951F920F920FB60F9211244C
:100CC0008F9380917304823019F481E080938502C0
:100CD0008F910F900FBE0F901F901895FC012481EB
:100CE00035816217730720F480819181009729F480
:100CF0001092860286E892E00895860F971F089565
:100D0000CF92DF92EF92FF920F931F93CF93DF93D7
:100D10006C017A018B01C0E0D0E0CE15DF0589F0CF
:100D2000D8016D918D01D601ED91FC910190F0817A
:100D3000E02DC6011995892B11F47E0102C0219680
:100D4000ECCFC701DF91CF911F910F91FF90EF90F2
:100D5000DF90CF9008950E94201CFC01808191813A
:100D6000009711F00C94701660E070E0CB010895CC
:100D7000CF93C82FE1EBF4E08383682F8281F1DC0D
:100D8000E9EAF4E0C3836C2F8281EBDCE1EAF4E072
:100D9000C3836C2F8281CF91E4CC8EEC93E0BADEDA
:100DA00081E08093730409D681E0E2CFCF93DF9393
:100DB000CDB7DEB764970FB6F894DEBF0FBECDBFD8
:100DC00080917404882309F497C083E0A2DC21E0B9
:100DD000892B09F420E0298382E09BDC21E0892B28
:100DE00009F420E02A838EE094DC21E0892B09F4C9
:100DF00020E02B838FE08DDC21E0892B09F420E0BB
:100E00002C8382E186DC21E0892B09F420E02D830C
:100E100083E17FDC21E0892B09F420E02E8387E148
:100E200078DC21E0892B09F420E02F8389E171DC53
:100E300021E0892B09F420E0288785E26ADC21E0A3
:100E4000892B09F420E0298783E263DC21E0892BE8
:100E500009F420E02A8781E25CDC21E0892B09F497
:100E600020E02B878FE155DC21E0892B09F420E07D
:100E70002C878DE24EDC21E0892B09F420E02D87C0
:100E80008BE247DC21E0892B09F420E02E8789E200
:100E900040DC21E0892B09F420E02F8787E239DC50
:100EA00021E0892B09F420E0288B8BE132DC21E062
:100EB000892B09F420E0298B8DE12BDC21E0892BA3
:100EC00009F420E02A8B8FE224DC21E0892B09F44D
:100ED00020E02B8B80E21DDC21E0892B09F420E04F
:100EE0002C8BFE013196A5E8B4E0CE014596219108
:100EF0002D93E817F907D9F720918504809186048E
:100F000090E0820F911D892B39F081E08093B40429
:100F100061E08091B30425DC2091870480918804EE
:100F200090E0820F911D892B39F081E08093AC0411
:100F300061E08091AB0415DC2091890480918A04E2
:100F400090E0820F911D20919604820F911D2091B7
:100F50009704820F911D20919804820F911D892B77
:100F600079F081E08093A40461E08091A304649609
:100F70000FB6F894DEBF0FBECDBFDF91CF91F1CB9E
:100F800064960FB6F894DEBF0FBECDBFDF91CF9150
:100F900008951F920F920FB60F9211242F933F9333
:100FA0008F939F93AF93BF9380918C0290918D020A
:100FB000A0918E02B0918F0230918B0223E0230F1B
:100FC0002D3720F40196A11DB11D05C026E8230F81
:100FD0000296A11DB11D20938B0280938C029093E9
:100FE0008D02A0938E02B0938F0280918702909120
:100FF0008802A0918902B0918A020196A11DB11DBB
:101000008093870290938802A0938902B0938A020A
:10101000BF91AF919F918F913F912F910F900FBEF4
:101020000F901F901895FC0124813581232B31F4FA
:1010300021E061157105A1F0FB0108C0FC01808170
:1010400091816115710531F421E0FC0180818823D3
:1010500039F005C00E942D1C21E0892B09F020E009
:10106000822F08950F931F93CF93DF93EC01888114
:101070009981009729F02A813B812617370788F448
:101080008B016F5F7F4F0E943C1B009761F099833B
:1010900088831B830A832C813D81232B11F4FC015F
:1010A000108281E001C080E0DF91CF911F910F910C
:1010B0000895EF92FF920F931F93CF93DF931F92A8
:1010C0001F92CDB7DEB78C0169831A82FC01E480E0
:1010D000F580FFEFEF1AFF0AB701C4DF882381F024
:1010E000F8012081318184819581BE016F5F7F4F3E
:1010F000820F931F0E94361CF801F582E48281E082
:101100000F900F90DF91CF911F910F91FF90EF9073
:101110000895CF93DF93EC0188819981009711F0B6
:101120000E94A41A198218821D821C821B821A82B4
:10113000DF91CF910895EF92FF920F931F93CF937A
:10114000DF93EC017B018A01BA018CDF811103C0BE
:10115000CE01DFDF07C01D830C83B7018881998131
:101160000E94361CCE01DF91CF911F910F91FF900D
:10117000EF900895CF93DF93EC016115710551F065
:10118000FB0101900020E9F73197AF01461B570B97
:10119000D2DF01C0BEDFCE01DF91CF910895CF93A2
:1011A000DF93EC01FB018617970751F06081718195
:1011B0006115710521F044815581BDDF01C0A9DFB2
:1011C000CE01DF91CF910895FC01808191810C9433
:1011D000A41A0F931F93CF93DF93CDB7DEB7619718
:1011E0000FB6F894DEBF0FBECDBF8C01CB01F80166
:1011F00011821082138212821582148250E0BE0185
:101200006F5F7F4F0E947316BE016F5F7F4FC801F3
:10121000B1DF61960FB6F894DEBF0FBECDBFDF9190
:10122000CF911F910F910895CF93DF9300D000D0FD
:10123000CDB7DEB710926F04109270041092710453
:101240001092720460916B0470916C044AE0CE01BC
:101250000196BFDFCE01019641D3CE010196B4DFE6
:1012600080E090E0AAE7B4E48093FA039093FB0354
:10127000A093FC03B093FD0381E080934A0426967B
:101280000FB6F894DEBF0FBECDBFDF91CF910895AA
:101290000F931F93CF93DF9300D000D0CDB7DEB76D
:1012A0008C01093E83E0180738F0003D87E01807FD
:1012B00028F000ED17E002C008EE13E04AE0B801A4
:1012C000CE01019686DFCE01019608D3CE010196AC
:1012D0007BDF9091C403903398F58091C50328E893
:1012E00030E0281B310987FD3395220F331F220F71
:1012F000331F021713078CF08091C60348E552E0B4
:10130000481B510987FD5395440F551F440F551F26
:101310009801401751070CF49A0122503109220F0D
:10132000331F4FB7F894892F90E0FC01EE0FFF1F99
:101330008E0F9F1FFC01E35DFC4F328321834FBF63
:1013400026960FB6F894DEBF0FBECDBFDF91CF91CA
:101350001F910F9108954F925F926F927F928F929B
:101360009F92AF92BF92CF92DF92EF92FF92CF9374
:10137000DF93C0916B04D0916C04BE0180E090E0DB
:101380000E9430184B015C014090FA035090FB031F
:101390006090FC037090FD03A30192010E9461190B
:1013A0006B017C0120E030E0A9010E94F7191816BA
:1013B0005CF420E030E048EC52E4C701B6010E9442
:1013C000F71918165CF01FC020E030E048EC52EC32
:1013D000C701B6010E942C1887FF15C020E030E03D
:1013E00048EC52E4C301B2010E9462196093FA030F
:1013F0007093FB038093FC039093FD030E94CB1931
:10140000CB0146DF0BC08092FA039092FB03A092BF
:10141000FC03B092FD03CE013BDFBFDC10926F04F2
:10142000109270041092710410927204DF91CF91A7
:10143000FF90EF90DF90CF90BF90AF909F908F90F4
:101440007F906F905F904F900895FC011182108201
:101450001382128215821482A2CECF93DF9300D022
:1014600000D0CDB7DEB7BC01CE010196EEDFCE01D4
:10147000019634D2CE010196A7DE83E080937304F7
:1014800026960FB6F894DEBF0FBECDBFDF91CF9189
:101490000895FC0111821082138212821582148237
:1014A0006115710549F0FB0101900020E9F73197C2
:1014B000AF01461B570B3FCE0895BF92CF92DF92EC
:1014C000EF92FF920F931F93CF93DF93CDB7DEB7C9
:1014D0002C970FB6F894DEBF0FBECDBF6C016FE640
:1014E00072E0CE010796D5DF6FE672E0C6019BDDA4
:1014F000BB24B3948111B12CE12CF12CD6011496AC
:101500008D919C911597E816F90608F046C1B70130
:10151000C601E4DBDC01EC914E2FEE0F550B660BA0
:10152000770BFA01E654F109E531F10508F0E7C05F
:101530008827EC57FF4F8F4F0C94071ACE01079660
:10154000ADD2882309F405C1CE01079606DCF80167
:1015500060837183828393836FE672E0CE01079686
:1015600009DEF7C0CE01079699D2882309F4F4C0AA
:10157000CE010796F2DBD8016D937D938D939C93FA
:1015800013976FE672E0CE010796F4DDE5C0CE0159
:10159000079684D2882309F4E2C0CE010796DDDBEA
:1015A000F80160837183828393836FE672E0CE01DA
:1015B0000796E0DDD4C0CE01079670D2882309F4E7
:1015C000D1C0CE010796C9DBD8016D937D938D9371
:1015D0009C9313976FE672E0CE010796CBDDC2C0F5
:1015E000CE0107965BD2882309F4BFC0CE010796CF
:1015F000B4DBF80160837183828393836FE672E0CA
:10160000CE010796B7DDB1C0CE01079647D2882339
:1016100009F4AEC0CE010796A0DBD8016D937D938F
:101620008D939C9313976FE672E0CE010796A2DD2F
:101630009FC0CE01079632D2882309F49CC0CE0108
:1016400007968BDBF80160837183828393836FE657
:1016500072E0CE0107968EDD8EC0CE0107961ED2B7
:10166000882309F48BC0CE01079677DBD8016D93F0
:101670007D938D939C9313976FE672E0CE0107964E
:1016800079DD7CC0CE01079609D2882309F479C0A0
:10169000CE01079662DBF8016083718382839383B6
:1016A0006FE672E0CE01079665DD6BC0CE0107964E
:1016B000F5D1882309F468C0CE0107964EDBD80126
:1016C0006D937D938D939C9313976FE672E0CE019B
:1016D000079650DD59C0CE010796E0D1882309F462
:1016E00056C0CE01079639DBF8016083718382838F
:1016F00093836FE672E0CE0107963CDD48C0B701E8
:10170000C601ECDADC018C91803344F4B701C601E8
:10171000E5DAFC0180818E3251F4BAC0B701C6010E
:10172000DDDADC018C918A330CF4B2C0EFCFB70163
:10173000C601D4DAFC0180818C3209F4A9C0B7015A
:10174000C601CCDADC018C918D3209F4A1C0B12C38
:1017500020C00EEC13E01DC006ED13E01AC00AED28
:1017600013E017C00EED13E014C002EE13E011C039
:1017700006EE13E00EC002ED13E00BC00AEE13E01C
:1017800008C00EEE13E005C002EF13E002C006EF42
:1017900013E0FFEFEF1AFF0AB1CECE0107967ED11C
:1017A000882341F0CE010796D8DAF801608371836F
:1017B00082839383B1100BC06AE672E0CE0101967A
:1017C00068DECE0101968AD0CE010196FDDC20EFC5
:1017D00033E244E759E46091D6037091D7038091D6
:1017E000D8039091D9030E942C18811110C08091C8
:1017F000530490915404A0915504B09156048093E1
:10180000D6039093D703A093D803B093D90320EFC6
:1018100033E244E759E46091DA037091DB0380918D
:10182000DC039091DD030E942C18811110C080917F
:10183000570490915804A0915904B0915A04809390
:10184000DA039093DB03A093DC03B093DD0320EF76
:1018500033E244E759E46091DE037091DF03809145
:10186000E0039091E1030E942C18811123C0809124
:101870005B0490915C04A0915D04B0915E04809340
:10188000DE039093DF03A093E003B093E10312C063
:10189000B701C60123DADC018C918C3211F46EE2BF
:1018A00005C0B701C6011ADAFC016081CE010796B6
:1018B00000DC6FCFCE01079687DC8B2D2C960FB600
:1018C000F894DEBF0FBECDBFDF91CF911F910F9176
:1018D000FF90EF90DF90CF90BF900895EF92FF922E
:1018E0000F931F93CF93DF93CDB7DEB72F970FB62C
:1018F000F894DEBF0FBECDBF8C01809173041B86B0
:101900001A861D861C861F861E864AE0BE016F5FF2
:101910007F4F90E00E947D16BE016F5F7F4FCE012A
:101920000A9628DCBE01665F7F4FCE0101968DDDF1
:10193000F80124813581E080F1800D811E81E11460
:10194000F104B9F12115310599F0020F131FB80107
:10195000CE01019687DB882361F129813A818D814F
:101960009E81B701820F931F0E94361C1E830D8338
:101970004D815E8169817A8180E992E0C1D942E03E
:1019800050E06DE672E080E992E0BAD9CE010196AE
:101990001BDCCE010A9618DC2F960FB6F894DEBF3A
:1019A0000FBECDBFDF91CF911F910F91FF90EF90B0
:1019B0000895CE010196ADDBDBCFCF93DF9300D04E
:1019C00000D0CDB7DEB760E772E0CE01019661DDF1
:1019D000CE01019683DFCE010196F6DB26960FB687
:1019E000F894DEBF0FBECDBFDF91CF9108950F9366
:1019F0001F93CF93DF9300D000D0CDB7DEB78C011B
:101A000063E772E010DB811114C066E772E0C80181
:101A10000ADB811110C069E772E0C80104DB8111A3
:101A20000CC060E772E0C801FEDA882321F1E3E030
:101A300005C0E0E003C0E1E001C0E2E08091730492
:101A400094E0E99FF0011124ED58FB4FE80FF11DE0
:101A5000828180937304833061F46CE772E0CE017D
:101A6000019617DDCE01019639DFCE010196ACDB80
:101A700001C0A3DF81E026960FB6F894DEBF0FBE4B
:101A8000CDBFDF91CF911F910F910895BC0187ECDD
:101A900093E085DB81E08093CD0308956FE672E0EB
:101AA000C2DA91E0811190E0892F0895CF93DF93FE
:101AB00000D000D0CDB7DEB7789484B5826084BD05
:101AC00084B5816084BD85B5826085BD85B5816042
:101AD00085BD80916E00816080936E0010928100C0
:101AE000809181008260809381008091810081607B
:101AF000809381008091800081608093800080913C
:101B0000B10084608093B1008091B00081608093C7
:101B1000B00080919100826080939100809191004B
:101B2000816080939100809190008160809390000B
:101B30008091A10082608093A1008091A1008160CA
:101B40008093A1008091A00081608093A00080918B
:101B50002101826080932101809121018160809325
:101B600021018091200181608093200180917A0081
:101B7000846080937A0080917A00826080937A00FA
:101B800080917A00816080937A0080917A008068E9
:101B900080937A001092C100F89414BC15BC16BC56
:101BA00089EF87BD84B5826084BD85B5836085BDBE
:101BB00080916E00826080936E001092800010927F
:101BC000810080E690EF909385008093840080915F
:101BD000810082608093810080916F00816080939A
:101BE0006F007894E091A002F091A10282E08083DE
:101BF000E0919C02F0919D021082E0919E02F09192
:101C00009F0280E180831092A802E091A402F091EB
:101C1000A50286E08083E091A202F091A302808178
:101C200080618083E091A202F091A30280818860AC
:101C30008083E091A202F091A3028081806880837A
:101C4000E091A202F091A30280818F7D808361E008
:101C50008DE00E94A30260E083E00E94A30260E0A6
:101C600082E00E94A30260E08EE00E94A30260E096
:101C70008FE00E94A30260E082E10E94A30260E084
:101C800083E10E94A30260E087E10E94A30260E07A
:101C900089E10E94A30260E085E20E94A30260E065
:101CA00083E20E94A30260E081E20E94A30260E05E
:101CB0008FE10E94A30260E08DE20E94A30260E037
:101CC0008BE20E94A30260E089E20E94A30260E02E
:101CD00087E20E94A30260E08BE10E94A30260E021
:101CE0008DE10E94A30260E08FE20E94A30260E007
:101CF00080E20E94A3028091C403803308F052C0A6
:101D000061E089E30E94A3028091C403E82FF0E020
:101D10009F01220F331FE20FF31FE35DFC4F908101
:101D2000907C996390831092C5031092C6036CE077
:101D30000E94FB199CE0899FB001112440E050E013
:101D40009A01260F371FF901EE0FFF1F2E0F3F1FBD
:101D5000F901E35DFC4F908196FD17C04F5F5F4F27
:101D60004C30510569F7813009F0BFC610928000F0
:101D700082E0809381001092850010928400B19AD5
:101D800080916F00826080936F00E091C403F0E067
:101D9000CF01880F991FE80FF91FE35DFC4F808189
:101DA0008064808380E090E073DA28E14AE16CE1AE
:101DB00089E994E00E94BF0461E088E20E94A302E6
:101DC00061E08CE20E94A30261E08AE20E94A30229
:101DD00026E246E367E381EB94E00E94BF0428E338
:101DE0004CE36DE389EA94E00E94BF042EE34EE2E7
:101DF00060E381EA94E00E94BF0400E610EF88E708
:101E0000282E8CEE382E0E94D606809184028823DC
:101E100001F1109284026EEB73E0CE01019615DBA6
:101E2000CE010196E4DDF82ECE010196CDD9F11058
:101E30000BC06EEB73E0CE01019607DBCE0101967D
:101E400025DECE010196C0D96FE672E08EEB93E0FD
:101E500091D9809173048130B1F008F443C6823087
:101E600009F498C2833009F43DC667E672E0CE01FA
:101E700001960FDBCE010196F0DACE010196A4D9CE
:101E8000109273042FC68091CD03882309F42AC6CB
:101E90001092CD0367EC73E0CE010196D6DACE0145
:101EA00001960BDBF82ECE0101968ED9FF2009F4A6
:101EB00019C668E272E0CE010196EBDACE01019616
:101EC0000DDDCE01019680D96091CE037091CF03D4
:101ED0008091D0039091D1030E94C619643071059E
:101EE00064F4623071050CF04CC26115710571F03B
:101EF0006130710509F47DC0CBC16430710509F40E
:101F000027C26C31710509F43CC2C2C1209153044F
:101F10003091540440915504509156046091D60379
:101F20007091D7038091D8039091D9030E942C1807
:101F300087FF05C080E090E0A0E8BFEB04C080E030
:101F400090E0A0E8BFE38093FA039093FB03A09393
:101F5000FC03B093FD032091570430915804409145
:101F6000590450915A046091DA037091DB03809117
:101F7000DC039091DD030E942C1887FF05C080E0F0
:101F800090E0A0E8BFEB04C080E090E0A0E8BFE3F1
:101F90008093FE039093FF03A0930004B093010489
:101FA00020915B0430915C0440915D0450915E048B
:101FB0006091DE037091DF038091E0039091E10373
:101FC0000E942C1887FF05C080E090E0A0E8BFEBDE
:101FD00004C080E090E0A0E8BFE380930204909307
:101FE0000304A0930404B093050480E00E94B806A3
:101FF000C8C1C0905304D0905404E0905504F090B0
:1020000056048090D6039090D703A090D803B09048
:10201000D903A5019401C701B6010E942C188111B2
:1020200025C02091DA033091DB034091DC0350910D
:10203000DD03609157047091580480915904909188
:102040005A040E942C18882381F21092FE031092E9
:10205000FF0310920004109201041092FA031092F0
:10206000FB031092FC031092FD0332C0A501940102
:10207000C701B601F1D787FF11C080E090E0A0E86A
:10208000BFE38093FE039093FF03A0930004B093FB
:102090000104A7019601C501B40110C080E090E0E1
:1020A000A0E8BFEB8093FE039093FF03A09300048E
:1020B000B0930104A5019401C701B6010E94611902
:1020C0006093FA037093FB038093FC039093FD03EA
:1020D000C0905704D0905804E0905904F0905A04EE
:1020E0008090DA039090DB03A090DC03B090DD03D6
:1020F000A5019401C701B601AFD7811111C010929B
:102100000604109207041092080410920904109219
:10211000020410920304109204041092050432C0C9
:10212000A5019401C701B60197D787FF11C080E0D0
:1021300090E0A0E8BFE38093060490930704A09387
:102140000804B0930904A7019601C501B40110C0A9
:1021500080E090E0A0E8BFEB809306049093070432
:10216000A0930804B0930904A5019401C701B60126
:102170000E94611960930204709303048093040425
:10218000909305048090FA039090FB03A090FC03C9
:10219000B090FD03C0900204D0900304E0900404CA
:1021A000F0900504A7019601C501B4010E94F7193A
:1021B0001816CCF5A5019401C701B6010E9461195A
:1021C0009B01AC010E94621960930A0470930B0496
:1021D00080930C0490930D04A7019601C701B601EA
:1021E0000E94621960930E0470930F048093100490
:1021F00090931104A50194010E9461196093120447
:1022000070931304809314049093150480E090E07D
:10221000A0E8BFE38093160490931704A0931804DA
:10222000B0931904E2CEA7019601C501B4010E9442
:1022300061199B01AC010E94621960930A047093BA
:102240000B0480930C0490930D04A5019401C50127
:10225000B4010E94621960930E0470930F0480937E
:10226000100490931104A70196010E9461196093D4
:102270001204709313048093140490931504109225
:102280001604109217041092180410921904ADCE7F
:102290006091D2037091D3038091D4039091D503C0
:1022A0000E94C6196430710531F06530710531F056
:1022B0006330710569F50E94140963C010926F04C0
:1022C00010927004109271041092720460916B0469
:1022D00070916C044AE0CE0101960E94E908CE019B
:1022E0000196FCDACE0101960E94E40860916B042D
:1022F00070916C0480E090E0B3D66093FA03709321
:10230000FB038093FC039093FD0310924A0439C0B1
:102310006091F2037091F3038091F4039091F503BF
:102320000E94C6196430710560F120EF33E244E782
:1023300059E46091EA037091EB038091EC03909172
:10234000ED038AD6882369F080914A048823C9F076
:1023500010926F0410927004109271041092720423
:1023600010C060E472E0CE01019693D8CE010196D0
:1023700074D8CE0101960E94E4088EEC93E00E948E
:102380008A0580917304813009F0ACC392E0909388
:102390007304A8C30E94D60680918502882309F49D
:1023A000A1C363E472E0CE01019673D8CE01019619
:1023B00095DACE0101960E94E4086091CE037091F7
:1023C000CF038091D0039091D103E0D764307105A1
:1023D00064F4623071050CF083C36115710571F00E
:1023E0006130710509F4F3C052C26430710509F41B
:1023F00038C26C31710509F473C349C2109385006A
:10240000009384002091530430915404409155046A
:10241000509156046091D6037091D7038091D803F0
:102420009091D90319D6882331F16091FA03709104
:10243000FB038091FC039091FD03A8D781EB94E00E
:102440000E94A5042091FA033091FB034091FC0304
:102450005091FD0360915304709154048091550490
:10246000909156042FD76093530470935404809333
:10247000550490935604209157043091580440918C
:10248000590450915A046091DA037091DB038091F2
:10249000DC039091DD03E0D5882331F16091FE03E8
:1024A0007091FF0380910004909101046FD789EA35
:1024B00094E00E94A5042091FE033091FF03409117
:1024C0000004509101046091570470915804809168
:1024D000590490915A04F6D66093570470935804A7
:1024E0008093590490935A0420915B0430915C04CA
:1024F00040915D0450915E046091DE037091DF03B2
:102500008091E0039091E103A7D5882331F1609198
:10251000020470910304809104049091050436D75D
:1025200081EA94E00E94A504209102043091030402
:10253000409104045091050460915B0470915C0427
:1025400080915D0490915E04BDD660935B047093AE
:102550005C0480935D0490935E0420915304309159
:10256000540440915504509156046091D6037091E3
:10257000D7038091D8039091D9036ED58111B0C251
:1025800020915704309158044091590450915A04B5
:102590006091DA037091DB038091DC039091DD039D
:1025A0005BD581119DC220915B0430915C04409108
:1025B0005D0450915E046091DE037091DF038091B1
:1025C000E0039091E10348D581118AC266C230923E
:1025D00085002092840020E030E040E85FE36091D5
:1025E000160470911704809118049091190434D541
:1025F000811190C08090530490905404A090550491
:10260000B09056042091D6033091D7034091D8035F
:102610005091D903C501B4011FD5882309F49DCF7A
:1026200040901204509013046090140470901504AC
:1026300020E030E0A901C301B201D9D6C090FE0369
:10264000D090FF03E0900004F090010487FD3CC0AF
:10265000A7019601C501B40135D660935304709368
:1026600054048093550490935604209106043091AD
:102670000704409108045091090460915704709137
:1026800058048091590490915A041CD660935704C1
:10269000709358048093590490935A0420910A042B
:1026A00030910B0440910C0450910D04C301B20110
:1026B00009D66093120470931304809314049093CA
:1026C0001504C701B6018FC020910E0430910F048C
:1026D0004091100450911104C301B201F3D56093ED
:1026E0001204709313048093140490931504A701AB
:1026F0009601C501B401E6D5609353047093540468
:102700008093550490935604C701B6013FD681EBE0
:1027100094E0A4C0C0905704D0905804E0905904AD
:10272000F0905A042091DA033091DB034091DC03EE
:102730005091DD03C701B6018FD4882309F40DCF72
:102740008090120490901304A0901404B09015048B
:1027500020E030E0A901C501B40149D687FD51C090
:102760004090FE035090FF036090000470900104BD
:10277000A301920160915304709154048091550417
:10278000909156049FD560935304709354048093A2
:10279000550490935604209106043091070440910B
:1027A000080450910904C701B6018CD56093570401
:1027B000709358048093590490935A0420910A040A
:1027C00030910B0440910C0450910D04C501B401EB
:1027D00079D560931204709313048093140490933A
:1027E0001504C301B201D2D581EB94E00E94A50487
:1027F0006091060470910704809108049091090487
:102800002AC020910E0430910F0440911004509181
:102810001104C501B40156D56093120470931304DA
:1028200080931404909315048090060490900704FC
:10283000A0900804B0900904A5019401C701B60155
:1028400041D5609357047093580480935904909332
:102850005A04C501B4019AD589EA94E00E94A504FE
:102860007CCE60916F04709170048091710490919E
:102870007204F6D32091F6033091F7034091F803E8
:102880005091F903B4D518160CF02AC106C1609115
:10289000D2037091D3038091D4039091D50376D560
:1028A0006430710539F065307105A9F06330710548
:1028B00009F078C080916F0490917004A091710428
:1028C000B091720485369105A105B10508F408C1DF
:1028D0000E94AB0905C180916F0490917004A09192
:1028E0007104B091720485369105A105B10508F413
:1028F000F7C08090FA039090FB03A090FC03B09087
:10290000FD0320E030E04AE754E4C501B401D9D426
:102910006B017C0120E030E0A90169D5181654F460
:1029200020E030E048EC52E4C701B60160D518164B
:1029300054F01DC020E030E048EC52ECC701B60175
:102940008BD387FF14C020E030E048EC52E4C5018F
:10295000B401B7D46093FA037093FB038093FC0334
:102960009093FD0318D5CB010E94480912C080E066
:1029700090E0AAE7B4E48093FA039093FB03A0935A
:10298000FC03B093FD0388EE93E00E9448090E9487
:10299000CD0610926F041092700410927104109280
:1029A00072049EC06091F2037091F3038091F4036E
:1029B0009091F503EBD46430710508F491C0C09098
:1029C000EA03D090EB03E090EC03F090ED0320EFEE
:1029D00033E244E759E4C701B6013ED3882309F442
:1029E0005FC080914A04882309F457C080916F0426
:1029F00090917004A0917104B09172048536910594
:102A0000A105B10508F46CC010926F041092700417
:102A1000109271041092720460906B0470906C04B8
:102A2000B30180E090E01CD34B015C019B01AC0141
:102A3000C701B601DCD4181684F4A5019401C701BE
:102A4000B6013FD420E030E048EC52E4D0D4181670
:102A5000D4F4C3018C599F4F0FC0A7019601C50143
:102A6000B4012FD420E030E048EC52E4C0D4181672
:102A700054F4C3018456910990936C0480936B04C1
:102A80000E9448092DC0C701B60185D470936C041B
:102A900060936B04CB010E9448090E94CD0620C0C0
:102AA0006DE472E0CE0101960E94490ACE010196C2
:102AB0000E946E0CCE0101960E94E40864E672E06A
:102AC000CE0101960E94490ACE0101960E946E0C29
:102AD000CE0101960E94E4088EEC93E00E948A05E4
:102AE000109285020E94F7028EC9823061F4109222
:102AF000900080939100109295001092940088BBF2
:102B00008093710042C9833069F41092A00082E082
:102B10008093A1001092A5001092A40089BB80931D
:102B2000720033C9811131C91092200182E0809373
:102B3000210110922501109224018ABB8093730019
:102B400024C98EEB93E00E94E40887EC93E00C9498
:102B5000E408109293021092920288EE93E0A0E0B3
:102B6000B0E08093940290939502A0939602B09364
:102B700097028AE192E0909391028093900285EC13
:102B800090E090939D0280939C0284EC90E090935F
:102B90009F0280939E0280EC90E09093A10280932C
:102BA000A00281EC90E09093A3028093A20282ECB9
:102BB00090E09093A5028093A40286EC90E090931D
:102BC000A7028093A6021092A9021092AA02109264
:102BD000AB021092AC021092B5041092B60410929F
:102BE000B7041092B8041092B4041092AD0410927D
:102BF000AE041092AF041092B0041092AC04109284
:102C0000A5041092A6041092A7041092A804109292
:102C1000A40410929D0410929E0410929F0410929E
:102C2000A00410929C0480E1E6E0F2E0A5E7B4E0A5
:102C300001900D928A95E1F710927304E5E8F4E0B3
:102C4000119284E0E939F807D9F7109253041092F1
:102C50005404109255041092560410925704109286
:102C600058041092590410925A0410925B04109266
:102C70005C0410925D0410925E0484EA96E09093E6
:102C80006C0480936B0410924A048EEC93E00E94D3
:102C90008A056FE672E087EC93E00E94490A809112
:102CA000BD038033A0F491E0980F9093BD0380930F
:102CB000C40390E0FC01EE0FFF1F8E0F9F1FFC016D
:102CC000E35DFC4F88EB9BE09283818303C08FEF31
:102CD0008093C4036FE672E08EEB93E00C94490A94
:102CE0006627772723C04532510518F4423008F093
:102CF00004C0FB011082CB010895BB27FB015527BF
:102D0000AA27880F991FAA1FA41710F0A41B839548
:102D10005051B9F7A05DAA3308F0A95DA1930097BF
:102D200079F7B111B1931192CB0186C16F927F9265
:102D30008F929F92AF92BF92CF92DF92EF92FF92CB
:102D40000F931F93CF93DF93EC017B016115710506
:102D500019F0DB018D939C938E010F5F1F4F7880DC
:102D6000872D90E049D1892B11F0E801F5CFBDE224
:102D70007B1205C00F5F1F4F7980C1E008C0EBE2F6
:102D80007E1204C08E010E5F1F4F7980C0E0680183
:102D9000F1E0CF1AD10843E050E06AE371E0C601E8
:102DA00033D1892BE9F4680122E0C20ED11C45E041
:102DB00050E065E371E0C60127D1892B21F4680159
:102DC00087E0C80ED11CE114F10419F0D701CD92AF
:102DD000DC92C111F9C060E070E080E89FE7FDC0BF
:102DE00043E050E062E371E0C6010ED1892B51F45B
:102DF000E114F10409F4EDC00E5F1F4FF7011183D8
:102E00000083E7C0680160E070E0CB0100E010E003
:102E1000F601D0EDD70DDA3050F52C2F2260622E5E
:102E20002C2F2870C2FF05C0211127C00F5F1F4F34
:102E300024C0222311F001501109A5E0B0E09B014C
:102E4000AC0126D24B015C01880C991CAA1CBB1C4E
:102E5000C501B4016D0F711D811D911D6839A9E96E
:102E60007A078A07A9E19A0740F0C66005C0DE3FED
:102E700051F4C3FD44C0C8606C2EBFEFCB1ADB0A0F
:102E80007080C62DC5CF2D2F2F7D2531C1F54081F6
:102E90004D3211F4C06106C04B3221F0319621E071
:102EA00030E006C03296D60111964C9122E030E017
:102EB000A0EDA40FAA3018F0E21BF30B20C040E0F5
:102EC00050E04038BCE05B075CF49A01220F331FEE
:102ED000220F331F420F531F440F551F4A0F511D1E
:102EE0003196DF0111972C91A0EDA20FAA3048F383
:102EF000C4FF03C0519541955109040F151FC1FF2F
:102F000007C0E114F10421F03197D701ED93FC9350
:102F1000A7D0C370C33019F06B017C0106C06B01F0
:102F20007C01F7FAF094F7F8F09420E030E0A90182
:102F3000C701B60191D0882309F443C017FF06C02A
:102F4000119501951109C1E5D1E002C0C9E6D1E0B2
:102F50005E01B8E1AB1AB1084601BE2DAF2D90E27B
:102F6000E92EF12C0E151F057CF0FE0125913591FF
:102F700045915491B4018B2F9A2FD3D04B01B82F88
:102F8000A92F0E191F09EECF2497F594E794CA15BF
:102F9000DB0541F76401EB2EFA2E8E2D880F8F2D65
:102FA000881F8F3F41F020E030E0A901C701B60142
:102FB00053D0811106C082E290E09093BA048093CE
:102FC000B904C701B60109C060E070E080E89FEF76
:102FD00004C060E070E080EC9FE7DF91CF911F912B
:102FE0000F91FF90EF90DF90CF90BF90AF909F90A8
:102FF0008F907F906F9008959111F6C0803219F0F4
:1030000089508550D0F70895FB01DC0141505040B4
:1030100088F08D9181341CF08B350CF4805E6591C5
:1030200061341CF06B350CF4605E861B611171F32A
:10303000990B0895881BFCCFDC01FC01672F71916F
:103040007723E1F7329704C07C916D93708362918E
:10305000AE17BF07C8F3089540D008F481E0089583
:10306000E89409C097FB3EF4909580957095619522
:103070007F4F8F4F9F4F9923A9F0F92F96E9BB27D8
:103080009395F695879577956795B795F111F8CF54
:10309000FAF4BB0F11F460FF1BC06F5F7F4F8F4FBF
:1030A0009F4F16C0882311F096E911C0772321F0B5
:1030B0009EE8872F762F05C0662371F096E8862F4D
:1030C00070E060E02AF09A95660F771F881FDAF7A4
:1030D000880F9695879597F90895990F0008550FD1
:1030E000AA0BE0E8FEEF16161706E807F907C0F08E
:1030F00012161306E407F50798F0621B730B840B96
:10310000950B39F40A2661F0232B242B252B21F46F
:1031100008950A2609F4A140A6958FEF811D811D0F
:1031200008950BD07BC06CD028F071D018F0952397
:1031300009F05DC062C01124A5C081D0A0F3959FA5
:10314000D1F3950F50E0551F629FF001729FBB278E
:10315000F00DB11D639FAA27F00DB11DAA1F649F3A
:103160006627B00DA11D661F829F2227B00DA11DED
:10317000621F739FB00DA11D621F839FA00D611D73
:10318000221F749F3327A00D611D231F849F600D94
:10319000211D822F762F6A2F11249F5750408AF0CD
:1031A000E1F088234AF0EE0FFF1FBB1F661F771F59
:1031B000881F91505040A9F79E3F510570F017C0ED
:1031C00061C05F3FECF3983EDCF386957795679599
:1031D000B795F795E7959F5FC1F7FE2B880F911D77
:1031E0009695879597F9089599278827089597F9CF
:1031F0009F6780E870E060E008959FEF80EC08959D
:1032000000240A94161617061806090608950024C5
:103210000A9412161306140605060895092E03943F
:10322000000C11F4882352F0BB0F40F4BF2B11F4B3
:1032300060FF04C06F5F7F4F8F4F9F4F089557FD12
:103240009058440F551F59F05F3F71F04795880F14
:1032500097FB991F61F09F3F79F0879508951216AB
:1032600013061406551FF2CF4695F1DF08C0161657
:1032700017061806991FF1CF869571056105089408
:103280000895E894BB2766277727CB0197F908951F
:1032900009D0A59F900DB49F900DA49F800D911D06
:1032A00011240895A29FB001B39FC001A39F700D88
:1032B000811D1124911DB29F700D811D1124911D3E
:1032C00008955058BB27AA270ED0A8CF99DF30F019
:1032D0009EDF20F031F49F3F11F41EF48ECF0EF4E8
:1032E000E095E7FB84CFE92FAADF80F3BA176207E6
:1032F00073078407950718F071F49EF5C2CF0EF49A
:10330000E0950B2EBA2FA02D0B01B90190010C01F5
:10331000CA01A0011124FF27591B99F0593F50F40D
:10332000503E68F11A16F040A22F232F342F442765
:10333000585FF3CF469537952795A795F04053955D
:10334000C9F77EF41F16BA0B620B730B840BBAF02D
:103350009150A1F0FF0FBB1F661F771F881FC2F798
:103360000EC0BA0F621F731F841F48F487957795AC
:103370006795B795F7959E3F08F0B3CF9395880F63
:1033800008F09927EE0F97958795089504D06894D3
:10339000B11178CF08955BDF88F09F5790F0B92F77
:1033A0009927B751A0F0D1F0660F771F881F991F9A
:1033B0001AF0BA95C9F712C0B13081F062DFB1E0FE
:1033C00008955FCF672F782F8827B85F39F0B93F0E
:1033D000CCF3869577956795B395D9F73EF490959C
:1033E0008095709561957F4F8F4F9F4F089575DE43
:1033F00008F48FEF0895991B79E004C0991F961780
:1034000008F0961B881F7A95C9F780950895EE0FEE
:10341000FF1F881F8BBF0790F691E02D1994CF9363
:10342000DF938230910510F482E090E0E091BD04DA
:10343000F091BE0420E030E0C0E0D0E0309711F120
:103440004081518148175907C0F04817590761F466
:1034500082819381209719F09B838A832BC090935C
:10346000BE048093BD0426C02115310519F0421712
:10347000530718F49A01BE01DF01EF010280F381C6
:10348000E02DDCCF2115310509F1281B390B243043
:10349000310590F412968D919C91139761157105E9
:1034A00021F0FB019383828304C09093BE04809338
:1034B000BD04FD01329644C0FD01E20FF31F81936C
:1034C0009193225031092D933C933AC02091BB0433
:1034D0003091BC04232B41F420910202309103026D
:1034E0003093BC042093BB04209100023091010270
:1034F0002115310541F42DB73EB74091040250919A
:103500000502241B350BE091BB04F091BC04E217CB
:10351000F307A0F42E1B3F0B2817390778F0AC01F6
:103520004E5F5F4F2417350748F04E0F5F1F5093D3
:10353000BC044093BB048193919302C0E0E0F0E0AF
:10354000CF01DF91CF9108950F931F93CF93DF9316
:10355000009709F48CC0FC0132971382128200910B
:10356000BD041091BE040115110581F42081318143
:10357000820F931F2091BB043091BC042817390798
:1035800079F5F093BC04E093BB0471C0D80140E02E
:1035900050E0AE17BF0750F412962D913C9113974F
:1035A000AD012115310509F1D901F3CF9D01DA01F2
:1035B0003383228360817181860F971F821793075F
:1035C00069F4EC0128813981260F371F2E5F3F4FA8
:1035D000318320838A819B8193838283452B29F4C5
:1035E000F093BE04E093BD0442C01396FC93EE93A7
:1035F0001297ED01499159919E01240F351FE21751
:10360000F30771F480819181840F951F02961196C2
:103610009C938E938281938113969C938E931297A1
:10362000E0E0F0E0D80112968D919C9113970097FD
:1036300019F0F8018C01F6CF8D919C9198012E5FC5
:103640003F4F820F931F2091BB043091BC04281779
:10365000390769F4309729F41092BE041092BD0422
:1036600002C0138212821093BC040093BB04DF914A
:10367000CF911F910F9108956F927F928F929F9299
:10368000AF92BF92CF92DF92EF92FF920F931F9370
:10369000CF93DF93EC01009781F4CB01DF91CF91C1
:1036A0001F910F91FF90EF90DF90CF90BF90AF9060
:1036B0009F908F907F906F90B2CEFC01E60FF71F26
:1036C0009C0122503109E217F30708F4A8C0D90180
:1036D0000D911C91119706171707A8F005301105D9
:1036E00008F49BC0C80104978617970708F495C093
:1036F00002501109061B170B019311936D937C93D4
:10370000CF0122DF8AC05B01A01AB10A4C01800EF2
:10371000911EA091BD04B091BE0440E050E0E12CA8
:10372000F12C109709F44AC0A815B905D1F56D9090
:103730007C901197630182E0C80ED11CCA14DB048F
:1037400080F1A3014A195B096A0182E0C80ED11C0D
:103750001296BC9012971396AC91B5E0CB16D1049B
:1037600040F0B282A38351834083D9016D937C934F
:103770000AC00E5F1F4FC301800F911FF901918393
:103780008083EB2DFA2FE114F10431F0D701139669
:10379000FC93EE93129741C0F093BE04E093BD04F6
:1037A0003CC08D919C9111974817590708F4AC01C2
:1037B0007D0112960D90BC91A02DB3CF8091BB04DA
:1037C0009091BC0488159905E1F446175707C8F491
:1037D0008091000290910102009741F48DB79EB74D
:1037E0004091040250910502841B950BE817F907DC
:1037F000B0F4F093BC04E093BB04F90171836083DF
:103800000CC0CB010CDE7C01009749F0A801BE0181
:103810001BD0CE0199DEC70104C0CE0102C080E0FA
:1038200090E0DF91CF911F910F91FF90EF90DF908B
:10383000CF90BF90AF909F908F907F906F900895A2
:1038400081E090E0F89419C0FB01DC0102C0019016
:103850000D9241505040D8F70895FB01DC018D9145
:10386000019080190110D9F3990B0895FB01DC0137
:1038700001900D920020E1F7089511E0C8E4D1E035
:1038800000E005C0802FFE01C2DD2196011DC93474
:0C389000D10780E00807B1F7F894FFCFE3
:10389C000000BF04800001030303030303030000C3
:1038AC0000000001020300000000E60180067F0119
:1038BC002C02B0018E01A201707265706172696E8A
:1038CC006720666F7220657865637574696F6E002A
:1038DC00453300657865637574696E6700455252AF
:1038EC004F522E20554E4B4E4F574E20434F4D4D61
:1038FC00414E44004530004532005731000D0A005E
:10390C00553500553400553600553700453100000B
:020000023000CC
:10E000000D9489F10D94B2F10D94B2F10D94B2F129
:10E010000D94B2F10D94B2F10D94B2F10D94B2F1F0
:10E020000D94B2F10D94B2F10D94B2F10D94B2F1E0
:10E030000D94B2F10D94B2F10D94B2F10D94B2F1D0
:10E040000D94B2F10D94B2F10D94B2F10D94B2F1C0
:10E050000D94B2F10D94B2F10D94B2F10D94B2F1B0
:10E060000D94B2F10D94B2F10D94B2F10D94B2F1A0
:10E070000D94B2F10D94B2F10D94B2F10D94B2F190
:10E080000D94B2F10D94B2F10D94B2F10D94B2F180
:10E090000D94B2F10D94B2F10D94B2F10D94B2F170
:10E0A0000D94B2F10D94B2F10D94B2F10D94B2F160
:10E0B0000D94B2F10D94B2F10D94B2F10D94B2F150
:10E0C0000D94B2F10D94B2F10D94B2F10D94B2F140
:10E0D0000D94B2F10D94B2F10D94B2F10D94B2F130
:10E0E0000D94B2F141546D656761323536300041AF
:10E0F000726475696E6F206578706C6F72657220DE
:10E1000073746B3530305632206279204D4C530099
:10E11000426F6F746C6F616465723E004875683F52
:10E1200000436F6D70696C6564206F6E203D200048
:10E130004350552054797065202020203D20005FF9
:10E140005F4156525F415243485F5F3D2000415658
:10E1500052204C696243205665723D20004743437C
:10E160002056657273696F6E203D20004350552024
:10E1700049442020202020203D20004C6F7720663D
:10E18000757365202020203D20004869676820665F
:10E190007573652020203D200045787420667573D6
:10E1A00065202020203D20004C6F636B2066757336
:10E1B000652020203D20004D617220203720323024
:10E1C000313300312E362E3800342E332E350056A2
:10E1D00023202020414444522020206F7020636F70
:10E1E00064652020202020696E73747275637469E1
:10E1F0006F6E2061646472202020496E74657272B3
:10E20000757074006E6F20766563746F7200726A49
:10E210006D702020006A6D70200057686174207056
:10E220006F72743A00506F7274206E6F7420737541
:10E2300070706F72746564004D7573742062652030
:10E2400061206C6574746572002000577269747483
:10E25000696E672045450052656164696E672045B7
:10E26000450045452065727220636E743D00504F35
:10E27000525400303D5A65726F2061646472003FF1
:10E280003D43505520737461747300403D454550C3
:10E29000524F4D207465737400423D426C696E6B41
:10E2A000204C454400453D44756D70204545505215
:10E2B0004F4D00463D44756D7020464C415348001B
:10E2C000483D48656C70004C3D4C69737420492F83
:10E2D0004F20506F72747300513D51756974005234
:10E2E0003D44756D702052414D00563D73686F7707
:10E2F00020696E7465727275707420566563746FF0
:10E30000727300593D506F727420626C696E6B00BD
:10E310002A0011241FBECFEFD1E2DEBFCDBF01E046
:10E320000CBF12E0A0E0B2E0EEE1FDEF03E00BBFB6
:10E3300002C007900D92A030B107D9F712E0A0E01B
:10E34000B2E001C01D92AE30B107E1F70F9460F367
:10E350000D948DFE01E20EBF0FEF0DBF11241FBE05
:10E360000D9460F30D9400F020E030E040ED57E0B4
:10E3700005C0FA013197F1F72F5F3F4F2817390792
:10E38000C0F308959C01260F311DC901A0E0B0E043
:10E390002F5F3F4FABBFFC018791882361F08093D3
:10E3A000C6008091C00086FFFCCF8091C0008064D1
:10E3B0008093C000EACF08958DE08093C6008091DD
:10E3C000C00086FFFCCF8091C00080648093C000B5
:10E3D0008AE08093C6008091C00086FFFCCF8091C8
:10E3E000C00080648093C00008950F94C2F10F9420
:10E3F000DCF10895FC019081992359F09093C600B7
:10E400008091C00086FFFCCF8091C0008064809323
:10E41000C0003196992379F70895282F982F929567
:10E420009F70892F805D8A3308F0895F8093C600D2
:10E430008091C00086FFFCCF8091C00080648093F3
:10E44000C000822F8F70982F905D9A3308F0995FEB
:10E450009093C6008091C00086FFFCCF8091C000E1
:10E4600080648093C00008959C01FB01853691056E
:10E470001CF46330710594F0C90164E670E00F94F8
:10E480002EFE605D7F4F6093C6008091C00086FFC6
:10E49000FCCF8091C00080648093C0002B30310598
:10E4A00014F43297B4F0C90164E670E00F942EFEC4
:10E4B0006AE070E00F942EFE605D7F4F6093C600AF
:10E4C0008091C00086FFFCCF8091C0008064809363
:10E4D000C000C9016AE070E00F942EFEC0968093E0
:10E4E000C6008091C00086FFFCCF8091C000806490
:10E4F0008093C00008951F93182F8EE692EE60E07F
:10E500000F94C2F11093C6008091C00086FFFCCF2B
:10E510008091C00080648093C0000F94DCF11F9153
:10E5200008952F923F924F925F926F927F928F92B7
:10E530009F92AF92BF92CF92DF92EF92FF920F9392
:10E540001F93DF93CF93CDB7DEB762970FB6F894E2
:10E55000DEBF0FBECDBF382E622ECA01DB015C01CB
:10E560006D01772420E2222E2E010894411C511CBB
:10E570008BC081E0A81680E0B80681E0C80680E084
:10E58000D80628F0C601AA27BB270F940DF2BB2797
:10E59000AD2D9C2D8B2D0F940DF28A2D0F940DF225
:10E5A0002092C6008091C00086FFFCCF8091C00001
:10E5B00080648093C0009DE29093C6008091C0006B
:10E5C00086FFFCCF8091C00080648093C0002092C1
:10E5D000C6008091C00086FFFCCF8091C00080649F
:10E5E0008093C00019828601750188249924A1E0D6
:10E5F0003A1651F03A1620F0B2E03B1661F409C029
:10E600000BBFF701779007C0C7010F9477FE782EF4
:10E6100002C0F7017080872D0F940DF22092C60082
:10E620008091C00086FFFCCF8091C0008064809301
:10E63000C000872D8052F401EF70F0708F3520F408
:10E64000E40DF51D708204C0E40DF51D8EE280839B
:10E650000894E11CF11C011D111D0894811C911CE2
:10E6600090E18916910409F0C2CF80E190E0A0E02A
:10E67000B0E0A80EB91ECA1EDB1E198AC2010F9493
:10E68000FAF10F94DCF16A94662009F072CF629679
:10E690000FB6F894DEBF0FBECDBFCF91DF911F91B3
:10E6A0000F91FF90EF90DF90CF90BF90AF909F9031
:10E6B0008F907F906F905F904F903F902F90089534
:10E6C0002F923F924F925F926F927F928F929F9282
:10E6D000AF92BF92CF92DF92EF92FF920F931F9370
:10E6E000DF93CF93CDB7DEB7CD53D1400FB6F894BB
:10E6F000DEBF0FBECDBF01E20EBF0FEF0DBF94B75F
:10E70000F894A89514BE80916000886180936000A1
:10E7100010926000789493FF05C0E0910002F091A0
:10E7200001021995279A2F9A8091C00082608093E8
:10E73000C00080E18093C40088E18093C1000000A4
:10E74000EE24FF24870144E0A42EB12CCC24DD2448
:10E7500024C0C5010197F1F70894E11CF11C011DCB
:10E76000111D21E2E2162EE4F20620E0020720E06D
:10E77000120718F031E0C32ED12CC801B70127ECE5
:10E780003BE140E050E00F9441FE611571058105C9
:10E79000910519F485B1805885B98091C00087FD35
:10E7A00003C0C114D104A9F2A6014F5F5F4FC25E3E
:10E7B000DE4F59834883CE51D140C25EDE4F8881FF
:10E7C0009981CE51D140019711F00D9410FEC05D9A
:10E7D000DE4F19821882C053D14060E0C15DDE4F28
:10E7E0001882CF52D14088249924C35DDE4F19820C
:10E7F0001882CD52D140C05EDE4F188219821A8233
:10E800001B82C052D140CE5CDE4F188219821A8220
:10E810001B82C253D140EE24FF2487010BBFF701B6
:10E8200007911691C45CDE4F19830883CC53D14005
:10E830000D940BFEC25EDE4F28813981CE51D1404E
:10E840002130310509F52091C600C25EDE4F1982E4
:10E850001882CE51D14022C02F5F3F4F4F4F5F4FA4
:10E86000213082E138078AE7480780E0580780F0C6
:10E87000C45CDE4FE881F981CC53D140EF5FFF4F9C
:10E8800019F0EE27FF27099420E030E040E050E047
:10E890008091C00087FFE0CF2091C600C35DDE4FAE
:10E8A00048815981CD52D1404F5F5F4FC35DDE4FEC
:10E8B00059834883CD52D140213209F063C64A3092
:10E8C000510508F05FC60894811C911C53E0851621
:10E8D000910409F059C600E010E018C081E280936D
:10E8E000C6008091C00086FFFCCF8091C00080648C
:10E8F0008093C0002F5F3F4F2931310579F70F9486
:10E90000DCF10F5F1F4F0530110519F020E030E0FA
:10E91000E5CF10920A0210920B0210920C02109294
:10E920000D02109206021092070210920802109235
:10E930000902109202021092030210920402109235
:10E9400005028FEE90EE60E00F94F5F180E191EE1C
:10E9500060E00F94C2F18091C00087FFFCCF9091DE
:10E96000C600903608F09F759032B8F09093C600BC
:10E970008091C00086FFFCCF8091C00080648093AE
:10E98000C000A0E2A093C6008091C00086FFFCCF2B
:10E990008091C00080648093C000983409F4D7C18E
:10E9A0009934B8F4923409F459C1933458F490333B
:10E9B00019F1903308F4E3C59F33A1F1903409F0C5
:10E9C000DEC5BDC0953409F470C1963409F0D7C5D1
:10E9D00098C1923509F42BC2933538F49C3409F46C
:10E9E000F5C1913509F0CBC518C2963509F445C279
:10E9F000993509F0C4C567C483E792EE62E00F94CD
:10EA0000F5F110920602109207021092080210927D
:10EA1000090210920A0210920B0210920C0210923C
:10EA20000D0213C18FE792EE62E00F94F5F18FEEC5
:10EA300090EE60E00F94F5F181E291EE60E00F94CA
:10EA4000C2F187EB91EE60E00F94F5F180E391EE77
:10EA500060E00F94C2F184EE90EE60E00F94F5F167
:10EA60008FE391EE60E00F94C2F186E090E061E008
:10EA700070E00F9434F20F94DCF18DE591EE60E0DC
:10EA80000F94C2F189EC91EE60E00F94F5F18EE401
:10EA900091EE60E00F94C2F183EC91EE60E00F9490
:10EAA000F5F18CE691EE60E00F94C2F18EE10F94E7
:10EAB0000DF288E90F940DF281E00F940DF20F949E
:10EAC000DCF18BE791EE60E00F94C2F119E0E0E039
:10EAD000F0E010935700E4918E2F0F940DF20F94F5
:10EAE000DCF18AE891EE60E00F94C2F1E3E0F0E03F
:10EAF00010935700E4918E2F0F940DF20F94DCF1D8
:10EB000089E991EE60E00F94C2F1E2E0F0E0109349
:10EB10005700E4918E2F0F940DF20F94DCF188EAE8
:10EB200091EE60E00F94C2F1E1E0F0E01093570045
:10EB30001491812F0F940DF20F94DCF107CF8BE825
:10EB400092EE62E00F94F5F18BE492EE60E00F94A8
:10EB5000F5F10F94DCF100E010E019C0C8016F2D51
:10EB60000F947FFEFF2031F489E492EE60E00F9471
:10EB7000C2F10BC0F092C6008091C00086FFFCCFAE
:10EB80008091C00080648093C0000F5F1F4FC80158
:10EB900081519F41A0E0B0E0ABBFFC01F790BAE229
:10EBA000FB1621F0E2E000301E07C1F60F94DCF105
:10EBB0000F94DCF187E592EE60E00F94F5F10F948D
:10EBC000DCF1CC24DD2400E010E01EC0C8010F946D
:10EBD00077FEF82E882331F489E492EE60E00F94FA
:10EBE000C2F10BC08093C6008091C00086FFFCCFAD
:10EBF0008091C00080648093C000FE1419F00894D6
:10EC0000C11CD11C0F5F1F4FC80181519F41A0E063
:10EC1000B0E0ABBFFC01E790FAE2EF1621F022E092
:10EC20000030120799F60F94DCF10F94DCF182E6C4
:10EC300092EE60E00F94C2F1C60161E070E00F94C3
:10EC400034F20F94DCF10F94DCF110920202109276
:10EC50000302109204021092050278CE89E992EE26
:10EC600062E00F94F5F1279A2F9A16C02F9880E052
:10EC700090E0E0EDF7E03197F1F7019684369105E9
:10EC8000C1F72F9A80E090E0E0EDF7E03197F1F7DF
:10EC9000019684369105C1F78091C00087FFE6CFC9
:10ECA0008091C00087FFFCCF64C485EA92EE62E0E9
:10ECB0000F94F5F140910202509103026091040219
:10ECC0007091050281E020E10F9491F2809102029F
:10ECD00090910302A0910402B091050280509F4FD1
:10ECE000AF4FBF4F8093020290930302A0930402A0
:10ECF000B093050280509041A040B04008F426CE69
:10ED0000A4CF83EB92EE62E00F94F5F140910602FE
:10ED100050910702609108027091090280E020E1A1
:10ED20000F9491F28091060290910702A09108023F
:10ED3000B091090280509F4FAF4FBF4F80930602A2
:10ED400090930702A0930802B0930902FFCD80ECD4
:10ED500092EE62E00F94F5F183E792EE60E00F949B
:10ED6000F5F18FE792EE60E00F94F5F18BE892EE0B
:10ED700060E00F94F5F189E992EE60E00F94F5F10F
:10ED800085EA92EE60E00F94F5F183EB92EE60E09D
:10ED90000F94F5F180EC92EE60E00F94F5F187ECC2
:10EDA00092EE60E00F94F5F188ED92EE60E00F9442
:10EDB000F5F18FED92EE60E00F94F5F18AEE92EEB0
:10EDC00060E00F94F5F183E093EEBDCD87EC92EE19
:10EDD00062E00F94F5F181E40F947BF282E40F94EA
:10EDE0007BF283E40F947BF284E40F947BF285E45E
:10EDF0000F947BF286E40F947BF287E40F947BF20E
:10EE000088E40F947BF28AE40F947BF28BE40F94F6
:10EE10007BF28CE40F947BF299CD88ED92EE62E068
:10EE20000F94F5F1772473948824992409C48FED05
:10EE300092EE62E00F94F5F140910A0250910B02BC
:10EE400060910C0270910D0282E020E10F9491F22A
:10EE500080910A0290910B02A0910C02B0910D02D8
:10EE600080509F4FAF4FBF4F80930A0290930B0289
:10EE7000A0930C02B0930D0269CD8AEE92EE62E08F
:10EE80000F94F5F184EE90EE60E00F94F5F18FECC5
:10EE900091EE60E00F94F5F1662477244301CC5D98
:10EEA000DE4F19821882C452D140D401C301B695F5
:10EEB000A79597958795CA5DDE4F88839983AA8326
:10EEC000BB83C652D140CC5DDE4FA881B981C4520C
:10EED000D1401196CC5DDE4FB983A883C452D14096
:10EEE000CD0162E070E00F9434F2B0E2B093C6005E
:10EEF0008091C00086FFFCCF8091C0008064809329
:10EF0000C000EDE2E093C6008091C00086FFFCCF18
:10EF10008091C00080648093C000F0E2F093C6004E
:10EF20008091C00086FFFCCF8091C00080648093F8
:10EF3000C000CA5DDE4FE880F9800A811B81C6529D
:10EF4000D140BB27A12F902F8F2D0F940DF2CA5DBA
:10EF5000DE4F8881C652D1400F940DF2B0E2FB2EF5
:10EF6000F092C6008091C00086FFFCCF8091C00067
:10EF700080648093C0000DE30093C6008091C000C0
:10EF800086FFFCCF8091C00080648093C00010E2B7
:10EF90001093C6008091C00086FFFCCF8091C00016
:10EFA00080648093C0008BBEF3012791C65DDE4F65
:10EFB0002883CA52D140A22EBB24CC24DD2408943D
:10EFC000611C711C811C911C8BBEF3018791282E42
:10EFD0003324442455240894611C711C811C911C09
:10EFE0008BBEF3013791C55DDE4F3883CB52D140E4
:10EFF0000894611C711C811C911C8BBEF30147910C
:10F00000C45DDE4F4883CC52D140ADEFEA2EAFEF66
:10F01000FA2EAFEF0A2FAFEF1A2F6E0C7F1C801E57
:10F02000911E142D032DF22CEE24EA0CFB1C0C1D5A
:10F030001D1D0F940DF220E22093C6008091C000A8
:10F0400086FFFCCF8091C00080648093C000C65DC5
:10F05000DE4F8881CA52D1400F940DF230E23093D6
:10F06000C6008091C00086FFFCCF8091C000806404
:10F070008093C000C45DDE4F8881CC52D1400F9494
:10F080000DF240E24093C6008091C00086FFFCCFA5
:10F090008091C00080648093C000C55DDE4F888190
:10F0A000CB52D1400F940DF250E25093C6008091A4
:10F0B000C00086FFFCCF8091C00080648093C000B8
:10F0C0008FEFE8168FEFF80680E0080780E018075A
:10F0D00031F484E092EE60E00F94C2F1DFC0D80119
:10F0E000C7018070907CA070B0708050904CA040A0
:10F0F000B040D1F52FEF3FE340E050E0E222F322B1
:10F1000004231523CA5DDE4FA880B980CA80DB8046
:10F11000C652D140AE0CBF1CC01ED11EAA0CBB1CD7
:10F12000CC1CDD1C8EE092EE60E00F94C2F1BB2798
:10F13000A12F902F8F2D0F940DF28E2D0F940DF285
:10F1400030E23093C6008091C00086FFFCCF8091F2
:10F15000C00080648093C0004EE34093C60080915D
:10F16000C00086FFFCCF87C08EE09EEFA0E0B0E03D
:10F17000E822F9220A231B239CE0E91694E9F90608
:10F1800090E0090790E0190709F088C0C45DDE4FE0
:10F19000A881CC52D140EA2EFF2400E010E0102FCD
:10F1A0000F2DFE2CEE24C55DDE4FB881CB52D14031
:10F1B000EB0EF11C011D111DD601C501817090706F
:10F1C000A070B070DC0199278827E80EF91E0A1F8D
:10F1D0001B1F20EF30E040E050E0A222B322C42207
:10F1E000D52241E1AA0CBB1CCC1CDD1C4A95D1F7F1
:10F1F000EA0CFB1C0C1D1D1D81E090E0A0E0B0E0BE
:10F20000282239224A225B2235E1220C331C441C7D
:10F21000551C3A95D1F7E20CF31C041D151D57013E
:10F220006801AA0CBB1CCC1CDD1C85E192EE60E0E1
:10F230000F94C2F1C801AA27BB270F940DF2BB2778
:10F24000A12F902F8F2D0F940DF28E2D0F940DF274
:10F2500090E29093C6008091C00086FFFCCF809121
:10F26000C00080648093C000AEE3A093C60080918C
:10F27000C00086FFFCCF8091C00080648093C000F6
:10F28000C601AA27BB270F940DF2BB27AD2D9C2DDD
:10F290008B2D0F940DF28A2D0F940DF20F94DCF14B
:10F2A000CC5DDE4FE881F981C452D140F99709F471
:10F2B0004DCBF4E0EF2EF12C012D112D6E0C7F1CA7
:10F2C000801E911EF2CD83E093EE62E00F94F5F183
:10F2D0008AE192EE60E00F94C2F18091C00087FF56
:10F2E000FCCF1091C6001F751093C6008091C0001E
:10F2F00086FFFCCF8091C00080648093C0000F9493
:10F30000DCF1812F81548A3108F036C1163409F4BA
:10F3100095C0173490F4133409F44EC0143430F40B
:10F320001134F1F0123409F01DC130C0143409F465
:10F3300059C0153409F016C16BC01A3409F4C4C0A1
:10F340001B3438F4173409F48FC0183409F00AC19B
:10F35000A1C01B3409F4D2C01C3409F003C1E8C0B9
:10F360008FEF81B90DC082B1809582B980E090E0C5
:10F37000E0EDF7E03197F1F70196883C9105C1F790
:10F380008091C00087FFEFCF12B8EFC08FEF84B934
:10F390000DC085B1809585B980E090E0E0EDF7E0A3
:10F3A0003197F1F70196883C9105C1F78091C00033
:10F3B00087FFEFCF15B8D9C08FEF87B90DC088B1DF
:10F3C000809588B980E090E0E0EDF7E03197F1F7C3
:10F3D0000196883C9105C1F78091C00087FFEFCF6F
:10F3E00018B8C3C08FEF8AB90DC08BB180958BB9A7
:10F3F00080E090E0E0EDF7E03197F1F70196883C8E
:10F400009105C1F78091C00087FFEFCF1BB8ADC059
:10F410008FEF8DB90DC08EB180958EB980E090E0F0
:10F42000E0EDF7E03197F1F70196883C9105C1F7DF
:10F430008091C00087FFEFCF1EB897C08FEF80BBD1
:10F440000DC081B3809581BB80E090E0E0EDF7E0F6
:10F450003197F1F70196883C9105C1F78091C00082
:10F4600087FFEFCF11BA81C08FEF83BB0DC084B38C
:10F47000809584BB80E090E0E0EDF7E03197F1F714
:10F480000196883C9105C1F78091C00087FFEFCFBE
:10F4900014BA6BC08FEF809301010FC080910201FD
:10F4A00080958093020180E090E0E0EDF7E03197F5
:10F4B000F1F70196883C9105C1F78091C00087FF64
:10F4C000EDCF1092020151C08FEF809304010FC065
:10F4D0008091050180958093050180E090E0E0ED4A
:10F4E000F7E03197F1F70196883C9105C1F78091DB
:10F4F000C00087FFEDCF1092050137C08FEF8093DA
:10F5000007010FC08091080180958093080180E079
:10F5100090E0E0EDF7E03197F1F70196883C910536
:10F52000C1F78091C00087FFEDCF109208011DC088
:10F530008FEF80930A010FC080910B01809580931B
:10F540000B0180E090E0E0EDF7E03197F1F70196F4
:10F55000883C9105C1F78091C00087FFEDCF1092E4
:10F560000B0103C085E292EEEEC98091C00087FFD7
:10F57000FCCF8091C600EAC988E392EEE4C98CE131
:10F5800091EEE1C988249924933011F1943028F444
:10F59000913089F09230B8F408C0953061F195301F
:10F5A000F0F0963009F048C043C02B3109F042C951
:10F5B00091E06BE13FC96227C15DDE4F2883CF52E6
:10F5C000D14092E037C9B22FA0E0622793E032C960
:10F5D000822F90E0A82BB92B622794E02BC92E3004
:10F5E00009F039C3622795E0C05DDE4F19821882A9
:10F5F000C053D1401FC9E1E0F0E0EC0FFD1FC05D3A
:10F60000DE4F08811981C053D140E00FF11F2083E4
:10F610000F5F1F4FC05DDE4F19830883C053D14079
:10F6200062270A171B0709F005C9D80196E002C92D
:10F63000261709F010C303C0973009F0FBC87724E0
:10F640009981933109F412C19431C8F4963009F4C8
:10F65000D8C0973050F4923009F406C1933009F4C1
:10F660006DC0913009F059C253C0913109F477C08F
:10F67000923108F0BBC0903109F04FC2F5C098310B
:10F6800009F487C0993150F4953109F4EFC09531F0
:10F6900008F4C6C1963109F040C2C2C19A3109F4DA
:10F6A0006CC09A3108F491C09B3109F45BC09D3164
:10F6B00009F033C29D81903359F48F81882311F46E
:10F6C0009EE11CC0813011F091E018C098E916C08D
:10F6D000892F807591F0903539F4E0E0F0E089E011
:10F6E0008093570094910AC0983539F4E3E0F0E034
:10F6F00089E080935700949101C090E01A821B82A8
:10F700008D818C831D829E831F8227E030E009C299
:10F710001A8288E08B8381E48C8386E58D8382E581
:10F720008E8389E48F8383E5888780E589878FE5E9
:10F730008A8782E38B872BE030E0F3C18A818139AD
:10F7400041F0823941F0803911F48FE005C080E04A
:10F7500003C082E001C08AE01A828B8344C0772410
:10F76000739482C08D81882311F48EE12CC0813086
:10F7700011F081E028C088E926C01A82E1E0F0E0BB
:10F7800089E08093570084918B831C8224E030E0D1
:10F79000C8C18B81803589F48C81883039F4E2E0EE
:10F7A000F0E089E08093570084910DC0E0E0F0E044
:10F7B00089E080935700849106C0E3E0F0E089E09F
:10F7C0008093570084911A82DFCF8D81836C99E0FA
:10F7D000E1E0F0E0082E90935700E89507B600FCB2
:10F7E000FDCF1A821B8223E030E09BC180EC8A832C
:10F7F000CE5CDE4F188219821A821B82C253D1401E
:10F800008EC18A8190E0A0E0B0E0582F44273327D2
:10F8100022278B8190E0A0E0B0E0DC0199278827C7
:10F82000282B392B4A2B5B2B8D8190E0A0E0B0E098
:10F83000282B392B4A2B5B2B8C8190E0A0E0B0E089
:10F84000BA2FA92F982F8827282B392B4A2B5B2BCF
:10F85000220F331F441F551FC05EDE4F288339839C
:10F860004A835B83C052D1401A8259C13A81C95C34
:10F87000DE4F3883C753D140CA5CDE4F1882C6536F
:10F88000D1408B81C82EDD24CA5CDE4F488159816E
:10F89000C653D140C42AD52A933109F082C0CE5C28
:10F8A000DE4F88819981AA81BB81C253D1408050AB
:10F8B000904CA340B04030F583E0CE5CDE4FE88052
:10F8C000F9800A811B81C253D140F70100935B008C
:10F8D00080935700E89507B600FCFDCFCE5CDE4F65
:10F8E000088119812A813B81C253D14000501F4FAA
:10F8F0002F4F3F4FCE5CDE4F088319832A833B8313
:10F90000C253D140C05EDE4F488159816A817B81FC
:10F91000C052D140DE011B9631E08C9111962C91A2
:10F9200011971296C75CDE4F2883C953D140C85C3B
:10F93000DE4F1882C853D14090E0C85CDE4FE881AA
:10F94000F981C853D1408E2B9F2B0C01FA01609393
:10F950005B0030935700E89511244E5F5F4F6F4F67
:10F960007F4F0EEFE02E0FEFF02ECE0CDF1CC114F8
:10F97000D10499F685E0C05EDE4F088119812A81A5
:10F980003B81C052D140F80120935B008093570027
:10F99000E89507B600FCFDCF81E180935700E8951C
:10F9A00035C0C05EDE4F88819981AA81BB81C0527B
:10F9B000D140B695A795979587957C018601ABE0D8
:10F9C000AA2EB12CAC0EBD1E0BC0D5016D915D01F0
:10F9D000C7010F947FFE0894E11CF11C01501040F8
:10F9E0000115110591F7A60160E070E0440F551F65
:10F9F000661F771FC05EDE4FE880F9800A811B8199
:10FA0000C052D1404E0D5F1D601F711F1A82C05E33
:10FA1000DE4F488359836A837B83C052D1407FC0C5
:10FA2000FA80C55CDE4FF882CB53D140C65CDE4F16
:10FA30001882CA53D1408B81C82EDD24C65CDE4FAC
:10FA400008811981CA53D140C02AD12A1A828981DA
:10FA5000BE016D5F7F4F843121F59601C05EDE4FA0
:10FA6000E880F9800A811B81C052D1400BBFF701A9
:10FA700087919691DB018C9311969C936E5F7F4FDB
:10FA8000D801C7010296A11DB11DC05EDE4F88835B
:10FA90009983AA83BB83C052D14022503040F1F6F3
:10FAA00036C0C05EDE4F288139814A815B81C052F9
:10FAB000D1400894C108D108760100E010E0089414
:10FAC000C11CD11C0894E11CF11C011D111DE20E8A
:10FAD000F31E041F151F21BDBB27A52F942F832FB5
:10FAE00082BD2F5F3F4F4F4F5F4FF89A80B5DB01CC
:10FAF0008D93BD012E153F054007510761F7C05E8C
:10FB0000DE4F288339834A835B83C052D1409601FC
:10FB10002D5F3F4FFB01108204C080EC8A8322E0FE
:10FB200030E08BE18093C6008091C00086FFFCCF5F
:10FB30008091C00080648093C000C15DDE4FF88179
:10FB4000CF52D140F093C6008091C00086FFFCCF19
:10FB50008091C00080648093C000432F3093C60022
:10FB60008091C00086FFFCCF8091C00080648093AC
:10FB7000C000922F2093C6008091C00086FFFCCF6A
:10FB80008091C00080648093C0008EE08093C600A6
:10FB90008091C00086FFFCCF8091C000806480937C
:10FBA000C00065E1C15DDE4FE880CF52D1406E25D7
:10FBB00069276427FE01319610C090819093C6009A
:10FBC0008091C00086FFFCCF31968091C000806498
:10FBD0008093C0006927215030402115310569F715
:10FBE0006093C6008091C00086FFFCCF8091C0006A
:10FBF00080648093C00085B1805885B9772081F4F6
:10FC0000C15DDE4F0881CF52D1400F5FC15DDE4F35
:10FC10000883CF52D14090E0A0E0B0E00D941AF4F8
:10FC200027982F9880E090E020ED37E0F901319798
:10FC3000F1F7019684369105C9F700008091C00064
:10FC40008D7F8093C00081E180935700E895EE2777
:10FC5000FF270994FFCF90E00D941AF497FB092E2B
:10FC600007260AD077FD04D02ED006D000201AF443
:10FC7000709561957F4F0895F6F7909581959F4F08
:10FC80000895A1E21A2EAA1BBB1BFD010DC0AA1FDD
:10FC9000BB1FEE1FFF1FA217B307E407F50720F0F5
:10FCA000A21BB30BE40BF50B661F771F881F991F70
:10FCB0001A9469F760957095809590959B01AC01B9
:10FCC000BD01CF010895AA1BBB1B51E107C0AA1FAC
:10FCD000BB1FA617B70710F0A61BB70B881F991FED
:10FCE0005A95A9F780959095BC01CD010895F99991
:10FCF000FECF92BD81BDF89A992780B50895262F31
:10FD0000F999FECF1FBA92BD81BD20BD0FB6F89400
:0EFD1000FA9AF99A0FBE01960895F894FFCF63
:040000033000E000E9
:00000001FF