:1000000048C1000077C1000075C1000073C1000045
:1000100071C100006FC100006DC100006BC1000024
:1000200069C1000067C1000065C1000063C1000034
:1000300061C100005FC100005DC100005BC1000044
:1000400059C100003AC5000055C1000053C100006D
:100050001FC600009DC500004DC1000094C60000F1
:1000600049C1000048C300001DC3000043C1000097
:1000700041C100003FC100003DC100003BC1000084
:10008000EFC4000037C1000035C1000033C10000DB
:1000900031C100002FC100002DC100002BC10000A4
:1000A00029C1000027C10000AEC4000023C1000028
:1000B00021C100001FC100001DC1000077C4000065
:1000C00019C1000017C1000015C1000013C10000D4
:1000D00011C100000FC100000DC100000BC10000E4
:1000E00009C1000068026B025A025E026402A202A9
:1000F0006F02730279027D02810287028B028F02F6
:10010000A202950299029D02FE085A082709AC082E
:10011000C00827092709D50827092709270927091A
:100120002709E90827091209270927096E08830802
:1001300097084E414E494E495459494E46CDCCCC74
:100140003D0AD7233C17B7D13877CC2B329595E6AB
:10015000241FB14F0A000020410000C84200401C8B
:100160004620BCBE4CCA1B0E5AAEC59D7400002171
:1001700000240027002A002D003000330001010078
:1001800000040107010A0100002200250028002BBD
:10019000002E003100340002010000050108010BAF
:1001A00001000020002300260029002C002F00322F
:1001B000000001000003010601090105050505070E
:1001C0000508080808020202020A0A0808040404D2
:1001D00004010101010101010103030303030303FE
:1001E00003040707070C0C0C0C0C0C0C0C0202028D
:1001F0000206060606060606060B0B0B0B0B0B0B80
:100200000B0102102020080810204010204080021E
:10021000010201080402010102040810204080804C
:1002200040201008040201800402018040201008D0
:1002300004020108040201010204081020408001A8
:100240000204081020408000000A0B02090C0D0E69
:100250000807030401000000000000000000000087
:10026000000000000000000000000000000000008E
:10027000000000121110000000000000000000004B
:100280000000000000000000000000000000DD127F
:10029000D51211241FBECFEFD1E2DEBFCDBF00E0EB
:1002A0000CBF12E0A0E0B2E0E0EEF2E300E00BBF32
:1002B00002C007900D92AE35B107D9F724E0AEE544
:1002C000B2E001C01D92A239B207E1F711E0C8E423
:1002D000D1E000E006C021970109802FFE010E94B5
:1002E0002917C734D10780E00807A9F70E94FC0A44
:1002F0000C945F1985CE089580E090E00895FC018C
:10030000538D448D252F30E0842F90E0821B930B7A
:10031000541710F0CF96089501970895FC01918D20
:10032000828D981761F0828DDF01A80FB11D5D9657
:100330008C91928D9F5F9F73928F90E008958FEFC5
:100340009FEF0895FC01918D828D981731F0828D79
:10035000E80FF11D858D90E008958FEF9FEF0895D0
:10036000FC01918D228D892F90E0805C9F4F821B34
:1003700091098F73992708958EE692E0F1DF21E0CD
:10038000892B09F420E0822F0895FC01848DDF0180
:10039000A80FB11DA35ABF4F2C91848D90E00196F8
:1003A0008F739927848FA689B7892C93A089B189E7
:1003B0008C9180648C93938D848D981306C00288F1
:1003C000F389E02D80818F7D80830895EF92FF92E5
:1003D0000F931F93CF93DF93EC0181E0888F9B8D68
:1003E0008C8D981305C0E889F989808185FD23C02B
:1003F000F62E0B8D10E00F5F1F4F0F731127E02EAD
:100400008C8DE8120BC00FB607FCFACFE889F9898A
:10041000808185FFF5CFCE01B8DFF2CF8B8DFE0155
:10042000E80FF11DE35AFF4FF0820B8FEA89FB8939
:100430008081806207C0EE89FF896083E889F9893D
:1004400080818064808381E090E0DF91CF911F9173
:100450000F91FF90EF900895CF93DF93EC01888D7B
:100460008823C1F0EA89FB89808185FD05C0A889C0
:10047000B9898C9186FD0EC00FB607FCF5CF80813F
:1004800085FFF2CFA889B9898C9185FFEDCFCE0188
:100490007CDFE8CFDF91CF91089590E0FC013197A8
:1004A000E231F10508F04EC08827EE58FF4F8F4F1C
:1004B0000C942917809180008F7703C08091800071
:1004C0008F7D80938000089580918000877FF9CF91
:1004D00084B58F7702C084B58F7D84BD08958091E7
:1004E000B0008F7703C08091B0008F7D8093B00003
:1004F0000895809190008F7707C0809190008F7D44
:1005000003C080919000877F809390000895809130
:10051000A0008F7707C08091A0008F7D03C08091DD
:10052000A000877F8093A0000895809120018F779D
:1005300007C0809120018F7D03C080912001877FBB
:10054000809320010895CF93DF93282F30E0F901A5
:10055000E95BFD4F8491F901EF5FFD4FD491F90103
:10056000E554FE4FC491CC2389F0811196DFEC2F26
:10057000F0E0EE0FFF1FEF55FE4FA591B491EC9107
:10058000ED2381E090E021F480E002C080E090E083
:10059000DF91CF910895CF93DF9390E0FC01EF5F5F
:1005A000FD4F2491FC01E554FE4F8491882361F1B5
:1005B00090E0880F991FFC01E359FE4FC591D4913B
:1005C000FC01E957FE4FA591B491611109C09FB795
:1005D000F8948881209582238883EC912E230BC088
:1005E000623061F49FB7F8943881822F809583231D
:1005F0008883EC912E2B2C939FBF06C08FB7F89465
:10060000E8812E2B28838FBFDF91CF910895CF9360
:10061000C1E08EE692E0A4DE892B79F08EE692E0CE
:100620007DDE8A3019F4C0936202F3CF81328CF3FD
:10063000682F8CE993E037D4ECCFCF9108959CDEFE
:10064000811125C080E090E0892B41F080E090E0AE
:10065000892B21F00E94000081111BC080E090E0F6
:10066000892B41F080E090E0892B21F00E9400006E
:10067000811112C080E090E0892B99F080E090E039
:10068000892B79F00E940000811109C00895BFDF15
:10069000D9CF0E940000E2CF0E940000EBCF0C9463
:1006A000000008951F920F920FB60F9211240BB6FF
:1006B0000F922F933F934F935F936F937F938F93FB
:1006C0009F93AF93BF93EF93FF938EE692E05DDE2F
:1006D000FF91EF91BF91AF919F918F917F916F911A
:1006E0005F914F913F912F910F900BBE0F900FBED6
:1006F0000F901F9018951F920F920FB60F92112412
:100700000BB60F922F938F939F93EF93FF93E091EC
:100710007E02F0917F028081E0918402F091850257
:1007200082FD12C09081809187028F5F8F7320912C
:100730008802821751F0E0918702F0E0E259FD4F04
:10074000958F8093870201C08081FF91EF919F91E7
:100750008F912F910F900BBE0F900FBE0F901F9097
:1007600018951F93CF93DF93282F30E0F901E95BB1
:10077000FD4F8491F901EF5FFD4FD491F901E554EC
:10078000FE4FC491CC23C1F0162F811186DEEC2FD1
:10079000F0E0EE0FFF1FE957FE4FA591B4918FB720
:1007A000F894111105C09C91ED2FE095E92302C04A
:1007B000EC91ED2BEC938FBFDF91CF911F910895BA
:1007C000CF92DF92EF92FF920F931F93CF93DF931D
:1007D0006C018B017A01EC01C25ADD4F888187FFE1
:1007E00004C0FB011182108224C08CE08C9D90011A
:1007F0008D9D300D11248881A901480F511D87FD61
:100800005A9580919B0390E04817590794F488818A
:10081000A901480F511D87FD5A95CA01FA01EE0F33
:10082000FF1F8E0F9F1FFC01E55FFC4F808186FD3F
:1008300019C088818F5F88838CE08C9D90018D9D8D
:10084000300D11248881A901480F511D87FD5A954B
:1008500080919B0390E048175907B4F488818C304D
:100860003CF112C08881280F311D87FD3A95F901AE
:10087000EE0FFF1F2E0F3F1FF901E55FFC4F808138
:1008800060E08F736EDFD5CFF8018081918104968F
:1008900080349C4918F480E49CE904C0F80180810C
:1008A00091810496F701918380838FEF888344C000
:1008B000F801408151818881B901680F711D87FD60
:1008C0007A95CB01FB01EE0FFF1F8E0F9F1FFC01DE
:1008D000E55FFC4F81819281840F951FF701918321
:1008E00080838881A901480F511D87FD5A95CA014F
:1008F000FA01EE0FFF1F8E0F9F1FFC01E55FFC4FFB
:10090000808186FF19C08881280F311D87FD3A95A7
:10091000F901EE0FFF1F2E0F3F1FF901E55FFC4F9E
:10092000808161E08F73DF91CF911F910F91FF90D4
:10093000EF90DF90CF9015CFDF91CF911F910F9166
:10094000FF90EF90DF90CF900895CF93DF93FC015D
:100950002381211111C0EC011616170614F461E071
:1009600001C060E08881FDDE61E08981FADE60E03F
:100970008981DF91CF91F5CEDF91CF910895CF930B
:10098000DF93EC01862F688349832A8361E003DECD
:1009900061E0898100DE61E08A81FDDD61E08A81BC
:1009A000E0DE81E08B83DF91CF9108951F920F925B
:1009B0000FB60F9211240BB60F922F933F934F93C4
:1009C0005F936F937F938F939F93AF93BF93EF93B7
:1009D000FF9348E251E064E271E080E090E0F0DEF5
:1009E000FF91EF91BF91AF919F918F917F916F9107
:1009F0005F914F913F912F910F900BBE0F900FBEC3
:100A00000F901F9018951F920F920FB60F921124FE
:100A10000BB60F922F933F934F935F936F937F93F8
:100A20008F939F93AF93BF93EF93FF9348EA50E068
:100A300064EA70E083E090E0C3DEFF91EF91BF9144
:100A4000AF919F918F917F916F915F914F913F9166
:100A50002F910F900BBE0F900FBE0F901F90189507
:100A60001F920F920FB60F9211240BB60F922F9375
:100A70003F934F935F936F937F938F939F93AF9326
:100A8000BF93EF93FF9348E950E064E970E082E0A0
:100A900090E096DEFF91EF91BF91AF919F918F9182
:100AA0007F916F915F914F913F912F910F900BBE6E
:100AB0000F900FBE0F901F9018951F920F920FB6B8
:100AC0000F9211240BB60F922F933F934F935F9386
:100AD0006F937F938F939F93AF93BF93EF93FF9306
:100AE00048E850E064E870E081E090E069DEFF9162
:100AF000EF91BF91AF919F918F917F916F915F9196
:100B00004F913F912F910F900BBE0F900FBE0F9002
:100B10001F901895FC0180EF93E2A4E7B9E480836D
:100B20009183A283B38384839583A683B7838087CD
:100B30009187A287B38784879587A687B787808B9D
:100B4000918BA28BB38B848B958BA68BB78B808F6D
:100B5000918FA28FB38F848F958FA68FB78F80A32D
:100B600091A3A2A3B3A384A395A3A6A3B7A3DF01D4
:100B70009896E858FF4F40EF53E264E779E4AE17E8
:100B8000BF0729F04D935D936D937D93F8CF089542
:100B90001F920F920FB60F9211240BB60F922F9344
:100BA0003F934F935F936F937F938F939F93AF93F5
:100BB000BF93CF93DF93EF93FF9383E0C4DCEC010B
:100BC00082E0C1DCC80FD91F8EE0BDDCC80FD91F81
:100BD0008FE0B9DCC80FD91F82E1B5DCC80FD91F7F
:100BE00083E1B1DCC80FD91F87E1ADDCC80FD91F85
:100BF00089E1A9DCC80FD91F85E2A5DCC80FD91F80
:100C000083E2A1DCC80FD91F81E29DDCC80FD91F88
:100C10008FE199DCC80FD91F8DE295DCC80FD91F71
:100C20008BE291DCC80FD91F89E28DDCC80FD91F78
:100C300087E289DCC80FD91F8BE185DCC80FD91F7B
:100C40008DE181DCC80FD91F8FE27DDCC80FD91F71
:100C500080E279DC8C0F9D1F21E0181619060CF03C
:100C600020E020934704FF91EF91DF91CF91BF9156
:100C7000AF919F918F917F916F915F914F913F9134
:100C80002F910F900BBE0F900FBE0F901F901895D5
:100C90001F920F920FB60F9211248F9380914604EA
:100CA000823019F481E0809363028F910F900FBE20
:100CB0000F901F901895FC012481358162177307EE
:100CC00020F480819181009729F41092640284E6D7
:100CD00092E00895860F971F0895CF92DF92EF92CA
:100CE000FF920F931F93CF93DF936C017A018B01D7
:100CF000C0E0D0E0CE15DF0589F0D8016D918D01FF
:100D0000D601ED91FC910190F081E02DC60119957D
:100D1000892B11F47E0102C02196ECCFC701DF912F
:100D2000CF911F910F91FF90EF90DF90CF9008959A
:100D30000E944219FC0180819181009711F00C946E
:100D40009C1360E070E0CB010895CF93C82FE4E8D6
:100D5000F4E08383682F828104DDECE7F4E0C38351
:100D60006C2F8281FEDCE4E7F4E0C3836C2F828188
:100D7000CF91F7CC8CEA93E0CDDE81E080934604FE
:100D8000C2D381E0E2CF1F920F920FB60F921124CF
:100D90002F933F938F939F93AF93BF9380916A025A
:100DA00090916B02A0916C02B0916D02309169023A
:100DB00023E0230F2D3720F40196A11DB11D05C09E
:100DC00026E8230F0296A11DB11D2093690280938E
:100DD0006A0290936B02A0936C02B0936D028091B3
:100DE000650290916602A0916702B0916802019637
:100DF000A11DB11D8093650290936602A0936702C6
:100E0000B0936802BF91AF919F918F913F912F91C5
:100E10000F900FBE0F901F901895FC012481358113
:100E2000232B31F421E061157105A1F0FB0108C00D
:100E3000FC01808191816115710531F421E0FC0193
:100E40008081882339F005C00E944F1921E0892B49
:100E500009F020E0822F08950F931F93CF93DF9323
:100E6000EC0188819981009729F02A813B8126171E
:100E7000370788F48B016F5F7F4F0E945E180097E1
:100E800061F0998388831B830A832C813D81232B06
:100E900011F4FC01108281E001C080E0DF91CF916C
:100EA0001F910F910895EF92FF920F931F93CF938D
:100EB000DF931F921F92CDB7DEB78C0169831A8230
:100EC000FC01E480F580FFEFEF1AFF0AB701C4DFF1
:100ED000882381F0F8012081318184819581BE01D0
:100EE0006F5F7F4F820F931F0E945819F801F582A0
:100EF000E48281E00F900F90DF91CF911F910F91CD
:100F0000FF90EF900895CF93DF93EC018881998152
:100F1000009711F00E94C617198218821D821C8248
:100F20001B821A82DF91CF910895EF92FF920F9367
:100F30001F93CF93DF93EC017B018A01BA018CDF11
:100F4000811103C0CE01DFDF07C01D830C83B70111
:100F5000888199810E945819CE01DF91CF911F910C
:100F60000F91FF90EF900895CF93DF93EC016115FF
:100F7000710551F0FB0101900020E9F73197AF01B5
:100F8000461B570BD2DF01C0BEDFCE01DF91CF91F0
:100F90000895CF93DF93EC01FB018617970751F07B
:100FA000608171816115710521F044815581BDDF3A
:100FB00001C0A9DFCE01DF91CF910895FC018081AE
:100FC00091810C94C617FC01118210821382128247
:100FD00015821482DECFCF93DF9300D000D0CDB73F
:100FE000DEB7BC01CE010196EEDFCE0101961CD228
:100FF000CE010196E3DF83E08093460426960FB688
:10100000F894DEBF0FBECDBFDF91CF910895FC01F4
:101010001182108213821282158214826115710569
:1010200049F0FB0101900020E9F73197AF01461B21
:10103000570B7BCF0895BF92CF92DF92EF92FF9232
:101040000F931F93CF93DF93CDB7DEB72C970FB6D7
:10105000F894DEBF0FBECDBF6C016DE472E0CE012F
:101060000796D5DF6DE472E0C601D7DEBB24B394EA
:101070008111B12CE12CF12CF60184819581E816C7
:10108000F90608F02FC1B701C60115DEDC01EC91AD
:101090004E2FEE0F550B660B770BFA01E654F10954
:1010A000E531F10508F0D3C08827EC57FF4F8F4F8B
:1010B0000C942917CE01079697D2882309F4F1C022
:1010C000CE01079637DEF8016083718382839383B4
:1010D0006DE472E0CE01079647DFE3C0CE010796CC
:1010E00083D2882309F4E0C0CE01079623DED8011D
:1010F0006D937D938D939C9313976DE472E0CE0175
:10110000079632DFD1C0CE0107966ED2882309F44C
:10111000CEC0CE0107960EDEF80160837183828314
:1011200093836DE472E0CE0107961EDFC0C0CE014E
:1011300007965AD2882309F4BDC0CE010796FADD7E
:10114000D8016D937D938D939C9313976DE472E01A
:10115000CE01079609DFAEC0CE01079645D288239F
:1011600009F4ABC0CE010796E5DDF8016083718319
:10117000828393836DE472E0CE010796F5DE9DC015
:10118000CE01079631D2882309F49AC0CE01079682
:10119000D1DDD8016D937D938D939C9313976DE46E
:1011A00072E0CE010796E0DE8BC0CE0107961CD21E
:1011B000882309F488C0CE010796BCDDF80160835E
:1011C0007183828393836DE472E0CE010796CCDE57
:1011D0007AC0CE01079608D2882309F477C0CE01E1
:1011E0000796A8DDD8016D937D938D939C931397FB
:1011F0006DE472E0CE010796B7DE68C0CE010796B7
:10120000F3D1882309F465C0CE01079693DDF80178
:1012100060837183828393836DE472E0CE010796CD
:10122000A3DE57C0CE010796DFD1882309F454C04E
:10123000CE0107967FDDD8016D937D938D939C93AE
:1012400013976DE472E0CE0107968EDE45C0B701BC
:10125000C60131DDFC018081803344F4B701C60151
:101260002ADDDC018C918E3251F4B8C0B701C60181
:1012700022DDFC0180818A330CF4B0C0EFCFB701CE
:10128000C60119DDDC018C918C3209F4A7C0B701CD
:10129000C60111DDFC0180818D3209F49FC0B12CA3
:1012A0001DC00CEA13E01AC004EB13E017C008EBF2
:1012B00013E014C00CEB13E011C000EC13E00EC0FF
:1012C00004EC13E00BC000EB13E008C008EC13E0E3
:1012D00005C00CEC13E002C000ED13E0BFEFEB1A09
:1012E000FB0ACACECE0107967FD1882349F0CE01F2
:1012F000079620DDD8016D937D938D939C93139772
:10130000B1100BC068E472E0CE01019680DECE0120
:1013100001968AD0CE01019651DE20EF33E244E7F8
:1013200059E46091B4037091B5038091B603909134
:10133000B7030E944E15811110C080912D04909129
:101340002E04A0912F04B09130048093B4039093A5
:10135000B503A093B603B093B70320EF33E244E79D
:1013600059E46091B8037091B9038091BA039091E8
:10137000BB030E944E15811110C0809131049091E1
:101380003204A0913304B09134048093B803909355
:10139000B903A093BA03B093BB0320EF33E244E751
:1013A00059E46091BC037091BD038091BE0390919C
:1013B000BF030E944E15811123C080913504909186
:1013C0003604A0913704B09138048093BC03909305
:1013D000BD03A093BE03B093BF0312C0B701C60103
:1013E0006ADCFC0180818C3211F46EE205C0B70129
:1013F000C60161DCDC016C91CE01079654DD6ECF35
:10140000CE010796DBDD8B2D2C960FB6F894DEBF50
:101410000FBECDBFDF91CF911F910F91FF90EF9045
:10142000DF90CF90BF900895EF92FF920F931F939C
:10143000CF93DF93CDB7DEB72F970FB6F894DEBF0B
:101440000FBECDBF8C01809146041B861A861D8677
:101450001C861F861E864AE0BE016F5F7F4F90E0AC
:101460000E949F13BE016F5F7F4FCE010A967CDD05
:10147000BE01665F7F4FCE010196A5DDF801248194
:101480003581E080F1800D811E81E114F104B9F114
:101490002115310599F0020F131FB801CE010196F5
:1014A000DBDC882361F129813A818D819E81B7013E
:1014B000820F931F0E9458191E830D834D815E81F8
:1014C00069817A818EE692E008DC42E050E06BE4CC
:1014D00072E08EE692E001DCCE0101966FDDCE0176
:1014E0000A966CDD2F960FB6F894DEBF0FBECDBF07
:1014F000DF91CF911F910F91FF90EF900895CE0152
:10150000019601DDDBCFCF93DF9300D000D0CDB7C4
:10151000DEB76EE472E0CE01019679DDCE01019670
:1015200083DFCE0101964ADD26960FB6F894DEBF22
:101530000FBECDBFDF91CF9108950F931F93CF932F
:10154000DF9300D000D0CDB7DEB78C0161E572E04B
:1015500064DC811114C064E572E0C8015EDC8111B5
:1015600010C067E572E0C80158DC81110CC06EE460
:1015700072E0C80152DC882321F1E3E005C0E0E01D
:1015800003C0E1E001C0E2E08091460494E0E99FFD
:10159000F0011124EA5BFB4FE80FF11D828180937B
:1015A0004604833061F46AE572E0CE0101962FDDD6
:1015B000CE01019639DFCE01019600DD01C0A3DF27
:1015C00081E026960FB6F894DEBF0FBECDBFDF9147
:1015D000CF911F910F910895BC0185EA93E0D9DC6A
:1015E00081E08093AB0308956DE472E016DC91E036
:1015F000811190E0892F0895CF93DF93CDB7DEB7A7
:1016000064970FB6F894DEBF0FBECDBF789484B553
:10161000826084BD84B5816084BD85B5826085BDEE
:1016200085B5816085BD80916E00816080936E007C
:10163000109281008091810082608093810080916E
:10164000810081608093810080918000816080931F
:1016500080008091B10084608093B1008091B000DF
:1016600081608093B00080919100826080939100AE
:1016700080919100816080939100809190008160C1
:10168000809390008091A10082608093A10080915E
:10169000A10081608093A1008091A000816080936F
:1016A000A00080912101826080932101809121011D
:1016B00081608093210180912001816080932001CD
:1016C00080917A00846080937A0080917A008260B1
:1016D00080937A0080917A00816080937A00809173
:1016E0007A00806880937A001092C100F89414BC4C
:1016F00015BC16BC89EF87BD84B5826084BD85B5F5
:10170000836085BD80916E00826080936E00109230
:1017100080001092810080E690EF90938500809386
:1017200084008091810082608093810080916F00AD
:10173000816080936F007894E0917E02F0917F0247
:1017400082E08083E0917A02F0917B021082E09146
:101750007C02F0917D0280E1808310928602E0910C
:101760008202F091830286E08083E0918002F09112
:101770008102808180618083E0918002F09181020A
:10178000808188608083E0918002F0918102808175
:1017900080688083E0918002F091810280818F7D5A
:1017A000808361E08DE00E94CB0260E083E00E94D4
:1017B000CB0260E082E00E94CB0260E08EE00E94FB
:1017C000CB0260E08FE00E94CB0260E082E10E94E9
:1017D000CB0260E083E10E94CB0260E087E10E94DF
:1017E000CB0260E089E10E94CB0260E085E20E94CA
:1017F000CB0260E083E20E94CB0260E081E20E94C3
:10180000CB0260E08FE10E94CB0260E08DE20E949B
:10181000CB0260E08BE20E94CB0260E089E20E9492
:10182000CB0260E087E20E94CB0260E08BE10E9485
:10183000CB0260E08DE10E94CB0260E08FE20E946B
:10184000CB0260E080E20E94CB028091A203803351
:1018500008F052C061E089E30E94CB028091A203AC
:10186000E82FF0E09F01220F331FE20FF31FE55F27
:10187000FC4F9081907C996390831092A303109207
:10188000A4036CE00E941D173CE0839FB00111246B
:1018900040E050E09A01260F371FF901EE0FFF1FBD
:1018A0002E0F3F1FF901E55FFC4F908196FD17C099
:1018B0004F5F5F4F4C30510569F7813009F049C6E1
:1018C0001092800082E08093810010928500109237
:1018D0008400B19A80916F00826080936F00E091E4
:1018E000A203F0E0CF01880F991FE80FF91FE55F11
:1018F000FC4F8081806480832091A203203318F5FF
:101900003091A30388E890E0831B910937FD9395FC
:10191000880F991F880F991F883EA3E09A0714F437
:1019200088EE93E00297880F991F4FB7F89430E044
:10193000F901EE0FFF1F2E0F3F1FF901E55FFC4F6E
:10194000928381834FBF28E14AE16CE18CE694E009
:1019500016D861E088E20E94CB0261E08CE20E942E
:10196000CB0261E08AE20E94CB0226E246E367E313
:1019700084E894E004D828E34CE36DE38CE794E03A
:101980000E94BF042EE34EE260E384E794E00E94ED
:10199000BF0411E01E01B5E12B0E311C80914704FC
:1019A000882309F4A9C083E00E94A30221E0892BC7
:1019B00009F420E0298382E00E94A30221E0892B20
:1019C00009F420E02A838EE00E94A30221E0892B03
:1019D00009F420E02B838FE00E94A30221E0892BF1
:1019E00009F420E02C8382E10E94A30221E0892BEC
:1019F00009F420E02D8383E10E94A30221E0892BDA
:101A000009F420E02E8387E10E94A30221E0892BC4
:101A100009F420E02F8389E10E94A30221E0892BB1
:101A200009F420E0288785E20E94A30221E0892BA7
:101A300009F420E0298783E20E94A30221E0892B98
:101A400009F420E02A8781E20E94A30221E0892B89
:101A500009F420E02B878FE10E94A30221E0892B6B
:101A600009F420E02C878DE20E94A30221E0892B5B
:101A700009F420E02D878BE20E94A30221E0892B4C
:101A800009F420E02E8789E20E94A30221E0892B3D
:101A900009F420E02F8787E20E94A30221E0892B2E
:101AA00009F420E0288B8BE10E94A30221E0892B1E
:101AB00009F420E0298B8DE10E94A30221E0892B0B
:101AC00009F420E02A8B8FE20E94A30221E0892BF7
:101AD00009F420E02B8B80E20E94A30221E0892BF5
:101AE00009F420E02C8BFE013196A8E5B4E0819149
:101AF0008D93E215F305D9F720915804809159048C
:101B000090E0820F911D892B39F01093870461E0DA
:101B1000809186040E94B10320915A0480915B0455
:101B200090E0820F911D892B39F010937F0461E0C2
:101B300080917E040E94B10320915C0480915D0439
:101B400090E0820F911D20916904820F911D2091D8
:101B50006A04820F911D20916B04820F911D892BC5
:101B600039F01093770461E0809176040E94B1030C
:101B700080916202882301F1109262026CE973E0A5
:101B8000CE01019620DACE010196D7DCF82ECE01E7
:101B9000019614DAF1100BC06CE973E0CE010196E6
:101BA00012DACE01019618DDCE01019607DA6DE456
:101BB00072E08CE993E0D8D9809146048130B1F08D
:101BC00008F4C4C4823009F42AC2833009F4BEC4C4
:101BD00065E472E0CE0101961ADACE010196FBD9D6
:101BE000CE010196EBD910924604B0C48091AB03AC
:101BF000882309F4ABC41092AB0365EA73E0CE010D
:101C00000196E1D9CE01019616DAF82ECE010196A1
:101C1000D5D9FF2009F49AC46091AC037091AD034B
:101C20008091AE039091AF030E94E8166530710574
:101C300064F4623071050CF0E9C16115710551F071
:101C40006130710509F475C0B6C16C31710509F4D4
:101C5000DDC1B1C120912D0430912E0440912F049B
:101C6000509130046091B4037091B5038091B60334
:101C70009091B70313D787FF05C080E090E0A0E8FC
:101C8000BFEB04C080E090E0A0E8BFE38093D40302
:101C90009093D503A093D603B093D703209131043A
:101CA0003091320440913304509134046091B80370
:101CB0007091B9038091BA039091BB03EFD687FF6F
:101CC00005C080E090E0A0E8BFEB04C080E090E0B9
:101CD000A0E8BFE38093D8039093D903A093DA03DD
:101CE000B093DB03209135043091360440913704E2
:101CF000509138046091BC037091BD038091BE0384
:101D00009091BF03CBD687FF05C080E090E0A0E8AC
:101D1000BFEB04C080E090E0A0E8BFE38093DC0369
:101D20009093DD03A093DE03B093DF0380E00DD832
:101D30006DC1C0902D04D0902E04E0902F04F0903F
:101D400030048090B4039090B503A090B603B09097
:101D5000B703A5019401C701B601A0D6811124C023
:101D60002091B8033091B9034091BA035091BB035D
:101D70006091310470913204809133049091340465
:101D80008DD6882399F21092D8031092D90310921D
:101D9000DA031092DB031092D4031092D503109251
:101DA000D6031092D70331C0A5019401C701B60133
:101DB00075D687FF11C080E090E0A0E8BFE3809374
:101DC000D8039093D903A093DA03B093DB03A70160
:101DD0009601C501B40110C080E090E0A0E8BFEB1F
:101DE0008093D8039093D903A093DA03B093DB03D5
:101DF000A5019401C701B60186D76093D4037093FF
:101E0000D5038093D6039093D703C0903104D0902C
:101E10003204E0903304F09034048090B803909042
:101E2000B903A090BA03B090BB03A5019401C70108
:101E3000B60134D6811111C01092E0031092E10373
:101E40001092E2031092E3031092DC031092DD0380
:101E50001092DE031092DF0331C0A5019401C70187
:101E6000B6011CD687FF11C080E090E0A0E8BFE378
:101E70008093E0039093E103A093E203B093E30324
:101E8000A7019601C501B40110C080E090E0A0E870
:101E9000BFEB8093E0039093E103A093E203B09340
:101EA000E303A5019401C701B6012DD76093DC03BC
:101EB0007093DD038093DE039093DF038090D4035F
:101EC0009090D503A090D603B090D703C090DC03C8
:101ED000D090DD03E090DE03F090DF03A7019601D0
:101EE000C501B401A6D71816ACF5A5019401C70128
:101EF000B60109D79B01AC0107D76093E403709347
:101F0000E5038093E6039093E703A7019601C701D9
:101F1000B601FAD66093E8037093E9038093EA036D
:101F20009093EB03A5019401EED66093EC037093BC
:101F3000ED038093EE039093EF0380E090E0A0E840
:101F4000BFE38093F0039093F103A093F203B09367
:101F5000F303ECCEA7019601C501B401D4D69B01D1
:101F6000AC01D2D66093E4037093E5038093E6035B
:101F70009093E703A5019401C501B401C5D6609310
:101F8000E8037093E9038093EA039093EB03A701BE
:101F90009601B9D66093EC037093ED038093EE0342
:101FA0009093EF031092F0031092F1031092F2035A
:101FB0001092F303BBCE6091B0037091B103809196
:101FC000B2039091B30304D7635071096330710574
:101FD000E8F06091D0037091D1038091D203909189
:101FE000D303F6D66430710588F068E272E0CE0162
:101FF00001960DD8CE0101960E94EB07CE01019605
:102000000E94DE078CEA93E00E948A0580914604D4
:10201000813009F09BC282E08093460497C2809190
:102020006302882309F492C26091AC037091AD03FE
:102030008091AE039091AF03CBD66530710564F407
:10204000623071050CF080C26115710551F061308C
:10205000710509F4F3C03EC26C31710509F474C214
:1020600039C2A0E6B0EFB0938500A0938400209120
:102070002D0430912E0440912F0450913004609132
:10208000B4037091B5038091B6039091B70306D560
:10209000882331F16091D4037091D5038091D603E8
:1020A0009091D70395D684E894E00E94A5042091EE
:1020B000D4033091D5034091D6035091D70360915A
:1020C0002D0470912E0480912F04909130041CD621
:1020D00060932D0470932E0480932F04909330040A
:1020E00020913104309132044091330450913404F2
:1020F0006091B8037091B9038091BA039091BB03CA
:10210000CDD4882331F16091D8037091D9038091A7
:10211000DA039091DB035CD68CE794E00E94A5047F
:102120002091D8033091D9034091DA035091DB0319
:1021300060913104709132048091330490913404A1
:10214000E3D5609331047093320480933304909309
:102150003404209135043091360440913704509175
:1021600038046091BC037091BD038091BE039091CF
:10217000BF0394D4882331F16091DC037091DD03B7
:102180008091DE039091DF0323D684E794E00E94E0
:10219000A5042091DC033091DD034091DE035091D2
:1021A000DF0360913504709136048091370490917B
:1021B0003804AAD5609335047093360480933704AD
:1021C0009093380420912D0430912E0440912F04D7
:1021D000509130046091B4037091B5038091B603BF
:1021E0009091B7035BD48111AFC12091310430913C
:1021F000320440913304509134046091B8037091DB
:10220000B9038091BA039091BB0348D481119CC15A
:1022100020913504309136044091370450913804B0
:102220006091BC037091BD038091BE039091BF0388
:1022300035D4811189C10E94BA0686C188E79CEE17
:10224000909385008093840020E030E040E85FE3D5
:102250006091F0037091F1038091F2039091F30388
:102260001DD4811190C080902D0490902E04A090D8
:102270002F04B09030042091B4033091B503409105
:10228000B6035091B703C501B40108D4882309F4FB
:1022900099CF4090EC035090ED036090EE03709066
:1022A000EF0320E030E0A901C301B201C2D5C09024
:1022B000D803D090D903E090DA03F090DB0387FDD8
:1022C0003CC0A7019601C501B4011ED560932D0441
:1022D00070932E0480932F04909330042091E00398
:1022E0003091E1034091E2035091E30360913104A6
:1022F00070913204809133049091340405D5609339
:102300003104709332048093330490933404209109
:10231000E4033091E5034091E6035091E703C301E4
:10232000B201F2D46093EC037093ED038093EE035B
:102330009093EF03C701B6018FC02091E80330915D
:10234000E9034091EA035091EB03C301B201DCD4ED
:102350006093EC037093ED038093EE039093EF038F
:10236000A7019601C501B401CFD460932D047093E9
:102370002E0480932F0490933004C701B60128D512
:1023800084E894E0A4C0C0903104D0903204E0907E
:102390003304F09034042091B8033091B903409194
:1023A000BA035091BB03C701B60178D3882309F45F
:1023B00009CF8090EC039090ED03A090EE03B090D5
:1023C000EF0320E030E0A901C501B40132D587FD5B
:1023D00051C04090D8035090D9036090DA037090B8
:1023E000DB03A301920160912D0470912E04809172
:1023F0002F049091300488D460932D0470932E04A0
:1024000080932F04909330042091E0033091E103F6
:102410004091E2035091E303C701B60175D4609384
:1024200031047093320480933304909334042091E8
:10243000E4033091E5034091E6035091E703C501C1
:10244000B40162D46093EC037093ED038093EE03C8
:102450009093EF03C301B201BBD484E894E00E94DF
:10246000A5046091E0037091E1038091E2039091F3
:10247000E3032AC02091E8033091E9034091EA0385
:102480005091EB03C501B4013FD46093EC0370930A
:10249000ED038093EE039093EF038090E003909020
:1024A000E103A090E203B090E303A5019401C7010A
:1024B000B6012AD4609331047093320480933304BC
:1024C00090933404C501B40183D48CE794E00E9456
:1024D000A50478CE6091B0037091B1038091B203EE
:1024E0009091B30375D4635071096330710560F145
:1024F0006091D0037091D1038091D2039091D30366
:1025000067D46430710500F16BE272E0CE01019690
:102510000E940708CE0101960E94140ACE0101967E
:102520000E94DE0762E472E0CE0101960E94070875
:10253000CE0101960E94140ACE0101960E94DE0788
:102540008CEA93E00E948A05109263020E941F03A6
:1025500025CA823061F4109290008093910010920D
:1025600095001092940088BB80937100B8C98330A5
:1025700069F41092A00082E08093A1001092A5005F
:102580001092A40089BB80937200A9C98111A7C9C8
:102590001092200182E08093210110922501109277
:1025A00024018ABB809373009AC98CE993E00E944E
:1025B000DE0785EA93E00C94DE0710927102109218
:1025C000700288EE93E0A0E0B0E0809372029093F6
:1025D0007302A0937402B09375028AE192E0909323
:1025E0006F0280936E0285EC90E090937B02809363
:1025F0007A0284EC90E090937D0280937C0280ECE0
:1026000090E090937F0280937E0281EC90E0909323
:1026100081028093800282EC90E090938302809309
:10262000820286EC90E0909385028093840210925F
:102630008702109288021092890210928A021092E8
:1026400088041092890410928A0410928B041092CC
:1026500087041092800410928104109282041092D8
:10266000830410927F0410927804109279041092DF
:102670007A0410927B0410927704109270041092E6
:102680007104109272041092730410926F0480E12E
:10269000E6E0F2E0A8E4B4E001900D928A95E1F75B
:1026A00010924604E8E5F4E0119284E0EC36F80775
:1026B000D9F710922D0410922E0410922F0410922C
:1026C00030041092310410923204109233041092AC
:1026D000340410923504109236041092370410928C
:1026E00038048CEA93E00E948A056DE472E085EA82
:1026F00093E00E94070880919B038033A0F491E04F
:10270000980F90939B038093A20390E0FC01EE0F3F
:10271000FF1F8E0F9F1FFC01E55FFC4F88EB9BE0C6
:102720009283818303C08FEF8093A2036DE472E0F4
:102730008CE993E00C9407086627772719C0BB271C
:10274000FB015527AA27880F991FAA1FA41710F06D
:10275000A41B83955051B9F7A05DAA3308F0A95D79
:10276000A193009779F7B111B1931192CB0186C172
:102770006F927F928F929F92AF92BF92CF92DF9291
:10278000EF92FF920F931F93CF93DF93EC017B01A6
:102790006115710519F0DB018D939C938E010F5F1C
:1027A0001F4F7880872D90E049D1892B11F0E801E7
:1027B000F5CFBDE27B1205C00F5F1F4F7980C1E0EE
:1027C00008C0EBE27E1204C08E010E5F1F4F7980BD
:1027D000C0E06801F1E0CF1AD10843E050E06AE3BD
:1027E00071E0C60133D1892BE9F4680122E0C20E01
:1027F000D11C45E050E065E371E0C60127D1892B8B
:1028000021F4680187E0C80ED11CE114F10419F02D
:10281000D701CD92DC92C111F9C060E070E080E890
:102820009FE7FDC043E050E062E371E0C6010ED1D6
:10283000892B51F4E114F10409F4EDC00E5F1F4F30
:10284000F70111830083E7C0680160E070E0CB010D
:1028500000E010E0F601D0EDD70DDA3050F52C2F66
:102860002260622E2C2F2870C2FF05C0211127C0C4
:102870000F5F1F4F24C0222311F001501109A5E062
:10288000B0E09B01AC0126D24B015C01880C991C85
:10289000AA1CBB1CC501B4016D0F711D811D911DCA
:1028A0006839A9E97A078A07A9E19A0740F0C66062
:1028B00005C0DE3F51F4C3FD44C0C8606C2EBFEFBD
:1028C000CB1ADB0A7080C62DC5CF2D2F2F7D253169
:1028D000C1F540814D3211F4C06106C04B3221F088
:1028E000319621E030E006C03296D60111964C9127
:1028F00022E030E0A0EDA40FAA3018F0E21BF30BA9
:1029000020C040E050E04038BCE05B075CF49A0136
:10291000220F331F220F331F420F531F440F551F27
:102920004A0F511D3196DF0111972C91A0EDA20F96
:10293000AA3048F3C4FF03C0519541955109040FD3
:10294000151FC1FF07C0E114F10421F03197D70131
:10295000ED93FC93A7D0C370C33019F06B017C01D9
:1029600006C06B017C01F7FAF094F7F8F09420E0D0
:1029700030E0A901C701B60191D0882309F443C012
:1029800017FF06C0119501951109C1E5D1E002C0FC
:10299000C9E6D1E05E01B8E1AB1AB1084601BE2D2F
:1029A000AF2D90E2E92EF12C0E151F057CF0FE01F3
:1029B0002591359145915491B4018B2F9A2FD3D005
:1029C0004B01B82FA92F0E191F09EECF2497F594AC
:1029D000E794CA15DB0541F76401EB2EFA2E8E2D24
:1029E000880F8F2D881F8F3F41F020E030E0A90134
:1029F000C701B60153D0811106C082E290E09093E6
:102A00008D0480938C04C701B60109C060E070E0BA
:102A100080E89FEF04C060E070E080EC9FE7DF910A
:102A2000CF911F910F91FF90EF90DF90CF90BF90CB
:102A3000AF909F908F907F906F9008959111F6C006
:102A4000803219F089508550D0F70895FB01DC01E0
:102A50004150504088F08D9181341CF08B350CF43E
:102A6000805E659161341CF06B350CF4605E861BF2
:102A7000611171F3990B0895881BFCCFDC01FC01F7
:102A8000672F71917723E1F7329704C07C916D93A2
:102A900070836291AE17BF07C8F3089540D008F461
:102AA00081E00895E89409C097FB3EF490958095E5
:102AB000709561957F4F8F4F9F4F9923A9F0F92F04
:102AC00096E9BB279395F695879577956795B79582
:102AD000F111F8CFFAF4BB0F11F460FF1BC06F5F68
:102AE0007F4F8F4F9F4F16C0882311F096E911C07A
:102AF000772321F09EE8872F762F05C0662371F09B
:102B000096E8862F70E060E02AF09A95660F771FAE
:102B1000881FDAF7880F9695879597F90895990F8A
:102B20000008550FAA0BE0E8FEEF16161706E80797
:102B3000F907C0F012161306E407F50798F0621BB8
:102B4000730B840B950B39F40A2661F0232B242B8D
:102B5000252B21F408950A2609F4A140A6958FEFAC
:102B6000811D811D08950BD07BC06CD028F071D0E1
:102B700018F0952309F05DC062C01124A5C081D072
:102B8000A0F3959FD1F3950F50E0551F629FF00180
:102B9000729FBB27F00DB11D639FAA27F00DB11DD9
:102BA000AA1F649F6627B00DA11D661F829F222762
:102BB000B00DA11D621F739FB00DA11D621F839FE9
:102BC000A00D611D221F749F3327A00D611D231FBF
:102BD000849F600D211D822F762F6A2F11249F570D
:102BE00050408AF0E1F088234AF0EE0FFF1FBB1F30
:102BF000661F771F881F91505040A9F79E3F5105CF
:102C000070F017C061C05F3FECF3983EDCF386952F
:102C100077956795B795F795E7959F5FC1F7FE2B79
:102C2000880F911D9695879597F90895992788277C
:102C3000089597F99F6780E870E060E008959FEF3E
:102C400080EC089500240A94161617061806090643
:102C5000089500240A941216130614060506089512
:102C6000092E0394000C11F4882352F0BB0F40F49A
:102C7000BF2B11F460FF04C06F5F7F4F8F4F9F4FDA
:102C8000089557FD9058440F551F59F05F3F71F05C
:102C90004795880F97FB991F61F09F3F79F08795C3
:102CA0000895121613061406551FF2CF4695F1DF4C
:102CB00008C0161617061806991FF1CF86957105DC
:102CC000610508940895E894BB2766277727CB0110
:102CD00097F9089509D0A59F900DB49F900DA49FDA
:102CE000800D911D11240895A29FB001B39FC001D2
:102CF000A39F700D811D1124911DB29F700D811D28
:102D00001124911D08955058BB27AA270ED0A8CF93
:102D100099DF30F09EDF20F031F49F3F11F41EF474
:102D20008ECF0EF4E095E7FB84CFE92FAADF80F386
:102D3000BA17620773078407950718F071F49EF5B8
:102D4000C2CF0EF4E0950B2EBA2FA02D0B01B901C6
:102D500090010C01CA01A0011124FF27591B99F011
:102D6000593F50F4503E68F11A16F040A22F232F1D
:102D7000342F4427585FF3CF469537952795A7956D
:102D8000F0405395C9F77EF41F16BA0B620B730B14
:102D9000840BBAF09150A1F0FF0FBB1F661F771F85
:102DA000881FC2F70EC0BA0F621F731F841F48F43A
:102DB000879577956795B795F7959E3F08F0B3CFC0
:102DC0009395880F08F09927EE0F979587950895AA
:102DD00004D06894B11178CF08955BDF88F09F57D5
:102DE00090F0B92F9927B751A0F0D1F0660F771F57
:102DF000881F991F1AF0BA95C9F712C0B13081F037
:102E000062DFB1E008955FCF672F782F8827B85F22
:102E100039F0B93FCCF3869577956795B395D9F797
:102E20003EF490958095709561957F4F8F4F9F4FA1
:102E3000089575DE08F48FEF0895991B79E004C0BA
:102E4000991F961708F0961B881F7A95C9F78095E9
:102E50000895EE0FFF1F881F8BBF0790F691E02D9E
:102E60001994CF93DF938230910510F482E090E0C3
:102E7000E0919004F091910420E030E0C0E0D0E0D7
:102E8000309711F14081518148175907C0F0481718
:102E9000590761F482819381209719F09B838A837B
:102EA0002BC0909391048093900426C02115310586
:102EB00019F04217530718F49A01BE01DF01EF0120
:102EC0000280F381E02DDCCF2115310509F1281BAB
:102ED000390B2430310590F412968D919C91139703
:102EE0006115710521F0FB019383828304C09093E7
:102EF000910480939004FD01329644C0FD01E20FDD
:102F0000F31F81939193225031092D933C933AC042
:102F100020918E0430918F04232B41F420910202E2
:102F20003091030230938F0420938E04209100028D
:102F3000309101022115310541F42DB73EB7409182
:102F4000040250910502241B350BE0918E04F09190
:102F50008F04E217F307A0F42E1B3F0B2817390745
:102F600078F0AC014E5F5F4F2417350748F04E0FE5
:102F70005F1F50938F0440938E048193919302C0FE
:102F8000E0E0F0E0CF01DF91CF9108950F931F9320
:102F9000CF93DF93009709F48CC0FC013297138222
:102FA000128200919004109191040115110581F491
:102FB00020813181820F931F20918E0430918F04E4
:102FC0002817390779F5F0938F04E0938E0471C0C8
:102FD000D80140E050E0AE17BF0750F412962D9193
:102FE0003C911397AD012115310509F1D901F3CFBA
:102FF0009D01DA013383228360817181860F971FDF
:103000008217930769F4EC0128813981260F371F55
:103010002E5F3F4F318320838A819B8193838283FC
:10302000452B29F4F0939104E093900442C0139649
:10303000FC93EE931297ED01499159919E01240F53
:10304000351FE217F30771F480819181840F951F7A
:10305000029611969C938E938281938113969C93F2
:103060008E931297E0E0F0E0D80112968D919C913A
:103070001397009719F0F8018C01F6CF8D919C9170
:1030800098012E5F3F4F820F931F20918E04309145
:103090008F042817390769F4309729F410929104A6
:1030A0001092900402C01382128210938F04009336
:1030B0008E04DF91CF911F910F9108956F927F92AF
:1030C0008F929F92AF92BF92CF92DF92EF92FF9238
:1030D0000F931F93CF93DF93EC01009781F4CB0103
:1030E000DF91CF911F910F91FF90EF90DF90CF90E4
:1030F000BF90AF909F908F907F906F90B2CEFC0169
:10310000E60FF71F9C0122503109E217F30708F47C
:10311000A8C0D9010D911C91119706171707A8F0A7
:103120000530110508F49BC0C8010497861797075E
:1031300008F495C002501109061B170B0193119357
:103140006D937C93CF0122DF8AC05B01A01AB10A84
:103150004C01800E911EA0919004B091910440E02A
:1031600050E0E12CF12C109709F44AC0A815B905DC
:10317000D1F56D907C901197630182E0C80ED11C4F
:10318000CA14DB0480F1A3014A195B096A0182E0D9
:10319000C80ED11C1296BC9012971396AC91B5E054
:1031A000CB16D10440F0B282A38351834083D9016E
:1031B0006D937C930AC00E5F1F4FC301800F911F58
:1031C000F90191838083EB2DFA2FE114F10431F0A2
:1031D000D7011396FC93EE93129741C0F09391049C
:1031E000E09390043CC08D919C911197481759072A
:1031F00008F4AC017D0112960D90BC91A02DB3CFC7
:1032000080918E0490918F0488159905E1F44617FA
:103210005707C8F48091000290910102009741F491
:103220008DB79EB74091040250910502841B950B07
:10323000E817F907B0F4F0938F04E0938E04F901D6
:10324000718360830CC0CB010CDE7C01009749F0D8
:10325000A801BE011BD0CE0199DEC70104C0CE017A
:1032600002C080E090E0DF91CF911F910F91FF901D
:10327000EF90DF90CF90BF90AF909F908F907F9016
:103280006F90089581E090E0F89419C0FB01DC0193
:1032900002C001900D9241505040D8F70895FB01B3
:1032A000DC018D91019080190110D9F3990B0895DB
:1032B000FB01DC0101900D920020E1F7089511E07F
:1032C000C8E4D1E000E005C0802FFE01C2DD2196F8
:1032D000011DC934D10780E00807B1F7F894FFCF8A
:1032E00000009204800001030303030303030000B2
:1032F00000000001020300000000E6016D067F01EE
:103300002C02B0018E01A2014533004552524F52AA
:103310002E20554E4B4E4F574E20434F4D4D414E54
:1033200044004530004532005731000D0A00553544
:0E333000005534005536005537004531000079
:020000023000CC
:10E000000D9489F10D94B2F10D94B2F10D94B2F129
:10E010000D94B2F10D94B2F10D94B2F10D94B2F1F0
:10E020000D94B2F10D94B2F10D94B2F10D94B2F1E0
:10E030000D94B2F10D94B2F10D94B2F10D94B2F1D0
:10E040000D94B2F10D94B2F10D94B2F10D94B2F1C0
:10E050000D94B2F10D94B2F10D94B2F10D94B2F1B0
:10E060000D94B2F10D94B2F10D94B2F10D94B2F1A0
:10E070000D94B2F10D94B2F10D94B2F10D94B2F190
:10E080000D94B2F10D94B2F10D94B2F10D94B2F180
:10E090000D94B2F10D94B2F10D94B2F10D94B2F170
:10E0A0000D94B2F10D94B2F10D94B2F10D94B2F160
:10E0B0000D94B2F10D94B2F10D94B2F10D94B2F150
:10E0C0000D94B2F10D94B2F10D94B2F10D94B2F140
:10E0D0000D94B2F10D94B2F10D94B2F10D94B2F130
:10E0E0000D94B2F141546D656761323536300041AF
:10E0F000726475696E6F206578706C6F72657220DE
:10E1000073746B3530305632206279204D4C530099
:10E11000426F6F746C6F616465723E004875683F52
:10E1200000436F6D70696C6564206F6E203D200048
:10E130004350552054797065202020203D20005FF9
:10E140005F4156525F415243485F5F3D2000415658
:10E1500052204C696243205665723D20004743437C
:10E160002056657273696F6E203D20004350552024
:10E1700049442020202020203D20004C6F7720663D
:10E18000757365202020203D20004869676820665F
:10E190007573652020203D200045787420667573D6
:10E1A00065202020203D20004C6F636B2066757336
:10E1B000652020203D20004D617220203720323024
:10E1C000313300312E362E3800342E332E350056A2
:10E1D00023202020414444522020206F7020636F70
:10E1E00064652020202020696E73747275637469E1
:10E1F0006F6E2061646472202020496E74657272B3
:10E20000757074006E6F20766563746F7200726A49
:10E210006D702020006A6D70200057686174207056
:10E220006F72743A00506F7274206E6F7420737541
:10E2300070706F72746564004D7573742062652030
:10E2400061206C6574746572002000577269747483
:10E25000696E672045450052656164696E672045B7
:10E26000450045452065727220636E743D00504F35
:10E27000525400303D5A65726F2061646472003FF1
:10E280003D43505520737461747300403D454550C3
:10E29000524F4D207465737400423D426C696E6B41
:10E2A000204C454400453D44756D70204545505215
:10E2B0004F4D00463D44756D7020464C415348001B
:10E2C000483D48656C70004C3D4C69737420492F83
:10E2D0004F20506F72747300513D51756974005234
:10E2E0003D44756D702052414D00563D73686F7707
:10E2F00020696E7465727275707420566563746FF0
:10E30000727300593D506F727420626C696E6B00BD
:10E310002A0011241FBECFEFD1E2DEBFCDBF01E046
:10E320000CBF12E0A0E0B2E0EEE1FDEF03E00BBFB6
:10E3300002C007900D92A030B107D9F712E0A0E01B
:10E34000B2E001C01D92AE30B107E1F70F9460F367
:10E350000D948DFE01E20EBF0FEF0DBF11241FBE05
:10E360000D9460F30D9400F020E030E040ED57E0B4
:10E3700005C0FA013197F1F72F5F3F4F2817390792
:10E38000C0F308959C01260F311DC901A0E0B0E043
:10E390002F5F3F4FABBFFC018791882361F08093D3
:10E3A000C6008091C00086FFFCCF8091C0008064D1
:10E3B0008093C000EACF08958DE08093C6008091DD
:10E3C000C00086FFFCCF8091C00080648093C000B5
:10E3D0008AE08093C6008091C00086FFFCCF8091C8
:10E3E000C00080648093C00008950F94C2F10F9420
:10E3F000DCF10895FC019081992359F09093C600B7
:10E400008091C00086FFFCCF8091C0008064809323
:10E41000C0003196992379F70895282F982F929567
:10E420009F70892F805D8A3308F0895F8093C600D2
:10E430008091C00086FFFCCF8091C00080648093F3
:10E44000C000822F8F70982F905D9A3308F0995FEB
:10E450009093C6008091C00086FFFCCF8091C000E1
:10E4600080648093C00008959C01FB01853691056E
:10E470001CF46330710594F0C90164E670E00F94F8
:10E480002EFE605D7F4F6093C6008091C00086FFC6
:10E49000FCCF8091C00080648093C0002B30310598
:10E4A00014F43297B4F0C90164E670E00F942EFEC4
:10E4B0006AE070E00F942EFE605D7F4F6093C600AF
:10E4C0008091C00086FFFCCF8091C0008064809363
:10E4D000C000C9016AE070E00F942EFEC0968093E0
:10E4E000C6008091C00086FFFCCF8091C000806490
:10E4F0008093C00008951F93182F8EE692EE60E07F
:10E500000F94C2F11093C6008091C00086FFFCCF2B
:10E510008091C00080648093C0000F94DCF11F9153
:10E5200008952F923F924F925F926F927F928F92B7
:10E530009F92AF92BF92CF92DF92EF92FF920F9392
:10E540001F93DF93CF93CDB7DEB762970FB6F894E2
:10E55000DEBF0FBECDBF382E622ECA01DB015C01CB
:10E560006D01772420E2222E2E010894411C511CBB
:10E570008BC081E0A81680E0B80681E0C80680E084
:10E58000D80628F0C601AA27BB270F940DF2BB2797
:10E59000AD2D9C2D8B2D0F940DF28A2D0F940DF225
:10E5A0002092C6008091C00086FFFCCF8091C00001
:10E5B00080648093C0009DE29093C6008091C0006B
:10E5C00086FFFCCF8091C00080648093C0002092C1
:10E5D000C6008091C00086FFFCCF8091C00080649F
:10E5E0008093C00019828601750188249924A1E0D6
:10E5F0003A1651F03A1620F0B2E03B1661F409C029
:10E600000BBFF701779007C0C7010F9477FE782EF4
:10E6100002C0F7017080872D0F940DF22092C60082
:10E620008091C00086FFFCCF8091C0008064809301
:10E63000C000872D8052F401EF70F0708F3520F408
:10E64000E40DF51D708204C0E40DF51D8EE280839B
:10E650000894E11CF11C011D111D0894811C911CE2
:10E6600090E18916910409F0C2CF80E190E0A0E02A
:10E67000B0E0A80EB91ECA1EDB1E198AC2010F9493
:10E68000FAF10F94DCF16A94662009F072CF629679
:10E690000FB6F894DEBF0FBECDBFCF91DF911F91B3
:10E6A0000F91FF90EF90DF90CF90BF90AF909F9031
:10E6B0008F907F906F905F904F903F902F90089534
:10E6C0002F923F924F925F926F927F928F929F9282
:10E6D000AF92BF92CF92DF92EF92FF920F931F9370
:10E6E000DF93CF93CDB7DEB7CD53D1400FB6F894BB
:10E6F000DEBF0FBECDBF01E20EBF0FEF0DBF94B75F
:10E70000F894A89514BE80916000886180936000A1
:10E7100010926000789493FF05C0E0910002F091A0
:10E7200001021995279A2F9A8091C00082608093E8
:10E73000C00080E18093C40088E18093C1000000A4
:10E74000EE24FF24870144E0A42EB12CCC24DD2448
:10E7500024C0C5010197F1F70894E11CF11C011DCB
:10E76000111D21E2E2162EE4F20620E0020720E06D
:10E77000120718F031E0C32ED12CC801B70127ECE5
:10E780003BE140E050E00F9441FE611571058105C9
:10E79000910519F485B1805885B98091C00087FD35
:10E7A00003C0C114D104A9F2A6014F5F5F4FC25E3E
:10E7B000DE4F59834883CE51D140C25EDE4F8881FF
:10E7C0009981CE51D140019711F00D9410FEC05D9A
:10E7D000DE4F19821882C053D14060E0C15DDE4F28
:10E7E0001882CF52D14088249924C35DDE4F19820C
:10E7F0001882CD52D140C05EDE4F188219821A8233
:10E800001B82C052D140CE5CDE4F188219821A8220
:10E810001B82C253D140EE24FF2487010BBFF701B6
:10E8200007911691C45CDE4F19830883CC53D14005
:10E830000D940BFEC25EDE4F28813981CE51D1404E
:10E840002130310509F52091C600C25EDE4F1982E4
:10E850001882CE51D14022C02F5F3F4F4F4F5F4FA4
:10E86000213082E138078AE7480780E0580780F0C6
:10E87000C45CDE4FE881F981CC53D140EF5FFF4F9C
:10E8800019F0EE27FF27099420E030E040E050E047
:10E890008091C00087FFE0CF2091C600C35DDE4FAE
:10E8A00048815981CD52D1404F5F5F4FC35DDE4FEC
:10E8B00059834883CD52D140213209F063C64A3092
:10E8C000510508F05FC60894811C911C53E0851621
:10E8D000910409F059C600E010E018C081E280936D
:10E8E000C6008091C00086FFFCCF8091C00080648C
:10E8F0008093C0002F5F3F4F2931310579F70F9486
:10E90000DCF10F5F1F4F0530110519F020E030E0FA
:10E91000E5CF10920A0210920B0210920C02109294
:10E920000D02109206021092070210920802109235
:10E930000902109202021092030210920402109235
:10E9400005028FEE90EE60E00F94F5F180E191EE1C
:10E9500060E00F94C2F18091C00087FFFCCF9091DE
:10E96000C600903608F09F759032B8F09093C600BC
:10E970008091C00086FFFCCF8091C00080648093AE
:10E98000C000A0E2A093C6008091C00086FFFCCF2B
:10E990008091C00080648093C000983409F4D7C18E
:10E9A0009934B8F4923409F459C1933458F490333B
:10E9B00019F1903308F4E3C59F33A1F1903409F0C5
:10E9C000DEC5BDC0953409F470C1963409F0D7C5D1
:10E9D00098C1923509F42BC2933538F49C3409F46C
:10E9E000F5C1913509F0CBC518C2963509F445C279
:10E9F000993509F0C4C567C483E792EE62E00F94CD
:10EA0000F5F110920602109207021092080210927D
:10EA1000090210920A0210920B0210920C0210923C
:10EA20000D0213C18FE792EE62E00F94F5F18FEEC5
:10EA300090EE60E00F94F5F181E291EE60E00F94CA
:10EA4000C2F187EB91EE60E00F94F5F180E391EE77
:10EA500060E00F94C2F184EE90EE60E00F94F5F167
:10EA60008FE391EE60E00F94C2F186E090E061E008
:10EA700070E00F9434F20F94DCF18DE591EE60E0DC
:10EA80000F94C2F189EC91EE60E00F94F5F18EE401
:10EA900091EE60E00F94C2F183EC91EE60E00F9490
:10EAA000F5F18CE691EE60E00F94C2F18EE10F94E7
:10EAB0000DF288E90F940DF281E00F940DF20F949E
:10EAC000DCF18BE791EE60E00F94C2F119E0E0E039
:10EAD000F0E010935700E4918E2F0F940DF20F94F5
:10EAE000DCF18AE891EE60E00F94C2F1E3E0F0E03F
:10EAF00010935700E4918E2F0F940DF20F94DCF1D8
:10EB000089E991EE60E00F94C2F1E2E0F0E0109349
:10EB10005700E4918E2F0F940DF20F94DCF188EAE8
:10EB200091EE60E00F94C2F1E1E0F0E01093570045
:10EB30001491812F0F940DF20F94DCF107CF8BE825
:10EB400092EE62E00F94F5F18BE492EE60E00F94A8
:10EB5000F5F10F94DCF100E010E019C0C8016F2D51
:10EB60000F947FFEFF2031F489E492EE60E00F9471
:10EB7000C2F10BC0F092C6008091C00086FFFCCFAE
:10EB80008091C00080648093C0000F5F1F4FC80158
:10EB900081519F41A0E0B0E0ABBFFC01F790BAE229
:10EBA000FB1621F0E2E000301E07C1F60F94DCF105
:10EBB0000F94DCF187E592EE60E00F94F5F10F948D
:10EBC000DCF1CC24DD2400E010E01EC0C8010F946D
:10EBD00077FEF82E882331F489E492EE60E00F94FA
:10EBE000C2F10BC08093C6008091C00086FFFCCFAD
:10EBF0008091C00080648093C000FE1419F00894D6
:10EC0000C11CD11C0F5F1F4FC80181519F41A0E063
:10EC1000B0E0ABBFFC01E790FAE2EF1621F022E092
:10EC20000030120799F60F94DCF10F94DCF182E6C4
:10EC300092EE60E00F94C2F1C60161E070E00F94C3
:10EC400034F20F94DCF10F94DCF110920202109276
:10EC50000302109204021092050278CE89E992EE26
:10EC600062E00F94F5F1279A2F9A16C02F9880E052
:10EC700090E0E0EDF7E03197F1F7019684369105E9
:10EC8000C1F72F9A80E090E0E0EDF7E03197F1F7DF
:10EC9000019684369105C1F78091C00087FFE6CFC9
:10ECA0008091C00087FFFCCF64C485EA92EE62E0E9
:10ECB0000F94F5F140910202509103026091040219
:10ECC0007091050281E020E10F9491F2809102029F
:10ECD00090910302A0910402B091050280509F4FD1
:10ECE000AF4FBF4F8093020290930302A0930402A0
:10ECF000B093050280509041A040B04008F426CE69
:10ED0000A4CF83EB92EE62E00F94F5F140910602FE
:10ED100050910702609108027091090280E020E1A1
:10ED20000F9491F28091060290910702A09108023F
:10ED3000B091090280509F4FAF4FBF4F80930602A2
:10ED400090930702A0930802B0930902FFCD80ECD4
:10ED500092EE62E00F94F5F183E792EE60E00F949B
:10ED6000F5F18FE792EE60E00F94F5F18BE892EE0B
:10ED700060E00F94F5F189E992EE60E00F94F5F10F
:10ED800085EA92EE60E00F94F5F183EB92EE60E09D
:10ED90000F94F5F180EC92EE60E00F94F5F187ECC2
:10EDA00092EE60E00F94F5F188ED92EE60E00F9442
:10EDB000F5F18FED92EE60E00F94F5F18AEE92EEB0
:10EDC00060E00F94F5F183E093EEBDCD87EC92EE19
:10EDD00062E00F94F5F181E40F947BF282E40F94EA
:10EDE0007BF283E40F947BF284E40F947BF285E45E
:10EDF0000F947BF286E40F947BF287E40F947BF20E
:10EE000088E40F947BF28AE40F947BF28BE40F94F6
:10EE10007BF28CE40F947BF299CD88ED92EE62E068
:10EE20000F94F5F1772473948824992409C48FED05
:10EE300092EE62E00F94F5F140910A0250910B02BC
:10EE400060910C0270910D0282E020E10F9491F22A
:10EE500080910A0290910B02A0910C02B0910D02D8
:10EE600080509F4FAF4FBF4F80930A0290930B0289
:10EE7000A0930C02B0930D0269CD8AEE92EE62E08F
:10EE80000F94F5F184EE90EE60E00F94F5F18FECC5
:10EE900091EE60E00F94F5F1662477244301CC5D98
:10EEA000DE4F19821882C452D140D401C301B695F5
:10EEB000A79597958795CA5DDE4F88839983AA8326
:10EEC000BB83C652D140CC5DDE4FA881B981C4520C
:10EED000D1401196CC5DDE4FB983A883C452D14096
:10EEE000CD0162E070E00F9434F2B0E2B093C6005E
:10EEF0008091C00086FFFCCF8091C0008064809329
:10EF0000C000EDE2E093C6008091C00086FFFCCF18
:10EF10008091C00080648093C000F0E2F093C6004E
:10EF20008091C00086FFFCCF8091C00080648093F8
:10EF3000C000CA5DDE4FE880F9800A811B81C6529D
:10EF4000D140BB27A12F902F8F2D0F940DF2CA5DBA
:10EF5000DE4F8881C652D1400F940DF2B0E2FB2EF5
:10EF6000F092C6008091C00086FFFCCF8091C00067
:10EF700080648093C0000DE30093C6008091C000C0
:10EF800086FFFCCF8091C00080648093C00010E2B7
:10EF90001093C6008091C00086FFFCCF8091C00016
:10EFA00080648093C0008BBEF3012791C65DDE4F65
:10EFB0002883CA52D140A22EBB24CC24DD2408943D
:10EFC000611C711C811C911C8BBEF3018791282E42
:10EFD0003324442455240894611C711C811C911C09
:10EFE0008BBEF3013791C55DDE4F3883CB52D140E4
:10EFF0000894611C711C811C911C8BBEF30147910C
:10F00000C45DDE4F4883CC52D140ADEFEA2EAFEF66
:10F01000FA2EAFEF0A2FAFEF1A2F6E0C7F1C801E57
:10F02000911E142D032DF22CEE24EA0CFB1C0C1D5A
:10F030001D1D0F940DF220E22093C6008091C000A8
:10F0400086FFFCCF8091C00080648093C000C65DC5
:10F05000DE4F8881CA52D1400F940DF230E23093D6
:10F06000C6008091C00086FFFCCF8091C000806404
:10F070008093C000C45DDE4F8881CC52D1400F9494
:10F080000DF240E24093C6008091C00086FFFCCFA5
:10F090008091C00080648093C000C55DDE4F888190
:10F0A000CB52D1400F940DF250E25093C6008091A4
:10F0B000C00086FFFCCF8091C00080648093C000B8
:10F0C0008FEFE8168FEFF80680E0080780E018075A
:10F0D00031F484E092EE60E00F94C2F1DFC0D80119
:10F0E000C7018070907CA070B0708050904CA040A0
:10F0F000B040D1F52FEF3FE340E050E0E222F322B1
:10F1000004231523CA5DDE4FA880B980CA80DB8046
:10F11000C652D140AE0CBF1CC01ED11EAA0CBB1CD7
:10F12000CC1CDD1C8EE092EE60E00F94C2F1BB2798
:10F13000A12F902F8F2D0F940DF28E2D0F940DF285
:10F1400030E23093C6008091C00086FFFCCF8091F2
:10F15000C00080648093C0004EE34093C60080915D
:10F16000C00086FFFCCF87C08EE09EEFA0E0B0E03D
:10F17000E822F9220A231B239CE0E91694E9F90608
:10F1800090E0090790E0190709F088C0C45DDE4FE0
:10F19000A881CC52D140EA2EFF2400E010E0102FCD
:10F1A0000F2DFE2CEE24C55DDE4FB881CB52D14031
:10F1B000EB0EF11C011D111DD601C501817090706F
:10F1C000A070B070DC0199278827E80EF91E0A1F8D
:10F1D0001B1F20EF30E040E050E0A222B322C42207
:10F1E000D52241E1AA0CBB1CCC1CDD1C4A95D1F7F1
:10F1F000EA0CFB1C0C1D1D1D81E090E0A0E0B0E0BE
:10F20000282239224A225B2235E1220C331C441C7D
:10F21000551C3A95D1F7E20CF31C041D151D57013E
:10F220006801AA0CBB1CCC1CDD1C85E192EE60E0E1
:10F230000F94C2F1C801AA27BB270F940DF2BB2778
:10F24000A12F902F8F2D0F940DF28E2D0F940DF274
:10F2500090E29093C6008091C00086FFFCCF809121
:10F26000C00080648093C000AEE3A093C60080918C
:10F27000C00086FFFCCF8091C00080648093C000F6
:10F28000C601AA27BB270F940DF2BB27AD2D9C2DDD
:10F290008B2D0F940DF28A2D0F940DF20F94DCF14B
:10F2A000CC5DDE4FE881F981C452D140F99709F471
:10F2B0004DCBF4E0EF2EF12C012D112D6E0C7F1CA7
:10F2C000801E911EF2CD83E093EE62E00F94F5F183
:10F2D0008AE192EE60E00F94C2F18091C00087FF56
:10F2E000FCCF1091C6001F751093C6008091C0001E
:10F2F00086FFFCCF8091C00080648093C0000F9493
:10F30000DCF1812F81548A3108F036C1163409F4BA
:10F3100095C0173490F4133409F44EC0143430F40B
:10F320001134F1F0123409F01DC130C0143409F465
:10F3300059C0153409F016C16BC01A3409F4C4C0A1
:10F340001B3438F4173409F48FC0183409F00AC19B
:10F35000A1C01B3409F4D2C01C3409F003C1E8C0B9
:10F360008FEF81B90DC082B1809582B980E090E0C5
:10F37000E0EDF7E03197F1F70196883C9105C1F790
:10F380008091C00087FFEFCF12B8EFC08FEF84B934
:10F390000DC085B1809585B980E090E0E0EDF7E0A3
:10F3A0003197F1F70196883C9105C1F78091C00033
:10F3B00087FFEFCF15B8D9C08FEF87B90DC088B1DF
:10F3C000809588B980E090E0E0EDF7E03197F1F7C3
:10F3D0000196883C9105C1F78091C00087FFEFCF6F
:10F3E00018B8C3C08FEF8AB90DC08BB180958BB9A7
:10F3F00080E090E0E0EDF7E03197F1F70196883C8E
:10F400009105C1F78091C00087FFEFCF1BB8ADC059
:10F410008FEF8DB90DC08EB180958EB980E090E0F0
:10F42000E0EDF7E03197F1F70196883C9105C1F7DF
:10F430008091C00087FFEFCF1EB897C08FEF80BBD1
:10F440000DC081B3809581BB80E090E0E0EDF7E0F6
:10F450003197F1F70196883C9105C1F78091C00082
:10F4600087FFEFCF11BA81C08FEF83BB0DC084B38C
:10F47000809584BB80E090E0E0EDF7E03197F1F714
:10F480000196883C9105C1F78091C00087FFEFCFBE
:10F4900014BA6BC08FEF809301010FC080910201FD
:10F4A00080958093020180E090E0E0EDF7E03197F5
:10F4B000F1F70196883C9105C1F78091C00087FF64
:10F4C000EDCF1092020151C08FEF809304010FC065
:10F4D0008091050180958093050180E090E0E0ED4A
:10F4E000F7E03197F1F70196883C9105C1F78091DB
:10F4F000C00087FFEDCF1092050137C08FEF8093DA
:10F5000007010FC08091080180958093080180E079
:10F5100090E0E0EDF7E03197F1F70196883C910536
:10F52000C1F78091C00087FFEDCF109208011DC088
:10F530008FEF80930A010FC080910B01809580931B
:10F540000B0180E090E0E0EDF7E03197F1F70196F4
:10F55000883C9105C1F78091C00087FFEDCF1092E4
:10F560000B0103C085E292EEEEC98091C00087FFD7
:10F57000FCCF8091C600EAC988E392EEE4C98CE131
:10F5800091EEE1C988249924933011F1943028F444
:10F59000913089F09230B8F408C0953061F195301F
:10F5A000F0F0963009F048C043C02B3109F042C951
:10F5B00091E06BE13FC96227C15DDE4F2883CF52E6
:10F5C000D14092E037C9B22FA0E0622793E032C960
:10F5D000822F90E0A82BB92B622794E02BC92E3004
:10F5E00009F039C3622795E0C05DDE4F19821882A9
:10F5F000C053D1401FC9E1E0F0E0EC0FFD1FC05D3A
:10F60000DE4F08811981C053D140E00FF11F2083E4
:10F610000F5F1F4FC05DDE4F19830883C053D14079
:10F6200062270A171B0709F005C9D80196E002C92D
:10F63000261709F010C303C0973009F0FBC87724E0
:10F640009981933109F412C19431C8F4963009F4C8
:10F65000D8C0973050F4923009F406C1933009F4C1
:10F660006DC0913009F059C253C0913109F477C08F
:10F67000923108F0BBC0903109F04FC2F5C098310B
:10F6800009F487C0993150F4953109F4EFC09531F0
:10F6900008F4C6C1963109F040C2C2C19A3109F4DA
:10F6A0006CC09A3108F491C09B3109F45BC09D3164
:10F6B00009F033C29D81903359F48F81882311F46E
:10F6C0009EE11CC0813011F091E018C098E916C08D
:10F6D000892F807591F0903539F4E0E0F0E089E011
:10F6E0008093570094910AC0983539F4E3E0F0E034
:10F6F00089E080935700949101C090E01A821B82A8
:10F700008D818C831D829E831F8227E030E009C299
:10F710001A8288E08B8381E48C8386E58D8382E581
:10F720008E8389E48F8383E5888780E589878FE5E9
:10F730008A8782E38B872BE030E0F3C18A818139AD
:10F7400041F0823941F0803911F48FE005C080E04A
:10F7500003C082E001C08AE01A828B8344C0772410
:10F76000739482C08D81882311F48EE12CC0813086
:10F7700011F081E028C088E926C01A82E1E0F0E0BB
:10F7800089E08093570084918B831C8224E030E0D1
:10F79000C8C18B81803589F48C81883039F4E2E0EE
:10F7A000F0E089E08093570084910DC0E0E0F0E044
:10F7B00089E080935700849106C0E3E0F0E089E09F
:10F7C0008093570084911A82DFCF8D81836C99E0FA
:10F7D000E1E0F0E0082E90935700E89507B600FCB2
:10F7E000FDCF1A821B8223E030E09BC180EC8A832C
:10F7F000CE5CDE4F188219821A821B82C253D1401E
:10F800008EC18A8190E0A0E0B0E0582F44273327D2
:10F8100022278B8190E0A0E0B0E0DC0199278827C7
:10F82000282B392B4A2B5B2B8D8190E0A0E0B0E098
:10F83000282B392B4A2B5B2B8C8190E0A0E0B0E089
:10F84000BA2FA92F982F8827282B392B4A2B5B2BCF
:10F85000220F331F441F551FC05EDE4F288339839C
:10F860004A835B83C052D1401A8259C13A81C95C34
:10F87000DE4F3883C753D140CA5CDE4F1882C6536F
:10F88000D1408B81C82EDD24CA5CDE4F488159816E
:10F89000C653D140C42AD52A933109F082C0CE5C28
:10F8A000DE4F88819981AA81BB81C253D1408050AB
:10F8B000904CA340B04030F583E0CE5CDE4FE88052
:10F8C000F9800A811B81C253D140F70100935B008C
:10F8D00080935700E89507B600FCFDCFCE5CDE4F65
:10F8E000088119812A813B81C253D14000501F4FAA
:10F8F0002F4F3F4FCE5CDE4F088319832A833B8313
:10F90000C253D140C05EDE4F488159816A817B81FC
:10F91000C052D140DE011B9631E08C9111962C91A2
:10F9200011971296C75CDE4F2883C953D140C85C3B
:10F93000DE4F1882C853D14090E0C85CDE4FE881AA
:10F94000F981C853D1408E2B9F2B0C01FA01609393
:10F950005B0030935700E89511244E5F5F4F6F4F67
:10F960007F4F0EEFE02E0FEFF02ECE0CDF1CC114F8
:10F97000D10499F685E0C05EDE4F088119812A81A5
:10F980003B81C052D140F80120935B008093570027
:10F99000E89507B600FCFDCF81E180935700E8951C
:10F9A00035C0C05EDE4F88819981AA81BB81C0527B
:10F9B000D140B695A795979587957C018601ABE0D8
:10F9C000AA2EB12CAC0EBD1E0BC0D5016D915D01F0
:10F9D000C7010F947FFE0894E11CF11C01501040F8
:10F9E0000115110591F7A60160E070E0440F551F65
:10F9F000661F771FC05EDE4FE880F9800A811B8199
:10FA0000C052D1404E0D5F1D601F711F1A82C05E33
:10FA1000DE4F488359836A837B83C052D1407FC0C5
:10FA2000FA80C55CDE4FF882CB53D140C65CDE4F16
:10FA30001882CA53D1408B81C82EDD24C65CDE4FAC
:10FA400008811981CA53D140C02AD12A1A828981DA
:10FA5000BE016D5F7F4F843121F59601C05EDE4FA0
:10FA6000E880F9800A811B81C052D1400BBFF701A9
:10FA700087919691DB018C9311969C936E5F7F4FDB
:10FA8000D801C7010296A11DB11DC05EDE4F88835B
:10FA90009983AA83BB83C052D14022503040F1F6F3
:10FAA00036C0C05EDE4F288139814A815B81C052F9
:10FAB000D1400894C108D108760100E010E0089414
:10FAC000C11CD11C0894E11CF11C011D111DE20E8A
:10FAD000F31E041F151F21BDBB27A52F942F832FB5
:10FAE00082BD2F5F3F4F4F4F5F4FF89A80B5DB01CC
:10FAF0008D93BD012E153F054007510761F7C05E8C
:10FB0000DE4F288339834A835B83C052D1409601FC
:10FB10002D5F3F4FFB01108204C080EC8A8322E0FE
:10FB200030E08BE18093C6008091C00086FFFCCF5F
:10FB30008091C00080648093C000C15DDE4FF88179
:10FB4000CF52D140F093C6008091C00086FFFCCF19
:10FB50008091C00080648093C000432F3093C60022
:10FB60008091C00086FFFCCF8091C00080648093AC
:10FB7000C000922F2093C6008091C00086FFFCCF6A
:10FB80008091C00080648093C0008EE08093C600A6
:10FB90008091C00086FFFCCF8091C000806480937C
:10FBA000C00065E1C15DDE4FE880CF52D1406E25D7
:10FBB00069276427FE01319610C090819093C6009A
:10FBC0008091C00086FFFCCF31968091C000806498
:10FBD0008093C0006927215030402115310569F715
:10FBE0006093C6008091C00086FFFCCF8091C0006A
:10FBF00080648093C00085B1805885B9772081F4F6
:10FC0000C15DDE4F0881CF52D1400F5FC15DDE4F35
:10FC10000883CF52D14090E0A0E0B0E00D941AF4F8
:10FC200027982F9880E090E020ED37E0F901319798
:10FC3000F1F7019684369105C9F700008091C00064
:10FC40008D7F8093C00081E180935700E895EE2777
:10FC5000FF270994FFCF90E00D941AF497FB092E2B
:10FC600007260AD077FD04D02ED006D000201AF443
:10FC7000709561957F4F0895F6F7909581959F4F08
:10FC80000895A1E21A2EAA1BBB1BFD010DC0AA1FDD
:10FC9000BB1FEE1FFF1FA217B307E407F50720F0F5
:10FCA000A21BB30BE40BF50B661F771F881F991F70
:10FCB0001A9469F760957095809590959B01AC01B9
:10FCC000BD01CF010895AA1BBB1B51E107C0AA1FAC
:10FCD000BB1FA617B70710F0A61BB70B881F991FED
:10FCE0005A95A9F780959095BC01CD010895F99991
:10FCF000FECF92BD81BDF89A992780B50895262F31
:10FD0000F999FECF1FBA92BD81BD20BD0FB6F89400
:0EFD1000FA9AF99A0FBE01960895F894FFCF63
:040000033000E000E9
:00000001FF