:100000000C9496000C94BE000C94BE000C94BE00A0
:100010000C94BE000C94BE000C94BE000C94BE0068
:100020000C94BE000C94BE000C94BE000C94BE0058
:100030000C94BE000C94E0070C9496070C94BE0040
:100040000C94ED020C94BE000C94FE060C94D806A1
:100050000C94BE000C94BE000C94BE000C94BE0028
:100060000C94BE000C94BE00AE05F204DD055005F4
:100070006705DD05DD057F05DD05DD05DD05DD0544
:10008000DD059605DD05C505DD05DD05090521054F
:1000900038054E414E494E495459494E46CDCCCC77
:1000A0003D0AD7233C17B7D13877CC2B329595E64C
:1000B000241FB14F0A000020410000C84200401C2C
:1000C0004620BCBE4CCA1B0E5AAEC59D7400000033
:1000D00000240027002A0000000000250028002B33
:1000E000000000000023002600290004040404048A
:1000F00004040402020202020203030303030301D5
:1001000002040810204080010204081020010204AB
:10011000081020000000080002010000030407008E
:100120000000000000000000D20ECA0E11241FBE05
:10013000CFEFD8E0DEBFCDBF22E0AAE5B1E001C03D
:100140001D92A63DB207E1F711E0A0E0B1E0E4E7BF
:10015000FAE202C005900D92AA35B107D9F710E076
:10016000C5E9D0E004C02197FE010E941213C439F2
:10017000D107C9F70E94DD080C942D150C940000DE
:10018000FC01248135816217730720F480819181FD
:10019000009729F410925C018CE591E00895860F98
:1001A000971F0895CF92DF92EF92FF920F931F93C4
:1001B000CF93DF936C017A018B01C0E0D0E0CE15C4
:1001C000DF0589F0D8016D918D01D601ED91FC918B
:1001D0000190F081E02DC6010995892B11F47E0173
:1001E00002C02196ECCFC701DF91CF911F910F91F3
:1001F000FF90EF90DF90CF900895089580E090E019
:100200000895FC01538D448D252F30E0842F90E01C
:10021000821B930B541710F0CF9608950197089501
:10022000FC01918D828D981761F0828DDF01A80FFE
:10023000B11D5D968C91928D9F5F9F73928F90E020
:1002400008958FEF9FEF0895FC01918D828D98178F
:1002500031F0828DE80FF11D858D90E008958FEFCC
:100260009FEF0895FC01918D228D892F90E0805C95
:100270009F4F821B91098F739927089586E691E01D
:100280000E94320121E0892B09F420E0822F089599
:10029000FC01848DDF01A80FB11DA35ABF4F2C9123
:1002A000848D90E001968F739927848FA689B789F2
:1002B0002C93A089B1898C9180648C93938D848DCB
:1002C000981306C00288F389E02D80818F7D80839A
:1002D0000895EF92FF920F931F93CF93DF93EC015A
:1002E00081E0888F9B8D8C8D981305C0E889F989F2
:1002F000808185FD24C0F62E0B8D10E00F5F1F4F0F
:100300000F731127E02E8C8DE8120CC00FB607FC7E
:10031000FACFE889F989808185FFF5CFCE010E9467
:100320004801F1CF8B8DFE01E80FF11DE35AFF4F1D
:10033000F0820B8FEA89FB898081806207C0EE8999
:10034000FF896083E889F98980818064808381E006
:1003500090E0DF91CF911F910F91FF90EF90089562
:10036000CF93DF93EC01888D8823C9F0EA89FB895C
:10037000808185FD05C0A889B9898C9186FD0FC053
:100380000FB607FCF5CF808185FFF2CFA889B98928
:100390008C9185FFEDCFCE010E944801E7CFDF9120
:1003A000CF910895833081F028F4813099F0823024
:1003B000A1F008958730A9F08830B9F08430D1F4E5
:1003C000809180008F7D03C0809180008F77809323
:1003D0008000089584B58F7702C084B58F7D84BD79
:1003E00008958091B0008F7703C08091B0008F7D19
:1003F0008093B0000895CF93DF93282F30E0F90168
:10040000ED5EFE4F8491F901E150FF4FD491F90167
:10041000E551FF4FC491CC2391F081110E94D2018C
:10042000EC2FF0E0EE0FFF1FEF51FF4FA591B491BD
:10043000EC91ED2381E090E021F480E002C080E0C7
:1004400090E0DF91CF9108951F93CF93DF93282FF2
:1004500030E0F901ED5EFE4F8491F901E150FF4F6C
:10046000D491F901E551FF4FC491CC23C9F0162F67
:1004700081110E94D201EC2FF0E0EE0FFF1FE95234
:10048000FF4FA591B4918FB7F894111105C09C91BD
:10049000ED2FE095E92302C0EC91ED2BEC938FBF9B
:1004A000DF91CF911F910895CF93C82FE8ECF2E030
:1004B0008383682F82810E942402E0ECF2E0C383F0
:1004C0006C2F82810E942402E8EBF2E0C3836C2F40
:1004D0008281CF910C942402CF93DF9390E0FC01B2
:1004E000E150FF4F2491FC01E551FF4F8491882397
:1004F00061F190E0880F991FFC01E353FF4FC59114
:10050000D491FC01E952FF4FA591B491611109C04A
:100510009FB7F8948881209582238883EC912E23BD
:100520000BC0623061F49FB7F8943881822F8095B8
:1005300083238883EC912E2B2C939FBF06C08FB70B
:10054000F894E8812E2B28838FBFDF91CF910895F7
:10055000CF93DF93FC012381211114C0EC01161607
:10056000170614F461E001C060E088810E94240253
:1005700061E089810E94240260E08981DF91CF914E
:100580000C942402DF91CF910895CF93DF93EC0177
:10059000862F688349832A8361E00E946C0261E0B0
:1005A00089810E946C0261E08A810E946C0261E094
:1005B0008A810E94240281E08B83DF91CF9108958C
:1005C0000E940F15FC0180819181009711F00C941D
:1005D000460F60E070E0CB0108951F920F920FB6B6
:1005E0000F9211242F933F938F939F93AF93BF93B9
:1005F0008091620190916301A0916401B0916501C5
:100600003091610123E0230F2D3720F40196A11DC5
:10061000B11D05C026E8230F0296A11DB11D209330
:1006200061018093620190936301A0936401B09390
:10063000650180915D0190915E01A0915F01B09193
:1006400060010196A11DB11D80935D0190935E0133
:10065000A0935F01B0936001BF91AF919F918F9183
:100660003F912F910F900FBE0F901F901895FC0196
:1006700024813581232B31F421E061157105A1F02E
:10068000FB0108C0FC01808191816115710531F485
:1006900021E0FC018081882339F005C00E941D15EE
:1006A00021E0892B09F020E0822F08950F931F93FA
:1006B000CF93DF93EC0188819981009729F02A81FB
:1006C0003B812617370788F48B016F5F7F4F0E94AD
:1006D0004514009761F0998388831B830A832C81DA
:1006E0003D81232B11F4FC01108281E001C080E0E8
:1006F000DF91CF911F910F910895EF92FF920F9389
:100700001F93CF93DF9300D0CDB7DEB78C01698301
:100710001A82FC01E480F580FFEFEF1AFF0AB701AF
:100720000E945603882381F0F80120813181848161
:100730009581BE016F5F7F4F820F931F0E94261528
:10074000F801F582E48281E00F900F90DF91CF9164
:100750001F910F91FF90EF900895CF93C1E086E62F
:1007600091E00E943201892B89F086E691E00E9497
:1007700010018A3019F4C0935A01F1CF81327CF311
:10078000682F83E092E00E947D03E9CFCF91089526
:100790000E943E0181110C94AD030895CF93DF9325
:1007A000EC0188819981009711F00E94AD131982A4
:1007B00018821D821C821B821A82DF91CF910895BC
:1007C000EF92FF920F931F93CF93DF93EC017B0186
:1007D0008A01BA010E945603811104C0CE010E9411
:1007E000CE0307C01D830C83B701888199810E94C5
:1007F0002615CE01DF91CF911F910F91FF90EF90C1
:100800000895CF93DF93EC016115710559F0FB0159
:1008100001900020E9F73197AF01461B570B0E946A
:10082000E00302C00E94CE03CE01DF91CF91089574
:10083000CF93DF93EC01FB018617970761F060818E
:1008400071816115710529F0448155810E94E00391
:1008500002C00E94CE03CE01DF91CF910895FC012A
:10086000808191810C94AD13FC011182108213825E
:100870001282158214820C941804CF93DF9300D057
:1008800000D000D0CDB7DEB7BC01CE0101960E94EA
:100890003404CE0101960E94F307CE0101960E9416
:1008A0002F0483E08093AA0226960FB6F894DEBF49
:1008B0000FBECDBFDF91CF9108950F931F93CF93BC
:1008C000DF9300D000D000D0CDB7DEB710915A0131
:1008D000112339F163E072E0CE0101960E943404E5
:1008E000CE0101960E946A08082FCE0101960E944F
:1008F0002F0401110EC063E072E0CE0101960E9448
:100900003404CE0101960E94CB08CE0101960E94CC
:100910002F046CE471E083E092E00E9401041092E5
:100920005A01812F26960FB6F894DEBF0FBECDBFB9
:10093000DF91CF911F910F910895FC0111821082D8
:1009400013821282158214826115710551F0FB0128
:1009500001900020E9F73197AF01461B570B0C942B
:10096000E0030895BF92CF92DF92EF92FF920F9330
:100970001F93CF93DF93CDB7DEB72C970FB6F894C4
:10098000DEBF0FBECDBF6C016CE471E0CE010796F7
:100990000E949D046CE471E0C6010E943703BB24F1
:1009A000B3948111B12CE12CF12CF6018481958155
:1009B000E816F90608F051C1B701C6010E94C0004F
:1009C000DC01EC914E2FEE0F550B660B770BFA0105
:1009D000E654F109E531F10508F0EFC0EC5CFF4F9A
:1009E0000C941213CE0107960E94D408882309F4B0
:1009F00013C1CE0107960E94E202F8016083718361
:100A0000828393836CE471E0CE0107960E94010417
:100A100003C1CE0107960E94D408882309F4FFC0C1
:100A2000CE0107960E94E202D8016D937D938D93CB
:100A30009C9313976CE471E0CE0107960E94010429
:100A4000EEC0CE0107960E94D408882309F4EAC0BC
:100A5000CE0107960E94E202F801608371838283CF
:100A600093836CE471E0CE0107960E940104DAC022
:100A7000CE0107960E94D408882309F4D6C0CE017F
:100A800007960E94E202D8016D937D938D939C930B
:100A900013976CE471E0CE0107960E940104C5C073
:100AA000CE0107960E94D408882309F4C1C0CE0164
:100AB00007960E94E202F801608371838283938328
:100AC0006CE471E0CE0107960E940104B1C0CE0132
:100AD00007960E94D408882309F4ADC0CE0107967A
:100AE0000E94E202D8016D937D938D939C9313979E
:100AF0006CE471E0CE0107960E9401049CC0CE0117
:100B000007960E94D408882309F498C0CE0107965E
:100B10000E94E202F80160837183828393836CE414
:100B200071E0CE0107960E94010488C0CE010796AD
:100B30000E94D408882309F484C0CE0107960E943D
:100B4000E202D8016D937D938D939C9313976CE48F
:100B500071E0CE0107960E94010473C0CE01079692
:100B60000E94D408882309F46FC0CE0107960E9422
:100B7000E202F80160837183828393836CE471E005
:100B8000CE0107960E9401045FC0CE0107960E9425
:100B9000D408882309F45BC0CE0107960E94E202C4
:100BA000D8016D937D938D939C9313976CE471E0C2
:100BB000CE0107960E9401044AC0B701C6010E94F7
:100BC000C000FC01808180334CF4B701C6010E9453
:100BD000C000DC018C918E3259F4C0C0B701C6014F
:100BE0000E94C000FC0180818A330CF4B7C0EDCFB5
:100BF000B701C6010E94C000DC018C918C3209F45F
:100C0000ADC0B701C6010E94C000FC0180818D32D9
:100C100009F4A4C0B12C1DC000E112E01AC008E123
:100C200012E017C00CE112E014C000E212E011C0A3
:100C300004E212E00EC008E212E00BC004E112E090
:100C400008C00CE212E005C000E312E002C004E3B9
:100C500012E0BFEFEB1AFB0AA8CECE0107960E9466
:100C6000D408882351F0CE0107960E94E202D801F1
:100C70006D937D938D939C931397B1100EC064E296
:100C800071E0CE0101960E949D04CE0101960E9462
:100C9000F307CE0101960E942F0420EF33E244E7D0
:100CA00059E4609118027091190280911A02909192
:100CB0001B020E94F210811110C08091910290914C
:100CC0009202A0919302B0919402809318029093A3
:100CD0001902A0931A02B0931B0220EF33E244E7FB
:100CE00059E460911C0270911D0280911E02909146
:100CF0001F020E94F210811110C080919502909104
:100D00009602A0919702B091980280931C02909352
:100D10001D02A0931E02B0931F0220EF33E244E7AE
:100D200059E46091200270912102809122029091F9
:100D300023020E94F210811126C0809199029091A5
:100D40009A02A0919B02B0919C0280932002909302
:100D50002102A0932202B093230215C0B701C6015D
:100D60000E94C000FC0180818C3211F46EE206C04A
:100D7000B701C6010E94C000DC016C91CE0107964C
:100D80000E947D0366CFCE0107960E942F048B2D13
:100D90002C960FB6F894DEBF0FBECDBFDF91CF917A
:100DA0001F910F91FF90EF90DF90CF90BF9008952B
:100DB0001F920F920FB60F9211242F933F934F93D0
:100DC0005F936F937F938F939F93AF93BF93EF93B3
:100DD000FF9386E691E00E944801FF91EF91BF9159
:100DE000AF919F918F917F916F915F914F913F91C3
:100DF0002F910F900FBE0F901F9018951F920F927A
:100E00000FB60F9211242F938F939F93EF93FF931D
:100E1000E0917601F09177018081E0917C01F09181
:100E20007D0182FD12C0908180917F018F5F8F7361
:100E300020918001821751F0E0917F01F0E0EA59A2
:100E4000FE4F958F80937F0101C08081FF91EF91CC
:100E50009F918F912F910F900FBE0F901F9018951B
:100E6000FC0180EF93E2A4E7B9E480839183A2833D
:100E7000B38384839583A683B78380879187A28772
:100E8000B38784879587A687B787808B918BA28B42
:100E9000B38B848B958BA68BB78B808F918FA28F12
:100EA000B38F848F958FA68FB78F80A391A3A2A3B2
:100EB000B3A384A395A3A6A3B7A3DF019896E8588C
:100EC000FF4F40EF53E264E779E4AE17BF0729F024
:100ED0004D935D936D937D93F8CF0895CF93DF93FA
:100EE00000D000D000D0CDB7DEB780E192E00E9404
:100EF000300781E08093AA0267E271E0CE0101969B
:100F00000E949D04CE0101960E94F307CE01019636
:100F10000E942F0481E00E94540226960FB6F89496
:100F2000DEBF0FBECDBFDF91CF9108951F920F920C
:100F30000FB60F9211242F933F934F935F936F93AC
:100F40007F938F939F93AF93BF93CF93DF93EF9351
:100F5000FF9383E00E94FB01EC0182E00E94FB0111
:100F6000C80FD91F8EE00E94FB01C80FD91F8FE068
:100F70000E94FB01C80FD91F82E10E94FB01C80F2C
:100F8000D91F83E10E94FB018C0F9D1F21E01816E1
:100F900019060CF020E02093AB02FF91EF91DF9156
:100FA000CF91BF91AF919F918F917F916F915F9101
:100FB0004F913F912F910F900FBE0F901F9018955A
:100FC0001F920F920FB60F9211248F938091AA0255
:100FD000823019F481E080935B018F910F900FBEF6
:100FE0000F901F901895EF92FF920F931F93CF933E
:100FF000DF93CDB7DEB72F970FB6F894DEBF0FBEE5
:10100000CDBF8C018091AA021B861A861D861C8684
:101010001F861E864AE0BE016F5F7F4F90E00E94F0
:101020004A0FBE016F5F7F4FCE010A960E940104F6
:10103000BE01665F7F4FCE0101960E943404F80125
:1010400024813581E080F1800D811E81E114F1045D
:10105000E1F121153105A1F0020F131FB801CE01F6
:1010600001960E945603882381F129813A818D815E
:101070009E81B701820F931F0E9426151E830D8348
:101080004D815E8169817A8186E691E00E94D2007D
:1010900042E050E06AE471E086E691E00E94D2000E
:1010A000CE0101960E942F04CE010A960E942F04C1
:1010B0002F960FB6F894DEBF0FBECDBFDF91CF9154
:1010C0001F910F91FF90EF900895CE0101960E941D
:1010D000CE03D6CF0F931F93CF93DF93CDB7DEB759
:1010E00027970FB6F894DEBF0FBECDBF8C016DE41D
:1010F00071E00E943703811110C060E571E0C80102
:101100000E94370381110BC063E571E0C8010E94A2
:101110003703811106C020E023C080E003C081E0D6
:1011200001C082E0E091AA0294E0E99FF00111245D
:10113000E655FD4FE80FF11D82818093AA028330AE
:1011400071F466E571E0CE0101960E949D04CE0126
:1011500001960E94F307CE0101960E942F0421E020
:10116000B801CE0101962F830E943404CE0101966E
:101170000E94F307CE0101960E942F042F81822F37
:1011800027960FB6F894DEBF0FBECDBFDF91CF918B
:101190001F910F910895BC0189E092E00E9418040C
:1011A00081E080930F0208956CE471E00E943703A0
:1011B00091E0811190E0892F0895CF93DF9300D0C3
:1011C00000D000D0CDB7DEB7789484B5826084BDFE
:1011D00084B5816084BD85B5826085BD85B581603B
:1011E00085BD80916E00816080936E0010928100B9
:1011F0008091810082608093810080918100816074
:101200008093810080918000816080938000809134
:10121000B10084608093B1008091B00081608093C0
:10122000B00080917A00846080937A0080917A0087
:10123000826080937A0080917A00816080937A0046
:1012400080917A00806880937A001092C100F894AF
:1012500014BC15BC16BC89EF87BD84B5826084BD03
:1012600085B5836085BD80916E00826080936E003D
:10127000109280001092810080E690EF909385009C
:1012800080938400809181008260809381008091AE
:101290006F00816080936F007894E0917601F09107
:1012A000770182E08083E0917201F09173011082F6
:1012B000E0917401F091750180E1808310927E01CC
:1012C000E0917A01F0917B0186E08083E0917801E2
:1012D000F0917901808180618083E0917801F091C3
:1012E0007901808188608083E0917801F0917901B3
:1012F000808180688083E0917801F091790180811C
:101300008F7D808361E08DE00E946C0260E083E06D
:101310000E946C0260E082E00E946C0260E08EE05D
:101320000E946C0260E08FE00E946C0260E082E14B
:101330000E946C0260E083E10E946C0260E086E142
:101340000E946C0227E04CE06BE088EC92E00E9487
:10135000C50226E04AE069E080EC92E00E94C50206
:1013600020E14EE06FE088EB92E00E94C50200E6CB
:1013700010EF88E7282E8CEE382E8091AA0281305B
:1013800049F008F4F1C4823009F439C2833009F419
:10139000EBC4EDC40E945D0480910F02882309F420
:1013A000F6C410920F0269E072E0CE0101960E942D
:1013B0003404CE0101960E94B204F82ECE010196AB
:1013C0000E942F04FF2009F4E2C460911002709182
:1013D000110280911202909113020E94D71265307F
:1013E000710564F4623071050CF000C2611571057D
:1013F00051F06130710509F479C0CAC16C317105D1
:1014000009F4F4C1C5C1209191023091920240913A
:101410009302509194026091180270911902809188
:101420001A0290911B020E94F21087FF05C080E013
:1014300090E0A0E8BFEB04C080E090E0A0E8BFE34C
:101440008093380290933902A0933A02B0933B0202
:101450002091950230919602409197025091980206
:1014600060911C0270911D0280911E0290911F02DA
:101470000E94F21087FF05C080E090E0A0E8BFEB7B
:1014800004C080E090E0A0E8BFE380933C0290932A
:101490003D02A0933E02B0933F0220919902309109
:1014A0009A0240919B0250919C026091200270919F
:1014B000210280912202909123020E94F21087FF64
:1014C00005C080E090E0A0E8BFEB04C080E090E0C1
:1014D000A0E8BFE38093400290934102A0934202B0
:1014E000B093430280E00E94540280C1C0909102F8
:1014F000D0909202E0909302F090940280901802B3
:1015000090901902A0901A02B0901B02A5019401BC
:10151000C701B6010E94F210811125C020911C0262
:1015200030911D0240911E0250911F026091950260
:101530007091960280919702909198020E94F21009
:10154000882381F210923C0210923D0210923E02DA
:1015500010923F02109238021092390210923A0211
:1015600010923B0233C0A5019401C701B6010E944D
:10157000F21087FF11C080E090E0A0E8BFE3809305
:101580003C0290933D02A0933E02B0933F02A7011C
:101590009601C501B40110C080E090E0A0E8BFEB67
:1015A00080933C0290933D02A0933E02B0933F0291
:1015B000A5019401C701B6010E946A126093380226
:1015C0007093390280933A0290933B02C090950247
:1015D000D0909602E0909702F090980280901C02C2
:1015E00090901D02A0901E02B0901F02A5019401D0
:1015F000C701B6010E94F210811111C0109244027D
:101600001092450210924602109247021092400238
:1016100010924102109242021092430233C0A5017F
:101620009401C701B6010E94F21087FF11C080E04B
:1016300090E0A0E8BFE38093440290934502A0931A
:101640004602B0934702A7019601C501B40110C03C
:1016500080E090E0A0E8BFEB8093440290934502C5
:10166000A0934602B0934702A5019401C701B601B9
:101670000E946A126093400270934102809342027A
:10168000909343028090380290903902A0903A02E1
:10169000B0903B02C0904002D0904102E0904202E4
:1016A000F0904302A7019601C501B4010E940D13F9
:1016B0001816CCF5A5019401C701B6010E946A1263
:1016C0009B01AC010E946B12609348027093490227
:1016D00080934A0290934B02A7019601C701B6017D
:1016E0000E946B1260934C0270934D0280934E02E5
:1016F00090934F02A50194010E946A1260935002D8
:1017000070935102809352029093530280E090E0D4
:10171000A0E8BFE38093540290935502A093560231
:10172000B0935702DFCEA7019601C501B4010E9414
:101730006A129B01AC010E946B1260934802709385
:10174000490280934A0290934B02A5019401C5017E
:10175000B4010E946B1260934C0270934D0280930F
:101760004E0290934F02A70196010E946A12609365
:101770005002709351028093520290935302109240
:101780005402109255021092560210925702AACE9D
:1017900060911402709115028091160290911702C7
:1017A0000E94D7126350710963307105F8F060919F
:1017B00034027091350280913602909137020E9476
:1017C000D7126430710590F06AE271E0CE010196A3
:1017D0000E949D04CE0101960E943D04CE01019617
:1017E0000E942F0480E192E00E9430078091AA02BB
:1017F000813009F0CCC292E09093AA02C8C28091D5
:101800005B01882309F4C3C2609110027091110238
:1018100080911202909113020E94D71265307105D7
:1018200064F4623071050CF09CC26115710551F0D1
:101830006130710509F4FDC058C26C31710509F4BD
:1018400090C253C2109385000093840020919102AE
:10185000309192024091930250919402609118024B
:101860007091190280911A0290911B020E94F2104D
:10187000882341F1609138027091390280913A02D7
:1018800090913B020E94D71288EC92E00E94A8023D
:10189000209138023091390240913A0250913B0236
:1018A00060919102709192028091930290919402C2
:1018B0000E946B1260939102709392028093930244
:1018C0009093940220919502309196024091970254
:1018D0005091980260911C0270911D0280911E022D
:1018E00090911F020E94F210882341F160913C0206
:1018F00070913D0280913E0290913F020E94D7126A
:1019000080EC92E00E94A80220913C0230913D02BE
:1019100040913E0250913F02609195027091960273
:1019200080919702909198020E946B1260939502A9
:101930007093960280939702909398022091990257
:1019400030919A0240919B0250919C02609120023A
:101950007091210280912202909123020E94F21044
:10196000882341F1609140027091410280914202CE
:10197000909143020E94D71288EB92E00E94A80245
:101980002091400230914102409142025091430225
:101990006091990270919A0280919B0290919C02B1
:1019A0000E946B126093990270939A0280939B023B
:1019B00090939C0220919102309192024091930267
:1019C00050919402609118027091190280911A024C
:1019D00090911B020E94F2108111C3C120919502C7
:1019E00030919602409197025091980260911C02AA
:1019F00070911D0280911E0290911F020E94F210B0
:101A00008111AFC12091990230919A0240919B02BD
:101A100050919C02609120027091210280912202DB
:101A2000909123020E94F21081119BC10E946E07C7
:101A300098C1309285002092840020E030E040E898
:101A40005FE360915402709155028091560290912B
:101A500057020E94F210811198C0809091029090DC
:101A60009202A0909302B0909402209118023091BB
:101A7000190240911A0250911B02C501B4010E9443
:101A8000F210882309F496CF4090500250905102F2
:101A9000609052027090530220E030E0A901C3012F
:101AA000B2010E940D13C0903C02D0903D02E09024
:101AB0003E02F0903F0287FD3FC0A7019601C5019D
:101AC000B4010E946B126093910270939202809312
:101AD00093029093940220914402309145024091E8
:101AE0004602509147026091950270919602809152
:101AF0009702909198020E946B12609395027093E6
:101B00009602809397029093980220914802309118
:101B1000490240914A0250914B02C301B2010E9416
:101B20006B12609350027093510280935202909313
:101B30005302C701B60197C020914C0230914D026B
:101B400040914E0250914F02C301B2010E946B12AC
:101B5000609350027093510280935202909353020B
:101B6000A7019601C501B4010E946B126093910216
:101B7000709392028093930290939402C701B601EE
:101B80000E94D71288EC92E0ADC0C0909502D09030
:101B90009602E0909702F090980220911C023091FA
:101BA0001D0240911E0250911F02C701B6010E9402
:101BB000F210882309F4FECE8090500290905102DA
:101BC000A0905202B090530220E030E0A901C5017C
:101BD000B4010E940D1387FD55C040903C02509007
:101BE0003D0260903E0270903F02A301920160911D
:101BF00091027091920280919302909194020E94BE
:101C00006B1260939102709392028093930290936F
:101C10009402209144023091450240914602509135
:101C20004702C701B6010E946B1260939502709340
:101C300096028093970290939802209148023091E7
:101C4000490240914A0250914B02C501B4010E94E1
:101C50006B126093500270935102809352029093E2
:101C60005302C301B2010E94D71288EC92E00E9495
:101C7000A8026091440270914502809146029091C1
:101C800047022CC020914C0230914D0240914E02EF
:101C900050914F02C501B4010E946B126093500233
:101CA00070935102809352029093530280904402A9
:101CB00090904502A0904602B0904702A501940181
:101CC000C701B6010E946B12609395027093960251
:101CD0008093970290939802C501B4010E94D71295
:101CE00080EC92E00E94A80265CE6091140270918F
:101CF000150280911602909117020E94D71263502C
:101D000071096330710568F1609134027091350298
:101D100080913602909137020E94D712643071058B
:101D200000F16DE271E0CE0101960E949D04CE01AA
:101D300001960E94F307CE0101960E942F0464E4ED
:101D400071E0CE0101960E949D04CE0101960E9491
:101D5000F307CE0101960E942F0480E192E00E94D9
:101D6000300710925B0113C00E945D0410C067E44D
:101D700071E0CE0101960E949D04CE0101960E9461
:101D80003D04CE0101960E942F041092AA020E94E7
:101D9000C803F3CA83E092E00E942F0489E092E036
:101DA0000C942F04E6E6F1E01382128288EE93E0B1
:101DB000A0E0B0E084839583A683B78386E191E0B9
:101DC0009183808385EC90E09587848784EC90E014
:101DD0009787868780EC90E0918B808B81EC90E0F8
:101DE000938B828B82EC90E0958B848B86EC90E0D9
:101DF000978B868B118E128E138E148EE8ECF2E088
:101E000014821582168217821382E0ECF2E01482AB
:101E10001582168217821382E8EBF2E01482158293
:101E20001682178213828CE0E6E0F1E0ACEAB2E0C1
:101E300001900D928A95E1F71092AA0210929102F8
:101E400010929202109293021092940210929502B4
:101E50001092960210929702109298021092990294
:101E600010929A0210929B0210929C0280E192E0E2
:101E70000E9430076CE471E089E092E00E949D04CA
:101E80006CE471E083E092E00C949D046627772770
:101E90000C94640FBB27FB015527AA27880F991FB5
:101EA000AA1FA41710F0A41B83955051B9F7A05D89
:101EB000AA3308F0A95DA193009779F7B111B19306
:101EC0001192CB010C94E210A0E0B0E0EAE6FFE052
:101ED0000C942812EC017B016115710519F0DB01EE
:101EE0008D939C938E010F5F1F4F7880872D90E01C
:101EF0000E94C110892B11F0E801F4CFBDE27B12E2
:101F000005C00F5F1F4F7980C1E008C0EBE27E1271
:101F100004C08E010E5F1F4F7980C0E06801F1E0C0
:101F2000CF1AD10843E050E06AE970E0C6010E9490
:101F3000CA10892BF1F4680122E0C20ED11C45E0E1
:101F400050E065E970E0C6010E94CA10892B21F4B7
:101F5000680187E0C80ED11CE114F10419F0D70123
:101F6000CD92DC92C111FFC060E070E080E89FE795
:101F700003C143E050E062E970E0C6010E94CA106C
:101F8000892B51F4E114F10409F4F2C00E5F1F4FE4
:101F9000F70111830083ECC0680160E070E0CB01C1
:101FA00000E010E0F601D0EDD70DDA3058F52C2F17
:101FB0002260622E2C2F2870C2FF05C0211128C07C
:101FC0000F5F1F4F25C0222311F001501109A5E01A
:101FD000B0E09B01AC010E9419124B015C01880C1E
:101FE000991CAA1CBB1CC501B4016D0F711D811D7C
:101FF000911D6839A9E97A078A07A9E19A0740F093
:10200000C66005C0DE3F51F4C3FD44C0C8606C2EFD
:10201000BFEFCB1ADB0A7080C62DC4CF2D2F2F7DCA
:102020002531C1F540814D3211F4C06106C04B32FB
:1020300021F0319621E030E006C03296D6011196AB
:102040004C9122E030E0A0EDA40FAA3018F0E21B82
:10205000F30B20C040E050E04038BCE05B075CF48C
:102060009A01220F331F220F331F420F531F440FB9
:10207000551F4A0F511D3196DF0111972C91A0ED8C
:10208000A20FAA3048F3C4FF03C0519541955109EE
:10209000040F151FC1FF07C0E114F10421F03197AF
:1020A000D701ED93FC930E94F710C370C33019F071
:1020B0006B017C0106C06B017C01F7FAF094F7F824
:1020C000F09420E030E0A901C701B6010E94F210AF
:1020D000882309F445C017FF06C011950195110921
:1020E000C1EBD0E002C0C9ECD0E05E01B8E1AB1AB0
:1020F000B1084601BE2DAF2D90E2E92EF12C0E1550
:102100001F0584F0FE012591359145915491B4014C
:102110008B2F9A2F0E9458114B01B82FA92F0E19FF
:102120001F09EDCF2497F594E794CA15DB0539F71D
:102130006401EB2EFA2E8E2D880F8F2D881F8F3F76
:1021400049F020E030E0A901C701B6010E94F21079
:10215000811106C082E290E09093D1028093D00278
:10216000C701B60109C060E070E080E89FEF04C0DD
:1021700060E070E080EC9FE7CDB7DEB7EEE00C9456
:10218000441291110C94C511803219F08950855078
:10219000C8F70895FB01DC014150504088F08D9153
:1021A00081341CF08B350CF4805E659161341CF039
:1021B0006B350CF4605E861B611171F3990B089509
:1021C000881BFCCFDC01FC01672F71917723E1F7BD
:1021D000329704C07C916D9370836291AE17BF07F4
:1021E000C8F308950E94341108F481E00895E8943A
:1021F00009C097FB3EF490958095709561957F4F4F
:102200008F4F9F4F9923A9F0F92F96E9BB279395FC
:10221000F695879577956795B795F111F8CFFAF40C
:10222000BB0F11F460FF1BC06F5F7F4F8F4F9F4F3D
:1022300016C0882311F096E911C0772321F09EE89B
:10224000872F762F05C0662371F096E8862F70E001
:1022500060E02AF09A95660F771F881FDAF7880FDB
:102260009695879597F90895990F0008550FAA0B31
:10227000E0E8FEEF16161706E807F907C0F0121699
:102280001306E407F50798F0621B730B840B950B9C
:1022900039F40A2661F0232B242B252B21F40895F1
:1022A0000A2609F4A140A6958FEF811D811D08958E
:1022B0000E946B110C94DF110E94D11138F00E9422
:1022C000D81120F0952311F00C94C8110C94CE1164
:1022D00011240C9413120E94F01170F3959FC1F316
:1022E000950F50E0551F629FF001729FBB27F00DC4
:1022F000B11D639FAA27F00DB11DAA1F649F662719
:10230000B00DA11D661F829F2227B00DA11D621F67
:10231000739FB00DA11D621F839FA00D611D221F21
:10232000749F3327A00D611D231F849F600D211D05
:10233000822F762F6A2F11249F5750409AF0F1F088
:1023400088234AF0EE0FFF1FBB1F661F771F881FF1
:1023500091505040A9F79E3F510580F00C94C81150
:102360000C9413125F3FE4F3983ED4F3869577956F
:102370006795B795F795E7959F5FC1F7FE2B880F97
:10238000911D9695879597F908959927882708951F
:1023900097F99F6780E870E060E008959FEF80EC18
:1023A000089500240A9416161706180609060895BB
:1023B00000240A9412161306140605060895092E21
:1023C0000394000C11F4882352F0BB0F40F4BF2B90
:1023D00011F460FF04C06F5F7F4F8F4F9F4F0895D0
:1023E00057FD9058440F551F59F05F3F71F04795C6
:1023F000880F97FB991F61F09F3F79F087950895AB
:10240000121613061406551FF2CF4695F1DF08C0C9
:10241000161617061806991FF1CF869571056105E6
:1024200008940895E894BB2766277727CB0197F98E
:1024300008950E945B12A59F900DB49F900DA49FDC
:10244000800D911D112408952F923F924F925F921B
:102450006F927F928F929F92AF92BF92CF92DF92B4
:10246000EF92FF920F931F93CF93DF93CDB7DEB719
:10247000CA1BDB0B0FB6F894DEBF0FBECDBF0994AD
:102480002A88398848885F846E847D848C849B8404
:10249000AA84B984C884DF80EE80FD800C811B8112
:1024A000AA81B981CE0FD11D0FB6F894DEBF0FBE41
:1024B000CDBFED010895A29FB001B39FC001A39FBE
:1024C000700D811D1124911DB29F700D811D11246D
:1024D000911D08955058BB27AA270E9482120C9480
:1024E000DF110E94D11138F00E94D81120F039F488
:1024F0009F3F19F426F40C94CE110EF4E095E7FBFF
:102500000C94C811E92F0E94F01158F3BA17620712
:1025100073078407950720F079F4A6F50C9412123E
:102520000EF4E0950B2EBA2FA02D0B01B9019001EE
:102530000C01CA01A0011124FF27591B99F0593F32
:1025400050F4503E68F11A16F040A22F232F342F7A
:102550004427585FF3CF469537952795A795F040C8
:102560005395C9F77EF41F16BA0B620B730B840BDD
:10257000BAF09150A1F0FF0FBB1F661F771F881F95
:10258000C2F70EC0BA0F621F731F841F48F48795ED
:1025900077956795B795F7959E3F08F0B0CF9395DF
:1025A000880F08F09927EE0F9795879508950E9458
:1025B000DE126894B1110C94131208950E94F81160
:1025C00088F09F5798F0B92F9927B751B0F0E1F0F4
:1025D000660F771F881F991F1AF0BA95C9F714C0A4
:1025E000B13091F00E941212B1E008950C941212D1
:1025F000672F782F8827B85F39F0B93FCCF38695DD
:1026000077956795B395D9F73EF490958095709539
:1026100061957F4F8F4F9F4F08950E94341108F4AA
:102620008FEF0895EE0FFF1F0590F491E02D0994B0
:10263000CF93DF938230910510F482E090E0E09137
:10264000D402F091D50220E030E0C0E0D0E0309735
:1026500011F14081518148175907C0F048175907B7
:1026600061F482819381209719F09B838A832BC028
:102670009093D5028093D40226C02115310519F01C
:102680004217530718F49A01BE01DF01EF010280DF
:10269000F381E02DDCCF2115310509F1281B390B21
:1026A0002430310590F412968D919C911397611509
:1026B000710521F0FB019383828304C09093D502BE
:1026C0008093D402FD01329644C0FD01E20FF31F56
:1026D00081939193225031092D933C933AC02091DC
:1026E000D2023091D302232B41F420910201309188
:1026F00003013093D3022093D20220910001309144
:1027000001012115310541F42DB73EB74091040177
:1027100050910501241B350BE091D202F091D302B8
:10272000E217F307A0F42E1B3F0B2817390778F0A8
:10273000AC014E5F5F4F2417350748F04E0F5F1F07
:102740005093D3024093D2028193919302C0E0E070
:10275000F0E0CF01DF91CF9108950F931F93CF93B6
:10276000DF93009709F48CC0FC0132971382128228
:102770000091D4021091D5020115110581F4208138
:102780003181820F931F2091D2023091D3022817FA
:10279000390779F5F093D302E093D20271C0D801E2
:1027A00040E050E0AE17BF0750F412962D913C91D7
:1027B0001397AD012115310509F1D901F3CF9D0121
:1027C000DA013383228360817181860F971F82171C
:1027D000930769F4EC0128813981260F371F2E5F9A
:1027E0003F4F318320838A819B8193838283452B52
:1027F00029F4F093D502E093D40242C01396FC93DF
:10280000EE931297ED01499159919E01240F351FC6
:10281000E217F30771F480819181840F951F02966E
:1028200011969C938E938281938113969C938E93A1
:102830001297E0E0F0E0D80112968D919C911397E9
:10284000009719F0F8018C01F6CF8D919C919801B9
:102850002E5F3F4F820F931F2091D2023091D302FF
:102860002817390769F4309729F41092D50210928D
:10287000D40202C0138212821093D3020093D202B8
:10288000DF91CF911F910F910895A0E0B0E0EBE4AC
:10289000F4E10C942812EC01009721F4CB010E9482
:1028A0001813B8C0FC01E60FF71F9C012250310934
:1028B000E217F30708F4ACC0D9010D911C911197F0
:1028C00006171707B0F00530110508F49FC0C801BE
:1028D00004978617970708F499C002501109061B40
:1028E000170B019311936D937C93CF010E94AD134D
:1028F0008DC05B01A01AB10A4C01800E911EA091FF
:10290000D402B091D50240E050E0E12CF12C1097B8
:1029100009F44AC0A815B905D1F56D907C901197BE
:10292000630182E0C80ED11CCA14DB0480F1A3014C
:102930004A195B096A0182E0C80ED11C1296BC904C
:1029400012971396AC91B5E0CB16D10440F0B28249
:10295000A38351834083D9016D937C930AC00E5F9A
:102960001F4FC301800F911FF90191838083EB2DCD
:10297000FA2FE114F10431F0D7011396FC93EE9392
:10298000129744C0F093D502E093D4023FC08D91DA
:102990009C9111974817590708F4AC017D011296D4
:1029A0000D90BC91A02DB3CF8091D2029091D30213
:1029B00088159905E1F446175707C8F4809100017E
:1029C00090910101009741F48DB79EB740910401A9
:1029D00050910501841B950BE817F907C8F4F09393
:1029E000D302E093D202F901718360830FC0CB015F
:1029F0000E9418137C01009759F0A801BE010E94A3
:102A00001415CE010E94AD13C70104C0CE0102C04F
:102A100080E090E0CDB7DEB7EEE00C94441281E0A8
:102A200090E0F8940C942D15FB01DC0102C001909C
:102A30000D9241505040D8F70895FB01DC018D9173
:102A4000019080190110D9F3990B0895FB01DC0165
:102A500001900D920020E1F7089510E0C5E9D0E063
:102A600004C0FE010E9412132196C639D107C9F78E
:042A7000F894FFCF08
:102A74000000D602800001030303000303030000E7
:102A84000000000000006901D2000101B001320120
:102A94001001240157310055350045330045525289
:102AA4004F522E20554E4B4E4F574E20434F4D4DB7
:102AB400414E44004530004532000D0A00553400B3
:0A2AC400553600553700453100007B
:00000001FF
