:100000000C9496000C94BE000C94BE000C94BE00A0
:100010000C94BE000C94BE000C94BE000C94BE0068
:100020000C94BE000C94BE000C94BE000C94BE0058
:100030000C94BE000C94AA060C9460060C94BE00AE
:100040000C94BF020C94BE000C942E060C9408066F
:100050000C94BE000C94BE000C94BE000C94BE0028
:100060000C94BE000C94BE00530597048205F50461
:100070000C0582058205240582058205820582051C
:1000800082053B0582056A0582058205AE04C60429
:10009000DD044E414E494E495459494E46CDCCCCD3
:1000A0003D0AD7233C17B7D13877CC2B329595E64C
:1000B000241FB14F0A000020410000C84200401C2C
:1000C0004620BCBE4CCA1B0E5AAEC59D7400000033
:1000D00000240027002A0000000000250028002B33
:1000E000000000000023002600290004040404048A
:1000F00004040402020202020203030303030301D5
:1001000002040810204080010204081020010204AB
:10011000081020000000080002010000030407008E
:100120000000000000000000B90DB10D11241FBE39
:10013000CFEFD8E0DEBFCDBF24E0AAE8B1E001C038
:100140001D92A534B207E1F711E0A0E0B1E0E2E9C9
:10015000F8E202C005900D92AA38B107D9F710E075
:10016000C5E9D0E004C02197FE010E942112C439E4
:10017000D107C9F70E94260A0C943C140C94000085
:10018000FC01248135816217730720F480819181FD
:10019000009729F410928B018BE891E00895860F67
:1001A000971F0895CF92DF92EF92FF920F931F93C4
:1001B000CF93DF936C017A018B01C0E0D0E0CE15C4
:1001C000DF0589F0D8016D918D01D601ED91FC918B
:1001D0000190F081E02DC6010995892B11F47E0173
:1001E00002C02196ECCFC701DF91CF911F910F91F3
:1001F000FF90EF90DF90CF900895089580E090E019
:100200000895FC01538D448D252F30E0842F90E01C
:10021000821B930B541710F0CF9608950197089501
:10022000FC01918D828D981761F0828DDF01A80FFE
:10023000B11D5D968C91928D9F5F9F73928F90E020
:1002400008958FEF9FEF0895FC01918D828D98178F
:1002500031F0828DE80FF11D858D90E008958FEFCC
:100260009FEF0895FC01918D228D892F90E0805C95
:100270009F4F821B91098F739927089585E991E01B
:100280000E94320121E0892B09F420E0822F089599
:10029000FC01848DDF01A80FB11DA35ABF4F2C9123
:1002A000848D90E001968F739927848FA689B789F2
:1002B0002C93A089B1898C9180648C93938D848DCB
:1002C000981306C00288F389E02D80818F7D80839A
:1002D0000895EF92FF920F931F93CF93DF93EC015A
:1002E00081E0888F9B8D8C8D981305C0E889F989F2
:1002F000808185FD24C0F62E0B8D10E00F5F1F4F0F
:100300000F731127E02E8C8DE8120CC00FB607FC7E
:10031000FACFE889F989808185FFF5CFCE010E9467
:100320004801F1CF8B8DFE01E80FF11DE35AFF4F1D
:10033000F0820B8FEA89FB898081806207C0EE8999
:10034000FF896083E889F98980818064808381E006
:1003500090E0DF91CF911F910F91FF90EF90089562
:10036000CF93DF93EC01888D8823C9F0EA89FB895C
:10037000808185FD05C0A889B9898C9186FD0FC053
:100380000FB607FCF5CF808185FFF2CFA889B98928
:100390008C9185FFEDCFCE010E944801E7CFDF9120
:1003A000CF910895833081F028F4813099F0823024
:1003B000A1F008958730A9F08830B9F08430D1F4E5
:1003C000809180008F7D03C0809180008F77809323
:1003D0008000089584B58F7702C084B58F7D84BD79
:1003E00008958091B0008F7703C08091B0008F7D19
:1003F0008093B0000895CF93DF93282F30E0F90168
:10040000ED5EFE4F8491F901E150FF4FD491F90167
:10041000E551FF4FC491CC2391F081110E94D2018C
:10042000EC2FF0E0EE0FFF1FEF51FF4FA591B491BD
:10043000EC91ED2381E090E021F480E002C080E0C7
:1004400090E0DF91CF9108951F93CF93DF93282FF2
:1004500030E0F901ED5EFE4F8491F901E150FF4F6C
:10046000D491F901E551FF4FC491CC23C9F0162F67
:1004700081110E94D201EC2FF0E0EE0FFF1FE95234
:10048000FF4FA591B4918FB7F894111105C09C91BD
:10049000ED2FE095E92302C0EC91ED2BEC938FBF9B
:1004A000DF91CF911F910895CF93DF9390E0FC01EE
:1004B000E150FF4F2491FC01E551FF4F84918823C7
:1004C00061F190E0880F991FFC01E353FF4FC59144
:1004D000D491FC01E952FF4FA591B491611109C07B
:1004E0009FB7F8948881209582238883EC912E23EE
:1004F0000BC0623061F49FB7F8943881822F8095E9
:1005000083238883EC912E2B2C939FBF06C08FB73B
:10051000F894E8812E2B28838FBFDF91CF91089527
:1005200061E0FC0182810C942402CF93DF93FC01F3
:100530002381211114C0EC011616170614F461E092
:1005400001C060E088810E94240261E089810E94EC
:10055000240260E08981DF91CF910C942402DF9125
:10056000CF9108950E941E14FC0180819181009713
:1005700011F00C94550E60E070E0CB0108951F92CD
:100580000F920FB60F9211242F933F938F939F9347
:10059000AF93BF938091910190919201A0919301AB
:1005A000B09194013091900123E0230F2D3720F476
:1005B0000196A11DB11D05C026E8230F0296A11DBD
:1005C000B11D209390018093910190939201A0938B
:1005D0009301B093940180918C0190918D01A09131
:1005E0008E01B0918F010196A11DB11D80938C01E8
:1005F00090938D01A0938E01B0938F01BF91AF9125
:100600009F918F913F912F910F900FBE0F901F9050
:100610001895FC0124813581232B31F421E06115EB
:100620007105A1F0FB0108C0FC0180819181611579
:10063000710531F421E0FC018081882339F005C087
:100640000E942C1421E0892B09F020E0822F0895CC
:100650000F931F93CF93DF93EC01888199810097CB
:1006600029F02A813B812617370788F48B016F5FB9
:100670007F4F0E945413009761F0998388831B83F6
:100680000A832C813D81232B11F4FC01108281E02F
:1006900001C080E0DF91CF911F910F910895EF92FB
:1006A000FF920F931F93CF93DF9300D0CDB7DEB7A8
:1006B0008C0169831A82FC01E480F580FFEFEF1A58
:1006C000FF0AB7010E942803882381F0F8012081E6
:1006D000318184819581BE016F5F7F4F820F931FAF
:1006E0000E943514F801F582E48281E00F900F90AA
:1006F000DF91CF911F910F91FF90EF900895CF93CD
:10070000C1E085E991E00E943201892B89F085E9F9
:1007100091E00E9410018A3019F4C0938A01F1CF50
:1007200081327CF3682F82E392E00E944F03E9CF8D
:10073000CF9108950E943E0181110C947F0308958A
:10074000CF93DF93EC0188819981009711F00E948B
:10075000BC12198218821D821C821B821A82DF91B0
:10076000CF910895EF92FF920F931F93CF93DF9352
:10077000EC017B018A01BA010E942803811104C0A7
:10078000CE010E94A00307C01D830C83B70188819E
:1007900099810E943514CE01DF91CF911F910F9165
:1007A000FF90EF900895CF93DF93EC0161157105F1
:1007B00059F0FB0101900020E9F73197AF01461B8A
:1007C000570B0E94B20302C00E94A003CE01DF912A
:1007D000CF910895CF93DF93EC01FB018617970724
:1007E00061F0608171816115710529F04481558145
:1007F0000E94B20302C00E94A003CE01DF91CF91FC
:100800000895FC01808191810C94BC12FC0111823D
:10081000108213821282158214820C94EA030F93C1
:100820001F93CF93DF9300D000D000D0CDB7DEB7B9
:1008300010918A01112339F162E372E0CE01019631
:100840000E940604CE0101960E94C509082FCE0120
:1008500001960E94010401110EC062E372E0CE0114
:1008600001960E940604CE0101960E94140ACE0150
:1008700001960E9401046FE771E082E392E00E941A
:10088000D30310928A01812F26960FB6F894DEBF0B
:100890000FBECDBFDF91CF911F910F910895FC0145
:1008A00011821082138212821582148261157105E1
:1008B00051F0FB0101900020E9F73197AF01461B91
:1008C000570B0C94B2030895CF92DF92EF92FF92F0
:1008D0000F931F93CF93DF9300D000D000D0CDB7FC
:1008E000DEB76C016FE771E0CE0101960E944F0404
:1008F000E12CF12CF60184819581E816F90608F0C7
:100900004FC1B701C6010E94C000DC01EC918E2FDF
:10091000EE0F990BAA0BBB0BFC01E654F109E53174
:10092000F10508F0EFC0EC5CFF4F0C942112CE01F2
:1009300001960E941D0A882309F411C1CE01019677
:100940000E94B402F80160837183828393836FE70E
:1009500071E0CE0101960E94D30301C1CE01019640
:100960000E941D0A882309F4FDC0CE0101960E9451
:10097000B402D8016D937D938D939C9313976FE789
:1009800071E0CE0101960E94D303ECC0CE01019626
:100990000E941D0A882309F4E8C0CE0101960E9436
:1009A000B402F80160837183828393836FE771E0FF
:1009B000CE0101960E94D303D8C0CE0101960E94B9
:1009C0001D0A882309F4D4C0CE0101960E94B40206
:1009D000D8016D937D938D939C9313976FE771E08E
:1009E000CE0101960E94D303C3C0CE0101960E949E
:1009F0001D0A882309F4BFC0CE0101960E94B402EB
:100A0000F80160837183828393836FE771E0CE0185
:100A100001960E94D303AFC0CE0101960E941D0A29
:100A2000882309F4ABC0CE0101960E94B402D8011C
:100A30006D937D938D939C9313976FE771E0CE0137
:100A400001960E94D3039AC0CE0101960E941D0A0E
:100A5000882309F496C0CE0101960E94B402F801E1
:100A600060837183828393836FE771E0CE01019687
:100A70000E94D30386C0CE0101960E941D0A8823DE
:100A800009F482C0CE0101960E94B402D8016D9390
:100A90007D938D939C9313976FE771E0CE01019640
:100AA0000E94D30371C0CE0101960E941D0A8823C3
:100AB00009F46DC0CE0101960E94B402F801608372
:100AC0007183828393836FE771E0CE0101960E9468
:100AD000D3035DC0CE0101960E941D0A882309F44C
:100AE00059C0CE0101960E94B402D8016D937D9346
:100AF0008D939C9313976FE771E0CE0101960E944E
:100B0000D30348C0B701C6010E94C000FC01808128
:100B100080334CF4B701C6010E94C000DC018C9107
:100B20008E3259F460C0B701C6010E94C000FC01BA
:100B300080818A330CF457C0EDCFB701C6010E9403
:100B4000C000DC018C918C3209F44DC0B701C601A4
:100B50000E94C000FC0180818D32F1F444C00FE39B
:100B600012E01AC007E412E017C00BE412E014C050
:100B70000FE412E011C003E512E00EC007E512E039
:100B80000BC003E412E008C00BE512E005C00FE55E
:100B900012E002C003E612E0BFEFEB1AFB0AAACE96
:100BA000CE0101960E941D0A882351F0CE010196C4
:100BB0000E94B402D8016D937D938D939C931397FB
:100BC000CE0101960E94010426960FB6F894DEBF6E
:100BD0000FBECDBFDF91CF911F910F91FF90EF908E
:100BE000DF90CF900895B701C6010E94C000FC01BC
:100BF00080818C3211F46EE206C0B701C6010E94FA
:100C0000C000DC016C91CE0101960E944F03C4CF5D
:100C10001F920F920FB60F9211242F933F934F9371
:100C20005F936F937F938F939F93AF93BF93EF9354
:100C3000FF9385E991E00E944801FF91EF91BF91F8
:100C4000AF919F918F917F916F915F914F913F9164
:100C50002F910F900FBE0F901F9018951F920F921B
:100C60000FB60F9211242F938F939F93EF93FF93BF
:100C7000E091A501F091A6018081E091AB01F09196
:100C8000AC0182FD12C090818091AE018F5F8F73A5
:100C90002091AF01821751F0E091AE01F0E0EB56E8
:100CA000FE4F958F8093AE0101C08081FF91EF913F
:100CB0009F918F912F910F900FBE0F901F901895BD
:100CC0001F920F920FB60F9211242F933F934F93C1
:100CD0005F936F937F938F939F93AF93BF93CF93C4
:100CE000DF93EF93FF9383E00E94FB01EC0182E02E
:100CF0000E94FB01C80FD91F8EE00E94FB01C80FA4
:100D0000D91F8FE00E94FB01C80FD91F82E10E940A
:100D1000FB01C80FD91F83E10E94FB018C0F9D1FAF
:100D200021E0181619060CF020E020931A04FF9118
:100D3000EF91DF91CF91BF91AF919F918F917F9173
:100D40006F915F914F913F912F910F900FBE0F9038
:100D50001F9018951F920F920FB60F9211244F9269
:100D60005F926F927F928F929F92AF92BF92CF923B
:100D7000DF92EF92FF921F932F933F934F935F93D6
:100D80006F937F938F939F93AF93BF93EF93FF9353
:100D9000CF93DF93CDB7DEB72697DEBFCDBF8BEF06
:100DA00092EF9093850080938400809119048230A3
:100DB00009F04EC260913F02709140028091410261
:100DC000909142020E94E6116530710564F4623030
:100DD00071050CF03DC26115710509F439C261302D
:100DE000710531F0A0C16C31710509F09CC130C2B0
:100DF00080E690EF909385008093840080911904A1
:100E0000823071F011E0109332048FE294E00E947E
:100E1000900210932A0487E294E00E94900257C146
:100E200020E030E040E85FE360918302709184024B
:100E300080918502909186020E940110811198C0D4
:100E40008090FF0390900004A0900104B0900204F1
:100E500020914702309148024091490250914A0244
:100E6000C501B4010E940110882309F430C14090EB
:100E70007F0250908002609081027090820220E098
:100E800030E0A901C301B2010E941C12C0906B02A4
:100E9000D0906C02E0906D02F0906E0287FD3FC032
:100EA000A7019601C501B4010E947A116093FF0366
:100EB00070930004809301049093020420917302C4
:100EC0003091740240917502509176026091030452
:100ED0007091040480910504909106040E947A1197
:100EE00060930304709304048093050490930604B4
:100EF00020917702309178024091790250917A02E4
:100F0000C301B2010E947A1160937F027093800244
:100F10008093810290938202C701B60197C020910D
:100F20007B0230917C0240917D0250917E02C30190
:100F3000B2010E947A1160937F02709380028093C5
:100F4000810290938202A7019601C501B4010E941B
:100F50007A116093FF0370930004809301049093CF
:100F60000204C701B6010E94E6118FE294E0ADC011
:100F7000C0900304D0900404E0900504F0900604AF
:100F800020914B0230914C0240914D0250914E0203
:100F9000C701B6010E940110882309F498C080900F
:100FA0007F0290908002A0908102B090820220E0A7
:100FB00030E0A901C501B4010E941C1287FD55C093
:100FC00040906B0250906C0260906D0270906E02C7
:100FD000A30192016091FF037091000480910104CC
:100FE000909102040E947A116093FF0370930004B1
:100FF0008093010490930204209173023091740253
:101000004091750250917602C701B6010E947A1193
:101010006093030470930404809305049093060482
:1010200020917702309178024091790250917A02B2
:10103000C501B4010E947A1160937F02709380020F
:101040008093810290938202C301B2010E94E61153
:101050008FE294E00E949502609173027091740295
:1010600080917502909176022CC020917B02309184
:101070007C0240917D0250917E02C501B4010E9424
:101080007A1160937F027093800280938102909323
:1010900082028090730290907402A0907502B090CA
:1010A0007602A5019401C701B6010E947A116093EE
:1010B0000304709304048093050490930604C5010F
:1010C000B4010E94E61187E294E00E94950220910B
:1010D000FF0330910004409101045091020460919B
:1010E0004702709148028091490290914A020E9401
:1010F00001108111ADC0209103043091040440918E
:1011000005045091060460914B0270914C0280914D
:101110004D0290914E020E940110811199C081E010
:101120008093180495C060914302709144028091AD
:101130004502909146020E94E611635071096330A6
:10114000710508F485C0609163027091640280911A
:101150006502909166020E94E6116430710508F400
:1011600077C064E271E0CE0101960E944F04CE0187
:1011700001960E944E09CE0101960E94010483E06F
:101180008093190480EF93E2A4E7B9E480933F02CF
:1011900090934002A0934102B09342028093430295
:1011A00090934402A0934502B093460210924702E6
:1011B000109248021092490210924A0210924B0279
:1011C00010924C0210924D0210924E0210924F0259
:1011D00010925002109251021092520280935302C8
:1011E00090935402A0935502B093560280935702F5
:1011F00090935802A0935902B0935A0280935B02D5
:1012000090935C02A0935D02B0935E0280935F02B4
:1012100090936002A0936102B09362021092FF0368
:101220001092000410920104109202041092030420
:101230001092040410920504109206041092070400
:10124000109208041092090410920A0410921804D3
:1012500026960FB6F894DEBF0FBECDBFDF91CF91BB
:10126000FF91EF91BF91AF919F918F917F916F917E
:101270005F914F913F912F911F91FF90EF90DF90E1
:10128000CF90BF90AF909F908F907F906F905F9026
:101290004F900F900FBE0F901F901895EF92FF92F6
:1012A0000F931F93CF93DF93CDB7DEB72F970FB672
:1012B000F894DEBF0FBECDBF8C01809119041B8650
:1012C0001A861D861C861F861E864AE0BE016F5F39
:1012D0007F4F90E00E94590EBE016F5F7F4FCE019D
:1012E0000A960E94D303BE01665F7F4FCE0101962E
:1012F0000E940604F80124813581E080F1800D818F
:101300001E81E114F104E1F121153105A1F0020F74
:10131000131FB801CE0101960E942803882381F192
:1013200029813A818D819E81B701820F931F0E948E
:1013300035141E830D834D815E8169817A8185E933
:1013400091E00E94D20042E050E06DE771E085E953
:1013500091E00E94D200CE0101960E940104CE01CC
:101360000A960E9401042F960FB6F894DEBF0FBEB6
:10137000CDBFDF91CF911F910F91FF90EF90089516
:10138000CE0101960E94A003D6CFFF920F931F9328
:10139000CF93DF9300D000D000D0CDB7DEB78C0163
:1013A00060E871E00E940903811110C063E871E0F8
:1013B000C8010E94090381110BC066E871E0C801F1
:1013C0000E940903811106C0F12C14C080E003C003
:1013D00081E001C082E0E091190494E0E99FF0010E
:1013E0001124E75EFB4FE80FF11D82818093190401
:1013F000FF24F394B801CE0101960E940604CE01A9
:1014000001960E944E09CE0101960E9401048F2D83
:1014100026960FB6F894DEBF0FBECDBFDF91CF91F9
:101420001F910F91FF900895BC0188E392E00E9404
:10143000EA0381E080933E0208956FE771E00E9425
:10144000090391E0811190E0892F0895CF93DF93F4
:1014500000D000D000D0CDB7DEB7789484B58260DC
:1014600084BD84B5816084BD85B5826085BD85B548
:10147000816085BD80916E00816080936E001092C6
:101480008100809181008260809381008091810041
:1014900081608093810080918000816080938000D2
:1014A0008091B10084608093B1008091B000816030
:1014B0008093B00080917A00846080937A0080915C
:1014C0007A00826080937A0080917A0081608093B4
:1014D0007A0080917A00806880937A001092C1002F
:1014E000F89414BC15BC16BC89EF87BD84B5826026
:1014F00084BD85B5836085BD80916E0082608093D8
:101500006E00109280001092810080E690EF909320
:1015100085008093840080918100826080938100A7
:1015200080916F00816080936F007894E091A501B5
:10153000F091A60182E08083E091A101F091A201E7
:101540001082E091A301F091A40180E180831092C8
:10155000AD01E091A901F091AA0116E01083E0919C
:10156000A701F091A801808180618083E091A701AB
:10157000F091A801808188608083E091A701F091BB
:10158000A801808180688083E091A701F091A80183
:1015900080818F7D808361E08DE00E94540260E055
:1015A00083E00E94540260E082E00E94540260E006
:1015B0008EE00E94540260E08FE00E94540260E0DE
:1015C00082E10E94540260E083E10E94540260E0E4
:1015D00086E10E9454028BE080932F048CE080937C
:1015E000300487E08093310461E08BE00E94540274
:1015F00061E0809130040E94540261E080913104E6
:101600000E94540261E0809131040E94240289E02A
:10161000809327048AE0809328041093290461E0D2
:1016200089E00E94540261E0809128040E945402E3
:1016300061E0809129040E94540261E080912904B4
:101640000E94240211E082E0282E93E0392E20EF40
:10165000C22E23E2D22E24E7E22E29E4F22E0091BC
:101660001904013049F008F466C2023009F432C2AC
:10167000033009F460C262C20E940F0480913E02EE
:10168000882309F46BC210923E0268E372E0CE0137
:1016900001960E940604CE0101960E946404CE01C8
:1016A00001960E94010460913F0270914002809176
:1016B0004102909142020E94E6116530710564F486
:1016C000623071050CF0FCC16115710509F4F8C1B7
:1016D0006130710531F064C16C31710509F060C190
:1016E000EFC18090FF0390900004A0900104B0909F
:1016F0000204409047025090480260904902709066
:101700004A02A3019201C501B4010E940110811196
:1017100017C020914B0230914C0240914D025091E4
:101720004E0260910304709104048091050490912D
:1017300006040E940110811103C000931804C0C167
:1017400010921804A3019201C501B4010E94011076
:10175000811111C010926B0210926C0210926D02F6
:1017600010926E0210926702109268021092690243
:1017700010926A0233C0A3019201C501B4010E9414
:10178000011087FF11C080E090E0A0E8BFE38093E4
:101790006B0290936C02A0936D02B0936E02A50150
:1017A0009401C301B20110C080E090E0A0E8BFEB5B
:1017B00080936B0290936C02A0936D02B0936E02C3
:1017C000A3019201C501B4010E94791160936702DF
:1017D000709368028093690290936A028090030478
:1017E00090900404A0900504B090060440904B0231
:1017F00050904C0260904D0270904E02A3019201F5
:10180000C501B4010E940110811111C01092730230
:1018100010927402109275021092760210926F026A
:1018200010927002109271021092720233C0A301E2
:101830009201C501B4010E94011087FF11C080E030
:1018400090E0A0E8BFE38093730290937402A093AA
:101850007502B0937602A5019401C301B20110C0D4
:1018600080E090E0A0E8BFEB809373029093740255
:10187000A0937502B0937602A3019201C501B40151
:101880000E94791160936F027093700280937102CD
:1018900090937202409067025090680260906902D3
:1018A00070906A0280906F0290907002A090710216
:1018B000B0907202A5019401C301B2010E941C12F2
:1018C0001816CCF5A3019201C501B4010E9479114B
:1018D0009B01AC010E947A116093770270937802A9
:1018E0008093790290937A02A5019401C501B40115
:1018F0000E947A1160937B0270937C0280937D0238
:1019000090937E02A30192010E94791160937F025D
:1019100070938002809381029093820280E090E035
:10192000A0E8BFE38093830290938402A093850292
:10193000B0938602C5C0A5019401C301B2010E9403
:1019400079119B01AC010E947A1160937702709328
:1019500078028093790290937A02A3019201C301E5
:10196000B2010E947A1160937B0270937C02809393
:101970007D0290937E02A50194010E9479116093EB
:101980007F02709380028093810290938202109272
:10199000830210928402109285021092860290C0F7
:1019A00060914302709144028091450290914602F9
:1019B0000E94E611635071096330710508F480C01C
:1019C0006091630270916402809165029091660259
:1019D0000E94E6116430710508F472C064E271E09F
:1019E000CE0101960E944F04CE0101960E944E093D
:1019F000CE0101960E94010430921904C0923F0268
:101A0000D0924002E0924102F0924202C092430220
:101A1000D0924402E0924502F092460210924702B0
:101A2000109248021092490210924A0210924B0200
:101A300010924C0210924D0210924E0210924F02E0
:101A4000109250021092510210925202C092530210
:101A5000D0925402E0925502F0925602C092570280
:101A6000D0925802E0925902F0925A02C0925B0260
:101A7000D0925C02E0925D02F0925E02C0925F0240
:101A8000D0926002E0926102F09262021092FF0333
:101A900010920004109201041092020410920304A8
:101AA0001092040410920504109206041092070488
:101AB000109208041092090410920A04109218045B
:101AC00080911804811103C02092190447C06BE370
:101AD00071E022C01092320460E0809131040E94D3
:101AE000240210922A0460E0809129040E942402BA
:101AF0000E940F0480911804882381F1109332040E
:101B00008FE294E00E94900210932A0487E294E00E
:101B10000E9490026EE371E0CE0101960E944F0494
:101B2000CE0101960E944E09CE0101960E94010449
:101B30001093190413C00E940F0410C061E471E0F7
:101B4000CE0101960E944F04CE0101960E944E09DB
:101B5000CE0101960E940104109219040E949A037A
:101B60007ECD82E392E00E94010488E392E00C942F
:101B70000104E5E9F1E01382128288EE93E0A0E02F
:101B8000B0E084839583A683B78386E191E0918357
:101B9000808385EC90E09587848784EC90E097873C
:101BA000868780EC90E0918B808B81EC90E0938B2A
:101BB000828B82EC90E0958B848B86EC90E0978B07
:101BC000868B118E128E138E148EEFE2F4E0148247
:101BD0001582168217821382E7E2F4E014821582DE
:101BE000168217821382E7E3F4E0148215821682CC
:101BF000178213828CE0E6E0F1E0ABE1B4E0019003
:101C00000D928A95E1F710921904EFE3F2E080EF6C
:101C100093E2A4E7B9E480839183A283B3838483AE
:101C20009583A683B7831086118612861386148641
:101C3000158616861786108A118A128A138A848B53
:101C4000958BA68BB78B808F918FA28FB38F848F4C
:101C5000958FA68FB78F80A391A3A2A3B3A3109251
:101C6000FF031092000410920104109202041092DB
:101C700003041092040410920504109206041092BA
:101C80000704109208041092090410920A0410929A
:101C900018046FE771E088E392E00E944F046FE759
:101CA00071E082E392E00C944F04662777270C944E
:101CB000730EBB27FB015527AA27880F991FAA1F60
:101CC000A41710F0A41B83955051B9F7A05DAA3357
:101CD00008F0A95DA193009779F7B111B193119222
:101CE000CB010C94F10FA0E0B0E0E9E7FEE00C942A
:101CF0003711EC017B016115710519F0DB018D9342
:101D00009C938E010F5F1F4F7880872D90E00E947B
:101D1000D00F892B11F0E801F4CFBDE27B1205C092
:101D20000F5F1F4F7980C1E008C0EBE27E1204C054
:101D30008E010E5F1F4F7980C0E06801F1E0CF1A7D
:101D4000D10843E050E06AE970E0C6010E94D90F73
:101D5000892BF1F4680122E0C20ED11C45E050E06D
:101D600065E970E0C6010E94D90F892B21F4680152
:101D700087E0C80ED11CE114F10419F0D701CD920F
:101D8000DC92C111FFC060E070E080E89FE703C112
:101D900043E050E062E970E0C6010E94D90F892B50
:101DA00051F4E114F10409F4F2C00E5F1F4FF70182
:101DB00011830083ECC0680160E070E0CB0100E0BB
:101DC00010E0F601D0EDD70DDA3058F52C2F226057
:101DD000622E2C2F2870C2FF05C0211128C00F5F72
:101DE0001F4F25C0222311F001501109A5E0B0E0DA
:101DF0009B01AC010E9428114B015C01880C991CCD
:101E0000AA1CBB1CC501B4016D0F711D811D911D64
:101E10006839A9E97A078A07A9E19A0740F0C660FC
:101E200005C0DE3F51F4C3FD44C0C8606C2EBFEF57
:101E3000CB1ADB0A7080C62DC4CF2D2F2F7D253104
:101E4000C1F540814D3211F4C06106C04B3221F022
:101E5000319621E030E006C03296D60111964C91C1
:101E600022E030E0A0EDA40FAA3018F0E21BF30B43
:101E700020C040E050E04038BCE05B075CF49A01D1
:101E8000220F331F220F331F420F531F440F551FC2
:101E90004A0F511D3196DF0111972C91A0EDA20F31
:101EA000AA3048F3C4FF03C0519541955109040F6E
:101EB000151FC1FF07C0E114F10421F03197D701CC
:101EC000ED93FC930E940610C370C33019F06B01B0
:101ED0007C0106C06B017C01F7FAF094F7F8F094EE
:101EE00020E030E0A901C701B6010E94011088235B
:101EF00009F445C017FF06C0119501951109C1EB02
:101F0000D0E002C0C9ECD0E05E01B8E1AB1AB10884
:101F10004601BE2DAF2D90E2E92EF12C0E151F05C6
:101F200084F0FE012591359145915491B4018B2F98
:101F30009A2F0E9467104B01B82FA92F0E191F0965
:101F4000EDCF2497F594E794CA15DB0539F76401C2
:101F5000EB2EFA2E8E2D880F8F2D881F8F3F49F084
:101F600020E030E0A901C701B6010E9401108111F3
:101F700006C082E290E09093400480933F04C70142
:101F8000B60109C060E070E080E89FEF04C060E047
:101F900070E080EC9FE7CDB7DEB7EEE00C94531114
:101FA00091110C94D410803219F089508550C8F7E3
:101FB0000895FB01DC014150504088F08D9181343F
:101FC0001CF08B350CF4805E659161341CF06B3530
:101FD0000CF4605E861B611171F3990B0895881BE8
:101FE000FCCFDC01FC01672F71917723E1F7329779
:101FF00004C07C916D9370836291AE17BF07C8F3E4
:1020000008950E94431008F481E00895E89409C0FF
:1020100097FB3EF490958095709561957F4F8F4F1B
:102020009F4F9923A9F0F92F96E9BB279395F69531
:10203000879577956795B795F111F8CFFAF4BB0FAF
:1020400011F460FF1BC06F5F7F4F8F4F9F4F16C013
:10205000882311F096E911C0772321F09EE8872F9D
:10206000762F05C0662371F096E8862F70E060E059
:102070002AF09A95660F771F881FDAF7880F9695D2
:10208000879597F90895990F0008550FAA0BE0E876
:10209000FEEF16161706E807F907C0F0121613062A
:1020A000E407F50798F0621B730B840B950B39F46A
:1020B0000A2661F0232B242B252B21F408950A26D0
:1020C00009F4A140A6958FEF811D811D08950E94FE
:1020D0007A100C94EE100E94E01038F00E94E71085
:1020E00020F0952311F00C94D7100C94DD101124DE
:1020F0000C9422110E94FF1070F3959FC1F3950F6D
:1021000050E0551F629FF001729FBB27F00DB11D7B
:10211000639FAA27F00DB11DAA1F649F6627B00D0B
:10212000A11D661F829F2227B00DA11D621F739FF4
:10213000B00DA11D621F839FA00D611D221F749F02
:102140003327A00D611D231F849F600D211D822F49
:10215000762F6A2F11249F5750409AF0F1F0882370
:102160004AF0EE0FFF1FBB1F661F771F881F91509D
:102170005040A9F79E3F510580F00C94D7100C9465
:1021800022115F3FE4F3983ED4F3869577956795E7
:10219000B795F795E7959F5FC1F7FE2B880F911DC7
:1021A0009695879597F9089599278827089597F91F
:1021B0009F6780E870E060E008959FEF80EC0895ED
:1021C00000240A9416161706180609060895002416
:1021D0000A9412161306140605060895092E039490
:1021E000000C11F4882352F0BB0F40F4BF2B11F404
:1021F00060FF04C06F5F7F4F8F4F9F4F089557FD63
:102200009058440F551F59F05F3F71F04795880F64
:1022100097FB991F61F09F3F79F0879508951216FB
:1022200013061406551FF2CF4695F1DF08C01616A7
:1022300017061806991FF1CF869571056105089458
:102240000895E894BB2766277727CB0197F908956F
:102250000E946A11A59F900DB49F900DA49F800DC0
:10226000911D112408952F923F924F925F926F9289
:102270007F928F929F92AF92BF92CF92DF92EF9216
:10228000FF920F931F93CF93DF93CDB7DEB7CA1B97
:10229000DB0B0FB6F894DEBF0FBECDBF09942A88C2
:1022A000398848885F846E847D848C849B84AA846A
:1022B000B984C884DF80EE80FD800C811B81AA81F7
:1022C000B981CE0FD11D0FB6F894DEBF0FBECDBFC2
:1022D000ED010895A29FB001B39FC001A39F700DAF
:1022E000811D1124911DB29F700D811D1124911D1E
:1022F00008955058BB27AA270E9491110C94EE1004
:102300000E94E01038F00E94E71020F039F49F3F5F
:1023100019F426F40C94DD100EF4E095E7FB0C9410
:10232000D710E92F0E94FF1058F3BA1762077307FE
:102330008407950720F079F4A6F50C9421110EF48A
:10234000E0950B2EBA2FA02D0B01B90190010C01C5
:10235000CA01A0011124FF27591B99F0593F50F4DD
:10236000503E68F11A16F040A22F232F342F442735
:10237000585FF3CF469537952795A795F04053952D
:10238000C9F77EF41F16BA0B620B730B840BBAF0FD
:102390009150A1F0FF0FBB1F661F771F881FC2F768
:1023A0000EC0BA0F621F731F841F48F4879577957C
:1023B0006795B795F7959E3F08F0B0CF9395880F36
:1023C00008F09927EE0F9795879508950E94ED11D3
:1023D0006894B1110C94221108950E94071188F09D
:1023E0009F5798F0B92F9927B751B0F0E1F0660FD9
:1023F000771F881F991F1AF0BA95C9F714C0B1301A
:1024000091F00E942111B1E008950C942111672FE1
:10241000782F8827B85F39F0B93FCCF38695779548
:102420006795B395D9F73EF4909580957095619531
:102430007F4F8F4F9F4F08950E94431008F48FEFF6
:102440000895EE0FFF1F0590F491E02D0994CF93AE
:10245000DF938230910510F482E090E0E091430434
:10246000F091440420E030E0C0E0D0E0309711F17A
:102470004081518148175907C0F04817590761F446
:1024800082819381209719F09B838A832BC090933C
:1024900044048093430426C02115310519F04217E6
:1024A000530718F49A01BE01DF01EF010280F381A6
:1024B000E02DDCCF2115310509F1281B390B243023
:1024C000310590F412968D919C91139761157105C9
:1024D00021F0FB019383828304C090934404809392
:1024E0004304FD01329644C0FD01E20FF31F8193C6
:1024F0009193225031092D933C933AC0209141048D
:1025000030914204232B41F42091020130910301C8
:102510003093420420934104209100013091010145
:102520002115310541F42DB73EB74091040150917A
:102530000501241B350BE0914104F0914204E217A0
:10254000F307A0F42E1B3F0B2817390778F0AC01D6
:102550004E5F5F4F2417350748F04E0F5F1F5093B3
:102560004204409341048193919302C0E0E0F0E083
:10257000CF01DF91CF9108950F931F93CF93DF93F6
:10258000009709F48CC0FC013297138212820091EB
:102590004304109144040115110581F42081318117
:1025A000820F931F2091410430914204281739076C
:1025B00079F5F0934204E093410471C0D80140E002
:1025C00050E0AE17BF0750F412962D913C9113972F
:1025D000AD012115310509F1D901F3CF9D01DA01D2
:1025E0003383228360817181860F971F821793073F
:1025F00069F4EC0128813981260F371F2E5F3F4F88
:10260000318320838A819B8193838283452B29F4A4
:10261000F0934404E093430442C01396FC93EE937A
:102620001297ED01499159919E01240F351FE21730
:10263000F30771F480819181840F951F02961196A2
:102640009C938E938281938113969C938E93129781
:10265000E0E0F0E0D80112968D919C9113970097DD
:1026600019F0F8018C01F6CF8D919C9198012E5FA5
:102670003F4F820F931F209141043091420428174D
:10268000390769F4309729F41092440410924304F6
:1026900002C0138212821093420400934104DF911E
:1026A000CF911F910F910895A0E0B0E0EAE5F3E12A
:1026B0000C943711EC01009721F4CB010E942712F2
:1026C000B8C0FC01E60FF71F9C0122503109E21748
:1026D000F30708F4ACC0D9010D911C9111970617AE
:1026E0001707B0F00530110508F49FC0C801049722
:1026F0008617970708F499C002501109061B170B9B
:10270000019311936D937C93CF010E94BC128DC0F5
:102710005B01A01AB10A4C01800E911EA0914304E6
:10272000B091440440E050E0E12CF12C109709F402
:102730004AC0A815B905D1F56D907C901197630139
:1027400082E0C80ED11CCA14DB0480F1A3014A192F
:102750005B096A0182E0C80ED11C1296BC901297E8
:102760001396AC91B5E0CB16D10440F0B282A383AE
:1027700051834083D9016D937C930AC00E5F1F4F34
:10278000C301800F911FF90191838083EB2DFA2FF4
:10279000E114F10431F0D7011396FC93EE931297F4
:1027A00044C0F0934404E09343043FC08D919C9156
:1027B00011974817590708F4AC017D0112960D9046
:1027C000BC91A02DB3CF8091410490914204881513
:1027D0009905E1F446175707C8F4809100019091DC
:1027E0000101009741F48DB79EB7409104015091CB
:1027F0000501841B950BE817F907C8F4F093420410
:10280000E0934104F901718360830FC0CB010E9402
:1028100027127C01009759F0A801BE010E942314E1
:10282000CE010E94BC12C70104C0CE0102C080E0EC
:1028300090E0CDB7DEB7EEE00C94531181E090E06C
:10284000F8940C943C14FB01DC0102C001900D9241
:1028500041505040D8F70895FB01DC018D91019063
:1028600080190110D9F3990B0895FB01DC01019047
:102870000D920020E1F7089510E0C5E9D0E004C012
:10288000FE010E9421122196C639D107C9F7F8949A
:02289000FFCF78
:10289200000045048000010303030003030300005A
:1028A2000000000000006901D2000101B001320104
:1028B200100124014552524F522E20554E4B4E4F7D
:1028C200574E20434F4D4D414E4400553900553827
:1028D20000435249544943414C204552524F5221E0
:1028E20020554E4B4E4F574E2053544154452E20A7
:1028F200434F4D4D554E49434154494F4E20524549
:10290200534554205245515549524544000D0A0041
:0A291200553400553600553700001B
:107E0000112484B714BE81FFF0D085E080938100F7
:107E100082E08093C00088E18093C10086E0809377
:107E2000C20080E18093C4008EE0C9D0259A86E02C
:107E300020E33CEF91E0309385002093840096BBD3
:107E4000B09BFECF1D9AA8958150A9F7CC24DD24C4
:107E500088248394B5E0AB2EA1E19A2EF3E0BF2EE7
:107E6000A2D0813461F49FD0082FAFD0023811F036
:107E7000013811F484E001C083E08DD089C08234E0
:107E800011F484E103C0853419F485E0A6D080C0E4
:107E9000853579F488D0E82EFF2485D0082F10E0AE
:107EA000102F00270E291F29000F111F8ED06801E7
:107EB0006FC0863521F484E090D080E0DECF843638
:107EC00009F040C070D06FD0082F6DD080E0C81688
:107ED00080E7D80618F4F601B7BEE895C0E0D1E017
:107EE00062D089930C17E1F7F0E0CF16F0E7DF06D8
:107EF00018F0F601B7BEE89568D007B600FCFDCFD4
:107F0000A601A0E0B1E02C9130E011968C91119780
:107F100090E0982F8827822B932B1296FA010C0160
:107F200087BEE89511244E5F5F4FF1E0A038BF0790
:107F300051F7F601A7BEE89507B600FCFDCF97BE46
:107F4000E89526C08437B1F42ED02DD0F82E2BD052
:107F50003CD0F601EF2C8F010F5F1F4F84911BD097
:107F6000EA94F801C1F70894C11CD11CFA94CF0C13
:107F7000D11C0EC0853739F428D08EE10CD085E9AC
:107F80000AD08FE07ACF813511F488E018D01DD067
:107F900080E101D065CF982F8091C00085FFFCCF94
:107FA0009093C60008958091C00087FFFCCF809118
:107FB000C00084FD01C0A8958091C6000895E0E648
:107FC000F0E098E1908380830895EDDF803219F02E
:107FD00088E0F5DFFFCF84E1DECF1F93182FE3DFCA
:107FE0001150E9F7F2DF1F91089580E0E8DFEE27F6
:047FF000FF270994CA
:027FFE00040479
:0400000300007E007B
:00000001FF