:100000004FC100007EC100007CC100007AC1000029
:1000100078C1000076C1000074C1000072C1000008
:1000200070C100006EC100006CC100006AC1000018
:1000300068C1000066C1000064C1000062C1000028
:1000400060C1000041C500005CC100005AC1000051
:1000500026C60000A4C5000054C1000020C700004F
:1000600050C100004FC3000024C300004AC100007B
:1000700048C1000046C1000044C1000042C1000068
:10008000F6C400003EC100003CC100003AC10000BF
:1000900038C1000036C1000034C1000032C1000088
:1000A00030C100002EC10000B5C400002AC100000C
:1000B00028C1000026C1000024C100007EC4000049
:1000C00020C100001EC100001CC100001AC10000B8
:1000D00018C1000016C1000014C1000012C10000C8
:1000E00010C100006F027202610265026B02A90278
:1000F00076027A028002840288028E0292029602BE
:10010000A9029C02A002A402AC130E143E145614C1
:100110006E14A614BE146809C408910916092A09A8
:10012000910991093F099109910991099109910951
:10013000530991097C0991099109D808ED08010931
:100140004E414E494E495459494E46CDCCCC3D0ABC
:10015000D7233C17B7D13877CC2B329595E6241F9F
:10016000B14F0A000020410000C84200401C462058
:10017000BCBE4CCA1B0E5AAEC59D740000210024A3
:100180000027002A002D0030003300010100000488
:100190000107010A0100002200250028002B002E83
:1001A000003100340002010000050108010B0100CC
:1001B0000020002300260029002C002F0032000020
:1001C00001000003010601090105050505070508F1
:1001D000080808020202020A0A08080404040401CA
:1001E00001010101010101030303030303030304EC
:1001F0000707070C0C0C0C0C0C0C0C02020202067C
:10020000060606060606060B0B0B0B0B0B0B0B016B
:100210000210202008081020401020408002010217
:1002200001080402010102040810204080804020DF
:10023000100804020180040201804020100804021A
:100240000108040201010204081020408001020498
:10025000081020408000000A0B02090C0D0E080750
:100260000304010000000000000000000000000086
:10027000000000000000000000000000000000007E
:10028000001211100000000000000000000000003B
:1002900000000000000000000000000038153015CC
:1002A00011241FBECFEFD1E2DEBFCDBF00E00CBFF7
:1002B00012E0A0E0B2E0E4ECF7E300E00BBF02C024
:1002C00007900D92A637B107D9F724E0A6E7B2E070
:1002D00001C01D92AB3AB207E1F711E0CFE4D1E0E3
:1002E00000E006C021970109802FFE010E949B19A2
:1002F000CE34D10780E00807A9F70E944C0B0C947C
:10030000D11B7ECE089580E090E00895FC01538DCE
:10031000448D252F30E0842F90E0821B930B5417DF
:1003200010F0CF96089501970895FC01918D828D6C
:10033000981761F0828DDF01A80FB11D5D968C9139
:10034000928D9F5F9F73928F90E008958FEF9FEF44
:100350000895FC01918D828D981731F0828DE80F00
:10036000F11D858D90E008958FEF9FEF0895FC01BA
:10037000918D228D892F90E0805C9F4F821B910987
:100380008F739927089586E892E0F1DF21E0892BA9
:1003900009F420E0822F0895FC01848DDF01A80F6D
:1003A000B11DA35ABF4F2C91848D90E001968F739D
:1003B0009927848FA689B7892C93A089B1898C91BC
:1003C00080648C93938D848D981306C00288F38982
:1003D000E02D80818F7D80830895EF92FF920F93AF
:1003E0001F93CF93DF93EC0181E0888F9B8D8C8DE1
:1003F000981305C0E889F989808185FD23C0F62E10
:100400000B8D10E00F5F1F4F0F731127E02E8C8DA7
:10041000E8120BC00FB607FCFACFE889F989808192
:1004200085FFF5CFCE01B8DFF2CF8B8DFE01E80F4F
:10043000F11DE35AFF4FF0820B8FEA89FB8980811F
:10044000806207C0EE89FF896083E889F98980812D
:100450008064808381E090E0DF91CF911F910F91C4
:10046000FF90EF900895CF93DF93EC01888D882360
:10047000C1F0EA89FB89808185FD05C0A889B98919
:100480008C9186FD0EC00FB607FCF5CF808185FFED
:10049000F2CFA889B9898C9185FFEDCFCE017CDFA1
:1004A000E8CFDF91CF91089590E0FC013197E231E0
:1004B000F10508F04EC08827EE58FF4F8F4F0C947F
:1004C0009B19809180008F7703C0809180008F7D81
:1004D00080938000089580918000877FF9CF84B554
:1004E0008F7702C084B58F7D84BD08958091B00060
:1004F0008F7703C08091B0008F7D8093B000089506
:10050000809190008F7707C0809190008F7D03C00D
:1005100080919000877F8093900008958091A00043
:100520008F7707C08091A0008F7D03C08091A000CD
:10053000877F8093A0000895809120018F7707C066
:10054000809120018F7D03C080912001877F80935F
:1005500020010895CF93DF93282F30E0F901EB5A63
:10056000FD4F8491F901E15FFD4FD491F901E7530B
:10057000FE4FC491CC2389F0811196DFEC2FF0E07F
:10058000EE0FFF1FE155FE4FA591B491EC91ED23C5
:1005900081E090E021F480E002C080E090E0DF9113
:1005A000CF910895CF93DF9390E0FC01E15FFD4F81
:1005B0002491FC01E753FE4F8491882361F190E080
:1005C000880F991FFC01E558FE4FC591D491FC019D
:1005D000EB56FE4FA591B491611109C09FB7F894F5
:1005E0008881209582238883EC912E230BC0623072
:1005F00061F49FB7F8943881822F80958323888394
:10060000EC912E2B2C939FBF06C08FB7F894E881F6
:100610002E2B28838FBFDF91CF910895CF93C1E018
:1006200086E892E0A4DE892B79F086E892E07DDE10
:100630008A3019F4C0937A02F3CF81328CF3682F99
:1006400084EB93E0BDD4ECCFCF9108959CDE811173
:1006500025C080E090E0892B41F080E090E0892B7C
:1006600021F00E94000081111BC080E090E0892BE6
:1006700041F080E090E0892B21F00E940000811180
:1006800012C080E090E0892B99F080E090E0892B07
:1006900079F00E940000811109C00895BFDFD9CF11
:1006A0000E940000E2CF0E940000EBCF0C940000FB
:1006B00008951F920F920FB60F9211240BB60F924E
:1006C0002F933F934F935F936F937F938F939F935A
:1006D000AF93BF93EF93FF9386E892E05DDEFF91C7
:1006E000EF91BF91AF919F918F917F916F915F91AA
:1006F0004F913F912F910F900BBE0F900FBE0F9017
:100700001F9018951F920F920FB60F9211240BB6DF
:100710000F922F938F939F93EF93FF93E091960205
:10072000F09197028081E0919C02F0919D0282FD00
:1007300012C0908180919F028F5F8F732091A002E1
:10074000821751F0E0919F02F0E0EA57FD4F958F3C
:1007500080939F0201C08081FF91EF919F918F91C3
:100760002F910F900BBE0F900FBE0F901F901895FA
:100770001F93CF93DF93282F30E0F901EB5AFD4F01
:100780008491F901E15FFD4FD491F901E753FE4FE8
:10079000C491CC23C1F0162F811186DEEC2FF0E03E
:1007A000EE0FFF1FEB56FE4FA591B4918FB7F89453
:1007B000111105C09C91ED2FE095E92302C0EC9149
:1007C000ED2BEC938FBFDF91CF911F910895CF92C6
:1007D000DF92EF92FF920F931F93CF93DF936C0101
:1007E0008B017A01EC01CA58DD4F888187FF04C074
:1007F000FB011182108224C08CE08C9D90018D9DA4
:10080000300D11248881A901480F511D87FD5A958B
:100810008091B30390E04817590794F48881A901A7
:10082000480F511D87FD5A95CA01FA01EE0FFF1FAF
:100830008E0F9F1FFC01ED5DFC4F808186FD19C06E
:1008400088818F5F88838CE08C9D90018D9D300D19
:1008500011248881A901480F511D87FD5A95809167
:10086000B30390E048175907B4F488818C303CF109
:1008700012C08881280F311D87FD3A95F901EE0FCE
:10088000FF1F2E0F3F1FF901ED5DFC4F808160E0DF
:100890008F736EDFD5CFF80180819181049680340B
:1008A0009C4918F480E49CE904C0F801808191819E
:1008B0000496F701918380838FEF888344C0F80109
:1008C000408151818881B901680F711D87FD7A953A
:1008D000CB01FB01EE0FFF1F8E0F9F1FFC01ED5D93
:1008E000FC4F81819281840F951FF7019183808352
:1008F0008881A901480F511D87FD5A95CA01FA0147
:10090000EE0FFF1F8E0F9F1FFC01ED5DFC4F8081DE
:1009100086FF19C08881280F311D87FD3A95F9019E
:10092000EE0FFF1F2E0F3F1FF901ED5DFC4F808181
:1009300061E08F73DF91CF911F910F91FF90EF9046
:10094000DF90CF9015CFDF91CF911F910F91FF9046
:10095000EF90DF90CF900895CF93DF93FC01238138
:10096000211111C0EC011616170614F461E001C044
:1009700060E08881FDDE61E08981FADE60E08981E6
:10098000DF91CF91F5CEDF91CF910895CF93DF9393
:10099000EC01862F688349832A8361E003DE61E0EE
:1009A000898100DE61E08A81FDDD61E08A81E0DE2F
:1009B00081E08B83DF91CF9108951F920F920FB644
:1009C0000F9211240BB60F922F933F934F935F9387
:1009D0006F937F938F939F93AF93BF93EF93FF9307
:1009E00048E251E064E271E080E090E0F0DEFF91E7
:1009F000EF91BF91AF919F918F917F916F915F9197
:100A00004F913F912F910F900BBE0F900FBE0F9003
:100A10001F9018951F920F920FB60F9211240BB6CC
:100A20000F922F933F934F935F936F937F938F9387
:100A30009F93AF93BF93EF93FF9348EA50E064EA2C
:100A400070E083E090E0C3DEFF91EF91BF91AF9142
:100A50009F918F917F916F915F914F913F912F91D6
:100A60000F900BBE0F900FBE0F901F9018951F9206
:100A70000F920FB60F9211240BB60F922F933F9344
:100A80004F935F936F937F938F939F93AF93BF9396
:100A9000EF93FF9348E950E064E970E082E090E072
:100AA00096DEFF91EF91BF91AF919F918F917F91D2
:100AB0006F915F914F913F912F910F900BBE0F90CF
:100AC0000FBE0F901F9018951F920F920FB60F92A6
:100AD00011240BB60F922F933F934F935F936F9315
:100AE0007F938F939F93AF93BF93EF93FF9348E8C8
:100AF00050E064E870E081E090E069DEFF91EF9102
:100B0000BF91AF919F918F917F916F915F914F9125
:100B10003F912F910F900BBE0F900FBE0F901F9023
:100B20001895FC0180EF93E2A4E7B9E480839183F8
:100B3000A283B38384839583A683B78380879187B9
:100B4000A287B38784879587A687B787808B918B89
:100B5000A28BB38B848B958BA68BB78B808F918F59
:100B6000A28FB38F848F958FA68FB78F80A391A309
:100B7000A2A3B3A384A395A3A6A3B7A3DF019896CA
:100B8000E858FF4F40EF53E264E779E4AE17BF0740
:100B900029F04D935D936D937D93F8CF08951F9247
:100BA0000F920FB60F9211240BB60F922F933F9313
:100BB0004F935F936F937F938F939F93AF93BF9365
:100BC000CF93DF93EF93FF938FE0C4DCEC0182E0DF
:100BD000C1DCC80FD91F8EE0BDDCC80FD91F83E070
:100BE000B9DCC80FD91F82E1B5DCC80FD91F83E17A
:100BF000B1DCC80FD91F87E1ADDCC80FD91F89E16F
:100C0000A9DCC80FD91F85E2A5DCC80FD91F83E274
:100C1000A1DCC80FD91F81E29DDCC80FD91F8FE16D
:100C200099DCC80FD91F8DE295DCC80FD91F8BE264
:100C300091DCC80FD91F89E28DDCC80FD91F87E26C
:100C400089DCC80FD91F8BE185DCC80FD91F8DE166
:100C500081DCC80FD91F8FE27DDCC80FD91F80E26D
:100C600079DC8C0F9D1F21E0181619060CF020E08E
:100C700020935F04FF91EF91DF91CF91BF91AF91EE
:100C80009F918F917F916F915F914F913F912F91A4
:100C90000F900BBE0F900FBE0F901F9018951F92D4
:100CA0000F920FB60F9211248F9380915E048230C1
:100CB00019F481E080937B028F910F900FBE0F900B
:100CC0001F901895FC01248135816217730720F469
:100CD00080819181009729F410927C028CE792E048
:100CE0000895860F971F0895CF92DF92EF92FF929B
:100CF0000F931F93CF93DF936C017A018B01C0E0B8
:100D0000D0E0CE15DF0589F0D8016D918D01D601B7
:100D1000ED91FC910190F081E02DC6011995892B90
:100D200011F47E0102C02196ECCFC701DF91CF9173
:100D30001F910F91FF90EF90DF90CF9008950E9448
:100D4000B41BFC0180819181009711F00C94FA157D
:100D500060E070E0CB0108950F931F93CF93DF9372
:100D6000EC0188819981009729F02A813B8126171F
:100D7000370788F48B016F5F7F4F0E94D01A00976E
:100D800061F0998388831B830A832C813D81232B07
:100D900011F4FC01108281E001C080E0DF91CF916D
:100DA0001F910F910895EF92FF920F931F93CF938E
:100DB000DF93FC01248135816115710511F480E018
:100DC00018C041155105A1F07B01EC018A01020F09
:100DD000131FB801C1DF882391F3288139818C81E9
:100DE0009D81B701820F931F0E94CA1B1D830C8334
:100DF00081E0DF91CF911F910F91FF90EF900895C7
:100E0000CF93DF93EC0188819981009711F00E94C4
:100E1000381A198218821D821C821B821A82DF9165
:100E2000CF910895EF92FF920F931F93CF93DF938B
:100E3000EC017B018A01BA018FDF811103C0CE0171
:100E4000DFDF07C01D830C83B701888199810E9471
:100E5000CA1BCE01DF91CF911F910F91FF90EF90B0
:100E60000895CF93C82FEDE9F4E08383682F828142
:100E70007FDCE5E9F4E0C3836C2F828179DCEDE867
:100E8000F4E0C3836C2F8281CF9172CC84EC93E029
:100E900048DE81E080935E0486D381E0E2CF1F923A
:100EA0000F920FB60F9211242F933F938F939F931E
:100EB000AF93BF938091820290918302A0918402AC
:100EC000B09185023091810223E0230F2D3720F469
:100ED0000196A11DB11D05C026E8230F0296A11D94
:100EE000B11D209381028093820290938302A0938C
:100EF0008402B093850280917D0290917E02A09140
:100F00007F02B09180020196A11DB11D80937D02E8
:100F100090937E02A0937F02B0938002BF91AF9125
:100F20009F918F913F912F910F900FBE0F901F9027
:100F30001895FC0124813581232B31F421E06115C2
:100F40007105A1F0FB0108C0FC0180819181611550
:100F5000710531F421E0FC018081882339F005C05E
:100F60000E94C11B21E0892B09F020E0822F089507
:100F7000CF93DF93EC016115710559F0FB010190EE
:100F80000020E9F73197AF01461B570B0CDF8111A9
:100F900002C0CE0135DFCE01DF91CF910895CF930E
:100FA000DF93EC01FB014481558160817181FBDE9F
:100FB000811102C0CE0124DFCE01DF91CF910895CF
:100FC000CF93DF931F921F92CDB7DEB769831A824A
:100FD00041E050E0BE016F5F7F4FE5DE0F900F9064
:100FE000DF91CF910895CF93DF93EC0161157105E7
:100FF00051F0FB0101900020E9F73197AF01461B4A
:10100000570B10DF01C0FCDECE01DF91CF910895B8
:10101000CF93DF93EC01FB018617970751F06081B6
:1010200071816115710521F044815581FBDE01C09C
:10103000E7DECE01DF91CF910895FC01808191819F
:101040000C94381A0F931F93CF93DF93CDB7DEB76D
:1010500062970FB6F894DEBF0FBECDBF8C01CB01F7
:10106000F80111821082138212821582148250E0DC
:10107000BE016F5F7F4F0E94FD15BE016F5F7F4F06
:10108000C801B1DF62960FB6F894DEBF0FBECDBFC8
:10109000DF91CF911F910F910895FC011182108271
:1010A0001382128215821482B3CFCF93DF9300D0C4
:1010B00000D0CDB7DEB7BC01CE010196EEDFCE0188
:1010C000019633D2CE010196B8DF83E080935E04AF
:1010D00026960FB6F894DEBF0FBECDBFDF91CF913D
:1010E0000895FC01118210821382128215821482EB
:1010F0006115710549F0FB0101900020E9F7319776
:10110000AF01461B570B8ECE0895BF92CF92DF9250
:10111000EF92FF920F931F93CF93DF93CDB7DEB77C
:101120002C970FB6F894DEBF0FBECDBF6C0166E6FC
:1011300072E0CE010796D5DF66E672E0C601F9DE01
:10114000BB24B3948111B12CE12CF12CF6018481E4
:101150009581E816F90608F02FC1B701C601B2DD86
:10116000DC01EC914E2FEE0F550B660B770BFA015D
:10117000E654F109E531F10508F0D3C08827E557B9
:10118000FF4F8F4F0C949B19CE0107967DD2882379
:1011900009F4F1C0CE010796D4DDF80160837183B4
:1011A0008283938366E672E0CE0107961CDFE3C07C
:1011B000CE01079669D2882309F4E0C0CE010796D4
:1011C000C0DDD8016D937D938D939C93139766E654
:1011D00072E0CE01079607DFD1C0CE01079654D248
:1011E000882309F4CEC0CE010796ABDDF8016083F9
:1011F00071838283938366E672E0CE010796F3DE05
:10120000C0C0CE01079640D2882309F4BDC0CE01EC
:10121000079697DDD8016D937D938D939C931397DB
:1012200066E672E0CE010796DEDEAEC0CE0107961E
:101230002BD2882309F4ABC0CE01079682DDF801DA
:10124000608371838283938366E672E0CE010796A2
:10125000CADE9DC0CE01079617D2882309F49AC032
:10126000CE0107966EDDD8016D937D938D939C938F
:10127000139766E672E0CE010796B5DE8BC0CE010D
:10128000079602D2882309F488C0CE01079659DD5B
:10129000F801608371838283938366E672E0CE01F6
:1012A0000796A1DE7AC0CE010796EED1882309F415
:1012B00077C0CE01079645DDD8016D937D938D9360
:1012C0009C93139766E672E0CE0107968CDE68C0A9
:1012D000CE010796D9D1882309F465C0CE010796BF
:1012E00030DDF801608371838283938366E672E068
:1012F000CE01079678DE57C0CE010796C5D1882368
:1013000009F454C0CE0107961CDDD8016D937D937E
:101310008D939C93139766E672E0CE01079663DE89
:1013200045C0B701C601CEDCFC018081803344F4A6
:10133000B701C601C7DCDC018C918E3251F4B8C014
:10134000B701C601BFDCFC0180818A330CF4B0C058
:10135000EFCFB701C601B6DCDC018C918C3209F409
:10136000A7C0B701C601AEDCFC0180818D3209F453
:101370009FC0B12C1DC004EC13E01AC00CEC13E0AC
:1013800017C000ED13E014C004ED13E011C008ED28
:1013900013E00EC00CED13E00BC008EC13E008C026
:1013A00000EE13E005C004EE13E002C008EE13E007
:1013B000BFEFEB1AFB0ACACECE01079665D1882390
:1013C00049F0CE010796BDDCD8016D937D938D93D6
:1013D0009C931397B1100BC061E672E0CE010196A9
:1013E00080DECE010196A1D0CE01019626DE20EF4F
:1013F00033E244E759E46091CC037091CD038091CE
:10140000CE039091CF030E94C017811110C080912C
:10141000450490914604A0914704B09148048093FC
:10142000CC039093CD03A093CE03B093CF0320EFD2
:1014300033E244E759E46091D0037091D103809185
:10144000D2039091D3030E94C017811110C08091E4
:10145000490490914A04A0914B04B0914C048093AC
:10146000D0039093D103A093D203B093D30320EF82
:1014700033E244E759E46091D4037091D50380913D
:10148000D6039091D7030E94C017811123C0809189
:101490004D0490914E04A0914F04B091500480935C
:1014A000D4039093D503A093D603B093D70312C06F
:1014B000B701C60107DCFC0180818C3211F46EE2B9
:1014C00005C0B701C601FEDBDC016C91CE010796B9
:1014D00077DD6ECFCE010796B0DD8B2D2C960FB643
:1014E000F894DEBF0FBECDBFDF91CF911F910F915A
:1014F000FF90EF90DF90CF90BF900895CF93DF9350
:10150000FC01448155816081718186E892E0ECDBC9
:10151000EC0142E050E064E672E086E892E0E4DB51
:101520008C0F9D1FDF91CF9108950F931F93CF9341
:10153000DF93CDB7DEB72F970FB6F894DEBF0FBE9F
:10154000CDBF8C0180915E041B861A861D861C8689
:101550001F861E864AE0BE016F5F7F4F90E00E94AB
:101560001116BE016F5F7F4FCE010A963CDDBE01B2
:10157000665F7F4FCE01019690DDB801CE010196E6
:101580000EDDBCDFCE01019658DDCE010A9655DD99
:101590002F960FB6F894DEBF0FBECDBFDF91CF916F
:1015A0001F910F910895CF93DF9300D000D0CDB756
:1015B000DEB767E672E0CE01019693DDCE010196BB
:1015C000B4DFCE01019639DD26960FB6F894DEBF62
:1015D0000FBECDBFDF91CF9108950F931F93CF938F
:1015E000DF9300D000D0CDB7DEB78C016AE672E0A1
:1015F000A0DC811114C06DE672E0C8019ADC811193
:1016000010C060E772E0C80194DC81110CC067E68D
:1016100072E0C8018EDC882321F1E3E005C0E0E040
:1016200003C0E1E001C0E2E080915E0494E0E99F44
:10163000F0011124E25AFB4FE80FF11D83818093E2
:101640005E04833061F463E772E0CE01019649DD08
:10165000CE0101966ADFCE010196EFDC01C0A3DF67
:1016600081E026960FB6F894DEBF0FBECDBFDF91A6
:10167000CF911F910F910895BC018DEB93E0C8DCD1
:1016800081E08093C303089566E672E052DC91E046
:10169000811190E0892F0895CF93DF93CDB7DEB706
:1016A000AA970FB6F894DEBF0FBECDBF789484B56D
:1016B000826084BD84B5816084BD85B5826085BD4E
:1016C00085B5816085BD80916E00816080936E00DC
:1016D00010928100809181008260809381008091CE
:1016E000810081608093810080918000816080937F
:1016F00080008091B10084608093B1008091B0003F
:1017000081608093B000809191008260809391000D
:101710008091910081608093910080919000816020
:10172000809390008091A10082608093A1008091BD
:10173000A10081608093A1008091A00081608093CE
:10174000A00080912101826080932101809121017C
:10175000816080932101809120018160809320012C
:1017600080917A00846080937A0080917A00826010
:1017700080937A0080917A00816080937A008091D2
:101780007A00806880937A001092C100F89414BCAB
:1017900015BC16BC89EF87BD84B5826084BD85B554
:1017A000836085BD80916E00826080936E00109290
:1017B00080001092810080E690EF909385008093E6
:1017C00084008091810082608093810080916F000D
:1017D000816080936F007894E0919602F091970277
:1017E00082E08083E0919202F09193021082E09176
:1017F0009402F091950280E1808310929E02E09124
:101800009A02F0919B0286E08083E0919802F09129
:101810009902808180618083E0919802F091990221
:10182000808188608083E0919802F09199028081A4
:1018300080688083E0919802F091990280818F7D89
:10184000808361E08DE00E94D20262E08FE00E941E
:10185000D20262E082E00E94D20262E08EE00E9448
:10186000D20262E083E00E94D20262E082E10E9442
:10187000D20262E083E10E94D20262E087E10E942C
:10188000D20262E089E10E94D20262E085E20E9417
:10189000D20262E083E20E94D20262E081E20E9410
:1018A000D20262E08FE10E94D20262E08DE20E94E9
:1018B000D20262E08BE20E94D20262E089E20E94E0
:1018C000D20262E087E20E94D20262E08BE10E94D3
:1018D000D20262E08DE10E94D20262E08FE20E94B9
:1018E000D20262E080E20E94D2028091BA03803389
:1018F00008F053C061E089E30E94D2028091BA03EC
:10190000E82FF0E09F01220F331FE20FF31FED5D80
:10191000FC4F9081907C996390831092BB0310924E
:10192000BC036CE00E948F193CE0839FB00111243E
:1019300040E050E09A01260F371FF901EE0FFF1F1C
:101940002E0F3F1FF901ED5DFC4F908196FD18C0F1
:101950004F5F5F4F4C30510569F7813011F00C94A7
:1019600000151092800082E0809381001092850023
:1019700010928400B19A80916F00826080936F0012
:10198000E091BA03F0E0CF01880F991FE80FF91F2B
:10199000ED5DFC4F8081806480832091BA03203309
:1019A00018F53091BB0388E890E0831B910937FD5F
:1019B0009395880F991F880F991F883EA3E09A0777
:1019C00014F488EE93E00297880F991F4FB7F894AC
:1019D00030E0F901EE0FFF1F2E0F3F1FF901ED5D03
:1019E000FC4F928381834FBF28E14AE16CE185E897
:1019F00094E00E94C60461E088E20E94D20261E0A5
:101A00008CE20E94D20261E08AE20E94D20226E2C7
:101A100046E367E38DE994E00E94C6042EE34EE2BC
:101A200060E385E994E00E94C60428E34CE36DE39B
:101A30008DE894E00E94C604412C512C80E8682E69
:101A40008FE3782E98E1292E96EF392E8E010B5ECA
:101A50001F4F80917A02882301F110927A0264EB81
:101A600073E0CE01019619DBCE010196B6DDF82EAA
:101A7000CE010196E2DAF1100BC064EB73E0CE0107
:101A800001960BDBCE010196F7DDCE010196D5DA8A
:101A900066E672E084EB93E0A6DA80915E04813022
:101AA000B1F008F4AAC7823009F47FC2833009F488
:101AB000A4C76EE572E0CE01019613DBCE0101965C
:101AC000F4DACE010196B9DA10925E0496C78091DD
:101AD000C303882309F491C71092C3036DEB73E02D
:101AE000CE010196DADACE0101960FDBF82ECE0197
:101AF0000196A3DAFF2009F480C76091C4037091B6
:101B0000C5038091C6039091C7030E945A1965309E
:101B1000710564F4623071050CF03EC26115710507
:101B200091F06130710509F48AC00BC26C31710506
:101B300009F007C24092EC035092ED036092EE036D
:101B40007092EF03F8C12091450430914604409112
:101B50004704509148046091CC037091CD0380916B
:101B6000CE039091CF030E94C01787FF0DC080E085
:101B700090E0A0E8BFEB8093EC039093ED03A0937B
:101B8000EE03B093EF0308C04092EC035092ED03D4
:101B90006092EE037092EF032091490430914A0461
:101BA00040914B0450914C046091D0037091D1034B
:101BB0008091D2039091D3030E94C01787FF0DC07C
:101BC00080E090E0A0E8BFEB8093F0039093F103F6
:101BD000A093F203B093F30308C04092F003509235
:101BE000F1036092F2037092F30320914D0430915F
:101BF0004E0440914F04509150046091D403709171
:101C0000D5038091D6039091D7030E94C01787FF18
:101C10000DC080E090E0A0E8BFEB8093F4039093C8
:101C2000F503A093F603B093F70385C14092F40344
:101C30005092F5036092F6037092F7037CC1C09056
:101C4000D403D090D503E090D603F090D7038090D2
:101C50004D0490904E04A0904F04B0905004A50104
:101C60009401C701B6010E94C0178823F1F0A501B5
:101C70009401C701B6010E94C01787FF0DC080E024
:101C800090E0A0E8BFEB80930C0490930D04A09328
:101C90000E04B0930F044FC140920C0450920D04F7
:101CA00060920E0470920F0446C1C0904504D0901B
:101CB0004604E0904704F09048048090CC03909054
:101CC000CD03A090CE03B090CF03A5019401C7012E
:101CD000B6010E94C017811126C02091D003309117
:101CE000D1034091D2035091D30360914904709184
:101CF0004A0480914B0490914C040E94C0178823A1
:101D000009F419C11092F0031092F1031092F2033A
:101D10001092F3031092EC031092ED031092EE0375
:101D20001092EF032FC0A5019401C701B6010E94D4
:101D3000C01787FF0DC04092F0035092F1036092EC
:101D4000F2037092F303A7019601C501B40110C01C
:101D500080E090E0A0E8BFEB8093F0039093F10364
:101D6000A093F203B093F303A5019401C701B60158
:101D70000E94F5186093EC037093ED038093EE03DB
:101D80009093EF03C0904904D0904A04E0904B0434
:101D9000F0904C048090D0039090D103A090D20397
:101DA000B090D303A5019401C701B6010E94C017EA
:101DB000811111C01092F8031092F9031092FA03E6
:101DC0001092FB031092F4031092F5031092F603A5
:101DD0001092F7032FC0A5019401C701B6010E941C
:101DE000C01787FF0DC04092F8035092F90360922C
:101DF000FA037092FB03A7019601C501B40110C05C
:101E000080E090E0A0E8BFEB8093F8039093F903A3
:101E1000A093FA03B093FB03A5019401C701B60197
:101E20000E94F5186093F4037093F5038093F60312
:101E30009093F7038090EC039090ED03A090EE0355
:101E4000B090EF03C090F403D090F503E090F60358
:101E5000F090F703A7019601C501B4010E948B1908
:101E60001816ACF5A5019401C701B6010E94F5183A
:101E70009B01AC010E94F6186093FC037093FD0374
:101E80008093FE039093FF03A7019601C701B6015B
:101E90000E94F6186093000470930104809302047A
:101EA00090930304A50194010E94F5186093040423
:101EB00070930504809306049093070440920804ED
:101EC0005092090460920A0470920B0434C0A70176
:101ED0009601C501B4010E94F5189B01AC010E9456
:101EE000F6186093FC037093FD038093FE039093B8
:101EF000FF03A5019401C501B4010E94F618609387
:101F00000004709301048093020490930304A701DA
:101F100096010E94F5186093040470930504809361
:101F2000060490930704109208041092090410927A
:101F30000A0410920B041092600480E00E943107A2
:101F40002BC06091C8037091C9038091CA0390911E
:101F5000CB030E945A196350710963307105E0F098
:101F60006091E8037091E9038091EA039091EB039B
:101F70000E945A196430710578F068E272E0CE016F
:101F80000196AFD8CE01019690D8CE01019655D8D2
:101F900084EC93E00E94910580915E04813009F009
:101FA0002CC582E080935E0428C580915F0488235D
:101FB00009F4A9C08FE00E94AA0221E0892B09F44C
:101FC00020E0298382E00E94AA0221E0892B09F403
:101FD00020E02A838EE00E94AA0221E0892B09F4E6
:101FE00020E02B8383E00E94AA0221E0892B09F4E0
:101FF00020E02C8382E10E94AA0221E0892B09F4CF
:1020000020E02D8383E10E94AA0221E0892B09F4BC
:1020100020E02E8387E10E94AA0221E0892B09F4A7
:1020200020E02F8389E10E94AA0221E0892B09F494
:1020300020E0288785E20E94AA0221E0892B09F48A
:1020400020E0298783E20E94AA0221E0892B09F47B
:1020500020E02A8781E20E94AA0221E0892B09F46C
:1020600020E02B878FE10E94AA0221E0892B09F44E
:1020700020E02C878DE20E94AA0221E0892B09F43E
:1020800020E02D878BE20E94AA0221E0892B09F42F
:1020900020E02E8789E20E94AA0221E0892B09F420
:1020A00020E02F8787E20E94AA0221E0892B09F411
:1020B00020E0288B8BE10E94AA0221E0892B09F401
:1020C00020E0298B8DE10E94AA0221E0892B09F4EE
:1020D00020E02A8B8FE20E94AA0221E0892B09F4DA
:1020E00020E02B8B80E20E94AA0221E0892B09F4D8
:1020F00020E02C8BFE013196A1E7B4E081918D9315
:10210000E017F107D9F780916004882309F43FC0F4
:10211000209171048091720490E0820F911D892BAF
:1021200041F081E08093A00461E080919F040E94CF
:10213000B803209173048091740490E0820F911D84
:10214000892B41F081E08093980461E080919704AD
:102150000E94B803209175048091760490E0820F6C
:10216000911D20918204820F911D20918304820F82
:10217000911D20918404820F911D892B41F081E0F3
:102180008093900461E080918F040E94B803809155
:102190007B02882309F431C46091C4037091C503A4
:1021A0008091C6039091C7030E945A19653071054A
:1021B00064F4623071050CF01EC46115710551F0B4
:1021C0006130710509F4F3C0DCC36C31710509F4A9
:1021D000A7C2D7C38FE89DEF9093850080938400BA
:1021E00020914504309146044091470450914804A1
:1021F0006091CC037091CD038091CE039091CF0379
:10220000BFD6882339F16091EC037091ED03809182
:10221000EE039091EF030E945A198DE994E00E9419
:10222000AC042091EC033091ED034091EE0350910A
:10223000EF036091450470914604809147049091AA
:102240004804D4D7609345047093460480934704B0
:10225000909348042091490430914A0440914B04E2
:1022600050914C046091D0037091D1038091D203BE
:102270009091D30385D6882339F16091F003709152
:10228000F1038091F2039091F3030E945A1985E9BA
:1022900094E00E94AC042091F0033091F10340914E
:1022A000F2035091F3036091490470914A048091C4
:1022B0004B0490914C049AD76093490470934A045C
:1022C00080934B0490934C0420914D0430914E0424
:1022D00040914F04509150046091D4037091D50304
:1022E0008091D6039091D7034BD6882331F160912A
:1022F000F4037091F5038091F6039091F703DAD718
:102300008DE894E00E94AC042091F4033091F50331
:102310004091F6035091F70360914D0470914E0483
:1023200080914F049091500461D760934D04709355
:102330004E0480934F0490935004209145043091B3
:10234000460440914704509148046091CC03709139
:10235000CD038091CE039091CF0312D681114BC350
:102360002091490430914A0440914B0450914C040F
:102370006091D0037091D1038091D2039091D303E7
:10238000FFD5811138C320914D0430914E04409106
:102390004F04509150046091D4037091D503809103
:1023A000D6039091D703ECD5811125C3E7C28FE8FE
:1023B0009DEF909385008093840020914D0430918F
:1023C0004E0440914F04509150046091D403709199
:1023D000D5038091D6039091D703D2D5882349F1B4
:1023E00060910C0470910D0480910E0490910F0483
:1023F00061D78DE894E00E94AC0420910C043091E8
:102400000D0440910E0450910F0460914D047091A1
:102410004E0480914F0490915004E8D69B01AC018A
:1024200060934D0470934E0480934F049093500436
:10243000B2CF20E030E040E85FE3609108047091A3
:10244000090480910A0490910B049AD5811198C0D7
:102450008090450490904604A0904704B0904804B2
:102460002091CC033091CD034091CE035091CF0306
:10247000C501B40185D5882309F42EC180910404D7
:1024800090910504A0910604B09107048FA398A72A
:10249000A9A7BAA720E030E0A901BC01CD013BD734
:1024A000C090F003D090F103E090F203F090F303BA
:1024B00087FD3EC0A7019601C501B40197D6609380
:1024C00045047093460480934704909348042091F8
:1024D000F8033091F9034091FA035091FB036091A6
:1024E000490470914A0480914B0490914C047ED62B
:1024F0006093490470934A0480934B0490934C0476
:102500002091FC033091FD034091FE035091FF03A5
:102510006FA178A589A59AA569D6609304047093E4
:1025200005048093060490930704C701B60197C081
:102530002091000430910104409102045091030461
:102540006FA178A589A59AA551D6609304047093CC
:1025500005048093060490930704A7019601C50122
:10256000B40144D6609345047093460480934704B5
:1025700090934804C701B6019DD68DE994E0AAC0A6
:10258000C0904904D0904A04E0904B04F0904C0471
:102590002091D0033091D1034091D2035091D303C5
:1025A000C701B601EDD4882309F496C080900404D5
:1025B00090900504A0900604B090070420E030E05D
:1025C000A901C501B401A7D687FD57C08091F003CA
:1025D0009091F103A091F203B091F3038FA398A718
:1025E000A9A7BAA79C01AD0160914504709146046A
:1025F0008091470490914804F9D560934504709305
:10260000460480934704909348042091F803309146
:10261000F9034091FA035091FB03C701B601E6D5D7
:102620006093490470934A0480934B0490934C0444
:102630002091FC033091FD034091FE035091FF0374
:10264000C501B401D3D5609304047093050480934D
:102650000604909307046FA178A589A59AA52AD6A8
:102660008DE994E00E94AC046091F8037091F90345
:102670008091FA039091FB032AC0209100043091CD
:1026800001044091020450910304C501B401AED588
:1026900060930404709305048093060490930704E8
:1026A0008090F8039090F903A090FA03B090FB0398
:1026B000A5019401C701B60199D5609349047093AF
:1026C0004A0480934B0490934C04C501B401F2D5A5
:1026D00085E994E00E94AC042091450430914604C1
:1026E00040914704509148046091CC037091CD0310
:1026F0008091CE039091CF0343D481117CC120916E
:10270000490430914A0440914B0450914C0460912B
:10271000D0037091D1038091D2039091D30343CE23
:1027200030928500209284006091EC037091ED035B
:102730008091EE039091EF03BDD5CB01770FAA0BEB
:10274000BB0BFC013197E730F10508F054C1882735
:10275000EC57FF4F8F4FEFC580917104811105C079
:102760006FEF7FEF8DE994E0A9C0109245041092BD
:102770004604109247041092480480E090E0A0E0E4
:10278000B0E48093EC039093ED03A093EE03B09339
:10279000EF034AE061E070E0CE0181960E942208DA
:1027A0006091730470E04AE0CE014B960E942208CB
:1027B0006091710470E04AE0C8010E9422086BE257
:1027C00072E0CE0101960E947108B801CE01019617
:1027D0000E94CF0762E372E00E94B807BE01655E07
:1027E0007F4F0E94CF076BE372E00E94B807BE01E3
:1027F0006F5D7F4F0E94CF070E947E0ACE01019637
:102800000E941D08C8010E941D08CE014B960E941F
:102810001D08CE0181960E941D08EDC020E030E029
:102820004AE754E46091450470914604809147045E
:1028300090914804A5D387FF1CC061E070E08DE94A
:1028400094E00E94AC0420E030E040E85FE3609157
:102850004504709146048091470490914804C6D481
:102860006093450470934604809347049093480412
:10287000C2C080E090E0A0E4B0E45FC080E69AEEE1
:10288000909385008093840080917104882309F4DB
:1028900067CF10924504109246041092470410929C
:1028A000480480E090E0A0E8B0E447C08091730461
:1028B000811107C06FEF7FEF85E994E00E94AC04BF
:1028C0009AC01092490410924A0410924B0410923C
:1028D0004C0480E090E0A0EAB0E42FC020E030E0BB
:1028E0004AE754E46091490470914A0480914B0492
:1028F00090914C0445D387FF1CC061E070E085E9EE
:1029000094E00E94AC0420E030E040E85FE3609196
:10291000490470914A0480914B0490914C0466D410
:102920006093490470934A0480934B0490934C0441
:1029300062C080E090E0A0ECB0E48093EC03909360
:10294000ED03A093EE03B093EF0355C080E69AEE3B
:10295000909385008093840080917304882309F408
:10296000A9CF1092490410924A0410924B0410927D
:102970004C0480E090E0A0EEB0E4DFCF0E94460778
:102980003AC06091C8037091C9038091CA039091C5
:10299000CB0390D4635071096330710560F160918D
:1029A000E8037091E9038091EA039091EB0382D4EC
:1029B0006430710500F164E472E0CE0101960E947A
:1029C0007108CE0101960E94950ACE0101960E94DF
:1029D0001D086BE572E0CE0101960E947108CE01E0
:1029E00001960E94950ACE0101960E941D0884EC72
:1029F00093E00E94910510927B020E94260329C851
:102A0000823069F4109290008093910010929500AA
:102A10001092940088BB809371000C94C00C83309A
:102A200071F41092A00082E08093A1001092A500A2
:102A30001092A40089BB809372000C94C00C811189
:102A40000C94C00C1092200182E08093210110921E
:102A50002501109224018ABB809373000C94C00C52
:102A600084EB93E00E941D088DEB93E00C941D080D
:102A7000109289021092880288EE93E0A0E0B0E004
:102A800080938A0290938B02A0938C02B0938D0264
:102A90008AE192E0909387028093860285EC90E031
:102AA000909393028093920284EC90E0909395022D
:102AB0008093940280EC90E090939702809396022A
:102AC00081EC90E0909399028093980282EC90E0E0
:102AD00090939B0280939A0286EC90E090939D02E3
:102AE00080939C0210929F021092A0021092A10269
:102AF0001092A2021092A1041092A2041092A304B8
:102B00001092A4041092A0041092990410929A04B6
:102B100010929B0410929C041092980410929104BD
:102B200010929204109293041092940410929004C4
:102B30001092890410928A0410928B0410928C04D3
:102B40001092880480E1E6E0F2E0A1E6B4E00190B2
:102B50000D928A95E1F781E08093600410925E0403
:102B6000E1E7F4E0119284E0E538F807D9F7109234
:102B700045041092460410924704109248041092A3
:102B8000490410924A0410924B0410924C04109283
:102B90004D0410924E0410924F041092500484EC95
:102BA00093E00E94910566E672E08DEB93E00E944F
:102BB00071088091B3038033A0F491E0980F909353
:102BC000B3038093BA0390E0FC01EE0FFF1F8E0F5A
:102BD0009F1FFC01ED5DFC4F88EB9BE0928381839E
:102BE00003C08FEF8093BA0366E672E084EB93E054
:102BF0000C947108662777272DC04532510518F4CB
:102C0000423008F004C0FB011082CB010895BB27BD
:102C10004A3031F4992322F4BDE2909581959F4F7B
:102C200001C0BB27FB015527AA27880F991FAA1FA0
:102C3000A41710F0A41B83955051B9F7A05DAA33D7
:102C400008F0A95DA193009779F7B111B1931192A2
:102C5000CB0186C16F927F928F929F92AF92BF926B
:102C6000CF92DF92EF92FF920F931F93CF93DF9358
:102C7000EC017B016115710519F0DB018D939C93CB
:102C80008E010F5F1F4F7880872D90E049D1892BEF
:102C900011F0E801F5CFBDE27B1205C00F5F1F4FB9
:102CA0007980C1E008C0EBE27E1204C08E010E5FA5
:102CB0001F4F7980C0E06801F1E0CF1AD10843E0EE
:102CC00050E068E471E0C60133D1892BE9F4680172
:102CD00022E0C20ED11C45E050E063E471E0C60181
:102CE00027D1892B21F4680187E0C80ED11CE1149B
:102CF000F10419F0D701CD92DC92C111F9C060E066
:102D000070E080E89FE7FDC043E050E060E471E0E0
:102D1000C6010ED1892B51F4E114F10409F4EDC080
:102D20000E5F1F4FF70111830083E7C0680160E069
:102D300070E0CB0100E010E0F601D0EDD70DDA3005
:102D400050F52C2F2260622E2C2F2870C2FF05C058
:102D5000211127C00F5F1F4F24C0222311F0015003
:102D60001109A5E0B0E09B01AC0126D24B015C014A
:102D7000880C991CAA1CBB1CC501B4016D0F711DE8
:102D8000811D911D6839A9E97A078A07A9E19A0787
:102D900040F0C66005C0DE3F51F4C3FD44C0C860CA
:102DA0006C2EBFEFCB1ADB0A7080C62DC5CF2D2F3E
:102DB0002F7D2531C1F540814D3211F4C06106C02F
:102DC0004B3221F0319621E030E006C03296D60138
:102DD00011964C9122E030E0A0EDA40FAA3018F03B
:102DE000E21BF30B20C040E050E04038BCE05B0742
:102DF0005CF49A01220F331F220F331F420F531F1F
:102E0000440F551F4A0F511D3196DF0111972C9128
:102E1000A0EDA20FAA3048F3C4FF03C0519541951D
:102E20005109040F151FC1FF07C0E114F10421F07F
:102E30003197D701ED93FC93A7D0C370C33019F03D
:102E40006B017C0106C06B017C01F7FAF094F7F886
:102E5000F09420E030E0A901C701B60191D08823A9
:102E600009F443C017FF06C0119501951109CFE57C
:102E7000D1E002C0C7E7D1E05E01B8E1AB1AB1080A
:102E80004601BE2DAF2D90E2E92EF12C0E151F0547
:102E90007CF0FE012591359145915491B4018B2F21
:102EA0009A2FD3D04B01B82FA92F0E191F09EECF9F
:102EB0002497F594E794CA15DB0541F76401EB2EDE
:102EC000FA2E8E2D880F8F2D881F8F3F41F020E026
:102ED00030E0A901C701B60153D0811106C082E2DA
:102EE00090E09093A6048093A504C701B60109C0A1
:102EF00060E070E080E89FEF04C060E070E080EC8C
:102F00009FE7DF91CF911F910F91FF90EF90DF909E
:102F1000CF90BF90AF909F908F907F906F900895CB
:102F20009111F6C0803219F089508550D0F708957C
:102F3000FB01DC014150504088F08D9181341CF040
:102F40008B350CF4805E659161341CF06B350CF4AC
:102F5000605E861B611171F3990B0895881BFCCF8D
:102F6000DC01FC01672F71917723E1F7329704C0F0
:102F70007C916D9370836291AE17BF07C8F308957B
:102F800040D008F481E00895E89409C097FB3EF42E
:102F900090958095709561957F4F8F4F9F4F9923A6
:102FA000A9F0F92F96E9BB279395F6958795779524
:102FB0006795B795F111F8CFFAF4BB0F11F460FFE4
:102FC0001BC06F5F7F4F8F4F9F4F16C0882311F03C
:102FD00096E911C0772321F09EE8872F762F05C050
:102FE000662371F096E8862F70E060E02AF09A95EB
:102FF000660F771F881FDAF7880F9695879597F9E0
:103000000895990F0008550FAA0BE0E8FEEF161679
:103010001706E807F907C0F012161306E407F507CC
:1030200098F0621B730B840B950B39F40A2661F040
:10303000232B242B252B21F408950A2609F4A140E3
:10304000A6958FEF811D811D08950BD07BC06CD09C
:1030500028F071D018F0952309F05DC062C01124EA
:10306000A5C081D0A0F3959FD1F3950F50E0551FD7
:10307000629FF001729FBB27F00DB11D639FAA27CD
:10308000F00DB11DAA1F649F6627B00DA11D661F1C
:10309000829F2227B00DA11D621F739FB00DA11D3D
:1030A000621F839FA00D611D221F749F3327A00DF7
:1030B000611D231F849F600D211D822F762F6A2F93
:1030C00011249F5750408AF0E1F088234AF0EE0F18
:1030D000FF1FBB1F661F771F881F91505040A9F725
:1030E0009E3F510570F017C061C05F3FECF3983E02
:1030F000DCF3869577956795B795F795E7959F5F8C
:10310000C1F7FE2B880F911D9695879597F9089525
:1031100099278827089597F99F6780E870E060E015
:1031200008959FEF80EC089500240A941616170660
:1031300018060906089500240A94121613061406A8
:1031400005060895092E0394000C11F4882352F00B
:10315000BB0F40F4BF2B11F460FF04C06F5F7F4FC3
:103160008F4F9F4F089557FD9058440F551F59F0AA
:103170005F3F71F04795880F97FB991F61F09F3F64
:1031800079F087950895121613061406551FF2CF8D
:103190004695F1DF08C0161617061806991FF1CFDD
:1031A00086957105610508940895E894BB27662704
:1031B0007727CB0197F9089509D0A59F900DB49F6B
:1031C000900DA49F800D911D11240895A29FB00120
:1031D000B39FC001A39F700D811D1124911DB29F4B
:1031E000700D811D1124911D08955058BB27AA27E9
:1031F0000ED0A8CF99DF30F09EDF20F031F49F3F52
:1032000011F41EF48ECF0EF4E095E7FB84CFE92F86
:10321000AADF80F3BA17620773078407950718F0CF
:1032200071F49EF5C2CF0EF4E0950B2EBA2FA02DAF
:103230000B01B90190010C01CA01A0011124FF2763
:10324000591B99F0593F50F4503E68F11A16F0405E
:10325000A22F232F342F4427585FF3CF469537955D
:103260002795A795F0405395C9F77EF41F16BA0B22
:10327000620B730B840BBAF09150A1F0FF0FBB1FD0
:10328000661F771F881FC2F70EC0BA0F621F731F19
:10329000841F48F4879577956795B795F7959E3F76
:1032A00008F0B3CF9395880F08F09927EE0F979504
:1032B0008795089504D06894B11178CF08955BDFA5
:1032C00088F09F5790F0B92F9927B751A0F0D1F00F
:1032D000660F771F881F991F1AF0BA95C9F712C099
:1032E000B13081F062DFB1E008955FCF672F782FB2
:1032F0008827B85F39F0B93FCCF386957795679505
:10330000B395D9F73EF490958095709561957F4F70
:103310008F4F9F4F089575DE08F48FEF0895991B26
:1033200079E004C0991F961708F0961B881F7A95BC
:10333000C9F780950895EE0FFF1F881F8BBF079078
:10334000F691E02D1994CF93DF938230910510F41C
:1033500082E090E0E091A904F091AA0420E030E03E
:10336000C0E0D0E0309711F14081518148175907F2
:10337000C0F04817590761F482819381209719F0B2
:103380009B838A832BC09093AA048093A90426C0B0
:103390002115310519F04217530718F49A01BE019F
:1033A000DF01EF010280F381E02DDCCF2115310533
:1033B00009F1281B390B2430310590F412968D91B8
:1033C0009C9113976115710521F0FB019383828312
:1033D00004C09093AA048093A904FD01329644C0CE
:1033E000FD01E20FF31F81939193225031092D9338
:1033F0003C933AC02091A7043091A804232B41F4B8
:1034000020910202309103023093A8042093A70474
:1034100020910002309101022115310541F42DB7B0
:103420003EB74091040250910502241B350BE091F8
:10343000A704F091A804E217F307A0F42E1B3F0B9A
:103440002817390778F0AC014E5F5F4F2417350716
:1034500048F04E0F5F1F5093A8044093A704819338
:10346000919302C0E0E0F0E0CF01DF91CF910895A9
:103470000F931F93CF93DF93009709F48CC0FC0147
:103480003297138212820091A9041091AA040115A7
:10349000110581F420813181820F931F2091A704AF
:1034A0003091A8042817390779F5F093A804E09320
:1034B000A70471C0D80140E050E0AE17BF0750F438
:1034C00012962D913C911397AD012115310509F10B
:1034D000D901F3CF9D01DA013383228360817181A9
:1034E000860F971F8217930769F4EC0128813981B1
:1034F000260F371F2E5F3F4F318320838A819B81A8
:1035000093838283452B29F4F093AA04E093A904C2
:1035100042C01396FC93EE931297ED014991599195
:103520009E01240F351FE217F30771F4808191810A
:10353000840F951F029611969C938E93828193819E
:1035400013969C938E931297E0E0F0E0D8011296C8
:103550008D919C911397009719F0F8018C01F6CF8B
:103560008D919C9198012E5F3F4F820F931F209168
:10357000A7043091A8042817390769F4309729F473
:103580001092AA041092A90402C01382128210930E
:10359000A8040093A704DF91CF911F910F91089584
:1035A0006F927F928F929F92AF92BF92CF92DF9253
:1035B000EF92FF920F931F93CF93DF93EC0100974D
:1035C00081F4CB01DF91CF911F910F91FF90EF908C
:1035D000DF90CF90BF90AF909F908F907F906F9033
:1035E000B2CEFC01E60FF71F9C0122503109E21711
:1035F000F30708F4A8C0D9010D911C911197061783
:103600001707A8F00530110508F49BC0C8010497FE
:103610008617970708F495C002501109061B170B6F
:10362000019311936D937C93CF0122DF8AC05B01DC
:10363000A01AB10A4C01800E911EA091A904B0916C
:10364000AA0440E050E0E12CF12C109709F44AC0A4
:10365000A815B905D1F56D907C901197630182E0B2
:10366000C80ED11CCA14DB0480F1A3014A195B09FE
:103670006A0182E0C80ED11C1296BC901297139674
:10368000AC91B5E0CB16D10440F0B282A383518354
:103690004083D9016D937C930AC00E5F1F4FC30115
:1036A000800F911FF90191838083EB2DFA2FE11494
:1036B000F10431F0D7011396FC93EE93129741C0B9
:1036C000F093AA04E093A9043CC08D919C911197BA
:1036D0004817590708F4AC017D0112960D90BC9172
:1036E000A02DB3CF8091A7049091A80488159905C7
:1036F000E1F446175707C8F4809100029091010247
:10370000009741F48DB79EB7409104025091050295
:10371000841B950BE817F907B0F4F093A804E09325
:10372000A704F901718360830CC0CB010CDE7C011E
:10373000009749F0A801BE011BD0CE0199DEC70158
:1037400004C0CE0102C080E090E0DF91CF911F91D4
:103750000F91FF90EF90DF90CF90BF90AF909F9030
:103760008F907F906F90089581E090E0F89419C059
:10377000FB01DC0102C001900D9241505040D8F78E
:103780000895FB01DC018D91019080190110D9F39E
:10379000990B0895FB01DC0101900D920020E1F7E7
:1037A000089511E0CFE4D1E000E005C0802FFE01D4
:1037B000C2DD2196011DC035D10780E00807B1F7B1
:0437C000F894FFCFAB
:1037C4000000AB04800001030303030303030000B0
:1037D40000000001020300000000ED0174068601F0
:1037E4003302B7019501A901453300786D696E3A3A
:1037F40020002020796D696E3A2000202074656DC8
:10380400703A20004552524F522E20554E4B4E4F87
:10381400574E20434F4D4D414E44004530004532F4
:10382400005731000D0A0055350055340055360057
:063834005537004531008C
:020000023000CC
:10E000000D9489F10D94B2F10D94B2F10D94B2F129
:10E010000D94B2F10D94B2F10D94B2F10D94B2F1F0
:10E020000D94B2F10D94B2F10D94B2F10D94B2F1E0
:10E030000D94B2F10D94B2F10D94B2F10D94B2F1D0
:10E040000D94B2F10D94B2F10D94B2F10D94B2F1C0
:10E050000D94B2F10D94B2F10D94B2F10D94B2F1B0
:10E060000D94B2F10D94B2F10D94B2F10D94B2F1A0
:10E070000D94B2F10D94B2F10D94B2F10D94B2F190
:10E080000D94B2F10D94B2F10D94B2F10D94B2F180
:10E090000D94B2F10D94B2F10D94B2F10D94B2F170
:10E0A0000D94B2F10D94B2F10D94B2F10D94B2F160
:10E0B0000D94B2F10D94B2F10D94B2F10D94B2F150
:10E0C0000D94B2F10D94B2F10D94B2F10D94B2F140
:10E0D0000D94B2F10D94B2F10D94B2F10D94B2F130
:10E0E0000D94B2F141546D656761323536300041AF
:10E0F000726475696E6F206578706C6F72657220DE
:10E1000073746B3530305632206279204D4C530099
:10E11000426F6F746C6F616465723E004875683F52
:10E1200000436F6D70696C6564206F6E203D200048
:10E130004350552054797065202020203D20005FF9
:10E140005F4156525F415243485F5F3D2000415658
:10E1500052204C696243205665723D20004743437C
:10E160002056657273696F6E203D20004350552024
:10E1700049442020202020203D20004C6F7720663D
:10E18000757365202020203D20004869676820665F
:10E190007573652020203D200045787420667573D6
:10E1A00065202020203D20004C6F636B2066757336
:10E1B000652020203D20004D617220203720323024
:10E1C000313300312E362E3800342E332E350056A2
:10E1D00023202020414444522020206F7020636F70
:10E1E00064652020202020696E73747275637469E1
:10E1F0006F6E2061646472202020496E74657272B3
:10E20000757074006E6F20766563746F7200726A49
:10E210006D702020006A6D70200057686174207056
:10E220006F72743A00506F7274206E6F7420737541
:10E2300070706F72746564004D7573742062652030
:10E2400061206C6574746572002000577269747483
:10E25000696E672045450052656164696E672045B7
:10E26000450045452065727220636E743D00504F35
:10E27000525400303D5A65726F2061646472003FF1
:10E280003D43505520737461747300403D454550C3
:10E29000524F4D207465737400423D426C696E6B41
:10E2A000204C454400453D44756D70204545505215
:10E2B0004F4D00463D44756D7020464C415348001B
:10E2C000483D48656C70004C3D4C69737420492F83
:10E2D0004F20506F72747300513D51756974005234
:10E2E0003D44756D702052414D00563D73686F7707
:10E2F00020696E7465727275707420566563746FF0
:10E30000727300593D506F727420626C696E6B00BD
:10E310002A0011241FBECFEFD1E2DEBFCDBF01E046
:10E320000CBF12E0A0E0B2E0EEE1FDEF03E00BBFB6
:10E3300002C007900D92A030B107D9F712E0A0E01B
:10E34000B2E001C01D92AE30B107E1F70F9460F367
:10E350000D948DFE01E20EBF0FEF0DBF11241FBE05
:10E360000D9460F30D9400F020E030E040ED57E0B4
:10E3700005C0FA013197F1F72F5F3F4F2817390792
:10E38000C0F308959C01260F311DC901A0E0B0E043
:10E390002F5F3F4FABBFFC018791882361F08093D3
:10E3A000C6008091C00086FFFCCF8091C0008064D1
:10E3B0008093C000EACF08958DE08093C6008091DD
:10E3C000C00086FFFCCF8091C00080648093C000B5
:10E3D0008AE08093C6008091C00086FFFCCF8091C8
:10E3E000C00080648093C00008950F94C2F10F9420
:10E3F000DCF10895FC019081992359F09093C600B7
:10E400008091C00086FFFCCF8091C0008064809323
:10E41000C0003196992379F70895282F982F929567
:10E420009F70892F805D8A3308F0895F8093C600D2
:10E430008091C00086FFFCCF8091C00080648093F3
:10E44000C000822F8F70982F905D9A3308F0995FEB
:10E450009093C6008091C00086FFFCCF8091C000E1
:10E4600080648093C00008959C01FB01853691056E
:10E470001CF46330710594F0C90164E670E00F94F8
:10E480002EFE605D7F4F6093C6008091C00086FFC6
:10E49000FCCF8091C00080648093C0002B30310598
:10E4A00014F43297B4F0C90164E670E00F942EFEC4
:10E4B0006AE070E00F942EFE605D7F4F6093C600AF
:10E4C0008091C00086FFFCCF8091C0008064809363
:10E4D000C000C9016AE070E00F942EFEC0968093E0
:10E4E000C6008091C00086FFFCCF8091C000806490
:10E4F0008093C00008951F93182F8EE692EE60E07F
:10E500000F94C2F11093C6008091C00086FFFCCF2B
:10E510008091C00080648093C0000F94DCF11F9153
:10E5200008952F923F924F925F926F927F928F92B7
:10E530009F92AF92BF92CF92DF92EF92FF920F9392
:10E540001F93DF93CF93CDB7DEB762970FB6F894E2
:10E55000DEBF0FBECDBF382E622ECA01DB015C01CB
:10E560006D01772420E2222E2E010894411C511CBB
:10E570008BC081E0A81680E0B80681E0C80680E084
:10E58000D80628F0C601AA27BB270F940DF2BB2797
:10E59000AD2D9C2D8B2D0F940DF28A2D0F940DF225
:10E5A0002092C6008091C00086FFFCCF8091C00001
:10E5B00080648093C0009DE29093C6008091C0006B
:10E5C00086FFFCCF8091C00080648093C0002092C1
:10E5D000C6008091C00086FFFCCF8091C00080649F
:10E5E0008093C00019828601750188249924A1E0D6
:10E5F0003A1651F03A1620F0B2E03B1661F409C029
:10E600000BBFF701779007C0C7010F9477FE782EF4
:10E6100002C0F7017080872D0F940DF22092C60082
:10E620008091C00086FFFCCF8091C0008064809301
:10E63000C000872D8052F401EF70F0708F3520F408
:10E64000E40DF51D708204C0E40DF51D8EE280839B
:10E650000894E11CF11C011D111D0894811C911CE2
:10E6600090E18916910409F0C2CF80E190E0A0E02A
:10E67000B0E0A80EB91ECA1EDB1E198AC2010F9493
:10E68000FAF10F94DCF16A94662009F072CF629679
:10E690000FB6F894DEBF0FBECDBFCF91DF911F91B3
:10E6A0000F91FF90EF90DF90CF90BF90AF909F9031
:10E6B0008F907F906F905F904F903F902F90089534
:10E6C0002F923F924F925F926F927F928F929F9282
:10E6D000AF92BF92CF92DF92EF92FF920F931F9370
:10E6E000DF93CF93CDB7DEB7CD53D1400FB6F894BB
:10E6F000DEBF0FBECDBF01E20EBF0FEF0DBF94B75F
:10E70000F894A89514BE80916000886180936000A1
:10E7100010926000789493FF05C0E0910002F091A0
:10E7200001021995279A2F9A8091C00082608093E8
:10E73000C00080E18093C40088E18093C1000000A4
:10E74000EE24FF24870144E0A42EB12CCC24DD2448
:10E7500024C0C5010197F1F70894E11CF11C011DCB
:10E76000111D21E2E2162EE4F20620E0020720E06D
:10E77000120718F031E0C32ED12CC801B70127ECE5
:10E780003BE140E050E00F9441FE611571058105C9
:10E79000910519F485B1805885B98091C00087FD35
:10E7A00003C0C114D104A9F2A6014F5F5F4FC25E3E
:10E7B000DE4F59834883CE51D140C25EDE4F8881FF
:10E7C0009981CE51D140019711F00D9410FEC05D9A
:10E7D000DE4F19821882C053D14060E0C15DDE4F28
:10E7E0001882CF52D14088249924C35DDE4F19820C
:10E7F0001882CD52D140C05EDE4F188219821A8233
:10E800001B82C052D140CE5CDE4F188219821A8220
:10E810001B82C253D140EE24FF2487010BBFF701B6
:10E8200007911691C45CDE4F19830883CC53D14005
:10E830000D940BFEC25EDE4F28813981CE51D1404E
:10E840002130310509F52091C600C25EDE4F1982E4
:10E850001882CE51D14022C02F5F3F4F4F4F5F4FA4
:10E86000213082E138078AE7480780E0580780F0C6
:10E87000C45CDE4FE881F981CC53D140EF5FFF4F9C
:10E8800019F0EE27FF27099420E030E040E050E047
:10E890008091C00087FFE0CF2091C600C35DDE4FAE
:10E8A00048815981CD52D1404F5F5F4FC35DDE4FEC
:10E8B00059834883CD52D140213209F063C64A3092
:10E8C000510508F05FC60894811C911C53E0851621
:10E8D000910409F059C600E010E018C081E280936D
:10E8E000C6008091C00086FFFCCF8091C00080648C
:10E8F0008093C0002F5F3F4F2931310579F70F9486
:10E90000DCF10F5F1F4F0530110519F020E030E0FA
:10E91000E5CF10920A0210920B0210920C02109294
:10E920000D02109206021092070210920802109235
:10E930000902109202021092030210920402109235
:10E9400005028FEE90EE60E00F94F5F180E191EE1C
:10E9500060E00F94C2F18091C00087FFFCCF9091DE
:10E96000C600903608F09F759032B8F09093C600BC
:10E970008091C00086FFFCCF8091C00080648093AE
:10E98000C000A0E2A093C6008091C00086FFFCCF2B
:10E990008091C00080648093C000983409F4D7C18E
:10E9A0009934B8F4923409F459C1933458F490333B
:10E9B00019F1903308F4E3C59F33A1F1903409F0C5
:10E9C000DEC5BDC0953409F470C1963409F0D7C5D1
:10E9D00098C1923509F42BC2933538F49C3409F46C
:10E9E000F5C1913509F0CBC518C2963509F445C279
:10E9F000993509F0C4C567C483E792EE62E00F94CD
:10EA0000F5F110920602109207021092080210927D
:10EA1000090210920A0210920B0210920C0210923C
:10EA20000D0213C18FE792EE62E00F94F5F18FEEC5
:10EA300090EE60E00F94F5F181E291EE60E00F94CA
:10EA4000C2F187EB91EE60E00F94F5F180E391EE77
:10EA500060E00F94C2F184EE90EE60E00F94F5F167
:10EA60008FE391EE60E00F94C2F186E090E061E008
:10EA700070E00F9434F20F94DCF18DE591EE60E0DC
:10EA80000F94C2F189EC91EE60E00F94F5F18EE401
:10EA900091EE60E00F94C2F183EC91EE60E00F9490
:10EAA000F5F18CE691EE60E00F94C2F18EE10F94E7
:10EAB0000DF288E90F940DF281E00F940DF20F949E
:10EAC000DCF18BE791EE60E00F94C2F119E0E0E039
:10EAD000F0E010935700E4918E2F0F940DF20F94F5
:10EAE000DCF18AE891EE60E00F94C2F1E3E0F0E03F
:10EAF00010935700E4918E2F0F940DF20F94DCF1D8
:10EB000089E991EE60E00F94C2F1E2E0F0E0109349
:10EB10005700E4918E2F0F940DF20F94DCF188EAE8
:10EB200091EE60E00F94C2F1E1E0F0E01093570045
:10EB30001491812F0F940DF20F94DCF107CF8BE825
:10EB400092EE62E00F94F5F18BE492EE60E00F94A8
:10EB5000F5F10F94DCF100E010E019C0C8016F2D51
:10EB60000F947FFEFF2031F489E492EE60E00F9471
:10EB7000C2F10BC0F092C6008091C00086FFFCCFAE
:10EB80008091C00080648093C0000F5F1F4FC80158
:10EB900081519F41A0E0B0E0ABBFFC01F790BAE229
:10EBA000FB1621F0E2E000301E07C1F60F94DCF105
:10EBB0000F94DCF187E592EE60E00F94F5F10F948D
:10EBC000DCF1CC24DD2400E010E01EC0C8010F946D
:10EBD00077FEF82E882331F489E492EE60E00F94FA
:10EBE000C2F10BC08093C6008091C00086FFFCCFAD
:10EBF0008091C00080648093C000FE1419F00894D6
:10EC0000C11CD11C0F5F1F4FC80181519F41A0E063
:10EC1000B0E0ABBFFC01E790FAE2EF1621F022E092
:10EC20000030120799F60F94DCF10F94DCF182E6C4
:10EC300092EE60E00F94C2F1C60161E070E00F94C3
:10EC400034F20F94DCF10F94DCF110920202109276
:10EC50000302109204021092050278CE89E992EE26
:10EC600062E00F94F5F1279A2F9A16C02F9880E052
:10EC700090E0E0EDF7E03197F1F7019684369105E9
:10EC8000C1F72F9A80E090E0E0EDF7E03197F1F7DF
:10EC9000019684369105C1F78091C00087FFE6CFC9
:10ECA0008091C00087FFFCCF64C485EA92EE62E0E9
:10ECB0000F94F5F140910202509103026091040219
:10ECC0007091050281E020E10F9491F2809102029F
:10ECD00090910302A0910402B091050280509F4FD1
:10ECE000AF4FBF4F8093020290930302A0930402A0
:10ECF000B093050280509041A040B04008F426CE69
:10ED0000A4CF83EB92EE62E00F94F5F140910602FE
:10ED100050910702609108027091090280E020E1A1
:10ED20000F9491F28091060290910702A09108023F
:10ED3000B091090280509F4FAF4FBF4F80930602A2
:10ED400090930702A0930802B0930902FFCD80ECD4
:10ED500092EE62E00F94F5F183E792EE60E00F949B
:10ED6000F5F18FE792EE60E00F94F5F18BE892EE0B
:10ED700060E00F94F5F189E992EE60E00F94F5F10F
:10ED800085EA92EE60E00F94F5F183EB92EE60E09D
:10ED90000F94F5F180EC92EE60E00F94F5F187ECC2
:10EDA00092EE60E00F94F5F188ED92EE60E00F9442
:10EDB000F5F18FED92EE60E00F94F5F18AEE92EEB0
:10EDC00060E00F94F5F183E093EEBDCD87EC92EE19
:10EDD00062E00F94F5F181E40F947BF282E40F94EA
:10EDE0007BF283E40F947BF284E40F947BF285E45E
:10EDF0000F947BF286E40F947BF287E40F947BF20E
:10EE000088E40F947BF28AE40F947BF28BE40F94F6
:10EE10007BF28CE40F947BF299CD88ED92EE62E068
:10EE20000F94F5F1772473948824992409C48FED05
:10EE300092EE62E00F94F5F140910A0250910B02BC
:10EE400060910C0270910D0282E020E10F9491F22A
:10EE500080910A0290910B02A0910C02B0910D02D8
:10EE600080509F4FAF4FBF4F80930A0290930B0289
:10EE7000A0930C02B0930D0269CD8AEE92EE62E08F
:10EE80000F94F5F184EE90EE60E00F94F5F18FECC5
:10EE900091EE60E00F94F5F1662477244301CC5D98
:10EEA000DE4F19821882C452D140D401C301B695F5
:10EEB000A79597958795CA5DDE4F88839983AA8326
:10EEC000BB83C652D140CC5DDE4FA881B981C4520C
:10EED000D1401196CC5DDE4FB983A883C452D14096
:10EEE000CD0162E070E00F9434F2B0E2B093C6005E
:10EEF0008091C00086FFFCCF8091C0008064809329
:10EF0000C000EDE2E093C6008091C00086FFFCCF18
:10EF10008091C00080648093C000F0E2F093C6004E
:10EF20008091C00086FFFCCF8091C00080648093F8
:10EF3000C000CA5DDE4FE880F9800A811B81C6529D
:10EF4000D140BB27A12F902F8F2D0F940DF2CA5DBA
:10EF5000DE4F8881C652D1400F940DF2B0E2FB2EF5
:10EF6000F092C6008091C00086FFFCCF8091C00067
:10EF700080648093C0000DE30093C6008091C000C0
:10EF800086FFFCCF8091C00080648093C00010E2B7
:10EF90001093C6008091C00086FFFCCF8091C00016
:10EFA00080648093C0008BBEF3012791C65DDE4F65
:10EFB0002883CA52D140A22EBB24CC24DD2408943D
:10EFC000611C711C811C911C8BBEF3018791282E42
:10EFD0003324442455240894611C711C811C911C09
:10EFE0008BBEF3013791C55DDE4F3883CB52D140E4
:10EFF0000894611C711C811C911C8BBEF30147910C
:10F00000C45DDE4F4883CC52D140ADEFEA2EAFEF66
:10F01000FA2EAFEF0A2FAFEF1A2F6E0C7F1C801E57
:10F02000911E142D032DF22CEE24EA0CFB1C0C1D5A
:10F030001D1D0F940DF220E22093C6008091C000A8
:10F0400086FFFCCF8091C00080648093C000C65DC5
:10F05000DE4F8881CA52D1400F940DF230E23093D6
:10F06000C6008091C00086FFFCCF8091C000806404
:10F070008093C000C45DDE4F8881CC52D1400F9494
:10F080000DF240E24093C6008091C00086FFFCCFA5
:10F090008091C00080648093C000C55DDE4F888190
:10F0A000CB52D1400F940DF250E25093C6008091A4
:10F0B000C00086FFFCCF8091C00080648093C000B8
:10F0C0008FEFE8168FEFF80680E0080780E018075A
:10F0D00031F484E092EE60E00F94C2F1DFC0D80119
:10F0E000C7018070907CA070B0708050904CA040A0
:10F0F000B040D1F52FEF3FE340E050E0E222F322B1
:10F1000004231523CA5DDE4FA880B980CA80DB8046
:10F11000C652D140AE0CBF1CC01ED11EAA0CBB1CD7
:10F12000CC1CDD1C8EE092EE60E00F94C2F1BB2798
:10F13000A12F902F8F2D0F940DF28E2D0F940DF285
:10F1400030E23093C6008091C00086FFFCCF8091F2
:10F15000C00080648093C0004EE34093C60080915D
:10F16000C00086FFFCCF87C08EE09EEFA0E0B0E03D
:10F17000E822F9220A231B239CE0E91694E9F90608
:10F1800090E0090790E0190709F088C0C45DDE4FE0
:10F19000A881CC52D140EA2EFF2400E010E0102FCD
:10F1A0000F2DFE2CEE24C55DDE4FB881CB52D14031
:10F1B000EB0EF11C011D111DD601C501817090706F
:10F1C000A070B070DC0199278827E80EF91E0A1F8D
:10F1D0001B1F20EF30E040E050E0A222B322C42207
:10F1E000D52241E1AA0CBB1CCC1CDD1C4A95D1F7F1
:10F1F000EA0CFB1C0C1D1D1D81E090E0A0E0B0E0BE
:10F20000282239224A225B2235E1220C331C441C7D
:10F21000551C3A95D1F7E20CF31C041D151D57013E
:10F220006801AA0CBB1CCC1CDD1C85E192EE60E0E1
:10F230000F94C2F1C801AA27BB270F940DF2BB2778
:10F24000A12F902F8F2D0F940DF28E2D0F940DF274
:10F2500090E29093C6008091C00086FFFCCF809121
:10F26000C00080648093C000AEE3A093C60080918C
:10F27000C00086FFFCCF8091C00080648093C000F6
:10F28000C601AA27BB270F940DF2BB27AD2D9C2DDD
:10F290008B2D0F940DF28A2D0F940DF20F94DCF14B
:10F2A000CC5DDE4FE881F981C452D140F99709F471
:10F2B0004DCBF4E0EF2EF12C012D112D6E0C7F1CA7
:10F2C000801E911EF2CD83E093EE62E00F94F5F183
:10F2D0008AE192EE60E00F94C2F18091C00087FF56
:10F2E000FCCF1091C6001F751093C6008091C0001E
:10F2F00086FFFCCF8091C00080648093C0000F9493
:10F30000DCF1812F81548A3108F036C1163409F4BA
:10F3100095C0173490F4133409F44EC0143430F40B
:10F320001134F1F0123409F01DC130C0143409F465
:10F3300059C0153409F016C16BC01A3409F4C4C0A1
:10F340001B3438F4173409F48FC0183409F00AC19B
:10F35000A1C01B3409F4D2C01C3409F003C1E8C0B9
:10F360008FEF81B90DC082B1809582B980E090E0C5
:10F37000E0EDF7E03197F1F70196883C9105C1F790
:10F380008091C00087FFEFCF12B8EFC08FEF84B934
:10F390000DC085B1809585B980E090E0E0EDF7E0A3
:10F3A0003197F1F70196883C9105C1F78091C00033
:10F3B00087FFEFCF15B8D9C08FEF87B90DC088B1DF
:10F3C000809588B980E090E0E0EDF7E03197F1F7C3
:10F3D0000196883C9105C1F78091C00087FFEFCF6F
:10F3E00018B8C3C08FEF8AB90DC08BB180958BB9A7
:10F3F00080E090E0E0EDF7E03197F1F70196883C8E
:10F400009105C1F78091C00087FFEFCF1BB8ADC059
:10F410008FEF8DB90DC08EB180958EB980E090E0F0
:10F42000E0EDF7E03197F1F70196883C9105C1F7DF
:10F430008091C00087FFEFCF1EB897C08FEF80BBD1
:10F440000DC081B3809581BB80E090E0E0EDF7E0F6
:10F450003197F1F70196883C9105C1F78091C00082
:10F4600087FFEFCF11BA81C08FEF83BB0DC084B38C
:10F47000809584BB80E090E0E0EDF7E03197F1F714
:10F480000196883C9105C1F78091C00087FFEFCFBE
:10F4900014BA6BC08FEF809301010FC080910201FD
:10F4A00080958093020180E090E0E0EDF7E03197F5
:10F4B000F1F70196883C9105C1F78091C00087FF64
:10F4C000EDCF1092020151C08FEF809304010FC065
:10F4D0008091050180958093050180E090E0E0ED4A
:10F4E000F7E03197F1F70196883C9105C1F78091DB
:10F4F000C00087FFEDCF1092050137C08FEF8093DA
:10F5000007010FC08091080180958093080180E079
:10F5100090E0E0EDF7E03197F1F70196883C910536
:10F52000C1F78091C00087FFEDCF109208011DC088
:10F530008FEF80930A010FC080910B01809580931B
:10F540000B0180E090E0E0EDF7E03197F1F70196F4
:10F55000883C9105C1F78091C00087FFEDCF1092E4
:10F560000B0103C085E292EEEEC98091C00087FFD7
:10F57000FCCF8091C600EAC988E392EEE4C98CE131
:10F5800091EEE1C988249924933011F1943028F444
:10F59000913089F09230B8F408C0953061F195301F
:10F5A000F0F0963009F048C043C02B3109F042C951
:10F5B00091E06BE13FC96227C15DDE4F2883CF52E6
:10F5C000D14092E037C9B22FA0E0622793E032C960
:10F5D000822F90E0A82BB92B622794E02BC92E3004
:10F5E00009F039C3622795E0C05DDE4F19821882A9
:10F5F000C053D1401FC9E1E0F0E0EC0FFD1FC05D3A
:10F60000DE4F08811981C053D140E00FF11F2083E4
:10F610000F5F1F4FC05DDE4F19830883C053D14079
:10F6200062270A171B0709F005C9D80196E002C92D
:10F63000261709F010C303C0973009F0FBC87724E0
:10F640009981933109F412C19431C8F4963009F4C8
:10F65000D8C0973050F4923009F406C1933009F4C1
:10F660006DC0913009F059C253C0913109F477C08F
:10F67000923108F0BBC0903109F04FC2F5C098310B
:10F6800009F487C0993150F4953109F4EFC09531F0
:10F6900008F4C6C1963109F040C2C2C19A3109F4DA
:10F6A0006CC09A3108F491C09B3109F45BC09D3164
:10F6B00009F033C29D81903359F48F81882311F46E
:10F6C0009EE11CC0813011F091E018C098E916C08D
:10F6D000892F807591F0903539F4E0E0F0E089E011
:10F6E0008093570094910AC0983539F4E3E0F0E034
:10F6F00089E080935700949101C090E01A821B82A8
:10F700008D818C831D829E831F8227E030E009C299
:10F710001A8288E08B8381E48C8386E58D8382E581
:10F720008E8389E48F8383E5888780E589878FE5E9
:10F730008A8782E38B872BE030E0F3C18A818139AD
:10F7400041F0823941F0803911F48FE005C080E04A
:10F7500003C082E001C08AE01A828B8344C0772410
:10F76000739482C08D81882311F48EE12CC0813086
:10F7700011F081E028C088E926C01A82E1E0F0E0BB
:10F7800089E08093570084918B831C8224E030E0D1
:10F79000C8C18B81803589F48C81883039F4E2E0EE
:10F7A000F0E089E08093570084910DC0E0E0F0E044
:10F7B00089E080935700849106C0E3E0F0E089E09F
:10F7C0008093570084911A82DFCF8D81836C99E0FA
:10F7D000E1E0F0E0082E90935700E89507B600FCB2
:10F7E000FDCF1A821B8223E030E09BC180EC8A832C
:10F7F000CE5CDE4F188219821A821B82C253D1401E
:10F800008EC18A8190E0A0E0B0E0582F44273327D2
:10F8100022278B8190E0A0E0B0E0DC0199278827C7
:10F82000282B392B4A2B5B2B8D8190E0A0E0B0E098
:10F83000282B392B4A2B5B2B8C8190E0A0E0B0E089
:10F84000BA2FA92F982F8827282B392B4A2B5B2BCF
:10F85000220F331F441F551FC05EDE4F288339839C
:10F860004A835B83C052D1401A8259C13A81C95C34
:10F87000DE4F3883C753D140CA5CDE4F1882C6536F
:10F88000D1408B81C82EDD24CA5CDE4F488159816E
:10F89000C653D140C42AD52A933109F082C0CE5C28
:10F8A000DE4F88819981AA81BB81C253D1408050AB
:10F8B000904CA340B04030F583E0CE5CDE4FE88052
:10F8C000F9800A811B81C253D140F70100935B008C
:10F8D00080935700E89507B600FCFDCFCE5CDE4F65
:10F8E000088119812A813B81C253D14000501F4FAA
:10F8F0002F4F3F4FCE5CDE4F088319832A833B8313
:10F90000C253D140C05EDE4F488159816A817B81FC
:10F91000C052D140DE011B9631E08C9111962C91A2
:10F9200011971296C75CDE4F2883C953D140C85C3B
:10F93000DE4F1882C853D14090E0C85CDE4FE881AA
:10F94000F981C853D1408E2B9F2B0C01FA01609393
:10F950005B0030935700E89511244E5F5F4F6F4F67
:10F960007F4F0EEFE02E0FEFF02ECE0CDF1CC114F8
:10F97000D10499F685E0C05EDE4F088119812A81A5
:10F980003B81C052D140F80120935B008093570027
:10F99000E89507B600FCFDCF81E180935700E8951C
:10F9A00035C0C05EDE4F88819981AA81BB81C0527B
:10F9B000D140B695A795979587957C018601ABE0D8
:10F9C000AA2EB12CAC0EBD1E0BC0D5016D915D01F0
:10F9D000C7010F947FFE0894E11CF11C01501040F8
:10F9E0000115110591F7A60160E070E0440F551F65
:10F9F000661F771FC05EDE4FE880F9800A811B8199
:10FA0000C052D1404E0D5F1D601F711F1A82C05E33
:10FA1000DE4F488359836A837B83C052D1407FC0C5
:10FA2000FA80C55CDE4FF882CB53D140C65CDE4F16
:10FA30001882CA53D1408B81C82EDD24C65CDE4FAC
:10FA400008811981CA53D140C02AD12A1A828981DA
:10FA5000BE016D5F7F4F843121F59601C05EDE4FA0
:10FA6000E880F9800A811B81C052D1400BBFF701A9
:10FA700087919691DB018C9311969C936E5F7F4FDB
:10FA8000D801C7010296A11DB11DC05EDE4F88835B
:10FA90009983AA83BB83C052D14022503040F1F6F3
:10FAA00036C0C05EDE4F288139814A815B81C052F9
:10FAB000D1400894C108D108760100E010E0089414
:10FAC000C11CD11C0894E11CF11C011D111DE20E8A
:10FAD000F31E041F151F21BDBB27A52F942F832FB5
:10FAE00082BD2F5F3F4F4F4F5F4FF89A80B5DB01CC
:10FAF0008D93BD012E153F054007510761F7C05E8C
:10FB0000DE4F288339834A835B83C052D1409601FC
:10FB10002D5F3F4FFB01108204C080EC8A8322E0FE
:10FB200030E08BE18093C6008091C00086FFFCCF5F
:10FB30008091C00080648093C000C15DDE4FF88179
:10FB4000CF52D140F093C6008091C00086FFFCCF19
:10FB50008091C00080648093C000432F3093C60022
:10FB60008091C00086FFFCCF8091C00080648093AC
:10FB7000C000922F2093C6008091C00086FFFCCF6A
:10FB80008091C00080648093C0008EE08093C600A6
:10FB90008091C00086FFFCCF8091C000806480937C
:10FBA000C00065E1C15DDE4FE880CF52D1406E25D7
:10FBB00069276427FE01319610C090819093C6009A
:10FBC0008091C00086FFFCCF31968091C000806498
:10FBD0008093C0006927215030402115310569F715
:10FBE0006093C6008091C00086FFFCCF8091C0006A
:10FBF00080648093C00085B1805885B9772081F4F6
:10FC0000C15DDE4F0881CF52D1400F5FC15DDE4F35
:10FC10000883CF52D14090E0A0E0B0E00D941AF4F8
:10FC200027982F9880E090E020ED37E0F901319798
:10FC3000F1F7019684369105C9F700008091C00064
:10FC40008D7F8093C00081E180935700E895EE2777
:10FC5000FF270994FFCF90E00D941AF497FB092E2B
:10FC600007260AD077FD04D02ED006D000201AF443
:10FC7000709561957F4F0895F6F7909581959F4F08
:10FC80000895A1E21A2EAA1BBB1BFD010DC0AA1FDD
:10FC9000BB1FEE1FFF1FA217B307E407F50720F0F5
:10FCA000A21BB30BE40BF50B661F771F881F991F70
:10FCB0001A9469F760957095809590959B01AC01B9
:10FCC000BD01CF010895AA1BBB1B51E107C0AA1FAC
:10FCD000BB1FA617B70710F0A61BB70B881F991FED
:10FCE0005A95A9F780959095BC01CD010895F99991
:10FCF000FECF92BD81BDF89A992780B50895262F31
:10FD0000F999FECF1FBA92BD81BD20BD0FB6F89400
:0EFD1000FA9AF99A0FBE01960895F894FFCF63
:040000033000E000E9
:00000001FF