:100000000C9496000C94BE000C94BE000C94BE00A0
:100010000C94BE000C94BE000C94BE000C94BE0068
:100020000C94BE000C94BE000C94BE000C94BE0058
:100030000C94BE000C9441070C94F7060C94BE007F
:100040000C9434030C94BE000C94C5060C949F06CB
:100050000C94BE000C94BE000C94BE000C94BE0028
:100060000C94BE000C94BE00D50519050406770556
:100070008E0504060406A605040604060406040606
:100080000406BD050406EC05040604063005480513
:100090005F054E414E494E495459494E46CDCCCC50
:1000A0003D0AD7233C17B7D13877CC2B329595E64C
:1000B000241FB14F0A000020410000C84200401C2C
:1000C0004620BCBE4CCA1B0E5AAEC59D7400000033
:1000D00000240027002A0000000000250028002B33
:1000E000000000000023002600290004040404048A
:1000F00004040402020202020203030303030301D5
:1001000002040810204080010204081020010204AB
:10011000081020000000080002010000030407008E
:100120000000000000000000570D4F0D11241FBEFD
:10013000CFEFD8E0DEBFCDBF24E0A6E5B1E001C03F
:100140001D92A231B207E1F711E0A0E0B1E0EAE4CC
:10015000F7E202C005900D92A635B107D9F710E07D
:10016000C5E9D0E004C02197FE010E947D11C43989
:10017000D107C9F70E9466080C9498130C940000EC
:10018000FC01248135816217730720F480819181FD
:10019000009729F41092580188E591E00895860FA0
:1001A000971F0895CF92DF92EF92FF920F931F93C4
:1001B000CF93DF936C017A018B01C0E0D0E0CE15C4
:1001C000DF0589F0D8016D918D01D601ED91FC918B
:1001D0000190F081E02DC6010995892B11F47E0173
:1001E00002C02196ECCFC701DF91CF911F910F91F3
:1001F000FF90EF90DF90CF900895089580E090E019
:100200000895FC01538D448D252F30E0842F90E01C
:10021000821B930B541710F0CF9608950197089501
:10022000FC01918D828D981761F0828DDF01A80FFE
:10023000B11D5D968C91928D9F5F9F73928F90E020
:1002400008958FEF9FEF0895FC01918D828D98178F
:1002500031F0828DE80FF11D858D90E008958FEFCC
:100260009FEF0895FC01918D228D892F90E0805C95
:100270009F4F821B91098F739927089582E691E021
:100280000E94320121E0892B09F420E0822F089599
:10029000FC01848DDF01A80FB11DA35ABF4F2C9123
:1002A000848D90E001968F739927848FA689B789F2
:1002B0002C93A089B1898C9180648C93938D848DCB
:1002C000981306C00288F389E02D80818F7D80839A
:1002D0000895EF92FF920F931F93CF93DF93EC015A
:1002E00081E0888F9B8D8C8D981305C0E889F989F2
:1002F000808185FD24C0F62E0B8D10E00F5F1F4F0F
:100300000F731127E02E8C8DE8120CC00FB607FC7E
:10031000FACFE889F989808185FFF5CFCE010E9467
:100320004801F1CF8B8DFE01E80FF11DE35AFF4F1D
:10033000F0820B8FEA89FB898081806207C0EE8999
:10034000FF896083E889F98980818064808381E006
:1003500090E0DF91CF911F910F91FF90EF90089562
:10036000CF93DF93EC01888D8823C9F0EA89FB895C
:10037000808185FD05C0A889B9898C9186FD0FC053
:100380000FB607FCF5CF808185FFF2CFA889B98928
:100390008C9185FFEDCFCE010E944801E7CFDF9120
:1003A000CF910895833081F028F4813099F0823024
:1003B000A1F008958730A9F08830B9F08430D1F4E5
:1003C000809180008F7D03C0809180008F77809323
:1003D0008000089584B58F7702C084B58F7D84BD79
:1003E00008958091B0008F7703C08091B0008F7D19
:1003F0008093B0000895CF93DF93282F30E0F90168
:10040000ED5EFE4F8491F901E150FF4FD491F90167
:10041000E551FF4FC491CC2391F081110E94D2018C
:10042000EC2FF0E0EE0FFF1FEF51FF4FA591B491BD
:10043000EC91ED2381E090E021F480E002C080E0C7
:1004400090E0DF91CF9108951F93CF93DF93282FF2
:1004500030E0F901ED5EFE4F8491F901E150FF4F6C
:10046000D491F901E551FF4FC491CC23C9F0162F67
:1004700081110E94D201EC2FF0E0EE0FFF1FE95234
:10048000FF4FA591B4918FB7F894111105C09C91BD
:10049000ED2FE095E92302C0EC91ED2BEC938FBF9B
:1004A000DF91CF911F910895CF93DF9390E0FC01EE
:1004B000E150FF4F2491FC01E551FF4F84918823C7
:1004C00061F190E0880F991FFC01E353FF4FC59144
:1004D000D491FC01E952FF4FA591B491611109C07B
:1004E0009FB7F8948881209582238883EC912E23EE
:1004F0000BC0623061F49FB7F8943881822F8095E9
:1005000083238883EC912E2B2C939FBF06C08FB73B
:10051000F894E8812E2B28838FBFDF91CF91089527
:10052000CF93DF93FC012381211114C0EC01161637
:10053000170614F461E001C060E088810E94240283
:1005400061E089810E94240260E08981DF91CF917E
:100550000C942402DF91CF9108950E947A13FC013C
:1005600080819181009711F00C94B10D60E070E0F2
:10057000CB01089580EF93E2A4E7B9E480930C02E5
:1005800090930D02A0930E02B0930F02809310027D
:1005900090931102A0931202B093130210921402CE
:1005A0001092150210921602109217021092180261
:1005B0001092190210921A0210921B0210921C0241
:1005C00010921D0210921E0210921F0280932002B0
:1005D00090932102A0932202B093230280932402DD
:1005E00090932502A0932602B093270280932802BD
:1005F00090932902A0932A02B0932B0280932C029D
:1006000090932D02A0932E02B0932F02809330027C
:1006100090933102A0933202B09333021092CC0334
:100620001092CD031092CE031092CF031092D003FC
:100630001092D1031092D2031092D3031092D403DC
:100640001092D5031092D6031092D7031092E503AF
:10065000E4E3F2E023E0E43CF20729F08193919394
:10066000A193B193F7CF08951F920F920FB60F92F7
:1006700011242F933F938F939F93AF93BF938091B8
:100680005E0190915F01A0916001B0916101309194
:100690005D0123E0230F2D3720F40196A11DB11D2C
:1006A00005C026E8230F0296A11DB11D20935D0110
:1006B00080935E0190935F01A0936001B09361010C
:1006C0008091590190915A01A0915B01B0915C0118
:1006D0000196A11DB11D8093590190935A01A093D9
:1006E0005B01B0935C01BF91AF919F918F913F915E
:1006F0002F910F900FBE0F901F901895FC01248131
:100700003581232B31F421E061157105A1F0FB0146
:1007100008C0FC01808191816115710531F421E0EF
:10072000FC018081882339F005C00E94881321E0F4
:10073000892B09F020E0822F08950F931F93CF9308
:10074000DF93EC0188819981009729F02A813B8110
:100750002617370788F48B016F5F7F4F0E94B01216
:10076000009761F0998388831B830A832C813D81E4
:10077000232B11F4FC01108281E001C080E0DF91A5
:10078000CF911F910F910895EF92FF920F931F93B6
:10079000CF93DF9300D0CDB7DEB78C0169831A8287
:1007A000FC01E480F580FFEFEF1AFF0AB7010E9419
:1007B0009D03882381F0F801208131818481958116
:1007C000BE016F5F7F4F820F931F0E949113F8014C
:1007D000F582E48281E00F900F90DF91CF911F911D
:1007E0000F91FF90EF900895CF93C1E082E691E0E2
:1007F0000E943201892B89F082E691E00E9410016B
:100800008A3019F4C0935601F1CF81327CF3682FFE
:100810008FEF91E00E94C403E9CFCF9108950E9429
:100820003E0181110C94F4030895CF93DF93EC0102
:1008300088819981009711F00E94181219821882FC
:100840001D821C821B821A82DF91CF910895EF9244
:10085000FF920F931F93CF93DF93EC017B018A01EB
:10086000BA010E949D03811104C0CE010E941504AB
:1008700007C01D830C83B701888199810E94911361
:10088000CE01DF91CF911F910F91FF90EF900895CE
:10089000CF93DF93EC016115710559F0FB010190D5
:1008A0000020E9F73197AF01461B570B0E94270440
:1008B00002C00E941504CE01DF91CF910895CF931D
:1008C000DF93EC01FB018617970761F0608171816E
:1008D0006115710529F0448155810E94270402C0E9
:1008E0000E941504CE01DF91CF910895FC01808113
:1008F00091810C941812FC011182108213821282D1
:10090000158214820C945F040F931F93CF93DF938F
:1009100000D000D000D0CDB7DEB710915601112322
:1009200039F16FEF71E0CE0101960E947B04CE0198
:1009300001960E94F307082FCE0101960E947604CB
:1009400001110EC06FEF71E0CE0101960E947B0491
:10095000CE0101960E945408CE0101960E947604B1
:1009600069E471E08FEF91E00E9448041092560113
:10097000812F26960FB6F894DEBF0FBECDBFDF9154
:10098000CF911F910F910895FC0111821082138263
:100990001282158214826115710551F0FB010190DC
:1009A0000020E9F73197AF01461B570B0C94270441
:1009B0000895BF92CF92DF92EF92FF920F931F9311
:1009C000CF93DF93CDB7DEB72C970FB6F894DEBF89
:1009D0000FBECDBF6C0169E471E0CE0107960E94A5
:1009E000C40469E471E0C6010E947E03BB24B39491
:1009F0008111B12CE12CF12CF60184819581E8164E
:100A0000F90608F051C1B701C6010E94C000DC011F
:100A1000EC914E2FEE0F550B660B770BFA01E65457
:100A2000F109E531F10508F0EFC0EC5CFF4F0C94E3
:100A30007D11CE0107960E945D08882309F413C139
:100A4000CE0107960E94AF02F80160837183828312
:100A5000938369E471E0CE0107960E94480403C1C4
:100A6000CE0107960E945D08882309F4FFC0CE01DD
:100A700007960E94AF02D8016D937D938D939C934E
:100A8000139769E471E0CE0107960E944804EEC016
:100A9000CE0107960E945D08882309F4EAC0CE01C2
:100AA00007960E94AF02F80160837183828393836B
:100AB00069E471E0CE0107960E944804DAC0CE01D5
:100AC00007960E945D08882309F4D6C0CE010796D8
:100AD0000E94AF02D8016D937D938D939C931397E1
:100AE00069E471E0CE0107960E944804C5C0CE01BA
:100AF00007960E945D08882309F4C1C0CE010796BD
:100B00000E94AF02F801608371838283938369E45A
:100B100071E0CE0107960E944804B1C0CE0107964D
:100B20000E945D08882309F4ADC0CE0107960E949B
:100B3000AF02D8016D937D938D939C93139769E4D5
:100B400071E0CE0107960E9448049CC0CE01079632
:100B50000E945D08882309F498C0CE0107960E9480
:100B6000AF02F801608371838283938369E471E04B
:100B7000CE0107960E94480488C0CE0107960E94C5
:100B80005D08882309F484C0CE0107960E94AF0255
:100B9000D8016D937D938D939C93139769E471E0D5
:100BA000CE0107960E94480473C0CE0107960E94AA
:100BB0005D08882309F46FC0CE0107960E94AF023A
:100BC000F801608371838283938369E471E0CE01CD
:100BD00007960E9448045FC0CE0107960E945D08F8
:100BE000882309F45BC0CE0107960E94AF02D801AA
:100BF0006D937D938D939C93139769E471E0CE017F
:100C000007960E9448044AC0B701C6010E94C0006E
:100C1000FC01808180334CF4B701C6010E94C00002
:100C2000DC018C918E3259F460C0B701C6010E947C
:100C3000C000FC0180818A330CF457C0EDCFB701AE
:100C4000C6010E94C000DC018C918C3209F44DC0B9
:100C5000B701C6010E94C000FC0180818D3209F4F9
:100C600044C0B12C1DC00CE012E01AC004E112E037
:100C700017C008E112E014C00CE112E011C000E25C
:100C800012E00EC004E212E00BC000E112E008C066
:100C900008E212E005C00CE212E002C000E312E03C
:100CA000BFEFEB1AFB0AA8CECE0107960E945D08A3
:100CB000882351F0CE0107960E94AF02D8016D93B0
:100CC0007D938D939C931397B11024C064E271E0DF
:100CD000CE0101960E94C404CE0101960E945C07D9
:100CE000CE0101960E94760415C0B701C6010E948C
:100CF000C000FC0180818C3211F46EE206C0B701A5
:100D0000C6010E94C000DC016C91CE0107960E94D2
:100D1000C403C6CFCE0107960E9476048B2D2C9675
:100D20000FB6F894DEBF0FBECDBFDF91CF911F91FC
:100D30000F91FF90EF90DF90CF90BF9008951F929A
:100D40000F920FB60F9211242F933F934F935F93FF
:100D50006F937F938F939F93AF93BF93EF93FF9383
:100D600082E691E00E944801FF91EF91BF91AF911F
:100D70009F918F917F916F915F914F913F912F91B3
:100D80000F900FBE0F901F9018951F920F920FB6E5
:100D90000F9211242F938F939F93EF93FF93E091E2
:100DA0007201F09173018081E0917801F0917901F5
:100DB00082FD12C0908180917B018F5F8F732091A3
:100DC0007C01821751F0E0917B01F0E0EE59FE4F7B
:100DD000958F80937B0101C08081FF91EF919F915E
:100DE0008F912F910F900FBE0F901F9018951F920B
:100DF0000F920FB60F9211242F933F934F935F934F
:100E00006F937F938F939F93AF93BF93CF93DF9312
:100E1000EF93FF9383E00E94FB01EC0182E00E94CC
:100E2000FB01C80FD91F8EE00E94FB01C80FD91F1C
:100E30008FE00E94FB01C80FD91F82E10E94FB01D5
:100E4000C80FD91F83E10E94FB018C0F9D1F21E079
:100E5000181619060CF020E02093E703FF91EF919C
:100E6000DF91CF91BF91AF919F918F917F916F91C2
:100E70005F914F913F912F910F900FBE0F901F9058
:100E800018951F920F920FB60F9211248F939F9374
:100E90008BEF92EF90938500809384008091E6031E
:100EA000823019F481E0809357019F918F910F90C8
:100EB0000FBE0F901F901895EF92FF920F931F9304
:100EC000CF93DF93CDB7DEB72F970FB6F894DEBF81
:100ED0000FBECDBF8C018091E6031B861A861D864E
:100EE0001C861F861E864AE0BE016F5F7F4F90E022
:100EF0000E94B50DBE016F5F7F4FCE010A960E9422
:100F00004804BE01665F7F4FCE0101960E947B04BC
:100F1000F80124813581E080F1800D811E81E1148A
:100F2000F104E1F121153105A1F0020F131FB80101
:100F3000CE0101960E949D03882381F129813A8187
:100F40008D819E81B701820F931F0E9491131E8392
:100F50000D834D815E8169817A8182E691E00E94F4
:100F6000D20042E050E067E471E082E691E00E9446
:100F7000D200CE0101960E947604CE010A960E940C
:100F800076042F960FB6F894DEBF0FBECDBFDF916B
:100F9000CF911F910F91FF90EF900895CE01019690
:100FA0000E941504D6CFCF93DF9300D000D000D09D
:100FB000CDB7DEB7BC01CE0101960E947B04CE0105
:100FC00001960E945C07CE0101960E94760483E0A0
:100FD0008093E60326960FB6F894DEBF0FBECDBF12
:100FE000DF91CF9108950F931F93CF93DF93CDB7E8
:100FF000DEB727970FB6F894DEBF0FBECDBF8C01CA
:101000006AE471E00E947E03811110C06DE471E01A
:10101000C8010E947E0381110BC060E571E0C80128
:101020000E947E03811106C020E023C080E003C03F
:1010300081E001C082E0E091E60394E0E99FF001E5
:101040001124EA51FC4FE80FF11D82818093E603E1
:10105000833071F463E571E0CE0101960E94C4040F
:10106000CE0101960E94D307CE0101960E9476041C
:1010700021E0B801CE0101962F830E947B04CE01AE
:1010800001960E945C07CE0101960E9476042F8192
:10109000822F27960FB6F894DEBF0FBECDBFDF912B
:1010A000CF911F910F910895BC0185E092E00E94BD
:1010B0005F0481E080930B02089569E471E00E946F
:1010C0007E0391E0811190E0892F0895CF93DF9303
:1010D00000D000D000D0CDB7DEB7789484B5826060
:1010E00084BD84B5816084BD85B5826085BD85B5CC
:1010F000816085BD80916E00816080936E0010924A
:1011000081008091810082608093810080918100C4
:101110008160809381008091800081608093800055
:101120008091B10084608093B1008091B0008160B3
:101130008093B00080917A00846080937A008091DF
:101140007A00826080937A0080917A008160809337
:101150007A0080917A00806880937A001092C100B2
:10116000F89414BC15BC16BC89EF87BD84B58260A9
:1011700084BD85B5836085BD80916E00826080935B
:101180006E00109280001092810080E690EF9093A4
:10119000850080938400809181008260809381002B
:1011A00080916F00816080936F007894E09172016C
:1011B000F091730182E08083E0916E01F0916F0104
:1011C0001082E0917001F091710180E180831092B2
:1011D0007A01E0917601F091770106E00083E091D9
:1011E0007401F0917501808180618083E0917401C8
:1011F000F0917501808188608083E0917401F091A5
:101200007501808180688083E0917401F09175019F
:1012100080818F7D808361E08DE00E94540260E0D8
:1012200083E00E94540260E082E00E94540260E089
:101230008EE00E94540260E08FE00E94540260E061
:1012400082E10E94540260E083E10E94540260E067
:1012500086E10E9454028BE08093FC038CE0809333
:10126000FD0387E08093FE0361E08BE00E9454025F
:1012700061E08091FD030E94540261E08091FE03D1
:101280000E94540261E08091FE030E94240211E05A
:101290001093FF0389E08093F4038AE08093F503C1
:1012A0000093F60361E089E00E94540261E08091BE
:1012B000F5030E94540261E08091F6030E945402FB
:1012C00061E08091F6030E9424021093F70380E608
:1012D000282E80EF382E01E01091E603113049F0FE
:1012E00008F4C7C3123009F4CBC1133009F4C1C3E9
:1012F000C3C30E94840480910B02882309F4CCC3E9
:1013000010920B0265E072E0CE0101960E947B0410
:10131000CE0101960E94D904F82ECE0101960E94BA
:101320007604FF2009F4B8C360910C0270910D029D
:1013300080910E0290910F020E944211653071055A
:1013400064F4623071050CF0A7C36115710509F4EE
:10135000A3C36130710531F064C16C31710509F0CE
:1013600060C19AC3C090CC03D090CD03E090CE036F
:10137000F090CF038090140290901502A090160276
:10138000B0901702A5019401C701B6010E945D0F3C
:10139000811117C0209118023091190240911A0250
:1013A00050911B026091D0037091D1038091D203C0
:1013B0009091D3030E945D0F811103C01093E50348
:1013C0006BC31092E503A5019401C701B6010E9409
:1013D0005D0F811111C010923802109239021092E3
:1013E0003A0210923B02109234021092350210928F
:1013F00036021092370233C0A5019401C701B6012D
:101400000E945D0F87FF11C080E090E0A0E8BFE37D
:101410008093380290933902A0933A02B0933B0232
:10142000A7019601C501B40110C080E090E0A0E8DA
:10143000BFEB8093380290933902A0933A02B093A5
:101440003B02A5019401C701B6010E94D51060932B
:101450003402709335028093360290933702C09025
:10146000D003D090D103E090D203F090D3038090CA
:10147000180290901902A0901A02B0901B02A501C8
:101480009401C701B6010E945D0F811111C0109235
:1014900040021092410210924202109243021092B6
:1014A0003C0210923D0210923E0210923F0233C065
:1014B000A5019401C701B6010E945D0F87FF11C00D
:1014C00080E090E0A0E8BFE3809340029093410267
:1014D000A0934202B0934302A7019601C501B40153
:1014E00010C080E090E0A0E8BFEB809340029093B2
:1014F0004102A0934202B0934302A5019401C701A7
:10150000B6010E94D51060933C0270933D02809317
:101510003E0290933F028090340290903502A0905A
:101520003602B0903702C0903C02D0903D02E0906D
:101530003E02F0903F02A7019601C501B4010E944E
:1015400078111816CCF5A5019401C701B6010E94C7
:10155000D5109B01AC010E94D61060934402709399
:1015600045028093460290934702A7019601C70166
:10157000B6010E94D610609348027093490280938E
:101580004A0290934B02A50194010E94D5106093EA
:101590004C0270934D0280934E0290934F0280E074
:1015A00090E0A0E8BFE38093500290935102A09393
:1015B0005202B093530270C2A7019601C501B40153
:1015C0000E94D5109B01AC010E94D610609344028A
:1015D000709345028093460290934702A5019401BF
:1015E000C501B4010E94D61060934802709349026D
:1015F00080934A0290934B02A70196010E94D51056
:1016000060934C0270934D0280934E0290934F0270
:1016100010925002109251021092520210925302F4
:101620003BC2609110027091110280911202909160
:1016300013020E944211635071096330710508F46E
:101640002BC26091300270913102809132029091F0
:1016500033020E9442116430710508F41DC267E232
:1016600071E0CE0101960E94C404CE0101960E9451
:10167000D307CE0101960E9476040E94BA020CC2E2
:1016800080915701882309F407C260910C02709180
:101690000D0280910E0290910F020E94421165305E
:1016A000710564F4623071050CF0E0C161157105DB
:1016B00009F4DCC16130710531F09EC16C317105F6
:1016C00009F09AC1D3C130928500209284008091A4
:1016D000E603823079F00093FF0361E08091FE031E
:1016E0000E9424020093F70361E08091F6030E94B8
:1016F000240257C120E030E040E85FE360915002EF
:101700007091510280915202909153020E945D0F9C
:10171000811198C08090CC039090CD03A090CE030F
:10172000B090CF032091140230911502409116021F
:1017300050911702C501B4010E945D0F882309F47E
:1017400030C140904C0250904D0260904E0270901B
:101750004F0220E030E0A901C301B2010E947811DC
:10176000C0903802D0903902E0903A02F0903B02EB
:1017700087FD3FC0A7019601C501B4010E94D610A4
:101780006093CC037093CD038093CE039093CF03EB
:101790002091400230914102409142025091430217
:1017A0006091D0037091D1038091D2039091D303C3
:1017B0000E94D6106093D0037093D1038093D2031C
:1017C0009093D30320914402309145024091460208
:1017D00050914702C301B2010E94D61060934C029F
:1017E00070934D0280934E0290934F02C701B60151
:1017F00097C0209148023091490240914A0250918D
:101800004B02C301B2010E94D61060934C02709348
:101810004D0280934E0290934F02A7019601C5019D
:10182000B4010E94D6106093CC037093CD038093D3
:10183000CE039093CF03C701B6010E9442118CEFF3
:1018400093E0ADC0C090D003D090D103E090D2031C
:10185000F090D303209118023091190240911A029E
:1018600050911B02C701B6010E945D0F882309F445
:1018700098C080904C0290904D02A0904E02B09083
:101880004F0220E030E0A901C501B4010E947811A7
:1018900087FD55C0409038025090390260903A025E
:1018A00070903B02A30192016091CC037091CD0333
:1018B0008091CE039091CF030E94D6106093CC0309
:1018C0007093CD038093CE039093CF032091400279
:1018D000309141024091420250914302C701B6014A
:1018E0000E94D6106093D0037093D1038093D203EB
:1018F0009093D303209144023091450240914602D7
:1019000050914702C501B4010E94D61060934C0269
:1019100070934D0280934E0290934F02C301B20127
:101920000E9442118CEF93E00E949002609140026D
:101930007091410280914202909143022CC020910B
:1019400048023091490240914A0250914B02C50130
:10195000B4010E94D61060934C0270934D028093A4
:101960004E0290934F028090400290904102A090CE
:101970004202B0904302A5019401C701B6010E9442
:10198000D6106093D0037093D1038093D2039093C9
:10199000D303C501B4010E94421184EF93E00E9479
:1019A00090022091CC033091CD034091CE03509111
:1019B000CF036091140270911502809116029091EC
:1019C00017020E945D0F811151C02091D003309108
:1019D000D1034091D2035091D303609118027091CA
:1019E000190280911A0290911B020E945D0F8111D1
:1019F0003DC00093E5033AC060911002709111025E
:101A000080911202909113020E9442116350710959
:101A10006330710558F1609130027091310280910C
:101A20003202909133020E94421164307105F0F04D
:101A30006AE271E0CE0101960E94C404CE010196D3
:101A40000E945C07CE0101960E94760461E471E079
:101A5000CE0101960E94C404CE0101960E945C074B
:101A6000CE0101960E9476040E94BA02109257019C
:101A700013C00E94840410C064E471E0CE0101969A
:101A80000E94C404CE0101960E94D307CE010196A4
:101A90000E9476041092E6030E940F041DCC8FEF83
:101AA00091E00E94760485E092E00C947604E2E6F0
:101AB000F1E01382128288EE93E0A0E0B0E084832C
:101AC0009583A683B78386E191E09183808385EC3B
:101AD00090E09587848784EC90E09787868780ECF8
:101AE00090E0918B808B81EC90E0938B828B82ECE9
:101AF00090E0958B848B86EC90E0978B868B118E93
:101B0000128E138E148EECEFF3E01482158216827F
:101B100017821382E4EFF3E0148215821682178293
:101B20001382E4E0F4E01482158216821782138295
:101B30008CE0E6E0F1E0A8EEB3E001900D928A952A
:101B4000E1F71092E6030E94BA0269E471E085E0D1
:101B500092E00E94C40469E471E08FEF91E00C947C
:101B6000C404662777270C94CF0DBB27FB015527AC
:101B7000AA27880F991FAA1FA41710F0A41B8395EA
:101B80005051B9F7A05DAA3308F0A95DA193009761
:101B900079F7B111B1931192CB010C944D0FA0E0E4
:101BA000B0E0E5EDFDE00C949310EC017B016115D4
:101BB000710519F0DB018D939C938E010F5F1F4F10
:101BC0007880872D90E00E942C0F892B11F0E8017E
:101BD000F4CFBDE27B1205C00F5F1F4F7980C1E0DB
:101BE00008C0EBE27E1204C08E010E5F1F4F7980A9
:101BF000C0E06801F1E0CF1AD10843E050E06AE9A3
:101C000070E0C6010E94350F892BF1F4680122E0D3
:101C1000C20ED11C45E050E065E970E0C6010E94AB
:101C2000350F892B21F4680187E0C80ED11CE1141F
:101C3000F10419F0D701CD92DC92C111FFC060E030
:101C400070E080E89FE703C143E050E062E970E0A4
:101C5000C6010E94350F892B51F4E114F10409F4F7
:101C6000F2C00E5F1F4FF70111830083ECC06801C3
:101C700060E070E0CB0100E010E0F601D0EDD70DA0
:101C8000DA3058F52C2F2260622E2C2F2870C2FFDC
:101C900005C0211128C00F5F1F4F25C0222311F05E
:101CA00001501109A5E0B0E09B01AC010E94841035
:101CB0004B015C01880C991CAA1CBB1CC501B4011A
:101CC0006D0F711D811D911D6839A9E97A078A0779
:101CD000A9E19A0740F0C66005C0DE3F51F4C3FD9C
:101CE00044C0C8606C2EBFEFCB1ADB0A7080C62DD3
:101CF000C4CF2D2F2F7D2531C1F540814D3211F4F8
:101D0000C06106C04B3221F0319621E030E006C0C0
:101D10003296D60111964C9122E030E0A0EDA40F4E
:101D2000AA3018F0E21BF30B20C040E050E040382E
:101D3000BCE05B075CF49A01220F331F220F331FB4
:101D4000420F531F440F551F4A0F511D3196DF019B
:101D500011972C91A0EDA20FAA3048F3C4FF03C045
:101D6000519541955109040F151FC1FF07C0E1149A
:101D7000F10421F03197D701ED93FC930E94620F9B
:101D8000C370C33019F06B017C0106C06B017C018C
:101D9000F7FAF094F7F8F09420E030E0A901C701D9
:101DA000B6010E945D0F882309F445C017FF06C0E5
:101DB000119501951109C1EBD0E002C0C9ECD0E04A
:101DC0005E01B8E1AB1AB1084601BE2DAF2D90E21D
:101DD000E92EF12C0E151F0584F0FE012591359199
:101DE00045915491B4018B2F9A2F0E94C30F4B0140
:101DF000B82FA92F0E191F09EDCF2497F594E7945A
:101E0000CA15DB0539F76401EB2EFA2E8E2D880FEB
:101E10008F2D881F8F3F49F020E030E0A901C701D6
:101E2000B6010E945D0F811106C082E290E090939E
:101E30000D0480930C04C701B60109C060E070E096
:101E400080E89FEF04C060E070E080EC9FE7CDB7D2
:101E5000DEB7EEE00C94AF1091110C94301080328C
:101E600019F089508550C8F70895FB01DC014150F5
:101E7000504088F08D9181341CF08B350CF4805EDD
:101E8000659161341CF06B350CF4605E861B61114A
:101E900071F3990B0895881BFCCFDC01FC01672FBF
:101EA00071917723E1F7329704C07C916D93708331
:101EB0006291AE17BF07C8F308950E949F0F08F400
:101EC00081E00895E89409C097FB3EF490958095D1
:101ED000709561957F4F8F4F9F4F9923A9F0F92FF0
:101EE00096E9BB279395F695879577956795B7956E
:101EF000F111F8CFFAF4BB0F11F460FF1BC06F5F54
:101F00007F4F8F4F9F4F16C0882311F096E911C065
:101F1000772321F09EE8872F762F05C0662371F086
:101F200096E8862F70E060E02AF09A95660F771F9A
:101F3000881FDAF7880F9695879597F90895990F76
:101F40000008550FAA0BE0E8FEEF16161706E80783
:101F5000F907C0F012161306E407F50798F0621BA4
:101F6000730B840B950B39F40A2661F0232B242B79
:101F7000252B21F408950A2609F4A140A6958FEF98
:101F8000811D811D08950E94D60F0C944A100E9455
:101F90003C1038F00E94431020F0952311F00C946F
:101FA00033100C94391011240C947E100E945B1095
:101FB00070F3959FC1F3950F50E0551F629FF0019C
:101FC000729FBB27F00DB11D639FAA27F00DB11DB5
:101FD000AA1F649F6627B00DA11D661F829F22273E
:101FE000B00DA11D621F739FB00DA11D621F839FC5
:101FF000A00D611D221F749F3327A00D611D231F9B
:10200000849F600D211D822F762F6A2F11249F57E8
:1020100050409AF0F1F088234AF0EE0FFF1FBB1FEB
:10202000661F771F881F91505040A9F79E3F5105AA
:1020300080F00C9433100C947E105F3FE4F3983ED4
:10204000D4F3869577956795B795F795E7959F5F54
:10205000C1F7FE2B880F911D9695879597F90895E6
:1020600099278827089597F99F6780E870E060E0D6
:1020700008959FEF80EC089500240A941616170621
:1020800018060906089500240A9412161306140669
:1020900005060895092E0394000C11F4882352F0CC
:1020A000BB0F40F4BF2B11F460FF04C06F5F7F4F84
:1020B0008F4F9F4F089557FD9058440F551F59F06B
:1020C0005F3F71F04795880F97FB991F61F09F3F25
:1020D00079F087950895121613061406551FF2CF4E
:1020E0004695F1DF08C0161617061806991FF1CF9E
:1020F00086957105610508940895E894BB276627C5
:102100007727CB0197F908950E94C610A59F900DDF
:10211000B49F900DA49F800D911D112408952F92BE
:102120003F924F925F926F927F928F929F92AF9267
:10213000BF92CF92DF92EF92FF920F931F93CF93B4
:10214000DF93CDB7DEB7CA1BDB0B0FB6F894DEBF4B
:102150000FBECDBF09942A88398848885F846E8471
:102160007D848C849B84AA84B984C884DF80EE80BB
:10217000FD800C811B81AA81B981CE0FD11D0FB6C4
:10218000F894DEBF0FBECDBFED010895A29FB00150
:10219000B39FC001A39F700D811D1124911DB29F9B
:1021A000700D811D1124911D08955058BB27AA2739
:1021B0000E94ED100C944A100E943C1038F00E94CE
:1021C000431020F039F49F3F19F426F40C94391091
:1021D0000EF4E095E7FB0C943310E92F0E945B109E
:1021E00058F3BA17620773078407950720F079F44C
:1021F000A6F50C947D100EF4E0950B2EBA2FA02DB1
:102200000B01B90190010C01CA01A0011124FF27A3
:10221000591B99F0593F50F4503E68F11A16F0409E
:10222000A22F232F342F4427585FF3CF469537959D
:102230002795A795F0405395C9F77EF41F16BA0B62
:10224000620B730B840BBAF09150A1F0FF0FBB1F10
:10225000661F771F881FC2F70EC0BA0F621F731F59
:10226000841F48F4879577956795B795F7959E3FB6
:1022700008F0B0CF9395880F08F09927EE0F979547
:10228000879508950E9449116894B1110C947E10AD
:1022900008950E94631088F09F5798F0B92F9927EE
:1022A000B751B0F0E1F0660F771F881F991F1AF041
:1022B000BA95C9F714C0B13091F00E947D10B1E019
:1022C00008950C947D10672F782F8827B85F39F018
:1022D000B93FCCF3869577956795B395D9F73EF4DA
:1022E00090958095709561957F4F8F4F9F4F089582
:1022F0000E949F0F08F48FEF0895EE0FFF1F0590C7
:10230000F491E02D0994CF93DF938230910510F47E
:1023100082E090E0E0911004F091110420E030E0C0
:10232000C0E0D0E0309711F1408151814817590742
:10233000C0F04817590761F482819381209719F002
:102340009B838A832BC0909311048093100426C032
:102350002115310519F04217530718F49A01BE01EF
:10236000DF01EF010280F381E02DDCCF2115310583
:1023700009F1281B390B2430310590F412968D9108
:102380009C9113976115710521F0FB019383828362
:1023900004C09093110480931004FD01329644C050
:1023A000FD01E20FF31F81939193225031092D9388
:1023B0003C933AC020910E0430910F04232B41F43A
:1023C000209102013091030130930F0420930E04F9
:1023D00020910001309101012115310541F42DB703
:1023E0003EB74091040150910501241B350BE0914B
:1023F0000E04F0910F04E217F307A0F42E1B3F0B1D
:102400002817390778F0AC014E5F5F4F2417350766
:1024100048F04E0F5F1F50930F0440930E048193BA
:10242000919302C0E0E0F0E0CF01DF91CF910895F9
:102430000F931F93CF93DF93009709F48CC0FC0197
:102440003297138212820091100410911104011529
:10245000110581F420813181820F931F20910E0498
:1024600030910F042817390779F5F0930F04E093A2
:102470000E0471C0D80140E050E0AE17BF0750F421
:1024800012962D913C911397AD012115310509F15B
:10249000D901F3CF9D01DA013383228360817181F9
:1024A000860F971F8217930769F4EC012881398101
:1024B000260F371F2E5F3F4F318320838A819B81F8
:1024C00093838283452B29F4F0931104E093100445
:1024D00042C01396FC93EE931297ED0149915991E6
:1024E0009E01240F351FE217F30771F4808191815B
:1024F000840F951F029611969C938E9382819381EF
:1025000013969C938E931297E0E0F0E0D801129618
:102510008D919C911397009719F0F8018C01F6CFDB
:102520008D919C9198012E5F3F4F820F931F2091B8
:102530000E0430910F042817390769F4309729F4F5
:10254000109211041092100402C013821282109390
:102550000F0400930E04DF91CF911F910F91089506
:10256000A0E0B0E0E6EBF2E10C949310EC010097F0
:1025700021F4CB010E948311B8C0FC01E60FF71FC4
:102580009C0122503109E217F30708F4ACC0D901CD
:102590000D911C91119706171707B0F00530110522
:1025A00008F49FC0C80104978617970708F499C0DC
:1025B00002501109061B170B019311936D937C9325
:1025C000CF010E9418128DC05B01A01AB10A4C0104
:1025D000800E911EA0911004B091110440E050E0D3
:1025E000E12CF12C109709F44AC0A815B905D1F5D2
:1025F0006D907C901197630182E0C80ED11CCA14C3
:10260000DB0480F1A3014A195B096A0182E0C80E6C
:10261000D11C1296BC9012971396AC91B5E0CB16D4
:10262000D10440F0B282A38351834083D9016D93DA
:102630007C930AC00E5F1F4FC301800F911FF901E9
:1026400091838083EB2DFA2FE114F10431F0D7014F
:102650001396FC93EE93129744C0F0931104E09309
:1026600010043FC08D919C9111974817590708F4A9
:10267000AC017D0112960D90BC91A02DB3CF80913D
:102680000E0490910F0488159905E1F44617570739
:10269000C8F48091000190910101009741F48DB739
:1026A0009EB74091040150910501841B950BE817DA
:1026B000F907C8F4F0930F04E0930E04F901718355
:1026C00060830FC0CB010E9483117C01009759F0F9
:1026D000A801BE010E947F13CE010E941812C701FB
:1026E00004C0CE0102C080E090E0CDB7DEB7EEE0DE
:1026F0000C94AF1081E090E0F8940C949813FB01D7
:10270000DC0102C001900D9241505040D8F708956D
:10271000FB01DC018D91019080190110D9F3990B17
:102720000895FB01DC0101900D920020E1F708956E
:1027300010E0C5E9D0E004C0FE010E947D112196A1
:0A274000C639D107C9F7F894FFCF9E
:10274A0000001204800001030303000303030000D6
:10275A000000000000006901D2000101B00132014D
:10276A00100124015731004533004552524F522E71
:10277A0020554E4B4E4F574E20434F4D4D414E44E0
:10278A00004530004532000D0A0055340055360028
:06279A0055370045310037
:00000001FF
