:1000000061C1000090C100008EC100008CC10000E1
:100010008AC1000088C1000086C1000084C10000C0
:1000200082C1000080C100007EC100007CC10000D0
:100030007AC1000078C1000076C1000074C10000E0
:1000400072C1000022C500006EC100006CC100003A
:10005000C7C60000BAC5000066C100005DC7000049
:1000600062C1000025C30000FAC200005CC10000AC
:100070005AC1000058C1000056C1000054C1000020
:10008000D7C4000050C100004EC100004CC10000A8
:100090004AC1000048C1000046C1000044C1000040
:1000A00042C1000040C1000096C400003CC10000F5
:1000B0003AC1000038C1000036C100005FC4000032
:1000C00032C1000030C100002EC100002CC1000070
:1000D0002AC1000028C1000026C1000024C1000080
:1000E00022C100001B163116611679168F16BF1635
:1000F000E51781028402730277027D02BB02880247
:100100008C02920296029A02A002A402A802BB02EA
:10011000AE02B202B602210B7D0A5E0BCF0AE30AE1
:100120005E0B5E0BF80A5E0B5E0B4A0B5E0B5E0B02
:100130000C0B5E0B350B5E0B5E0B910AA60ABA0A1E
:10014000370D3C0D410D4B0D550DCE0D5F0D670D5F
:100150006F0D790D830D8D0D9C0DA60DCE0DB00D7F
:10016000BA0DC40D4E414E494E495459494E46CDE3
:10017000CCCC3D0AD7233C17B7D13877CC2B32955E
:1001800095E6241FB14F0A000020410000C842003C
:10019000401C4620BCBE4CCA1B0E5AAEC59D740006
:1001A000002100240027002A002D00300033000128
:1001B000010000040107010A0100002200250028B7
:1001C000002B002E00310034000201000005010860
:1001D000010B01000020002300260029002C002F25
:1001E00000320000010000030106010901050505B8
:1001F00005070508080808020202020A0A0808049E
:1002000004040401010101010101010303030303CB
:10021000030303040707070C0C0C0C0C0C0C0C025A
:1002200002020206060606060606060B0B0B0B0B61
:100230000B0B0B010210202008081020401020405A
:10024000800201020108040201010204081020409A
:1002500080804020100804020180040201804020B8
:1002600010080402010804020101020408102040E1
:1002700080010204081020408000000A0B02090CD3
:100280000D0E08070304010000000000000000003C
:10029000000000000000000000000000000000005E
:1002A000000000000012111000000000000000001B
:1002B000000000000000000000000000000000003E
:1002C000D018C81811241FBECFEFD1E2DEBFCDBFBA
:1002D00000E00CBF12E0A0E0B2E0E0E3FFE300E0EA
:1002E0000BBF02C007900D92A036B107D9F724E0EA
:1002F000A0E6B2E001C01D92A73AB207E1F711E013
:10030000C1E6D1E000E006C021970109802FFE017F
:100310000E94511DC036D10780E00807A9F70E944E
:10032000D60D0C94871F6CCE089580E090E0089560
:10033000FC01538D448D252F30E0842F90E0821BEB
:10034000930B541710F0CF96089501970895FC0170
:10035000918D828D981761F0828DDF01A80FB11DFC
:100360005D968C91928D9F5F9F73928F90E0089520
:100370008FEF9FEF0895FC01918D828D981731F0DA
:10038000828DE80FF11D858D90E008958FEF9FEF2E
:100390000895FC01918D228D892F90E0805C9F4F04
:1003A000821B91098F739927089580E792E0F1DF0E
:1003B00021E0892B09F420E0822F0895FC01848D2F
:1003C000DF01A80FB11DA35ABF4F2C91848D90E07F
:1003D00001968F739927848FA689B7892C93A0895A
:1003E000B1898C9180648C93938D848D981306C011
:1003F0000288F389E02D80818F7D80830895EF92BC
:10040000FF920F931F93CF93DF93EC0181E0888FCE
:100410009B8D8C8D981305C0E889F989808185FDB5
:1004200023C0F62E0B8D10E00F5F1F4F0F731127A7
:10043000E02E8C8DE8120BC00FB607FCFACFE889CE
:10044000F989808185FFF5CFCE01B8DFF2CF8B8DA2
:10045000FE01E80FF11DE35AFF4FF0820B8FEA898E
:10046000FB898081806207C0EE89FF896083E8890B
:10047000F98980818064808381E090E0DF91CF9171
:100480001F910F91FF90EF900895CF93DF93EC01B0
:10049000888D8823C1F0EA89FB89808185FD05C0AC
:1004A000A889B9898C9186FD0EC00FB607FCF5CFDF
:1004B000808185FFF2CFA889B9898C9185FFEDCF26
:1004C000CE017CDFE8CFDF91CF91089590E0FC0171
:1004D0003197E231F10508F04EC08827E758FF4F09
:1004E0008F4F0C94511D809180008F7703C08091B5
:1004F00080008F7D80938000089580918000877FA9
:10050000F9CF84B58F7702C084B58F7D84BD0895FF
:100510008091B0008F7703C08091B0008F7D809371
:10052000B0000895809190008F7707C0809190006F
:100530008F7D03C080919000877F80939000089505
:100540008091A0008F7707C08091A0008F7D03C0AD
:100550008091A000877F8093A00008958091200162
:100560008F7707C0809120018F7D03C0809120018B
:10057000877F809320010895CF93DF93282F30E069
:10058000F901E758FD4F8491F901ED5CFD4FD491DD
:10059000F901E351FE4FC491CC2389F0811196DF1C
:1005A000EC2FF0E0EE0FFF1FED52FE4FA591B4913E
:1005B000EC91ED2381E090E021F480E002C080E046
:1005C00090E0DF91CF910895CF93C1E080E792E072
:1005D000E0DE892B79F080E792E0B9DE8A3019F409
:1005E000C0936002F3CF81328CF3682F8EE993E0E1
:1005F00031D5ECCFCF910895D8DE811125C080E0B0
:1006000090E0892B41F080E090E0892B21F00E945E
:10061000000081111BC080E090E0892B41F080E058
:1006200090E0892B21F00E940000811112C080E02F
:1006300090E0892B99F080E090E0892B79F00E947E
:100640000000811109C00895BFDFD9CF0E940000CA
:10065000E2CF0E940000EBCF0C94000008951F929F
:100660000F920FB60F9211240BB60F922F933F9358
:100670004F935F936F937F938F939F93AF93BF93AA
:10068000EF93FF9380E792E099DEFF91EF91BF91A6
:10069000AF919F918F917F916F915F914F913F911A
:1006A0002F910F900BBE0F900FBE0F901F901895BB
:1006B0001F920F920FB60F9211240BB60F922F9329
:1006C0008F939F93EF93FF93E0918002F0918102CB
:1006D0008081E0918602F091870282FD12C09081B4
:1006E000809189028F5F8F7320918A02821751F067
:1006F000E0918902F0E0E059FD4F958F80938902E7
:1007000001C08081FF91EF919F918F912F910F9068
:100710000BBE0F900FBE0F901F9018951F93CF9395
:10072000DF93282F30E0F901E758FD4F8491F9015C
:10073000ED5CFD4FD491F901E351FE4FC491CC2300
:10074000C1F0162F8111C2DEEC2FF0E0EE0FFF1F7B
:10075000E754FE4FA591B4918FB7F894111105C0DD
:100760009C91ED2FE095E92302C0EC91ED2BEC93E9
:100770008FBFDF91CF911F910895CF92DF92EF92BB
:10078000FF920F931F93CF93DF936C018B017A013C
:10079000EC01CE59DD4F888187FF04C0FB01118237
:1007A000108224C08CE08C9D90018D9D300D112411
:1007B0008881A901480F511D87FD5A9580919D039D
:1007C00090E04817590794F48881A901480F511DFA
:1007D00087FD5A95CA01FA01EE0FFF1F8E0F9F1F6A
:1007E000FC01E35FFC4F808186FD19C088818F5F2B
:1007F00088838CE08C9D90018D9D300D1124888123
:10080000A901480F511D87FD5A9580919D0390E0E5
:1008100048175907B4F488818C303CF112C08881A4
:10082000280F311D87FD3A95F901EE0FFF1F2E0F9E
:100830003F1FF901E35FFC4F808160E08F736EDF43
:10084000D5CFF80180819181049680349C4918F4B9
:1008500080E49CE904C0F801808191810496F7014D
:10086000918380838FEF888344C0F8014081518158
:100870008881B901680F711D87FD7A95CB01FB0155
:10088000EE0FFF1F8E0F9F1FFC01E35FFC4F818166
:100890009281840F951FF701918380838881A9013C
:1008A000480F511D87FD5A95CA01FA01EE0FFF1F2F
:1008B0008E0F9F1FFC01E35FFC4F808186FF19C0F4
:1008C0008881280F311D87FD3A95F901EE0FFF1F32
:1008D0002E0F3F1FF901E35FFC4F808161E08F73B2
:1008E000DF91CF911F910F91FF90EF90DF90CF900C
:1008F00015CFDF91CF911F910F91FF90EF90DF9077
:10090000CF900895CF93DF9390E0FC01ED5CFD4F15
:100910002491FC01E351FE4F8491882361F190E022
:10092000880F991FFC01E156FE4FC591D491FC013F
:10093000E754FE4FA591B491611109C09FB7F89497
:100940008881209582238883EC912E230BC062300E
:1009500061F49FB7F8943881822F80958323888330
:10096000EC912E2B2C939FBF06C08FB7F894E88193
:100970002E2B28838FBFDF91CF9108951F920F9266
:100980000FB60F9211240BB60F922F933F934F93F4
:100990005F936F937F938F939F93AF93BF93EF93E7
:1009A000FF9348E251E064E271E080E090E0E5DE30
:1009B000FF91EF91BF91AF919F918F917F916F9137
:1009C0005F914F913F912F910F900BBE0F900FBEF3
:1009D0000F901F9018951F920F920FB60F9211242F
:1009E0000BB60F922F933F934F935F936F937F9329
:1009F0008F939F93AF93BF93EF93FF9348EA50E099
:100A000064EA70E083E090E0B8DEFF91EF91BF917F
:100A1000AF919F918F917F916F915F914F913F9196
:100A20002F910F900BBE0F900FBE0F901F90189537
:100A30001F920F920FB60F9211240BB60F922F93A5
:100A40003F934F935F936F937F938F939F93AF9356
:100A5000BF93EF93FF9348E950E064E970E082E0D0
:100A600090E08BDEFF91EF91BF91AF919F918F91BD
:100A70007F916F915F914F913F912F910F900BBE9E
:100A80000F900FBE0F901F9018951F920F920FB6E8
:100A90000F9211240BB60F922F933F934F935F93B6
:100AA0006F937F938F939F93AF93BF93EF93FF9336
:100AB00048E850E064E870E081E090E05EDEFF919D
:100AC000EF91BF91AF919F918F917F916F915F91C6
:100AD0004F913F912F910F900BBE0F900FBE0F9033
:100AE0001F901895CF93DF93FC012381211111C032
:100AF000EC011616170614F461E001C060E088816D
:100B00000DDE61E089810ADE60E08981DF91CF91AD
:100B100005CEDF91CF910895FC0163838281FECDE4
:100B2000CF93DF93EC01862F688349832A8361E0AA
:100B3000E9DE61E08981E6DE61E08A81E3DE61E091
:100B40008A81ECDD81E08B83DF91CF910895FC01F8
:100B500088E29BE6AEE6BEE480839183A283B38302
:100B600084839583A683B78380879187A287B38781
:100B700084879587A687B787808B918BA28BB38B51
:100B8000848B958BA68BB78B808F918FA28FB38F21
:100B9000848F958FA68FB78F80A391A3A2A3B3A3B1
:100BA00084A395A3A6A3B7A3DF019C96E458FF4FA7
:100BB00048E25BE66EE67EE4AE17BF0729F04D9390
:100BC0005D936D937D93F8CF08951F920F920FB6AA
:100BD0000F9211240BB60F922F933F934F935F9375
:100BE0006F937F938F939F93AF93BF93EF93FF93F5
:100BF000CF93DF93CDB7DEB76397DEBFCDBF83E082
:100C0000BBDC21E0892B09F420E0298382E0B4DCFD
:100C100021E0892B09F420E02A838EE0ADDC21E07D
:100C2000892B09F420E02B838FE0A6DC21E0892BBF
:100C300009F420E02C8382E19FDC21E0892B09F478
:100C400020E02D8383E198DC21E0892B09F420E06A
:100C50002E8387E191DC21E0892B09F420E02F83AA
:100C600089E18ADC21E0892B09F420E0288785E2EC
:100C700083DC21E0892B09F420E0298783E27CDCF6
:100C800021E0892B09F420E02A8781E275DC21E04C
:100C9000892B09F420E02B878FE16EDC21E0892B82
:100CA00009F420E02C878DE267DC21E0892B09F430
:100CB00020E02D878BE260DC21E0892B09F420E025
:100CC0002E8789E259DC21E0892B09F420E02F8767
:100CD00087E252DC21E0892B09F420E0288B8BE1AC
:100CE0004BDC21E0892B09F420E0298B8DE144DCE9
:100CF00021E0892B09F420E02A8B80E23DDC21E011
:100D0000892B09F020E02B8BFE013196A5E6B4E09B
:100D1000CE01449621912D93E817F907D9F78091D8
:100D20005404882379F1209165048091660490E051
:100D3000820F911D892B21F061E081E994E0ECDEC6
:100D4000209167048091680490E0820F911D892BA7
:100D500021F061E089E894E0DFDE20916904809170
:100D60006A0490E0820F911D20917604820F911DFC
:100D700020917704820F911D892B21F061E081E899
:100D800094E0CADE80914F0490915004A0915104E8
:100D9000B09152040196A11DB11D80934F04909310
:100DA0005004A0935104B093520463960FB6F89484
:100DB000DEBF0FBECDBFDF91CF91FF91EF91BF910D
:100DC000AF919F918F917F916F915F914F913F91E3
:100DD0002F910F900BBE0F900FBE0F901F90189584
:100DE0001F920F920FB60F9211248F93809153048C
:100DF000823019F481E0809361028F910F900FBED1
:100E00000F901F901895FC0124813581621773079C
:100E100020F480819181009729F41092660286E681
:100E200092E00895860F971F0895CF92DF92EF9278
:100E3000FF920F931F93CF93DF936C017A018B0185
:100E4000C0E0D0E0CE15DF0589F0D8016D918D01AD
:100E5000D601ED91FC910190F081E02DC60119952C
:100E6000892B11F47E0102C02196ECCFC701DF91DE
:100E7000CF911F910F91FF90EF90DF90CF90089549
:100E80000E946A1FFC0180819181009711F00C94EF
:100E9000A61960E070E0CB0108950F931F93CF93E4
:100EA000DF93EC0188819981009729F02A813B81A9
:100EB0002617370788F48B016F5F7F4F0E94861ECD
:100EC000009761F0998388831B830A832C813D817D
:100ED000232B11F4FC01108281E001C080E0DF913E
:100EE000CF911F910F910895CF93C82F682F81E95B
:100EF00094E012DE6C2F89E894E00EDE6C2F81E81E
:100F000094E0CF9109CE8EEA93E021DE81E08093D8
:100F1000530417D581E0E8CF1F920F920FB60F92BE
:100F200011242F933F938F939F93AF93BF938091FF
:100F30006C0290916D02A0916E02B0916F0230919F
:100F40006B0223E0230F2D3720F40196A11DB11D64
:100F500005C026E8230F0296A11DB11D20936B0248
:100F600080936C0290936D02A0936E02B0936F0217
:100F70008091670290916802A0916902B0916A0223
:100F80000196A11DB11D8093670290936802A09302
:100F90006902B0936A02BF91AF919F918F913F9187
:100FA0002F910F900FBE0F901F901895FC01248178
:100FB0003581232B31F421E061157105A1F0FB018E
:100FC00008C0FC01808191816115710531F421E037
:100FD000FC018081882339F005C00E94771F21E041
:100FE000892B09F020E0822F08956CE272E0DEDFA9
:100FF00091E0811190E0892F0895EF92FF920F9375
:101000001F93CF93DF93FC01248135816115710516
:1010100011F480E018C041155105A1F07B01EC01ED
:101020008A01020F131FB80138DF882391F328814A
:1010300039818C819D81B701820F931F0E94801F8F
:101040001D830C8381E0DF91CF911F910F91FF9061
:10105000EF900895CF93DF931F921F92CDB7DEB725
:1010600069831A8241E050E0BE016F5F7F4FC5DFA8
:101070000F900F90DF91CF910895CF93DF93EC0104
:1010800088819981009711F00E94EE1D19821882C3
:101090001D821C821B821A82DF91CF910895EF92EC
:1010A000FF920F931F93CF93DF93EC017B018A0193
:1010B000BA01F3DE811103C0CE01DFDF07C01D835B
:1010C0000C83B701888199810E94801FCE01DF9136
:1010D000CF911F910F91FF90EF900895CF93DF93E1
:1010E000EC016115710551F0FB0101900020E9F759
:1010F0003197AF01461B570BD2DF01C0BEDFCE01D7
:10110000DF91CF910895CF93DF93EC01FB01861718
:10111000970751F0608171816115710521F044815B
:101120005581BDDF01C0A9DFCE01DF91CF910895C8
:10113000FC01808191810C94EE1D0F931F93CF933E
:10114000DF93CDB7DEB761970FB6F894DEBF0FBE61
:10115000CDBF8C01CB01F801118210821382128263
:101160001582148250E0BE016F5F7F4F0E94BD194F
:10117000BE016F5F7F4FC801B1DF61960FB6F89473
:10118000DEBF0FBECDBFDF91CF911F910F910895AC
:101190000F931F93CF93DF9300D000D0CDB7DEB76E
:1011A0008C01093E83E0180738F0003D87E01807FE
:1011B00028F000ED17E002C008EE13E04AE0B801A5
:1011C000CE010196BADFCE01019667D3CE0101961A
:1011D000AFDF9091A403903398F58091A50328E8A0
:1011E00030E0281B310987FD3395220F331F220F72
:1011F000331F021713078CF08091A60348E552E0D5
:10120000481B510987FD5395440F551F440F551F27
:101210009801401751070CF49A0122503109220F0E
:10122000331F4FB7F894892F90E0FC01EE0FFF1F9A
:101230008E0F9F1FFC01E35FFC4F328321834FBF62
:1012400026960FB6F894DEBF0FBECDBFDF91CF91CB
:101250001F910F9108954F925F926F927F928F929C
:101260009F92AF92BF92CF92DF92EF92FF92CF9375
:10127000DF93C0914B04D0914C04BE0180E090E01C
:101280000E947A1B4B015C014090DA035090DB0313
:101290006090DC037090DD03A30192010E94AB1CFF
:1012A0006B017C0120E030E0A9010E94411D18166D
:1012B0005CF420E030E048EC52E4C701B6010E9443
:1012C000411D18165CF01FC020E030E048EC52ECE5
:1012D000C701B6010E94761B87FF15C020E030E0F1
:1012E00048EC52E4C301B2010E94AC1C6093DA03E3
:1012F0007093DB038093DC039093DD030E94151D44
:10130000CB0146DF0BC08092DA039092DB03A09200
:10131000DC03B092DD03CE013BDFF5DD10924F041C
:10132000109250041092510410925204DF91CF9108
:10133000FF90EF90DF90CF90BF90AF909F908F90F5
:101340007F906F905F904F900895CF93DF9300D080
:1013500000D0CDB7DEB710924F0410925004109217
:1013600051041092520460914B0470914C044AE075
:10137000CE010196E2DECE0101968FD2CE0101961A
:10138000D7DE80E090E0AAE7B4E48093DA0390939C
:10139000DB03A093DC03B093DD0381E080932A0498
:1013A00026960FB6F894DEBF0FBECDBFDF91CF916A
:1013B00008950F931F93CF93DF93CDB7DEB7629756
:1013C0000FB6F894DEBF0FBECDBF8C01CB01F80184
:1013D00011821082138212821582148250E0BE01A3
:1013E0006F5F7F4F0E94A919BE016F5F7F4FC801D9
:1013F00075DE62960FB6F894DEBF0FBECDBFDF91EB
:10140000CF911F910F910895FC01118210821382D8
:1014100012821582148277CECF93DF9300D000D052
:10142000CDB7DEB7BC01CE010196EEDFCE0101964D
:1014300034D2CE0101967CDE83E08093530426965D
:101440000FB6F894DEBF0FBECDBFDF91CF910895E8
:10145000FC0111821082138212821582148261159E
:10146000710549F0FB0101900020E9F73197AF01C8
:10147000461B570B14CE0895BF92CF92DF92EF9286
:10148000FF920F931F93CF93DF93CDB7DEB72C97C7
:101490000FB6F894DEBF0FBECDBF6C016CE272E0F8
:1014A000CE010796D5DF6CE272E0C6017FDDBB247A
:1014B000B3948111B12CE12CF12CD60114968D91AD
:1014C0009C911597E816F90608F046C1B701C601C8
:1014D0009ADCDC01EC914E2FEE0F550B660B770B6F
:1014E000FA01E654F109E531F10508F0E7C0882773
:1014F000E557FF4F8F4F0C94511DCE01079675DDB8
:10150000882309F405C1CE010796BCDCF80160838D
:101510007183828393836CE272E0CE010796DEDDF5
:10152000F7C0CE01079661DD882309F4F4C0CE012F
:101530000796A8DCD8016D937D938D939C931397A8
:101540006CE272E0CE010796C9DDE5C0CE010796D8
:101550004CDD882309F4E2C0CE01079693DCF80144
:1015600060837183828393836CE272E0CE0107967D
:10157000B5DDD4C0CE01079638DD882309F4D1C08B
:10158000CE0107967FDCD8016D937D938D939C935C
:1015900013976CE272E0CE010796A0DDC2C0CE01C7
:1015A000079623DD882309F4BFC0CE0107966ADCC5
:1015B000F80160837183828393836CE272E0CE01D1
:1015C00007968CDDB1C0CE0107960FDD882309F4A4
:1015D000AEC0CE01079656DCD8016D937D938D93F6
:1015E0009C9313976CE272E0CE01079677DD9FC063
:1015F000CE010796FADC882309F49CC0CE01079639
:1016000041DCF80160837183828393836CE272E032
:10161000CE01079663DD8EC0CE010796E6DC8823F7
:1016200009F48BC0CE0107962DDCD8016D937D9314
:101630008D939C9313976CE272E0CE0107964EDD7A
:101640007CC0CE010796D1DC882309F479C0CE0195
:10165000079618DCF80160837183828393836CE2C0
:1016600072E0CE0107963ADD6BC0CE010796BDDC75
:10167000882309F468C0CE01079604DCD8016D9375
:101680007D938D939C9313976CE272E0CE01079645
:1016900025DD59C0CE010796A8DC882309F456C081
:1016A000CE010796EFDBF801608371838283938319
:1016B0006CE272E0CE01079611DD48C0B701C601A9
:1016C000A2DBDC018C91803344F4B701C6019BDBC3
:1016D000FC0180818E3251F4BAC0B701C60193DBA0
:1016E000DC018C918A330CF4B2C0EFCFB701C60194
:1016F0008ADBFC0180818C3209F4A9C0B701C601E4
:1017000082DBDC018C918D3209F4A1C0B12C20C0A8
:101710000EEA13E01DC006EB13E01AC00AEB13E05B
:1017200017C00EEB13E014C002EC13E011C006EC7E
:1017300013E00EC002EB13E00BC00AEC13E008C08C
:101740000EEC13E005C002ED13E002C006ED13E05D
:10175000FFEFEF1AFF0AB1CECE01079646DC8823D1
:1017600041F0CE0107968EDBF8016083718382839E
:101770009383B1100BC06DE472E0CE01019668DE78
:10178000CE0101968AD0CE010196D2DC28E23BE65A
:101790004EE65EE46091B6037091B7038091B803A2
:1017A0009091B9030E94761B811110C0809133047F
:1017B00090913404A0913504B09136048093B6031F
:1017C0009093B703A093B803B093B90328E23BE624
:1017D0004EE65EE46091BA037091BB038091BC0356
:1017E0009091BD030E94761B811110C08091370437
:1017F00090913804A0913904B0913A048093BA03CF
:101800009093BB03A093BC03B093BD0328E23BE6D7
:101810004EE65EE46091BE037091BF038091C00309
:101820009091C1030E94761B811123C080913B04DB
:1018300090913C04A0913D04B0913E048093BE037E
:101840009093BF03A093C003B093C10312C0B7012C
:10185000C601D9DADC018C918C3211F46EE205C03C
:10186000B701C601D0DAFC016081CE010796F2DB38
:101870006FCFCE0107965CDC8B2D2C960FB6F894BB
:10188000DEBF0FBECDBFDF91CF911F910F91FF90B3
:10189000EF90DF90CF90BF9008950F931F93CF9359
:1018A000DF93CDB7DEB72F970FB6F894DEBF0FBE2C
:1018B000CDBF8C01809153041B861A861D861C8621
:1018C0001F861E864AE0BE016F5F7F4F90E00E9438
:1018D000C719BE016F5F7F4FCE010A96FFDBBE01C5
:1018E000665F7F4FCE0101968FDDF80144815581FF
:1018F00060817181CE01019680DB811103C0CE0130
:101900000196BBDB4D815E8169817A8180E792E03F
:101910008CDA42E050E06AE272E080E792E085DA39
:10192000CE01019605DCCE010A9602DC2F960FB699
:10193000F894DEBF0FBECDBFDF91CF911F910F9105
:101940000895CF93DF9300D000D0CDB7DEB760E528
:1019500072E0CE0101967CDDCE0101969EDFCE01C4
:101960000196E6DB26960FB6F894DEBF0FBECDBF1C
:10197000DF91CF9108950F931F93CF93DF9300D002
:1019800000D0CDB7DEB78C0163E572E00FDB8111CB
:1019900014C066E572E0C80109DB811110C069E579
:1019A00072E0C80103DB81110CC060E572E0C80180
:1019B000FDDA882321F1E3E005C0E0E003C0E1E0C7
:1019C00001C0E2E08091530494E0E99FF00111240A
:1019D000ED5AFB4FE80FF11D828180935304833051
:1019E00061F46CE572E0CE01019632DDCE01019624
:1019F00054DFCE0101969CDB01C0A3DF81E0269677
:101A00000FB6F894DEBF0FBECDBFDF91CF911F910F
:101A10000F910895BC0187EA93E075DB81E0809324
:101A2000AD030895CF93DF93EC0161E08CE20E9457
:101A30008204209711F460E004C0CF3FD10531F457
:101A400061E08CE2DF91CF910C948E03E5EAF2E045
:101A5000E4918E2F90E0FC013197E231F10508F01E
:101A60009DC08827E056FF4F8F4F0C94511D84B5C1
:101A7000806884BDC7BD97C084B5806284BDC8BD81
:101A800092C080918000806880938000D09389000C
:101A9000C093880088C0809180008062809380001D
:101AA000D0938B00C0938A007EC0809180008860B4
:101AB00080938000D0938D00C0938C0074C080917F
:101AC000B00080688093B000C093B3006CC0809178
:101AD000B00080628093B000C093B40064C0809175
:101AE0009000806880939000D0939900C0939800F4
:101AF0005AC080919000806280939000D0939B00A8
:101B0000C0939A0050C080919000886080939000AC
:101B1000D0939D00C0939C0046C08091A000806837
:101B20008093A0008091A0008F7B8093A000D09331
:101B3000A900C093A80037C08091A0008062809364
:101B4000A000D093AB00C093AA002DC08091A0004C
:101B500088608093A000D093AD00C093AC0023C0F8
:101B600080912001806880932001D0932901C09347
:101B7000280119C080912001806280932001D093B8
:101B80002B01C0932A010FC08091200188608093AF
:101B90002001D0932D01C0932C0105C0C038D10580
:101BA0000CF04ECF48CFDF91CF910895CF93DF93C4
:101BB000CDB7DEB72C970FB6F894DEBF0FBECDBF02
:101BC000789484B5826084BD84B5816084BD85B518
:101BD000826085BD85B5816085BD80916E00816024
:101BE00080936E00109281008091810082608093CA
:101BF00081008091810081608093810080918000CC
:101C00008160809380008091B10084608093B100F6
:101C10008091B00081608093B000809191008260DB
:101C200080939100809191008160809391008091D8
:101C300090008160809390008091A10082608093E9
:101C4000A1008091A10081608093A1008091A000FB
:101C500081608093A00080912101826080932101A6
:101C60008091210181608093210180912001816018
:101C70008093200180917A00846080937A00809123
:101C80007A00826080937A0080917A0081608093EC
:101C90007A0080917A00806880937A001092C10067
:101CA00061E089E00E94820461E089E00E948E0385
:101CB000F89414BC15BC16BC89EF87BD84B582604E
:101CC00084BD85B5836085BD80916E008260809300
:101CD0006E00109280001092810080E398EF909344
:101CE00085008093840080918100816080938100D1
:101CF00080916F00816080936F007894E091800202
:101D0000F091810282E08083E0917C02F0917D027B
:101D10001082E0917E02F0917F0280E18083109238
:101D20008802E0918402F091850286E08083E09150
:101D30008202F0918302808180618083E09182023F
:101D4000F0918302808188608083E0918202F0912B
:101D50008302808180688083E0918202F091830217
:101D600080818F7D808361E08DE00E94820462E04B
:101D700083E00E94820462E082E00E94820462E0CA
:101D80008EE00E94820462E08FE00E94820462E0A2
:101D900082E10E94820462E083E10E94820462E0A8
:101DA00087E10E94820462E089E10E94820462E08D
:101DB00085E20E94820462E083E20E94820462E083
:101DC00081E20E94820462E08FE10E94820462E06C
:101DD0008DE20E94820462E08BE20E94820462E053
:101DE00089E20E94820462E087E20E94820462E04B
:101DF0008BE10E94820462E08DE10E94820462E035
:101E000080E20E9482048091A403803308F053C0D2
:101E100061E08BE00E9482048091A403E82FF0E04F
:101E20009F01220F331FE20FF31FE35FFC4F9081EE
:101E3000907C9B6090831092A5031092A6036CE0A7
:101E40000E94451D9CE0899FB001112440E050E0B4
:101E50009A01260F371FF901EE0FFF1F2E0F3F1FAC
:101E6000F901E35FFC4F908196FD18C04F5F5F4F13
:101E70004C30510569F7813011F00C949218109292
:101E8000800082E08093810010928500109284008F
:101E9000B19A80916F00826080936F00E091A403FB
:101EA000F0E0CF01880F991FE80FF91FE35FFC4FA7
:101EB00080818064808380E090E06AD928E14AE1F3
:101EC0006CE189E794E00E94900561E088E20E945D
:101ED000820461E08CE20E94820461E08AE20E9456
:101EE000820461E08AE20E94820426E246E367E31C
:101EF00081E994E00E9490052EE34EE260E389E8D8
:101F000094E00E94900528E34CE36DE381E894E0BF
:101F10000E94900580E890E085DD80916002882332
:101F200001F1109260026EE973E0CE0101966CDA65
:101F3000CE01019620DD182FCE010196F9D811119E
:101F40000BC06EE973E0CE0101965EDACE01019618
:101F500061DDCE010196ECD86CE272E08EE993E08F
:101F6000BDD880915304813009F456C0B0F082305E
:101F700009F458C3833011F40C948E186AE472E0AB
:101F8000CE01019665DACE01019646DACE010196C0
:101F9000CFD8109253040C948E1805E614E0D801A3
:101FA0006D918D0170E04AE0CE01079602DABE0124
:101FB000695F7F4FCE01019627DA41E050E068E289
:101FC00072E0CE01019619D8882311F40C94C2183E
:101FD0004D815E8169817A8180E792E00E941507D8
:101FE000CE010196A5D8CE010796A2D8B4E0083755
:101FF0001B07A9F641E050E068E272E080E792E05A
:102000000E94150742E050E06AE272E080E792E049
:102010000E9415070C948E188091AD03882311F44B
:102020000C948E181092AD0367EA73E0CE0101960E
:10203000EBD9CE01019620DA182FCE01019678D87F
:10204000112311F40C948E186091AE037091AF03BC
:102050008091B0039091B1030E94101D643071050E
:1020600064F4623071050CF0D4C261157105D1F0D1
:102070006130710509F486C00FC26430710509F43E
:10208000ADC26C31710509F007C280E090E0A0E8B4
:10209000BFE38093DA039093DB03A093DC03B09358
:1020A000DD03F4C1209133043091340440913504B0
:1020B000509136046091B6037091B7038091B803D4
:1020C0009091B9030E94761B87FF05C080E090E0E5
:1020D000A0E8BFEB04C080E090E0A0E8BFE38093FD
:1020E000DA039093DB03A093DC03B093DD0320912C
:1020F0003704309138044091390450913A0460918A
:10210000BA037091BB038091BC039091BD030E9400
:10211000761B87FF05C080E090E0A0E8BFEB04C01D
:1021200080E090E0A0E8BFE38093DE039093DF03BC
:10213000A093E003B093E10320913B0430913C0471
:1021400040913D0450913E046091BE037091BF03E5
:102150008091C0039091C1030E94761B87FF05C048
:1021600080E090E0A0E8BFEB04C080E090E0A0E851
:10217000BFE38093E2039093E303A093E403B0935F
:10218000E50386C1C090BE03D090BF03E090C003BA
:10219000F090C10380903B0490903C04A0903D04DB
:1021A000B0903E04A5019401C701B6010E94761BC0
:1021B0008823D1F0A5019401C701B6010E94761BC6
:1021C00087FF05C080E090E0A0E8BFEB04C080E09E
:1021D00090E0A0E8BFE38093FA039093FB03A09301
:1021E000FC03B093FD0352C1C0903304D09034047B
:1021F000E0903504F09036048090B6039090B703D9
:10220000A090B803B090B903A5019401C701B6012D
:102210000E94761B811126C02091BA033091BB0326
:102220004091BC035091BD03609137047091380414
:102230008091390490913A040E94761B882309F416
:1022400025C11092DE031092DF031092E00310927A
:10225000E1031092DA031092DB031092DC03109278
:10226000DD0333C0A5019401C701B6010E94761BAE
:1022700087FF11C080E090E0A0E8BFE38093DE0319
:102280009093DF03A093E003B093E103A7019601CD
:10229000C501B40110C080E090E0A0E8BFEB8093DE
:1022A000DE039093DF03A093E003B093E103A50165
:1022B0009401C701B6010E94AB1C6093DA037093CE
:1022C000DB038093DC039093DD03C0903704D09050
:1022D0003804E0903904F0903A048090BA0390906A
:1022E000BB03A090BC03B090BD03A5019401C7013E
:1022F000B6010E94761B811111C01092E603109264
:10230000E7031092E8031092E9031092E20310929F
:10231000E3031092E4031092E50333C0A501940196
:10232000C701B6010E94761B87FF11C080E090E0D4
:10233000A0E8BFE38093E6039093E703A093E8034C
:10234000B093E903A7019601C501B40110C080E074
:1023500090E0A0E8BFEB8093E6039093E703A0939F
:10236000E803B093E903A5019401C701B6010E94F7
:10237000AB1C6093E2037093E3038093E4039093B8
:10238000E5038090DA039090DB03A090DC03B0902B
:10239000DD03C090E203D090E303E090E403F0900B
:1023A000E503A7019601C501B4010E94411D18165D
:1023B000CCF5A5019401C701B6010E94AB1C9B019D
:1023C000AC010E94AC1C6093EA037093EB03809312
:1023D000EC039093ED03A7019601C701B6010E949B
:1023E000AC1C6093EE037093EF038093F003909323
:1023F000F103A50194010E94AB1C6093F20370935A
:10240000F3038093F4039093F50380E090E0A0E859
:10241000BFE38093F6039093F703A093F803B09380
:10242000F90334C0A7019601C501B4010E94AB1C99
:102430009B01AC010E94AC1C6093EA037093EB0318
:102440008093EC039093ED03A5019401C501B401C1
:102450000E94AC1C6093EE037093EF038093F00333
:102460009093F103A70196010E94AB1C6093F203C5
:102470007093F3038093F4039093F5031092F603A3
:102480001092F7031092F8031092F903109254047B
:1024900080E00E947407BDC06091B2037091B303E5
:1024A0008091B4039091B5030E94101D64307105B2
:1024B00031F06530710531F06330710571F50E94BE
:1024C000A509A7C010924F04109250041092510415
:1024D0001092520460914B0470914C044AE0CE017A
:1024E00001960E949D08CE010196D7D9CE01019692
:1024F0000E94980860914B0470914C0480E090E039
:102500000E947A1B6093DA037093DB038093DC03F1
:102510009093DD0310922A047CC06091D2037091E5
:10252000D3038091D4039091D5030E94101D613094
:102530007105D1F11CF4672B49F03CC06230710584
:1025400099F16330710509F464C034C08091780456
:10255000882389F080E090E0A8ECB1E48093DA036E
:102560009093DB03A093DC03B093DD0380E090E065
:10257000A0ECB0E410C080E090E0A8ECB1EC809357
:10258000DA039093DB03A093DC03B093DD0380E0D8
:1025900090E0A0EEB0E48093DE039093DF03A0937D
:1025A000E003B093E10335C060E089E794E00E9466
:1025B0008C052FC028E23BE64EE65EE46091CA033C
:1025C0007091CB038091CC039091CD030E94761B38
:1025D000882369F080912A048823D9F010924F044F
:1025E00010925004109251041092520412C06DE2E5
:1025F00072E0CE0101960E94280ACE0101960E9447
:102600000C0ACE0101960E9498088EEA93E00E947F
:10261000A70580915304813009F080C582E0809342
:1026200053047CC580916102882309F477C56091C9
:10263000AE037091AF038091B0039091B1030E94FB
:10264000101D6430710564F4623071050CF064C5CE
:102650006115710571F06130710509F4FCC0AFC3FB
:102660006430710509F4B3C26C31710509F4C5C257
:10267000A6C380EC90EE9093850080938400209117
:102680003304309134044091350450913604609104
:10269000B6037091B7038091B8039091B9030E947B
:1026A000761B882341F16091DA037091DB038091FE
:1026B000DC039091DD030E94101D81E994E00E94EB
:1026C00072052091DA033091DB034091DC035091D5
:1026D000DD0360913304709134048091350490914E
:1026E00036040E94AC1C60933304709334048093CE
:1026F000350490933604209137043091380440918A
:10270000390450913A046091BA037091BB038091EF
:10271000BC039091BD03EAD7882341F16091DE03A9
:102720007091DF038091E0039091E1030E94101DFE
:1027300089E894E00E9472052091DE033091DF0366
:102740004091E0035091E1036091370470913804A7
:102750008091390490913A040E94AC1C6093370434
:10276000709338048093390490933A0420913B0489
:1027700030913C0440913D0450913E046091BE0371
:102780007091BF038091C0039091C103AFD788239C
:1027900041F16091E2037091E3038091E403909131
:1027A000E5030E94101D81E894E00E9472052091CB
:1027B000E2033091E3034091E4035091E50360911B
:1027C0003B0470913C0480913D0490913E040E9432
:1027D000AC1C60933B0470933C0480933D04909345
:1027E0003E042091330430913404409135045091DB
:1027F00036046091B6037091B7038091B80390914D
:10280000B90374D7811188C42091370430913804FA
:102810004091390450913A046091BA037091BB031E
:102820008091BC039091BD0361D7811175C4209143
:102830003B0430913C0440913D0450913E04609132
:10284000BE037091BF038091C0039091C1034ED726
:10285000811162C4BAC38BEF92EF9093850080938D
:10286000840020913B0430913C0440913D04509100
:102870003E046091BE037091BF038091C0039091AC
:10288000C10334D78823C1F16091FA037091FB032F
:102890008091FC039091FD030E94101D81E894E05B
:1028A0000E9472052091FA033091FB034091FC03D2
:1028B0005091FD0360913B0470913C0480913D0474
:1028C00090913E040E94AC1C9B01AC0160933B04C0
:1028D00070933C0480933D0490933E046091BE034A
:1028E0007091BF038091C0039091C103FFD6811105
:1028F0004AC10E94830747C120E030E040E85FE31F
:102900006091F6037091F7038091F8039091F903B9
:10291000EDD6811191C08090330490903404A09042
:102920003504B09036042091B6033091B70340913E
:10293000B8035091B903C501B401D8D6882309F46E
:1029400022C14090F2035090F3036090F403709022
:10295000F50320E030E0A901C301B2010E94411D4E
:10296000C090DE03D090DF03E090E003F090E1033D
:1029700087FD3CC0A7019601C501B401EDD7609366
:10298000330470933404809335049093360420917B
:10299000E6033091E7034091E8035091E903609129
:1029A0003704709138048091390490913A04D4D757
:1029B00060933704709338048093390490933A04F9
:1029C0002091EA033091EB034091EC035091ED0329
:1029D000C301B201C1D76093F2037093F3038093F4
:1029E000F4039093F503C701B60190C02091EE0364
:1029F0003091EF034091F0035091F103C301B20114
:102A0000ABD76093F2037093F3038093F403909336
:102A1000F503A7019601C501B4019ED76093330465
:102A2000709334048093350490933604C701B60143
:102A3000F7D781E994E0A5C0C0903704D09038045E
:102A4000E0903904F0903A042091BA033091BB032E
:102A50004091BC035091BD03C701B60147D68823FE
:102A600009F491C08090F2039090F303A090F403D6
:102A7000B090F50320E030E0A901C501B4010E9447
:102A8000411D87FD51C04090DE035090DF036090F0
:102A9000E0037090E103A30192016091330470910F
:102AA0003404809135049091360456D760933304F2
:102AB0007093340480933504909336042091E60398
:102AC0003091E7034091E8035091E903C701B60153
:102AD00043D76093370470933804809339049093FC
:102AE0003A042091EA033091EB034091EC035091BA
:102AF000ED03C501B40130D76093F2037093F30383
:102B00008093F4039093F503C301B20189D781E95F
:102B100094E00E9472056091E6037091E703809152
:102B2000E8039091E9032AC02091EE033091EF036E
:102B30004091F0035091F103C501B4010DD76093AA
:102B4000F2037093F3038093F4039093F503809062
:102B5000E6039090E703A090E803B090E903A50195
:102B60009401C701B601F8D6609337047093380416
:102B70008093390490933A04C501B40151D789E890
:102B800094E00E9472052091330430913404409106
:102B90003504509136046091B6037091B70380916B
:102BA000B8039091B903A2D58111B6C22091370420
:102BB000309138044091390450913A046091BA033D
:102BC0007091BB038091BC039091BD0340CE609196
:102BD0004F047091500480915104909152048AD511
:102BE0002091D6033091D7034091D8035091D90357
:102BF00048D718160CF090C2E8C180EF98ED90937A
:102C00008500809384006091DA037091DB038091EA
:102C1000DC039091DD0304D7CB01770FAA0BBB0B2C
:102C2000FC013197E730F10508F076C28827EE58AD
:102C3000FF4F8F4F36C780916504811105C06FEF3C
:102C40007FEF81E994E0D7C11092330410923404ED
:102C5000109235041092360480E090E0A0E0B0E4D9
:102C6000A5C020E030E04AE754E46091330470915D
:102C70003404809135049091360438D587FF1CC008
:102C800061E070E081E994E00E94720520E030E0AC
:102C900040E85FE36091330470913404809135041F
:102CA0009091360459D66093330470933404809322
:102CB00035049093360430C280E090E0A0E4B0E4A4
:102CC00075C088E79CE29093850080938400809192
:102CD0006504882309F4B3CF1092330410923404AE
:102CE000109235041092360480E090E0A0E8B0E441
:102CF0005DC080916704811105C06FEF7FEF89E8A7
:102D000094E079C11092370410923804109239047B
:102D100010923A0480E090E0A0EAB0E447C020E0DE
:102D200030E04AE754E460913704709138048091B0
:102D3000390490913A04DAD487FF1CC061E070E056
:102D400089E894E00E94720520E030E040E85FE30B
:102D500060913704709138048091390490913A045D
:102D6000FBD56093370470933804809339049093B3
:102D70003A04D2C180E090E0A0ECB0E417C088E74C
:102D80009CE290938500809384008091670488235F
:102D900009F4B3CF1092370410923804109239041A
:102DA00010923A0480E090E0A0EEB0E48093DA0361
:102DB0009093DB03A093DC03B093DD03ADC160917E
:102DC000B2037091B3038091B4039091B50328D6F8
:102DD0006430710539F065307105A9F06330710513
:102DE00009F078C080914F0490915004A091510453
:102DF000B091520485369105A105B10508F48CC146
:102E00000E942B0989C180914F0490915004A09198
:102E10005104B091520485369105A105B10508F41D
:102E20007BC18090DA039090DB03A090DC03B0902C
:102E3000DD0320E030E04AE754E4C501B4018BD55E
:102E40006B017C0120E030E0A9011BD6181654F478
:102E500020E030E048EC52E4C701B60112D6181663
:102E600054F01DC020E030E048EC52ECC701B60140
:102E70003DD487FF14C020E030E048EC52E4C501A7
:102E8000B40169D56093DA037093DB038093DC03AC
:102E90009093DD03CAD5CB010E94C80812C080E020
:102EA00090E0AAE7B4E48093DA039093DB03A09365
:102EB000DC03B093DD0388EE93E00E94C8080E9413
:102EC000830710924F0410925004109251041092F4
:102ED000520422C16091D2037091D3038091D40334
:102EE0009091D5039DD56130710509F415C11CF48D
:102EF000672B51F083C06230710509F469C06330FB
:102F0000710509F409C17AC06091DA037091DB039D
:102F10008091DC039091DD0383D521E06F3F710543
:102F200009F00CF420E0622F88E20E948E038FEFFC
:102F300090E00E94120D6091DE037091DF0380919A
:102F4000E0039091E10371D5E62FF0E0ED5AFB4FDD
:102F50008289811110C04AE060E070E0CE010196E4
:102F60000E94D909CE0101960E944D0CCE01019616
:102F70000E949808E0CF60E088E20E948E038FEF05
:102F800090E00E94120D9091780481E0892780934F
:102F900078046091DE037091DF038091E0039091EB
:102FA000E10343D5E62FF0E0ED5AFB4F628970E074
:102FB0004AE0CE0101960E94D909CE0101960E94F5
:102FC0004D0CCE0101960E9498080E948307A4C070
:102FD00080917504882359F081E0809353040E9406
:102FE000A10C61E089E794E00E948C0595C06FEF29
:102FF0007FEF89E794E00E9472058EC08090CA033B
:103000009090CB03A090CC03B090CD0328E23BE698
:103010004EE65EE4C501B40169D3882309F45CC0BF
:1030200080912A04882389F280914F049091500462
:10303000A0915104B091520485369105A105B105C6
:1030400008F46AC010924F04109250041092510478
:1030500010925204E0904B04F0904C04B70180E0D1
:1030600090E048D32B013C019B01AC01C501B401A8
:1030700008D5181684F4A3019201C501B4016BD4DC
:1030800020E030E048EC52E4FCD41816D4F4C70138
:103090008C599F4F0FC0A5019401C301B2015BD4AD
:1030A00020E030E048EC52E4ECD4181654F4C701A8
:1030B0008456910990934C0480934B040E94C80855
:1030C0002BC0C501B401B1D470934C0460934B0480
:1030D000CB010E94C80879CF60E372E0CE0101966F
:1030E0000E94280ACE0101960E944D0CCE01019645
:1030F0000E94980867E472E0CE0101960E94280AB7
:10310000CE0101960E944D0CCE0101960E949808B6
:103110008EEA93E00E94A705109261020E94FC02D1
:103120000C948D0F823069F410929000809391007E
:10313000109295001092940088BB809371000C94BB
:103140004E0F833071F41092A00082E08093A100B2
:103150001092A5001092A40089BB809372000C9479
:103160004E0F81110C944E0F1092200182E080933B
:10317000210110922501109224018ABB80937300D3
:103180000C944E0FCE0101960E943D080C94E80F5E
:103190008EE993E00E94980887EA93E00C949808DF
:1031A000109273021092720288EE93E0A0E0B0E0F9
:1031B0008093740290937502A0937602B093770285
:1031C0008AE192E0909371028093700285EC90E026
:1031D00090937D0280937C0284EC90E090937F0238
:1031E00080937E0280EC90E0909381028093800235
:1031F00081EC90E0909383028093820282EC90E0D5
:10320000909385028093840286EC90E090938702ED
:10321000809386021092890210928A0210928B0289
:1032200010928C02109295041092960410929704BA
:10323000109298041092940410928D0410928E04AF
:1032400010928F041092900410928C0410928504B6
:1032500010928604109287041092880410928404BD
:1032600010929D0410929E0410929F041092A0044C
:1032700010929C0410927D0410927E0410927F04A0
:103280001092800410927C041092780480E1E6E0B1
:10329000F2E0A5E5B4E001900D928A95E1F781E0B6
:1032A0008093540410925304E5E6F4E0119284E014
:1032B000E837F807D9F710923304109234041092CB
:1032C000350410923604109237041092380410928C
:1032D000390410923A0410923B0410923C0410926C
:1032E0003D0410923E0488E097E090934C04809354
:1032F0004B0410922A048EEA93E00E94A7056CE228
:1033000072E087EA93E00E94280A80919D0380334F
:10331000A0F491E0980F90939D038093A40390E014
:10332000FC01EE0FFF1F8E0F9F1FFC01E35FFC4FA0
:1033300088EB9BE09283818303C08FEF8093A4038B
:103340006CE272E08EE993E00C94280A66277727F6
:1033500037C04532510518F4423008F004C0FB0173
:103360001082CB010895BB274A3031F4992322F40F
:10337000BDE2909581959F4F0BC04532510518F4E1
:10338000423008F004C0FB011082CB010895BB2736
:10339000FB015527AA27880F991FAA1FA41710F011
:1033A000A41B83955051B9F7A05DAA3308F0A95D1D
:1033B000A193009779F7B111B1931192CB0186C116
:1033C0006F927F928F929F92AF92BF92CF92DF9235
:1033D000EF92FF920F931F93CF93DF93EC017B014A
:1033E0006115710519F0DB018D939C938E010F5FC0
:1033F0001F4F7880872D90E049D1892B11F0E8018B
:10340000F5CFBDE27B1205C00F5F1F4F7980C1E091
:1034100008C0EBE27E1204C08E010E5F1F4F798060
:10342000C0E06801F1E0CF1AD10843E050E06CE65B
:1034300071E0C60133D1892BE9F4680122E0C20EA4
:10344000D11C45E050E067E671E0C60127D1892B29
:1034500021F4680187E0C80ED11CE114F10419F0D1
:10346000D701CD92DC92C111F9C060E070E080E834
:103470009FE7FDC043E050E064E671E0C6010ED175
:10348000892B51F4E114F10409F4EDC00E5F1F4FD4
:10349000F70111830083E7C0680160E070E0CB01B1
:1034A00000E010E0F601D0EDD70DDA3050F52C2F0A
:1034B0002260622E2C2F2870C2FF05C0211127C068
:1034C0000F5F1F4F24C0222311F001501109A5E006
:1034D000B0E09B01AC0126D24B015C01880C991C29
:1034E000AA1CBB1CC501B4016D0F711D811D911D6E
:1034F0006839A9E97A078A07A9E19A0740F0C66006
:1035000005C0DE3F51F4C3FD44C0C8606C2EBFEF60
:10351000CB1ADB0A7080C62DC5CF2D2F2F7D25310C
:10352000C1F540814D3211F4C06106C04B3221F02B
:10353000319621E030E006C03296D60111964C91CA
:1035400022E030E0A0EDA40FAA3018F0E21BF30B4C
:1035500020C040E050E04038BCE05B075CF49A01DA
:10356000220F331F220F331F420F531F440F551FCB
:103570004A0F511D3196DF0111972C91A0EDA20F3A
:10358000AA3048F3C4FF03C0519541955109040F77
:10359000151FC1FF07C0E114F10421F03197D701D5
:1035A000ED93FC93A7D0C370C33019F06B017C017D
:1035B00006C06B017C01F7FAF094F7F8F09420E074
:1035C00030E0A901C701B60191D0882309F443C0B6
:1035D00017FF06C0119501951109C3E8D1E002C09B
:1035E000CBE9D1E05E01B8E1AB1AB1084601BE2DCE
:1035F000AF2D90E2E92EF12C0E151F057CF0FE0197
:103600002591359145915491B4018B2F9A2FD3D0A8
:103610004B01B82FA92F0E191F09EECF2497F5944F
:10362000E794CA15DB0541F76401EB2EFA2E8E2DC7
:10363000880F8F2D881F8F3F41F020E030E0A901D7
:10364000C701B60153D0811106C082E290E0909389
:10365000A2048093A104C701B60109C060E070E034
:1036600080E89FEF04C060E070E080EC9FE7DF91AE
:10367000CF911F910F91FF90EF90DF90CF90BF906F
:10368000AF909F908F907F906F9008959111F6C0AA
:10369000803219F089508550D0F70895FB01DC0184
:1036A0004150504088F08D9181341CF08B350CF4E2
:1036B000805E659161341CF06B350CF4605E861B96
:1036C000611171F3990B0895881BFCCFDC01FC019B
:1036D000672F71917723E1F7329704C07C916D9346
:1036E00070836291AE17BF07C8F3089540D008F405
:1036F00081E00895E89409C097FB3EF49095809589
:10370000709561957F4F8F4F9F4F9923A9F0F92FA7
:1037100096E9BB279395F695879577956795B79525
:10372000F111F8CFFAF4BB0F11F460FF1BC06F5F0B
:103730007F4F8F4F9F4F16C0882311F096E911C01D
:10374000772321F09EE8872F762F05C0662371F03E
:1037500096E8862F70E060E02AF09A95660F771F52
:10376000881FDAF7880F9695879597F90895990F2E
:103770000008550FAA0BE0E8FEEF16161706E8073B
:10378000F907C0F012161306E407F50798F0621B5C
:10379000730B840B950B39F40A2661F0232B242B31
:1037A000252B21F408950A2609F4A140A6958FEF50
:1037B000811D811D08950BD07BC06CD028F071D085
:1037C00018F0952309F05DC062C01124A5C081D016
:1037D000A0F3959FD1F3950F50E0551F629FF00124
:1037E000729FBB27F00DB11D639FAA27F00DB11D7D
:1037F000AA1F649F6627B00DA11D661F829F222706
:10380000B00DA11D621F739FB00DA11D621F839F8C
:10381000A00D611D221F749F3327A00D611D231F62
:10382000849F600D211D822F762F6A2F11249F57B0
:1038300050408AF0E1F088234AF0EE0FFF1FBB1FD3
:10384000661F771F881F91505040A9F79E3F510572
:1038500070F017C061C05F3FECF3983EDCF38695D3
:1038600077956795B795F795E7959F5FC1F7FE2B1D
:10387000880F911D9695879597F908959927882720
:10388000089597F99F6780E870E060E008959FEFE2
:1038900080EC089500240A941616170618060906E7
:1038A000089500240A9412161306140605060895B6
:1038B000092E0394000C11F4882352F0BB0F40F43E
:1038C000BF2B11F460FF04C06F5F7F4F8F4F9F4F7E
:1038D000089557FD9058440F551F59F05F3F71F000
:1038E0004795880F97FB991F61F09F3F79F0879567
:1038F0000895121613061406551FF2CF4695F1DFF0
:1039000008C0161617061806991FF1CF869571057F
:10391000610508940895E894BB2766277727CB01B3
:1039200097F9089509D0A59F900DB49F900DA49F7D
:10393000800D911D11240895A29FB001B39FC00175
:10394000A39F700D811D1124911DB29F700D811DCB
:103950001124911D08955058BB27AA270ED0A8CF37
:1039600099DF30F09EDF20F031F49F3F11F41EF418
:103970008ECF0EF4E095E7FB84CFE92FAADF80F32A
:10398000BA17620773078407950718F071F49EF55C
:10399000C2CF0EF4E0950B2EBA2FA02D0B01B9016A
:1039A00090010C01CA01A0011124FF27591B99F0B5
:1039B000593F50F4503E68F11A16F040A22F232FC1
:1039C000342F4427585FF3CF469537952795A79511
:1039D000F0405395C9F77EF41F16BA0B620B730BB8
:1039E000840BBAF09150A1F0FF0FBB1F661F771F29
:1039F000881FC2F70EC0BA0F621F731F841F48F4DE
:103A0000879577956795B795F7959E3F08F0B3CF63
:103A10009395880F08F09927EE0F9795879508954D
:103A200004D06894B11178CF08955BDF88F09F5778
:103A300090F0B92F9927B751A0F0D1F0660F771FFA
:103A4000881F991F1AF0BA95C9F712C0B13081F0DA
:103A500062DFB1E008955FCF672F782F8827B85FC6
:103A600039F0B93FCCF3869577956795B395D9F73B
:103A70003EF490958095709561957F4F8F4F9F4F45
:103A8000089575DE08F48FEF0895991B79E004C05E
:103A9000991F961708F0961B881F7A95C9F780958D
:103AA0000895EE0FFF1F881F8BBF0790F691E02D42
:103AB0001994CF93DF938230910510F482E090E067
:103AC000E091A504F091A60420E030E0C0E0D0E051
:103AD000309711F14081518148175907C0F04817BC
:103AE000590761F482819381209719F09B838A831F
:103AF0002BC09093A6048093A50426C02115310500
:103B000019F04217530718F49A01BE01DF01EF01C3
:103B10000280F381E02DDCCF2115310509F1281B4E
:103B2000390B2430310590F412968D919C911397A6
:103B30006115710521F0FB019383828304C090938A
:103B4000A6048093A504FD01329644C0FD01E20F56
:103B5000F31F81939193225031092D933C933AC0E6
:103B60002091A3043091A404232B41F4209102025C
:103B7000309103023093A4042093A3042091000207
:103B8000309101022115310541F42DB73EB7409126
:103B9000040250910502241B350BE091A304F0911F
:103BA000A404E217F307A0F42E1B3F0B28173907D4
:103BB00078F0AC014E5F5F4F2417350748F04E0F89
:103BC0005F1F5093A4044093A3048193919302C078
:103BD000E0E0F0E0CF01DF91CF9108950F931F93C4
:103BE000CF93DF93009709F48CC0FC0132971382C6
:103BF00012820091A5041091A6040115110581F40B
:103C000020813181820F931F2091A3043091A4045D
:103C10002817390779F5F093A404E093A30471C041
:103C2000D80140E050E0AE17BF0750F412962D9136
:103C30003C911397AD012115310509F1D901F3CF5D
:103C40009D01DA013383228360817181860F971F82
:103C50008217930769F4EC0128813981260F371FF9
:103C60002E5F3F4F318320838A819B8193838283A0
:103C7000452B29F4F093A604E093A50442C01396C3
:103C8000FC93EE931297ED01499159919E01240FF7
:103C9000351FE217F30771F480819181840F951F1E
:103CA000029611969C938E938281938113969C9396
:103CB0008E931297E0E0F0E0D80112968D919C91DE
:103CC0001397009719F0F8018C01F6CF8D919C9114
:103CD00098012E5F3F4F820F931F2091A3043091D4
:103CE000A4042817390769F4309729F41092A60420
:103CF0001092A50402C0138212821093A4040093B0
:103D0000A304DF91CF911F910F9108956F927F923D
:103D10008F929F92AF92BF92CF92DF92EF92FF92DB
:103D20000F931F93CF93DF93EC01009781F4CB01A6
:103D3000DF91CF911F910F91FF90EF90DF90CF9087
:103D4000BF90AF909F908F907F906F90B2CEFC010C
:103D5000E60FF71F9C0122503109E217F30708F420
:103D6000A8C0D9010D911C91119706171707A8F04B
:103D70000530110508F49BC0C80104978617970702
:103D800008F495C002501109061B170B01931193FB
:103D90006D937C93CF0122DF8AC05B01A01AB10A28
:103DA0004C01800E911EA091A504B091A60440E0A4
:103DB00050E0E12CF12C109709F44AC0A815B90580
:103DC000D1F56D907C901197630182E0C80ED11CF3
:103DD000CA14DB0480F1A3014A195B096A0182E07D
:103DE000C80ED11C1296BC9012971396AC91B5E0F8
:103DF000CB16D10440F0B282A38351834083D90112
:103E00006D937C930AC00E5F1F4FC301800F911FFB
:103E1000F90191838083EB2DFA2FE114F10431F045
:103E2000D7011396FC93EE93129741C0F093A6042A
:103E3000E093A5043CC08D919C91119748175907B8
:103E400008F4AC017D0112960D90BC91A02DB3CF6A
:103E50008091A3049091A40488159905E1F4461774
:103E60005707C8F48091000290910102009741F435
:103E70008DB79EB74091040250910502841B950BAB
:103E8000E817F907B0F4F093A404E093A304F90150
:103E9000718360830CC0CB010CDE7C01009749F07C
:103EA000A801BE011BD0CE0199DEC70104C0CE011E
:103EB00002C080E090E0DF91CF911F910F91FF90C1
:103EC000EF90DF90CF90BF90AF909F908F907F90BA
:103ED0006F90089581E090E0F89419C0FB01DC0137
:103EE00002C001900D9241505040D8F70895FB0157
:103EF000DC018D91019080190110D9F3990B08957F
:103F0000FB01DC0101900D920020E1F7089511E022
:103F1000C1E6D1E000E005C0802FFE01C2DD2196A0
:103F2000011DC236D10780E00807B1F7F894FFCF32
:103F30000000A70480000103030303030303000040
:103F400000000001020300000000FF0115079801B6
:103F50004502C901A701BB0120000D0A004533003D
:103F60004552524F522E20554E4B4E4F574E2043E6
:103F70004F4D4D414E440045300045320057310011
:103F80005535005534005536005537004531000091
:00000001FF
