:1000000015C1000041C100003FC100003DC100001A
:100010003BC1000039C1000037C1000035C10000FC
:1000200033C1000031C100002FC100002DC100000C
:100030002BC1000029C1000027C1000025C100001C
:1000400023C1000021C100001FC100001DC100002C
:100050001BC10000E9C4000017C100003CC400003F
:1000600013C10000ABC4000080C400000DC100003B
:100070000BC1000009C1000007C1000005C100005C
:1000800003C1000001C10000FFC00000FDC000006E
:10009000FBC00000F9C00000F7C00000F5C0000080
:1000A000F3C00000F1C00000EFC00000EDC0000090
:1000B000EBC00000E9C00000E7C00000E5C00000A0
:1000C000E3C00000E1C00000DFC00000DDC00000B0
:1000D000DBC00000D9C00000D7C00000D5C00000C0
:1000E000D3C000006F027202610265026902A902B8
:1000F00076027A028002840288028E0292029602BE
:10010000A9029C02A002A4020000220025002800EF
:100110002B002E003100340002010000050108010F
:100120000B0100002100240027002A002D003000D0
:10013000330001010000040107010A010000200052
:100140002300260029002C002F00320000010000AF
:10015000030106010901050505050705080808084A
:10016000020202020A0A080804040404010101014F
:10017000010101010303030303030303040707074A
:100180000C0C0C0C0C0C0C0C0202020206060606EF
:10019000060606060B0B0B0B0B0B0B0B01021020BC
:1001A00020080810204010204080020102010804AD
:1001B0000201010204081020408080402010080441
:1001C000020180040201804020100804020108049A
:1001D00002010102040810204080010204081020DE
:1001E000408000000A0B02090C0D0E0807030401F1
:1001F00000000000000000000000000000000000FF
:1002000000000000000000000000000000001211CB
:1002100010000000000000000000000000000000CE
:10022000000000000000000061055C0511241FBEF5
:10023000CFEFD1E2DEBFCDBF00E00CBF23E0AEE6E2
:10024000B2E001C01D92A132B207E1F712E0A0E0D6
:10025000B2E0EAE6F1E100E00BBF02C007900D92C8
:10026000AE36B107D9F711E0C5E1D1E000E005C035
:1002700021970109802FFE0131D5C431D10780E0DB
:100280000807B1F75AD460C7BBCECF92DF92EF9286
:10029000FF920F931F93CF93DF936C017A018B0131
:1002A000C0E0D0E0CE15DF0589F0D8016D918D0159
:1002B000D601ED91FC910190F081E02DC6011995D8
:1002C000892B11F47E0102C02196ECCFC701DF918A
:1002D000CF911F910F91FF90EF90DF90CF900895F5
:1002E000089580E090E00895FC01538D448D252F02
:1002F00030E0842F90E0821B930B541710F0CF96C0
:10030000089501970895FC01918D828D981761F0F1
:10031000828DDF01A80FB11D5D968C91928D9F5F3C
:100320009F73928F90E008958FEF9FEF0895FC01E7
:10033000918D828D981731F0828DE80FF11D858D9A
:1003400090E008958FEF9FEF0895FC01918D228D2D
:10035000892F90E0805C9F4F821B91098F739927B2
:10036000089587E792E0F1DF21E0892B09F420E08E
:10037000822F0895FC01848DDF01A80FB11DA35ABF
:10038000BF4F2C91848D90E001968F739927848FB5
:10039000A689B7892C93A089B1898C9180648C93AC
:1003A000938D848D981306C00288F389E02D808197
:1003B0008F7D80830895EF92FF920F931F93CF93C9
:1003C000DF93EC0181E0888F9B8D8C8D981305C0A5
:1003D000E889F989808185FD23C0F62E0B8D10E018
:1003E0000F5F1F4F0F731127E02E8C8DE8120BC08B
:1003F0000FB607FCFACFE889F989808185FFF5CF30
:10040000CE01B8DFF2CF8B8DFE01E80FF11DE35A6C
:10041000FF4FF0820B8FEA89FB898081806207C0E1
:10042000EE89FF896083E889F9898081806480830F
:1004300081E090E0DF91CF911F910F91FF90EF90BD
:100440000895CF93DF93EC01888D8823C1F0EA896A
:10045000FB89808185FD05C0A889B9898C9186FDBD
:100460000EC00FB607FCF5CF808185FFF2CFA889BB
:10047000B9898C9185FFEDCFCE017CDFE8CFDF918C
:10048000CF91089590E0FC01EE51FE4F4491FC01A4
:10049000E456FE4F2491FC01EA5AFE4F94919923B1
:1004A00009F466C0442309F454C050E0FA013197BE
:1004B000E231F10508F04DC08827EE58FF4F8F4F0D
:1004C0000DC4809180008F7707C0809180008F7D60
:1004D00003C080918000877F809380003AC084B5FC
:1004E0008F7702C084B58F7D84BD33C08091B0000A
:1004F0008F7703C08091B0008F7D8093B00029C0BA
:10050000809190008F7707C0809190008F7D03C00D
:1005100080919000877F809390001BC08091A00005
:100520008F7707C08091A0008F7D03C08091A000CD
:10053000877F8093A0000DC0809120018F7707C036
:10054000809120018F7D03C080912001877F80935F
:100550002001E92FF0E0EE0FFF1FE45CFE4FA591B4
:10056000B491EC912E2381E090E021F480E0089595
:1005700080E090E00895CF93DF9390E0FC01E45693
:10058000FE4F2491FC01EA5AFE4F8491882361F1C9
:1005900090E0880F991FFC01EE5DFE4FC591D4914C
:1005A000FC01E85FFE4FA591B491611109C09FB7AE
:1005B000F8948881209582238883EC912E230BC0A8
:1005C000623061F49FB7F8943881822F809583233D
:1005D0008883EC912E2B2C939FBF06C08FB7F89485
:1005E000E8812E2B28838FBFDF91CF910895CF9381
:1005F000DF93009771F0FC0101900020E9F731973B
:10060000AF01481B590BBC0187E792E03EDEEC01CD
:1006100002C0C0E0D0E042E050E068E172E087E76D
:1006200092E033DE8C0F9D1FDF91CF910895FC0186
:1006300024813581232B41F06BE172E0808191812F
:1006400073D521E0892B09F020E0822F08952091B5
:100650001B03213079F028F02230B9F02330C9F0A3
:100660001CC0E5DF8823C9F081E080931B038BE287
:1006700092E008C0DCDF882381F083E080931B03D5
:100680008CE492E0B4DF81E00895D1DF8111F5CFF1
:100690000895CDDF8111E8CF089580E0089537D522
:1006A0000F931F93CF93DF93EC018881998100977B
:1006B00029F02A813B812617370780F48B016F5F71
:1006C0007F4F41D4009761F0998388831B830A830D
:1006D0002C813D81232B11F4FC01108281E001C0AB
:1006E00080E0DF91CF911F910F910895EF92FF92DB
:1006F0000F931F93CF93DF93EC017B018A01BA0123
:10070000CFDF2881398181110CC02115310511F00D
:10071000C90181D3198218821D821C821B821A8210
:1007200005C01D830C83B701C90107D5CE01DF9138
:10073000CF911F910F91FF90EF900895CF93DF938A
:10074000EC01FB0186179707A1F0608171816115AB
:10075000710521F044815581C9DF0BC088819981E1
:10076000009709F058D3198218821D821C821B82BF
:100770001A82CE01DF91CF910895BC0184E193E00C
:10078000DDDF81E080931A030895FF920F931F939A
:10079000CF93DF93CDB7DEB72C970FB6F894DEBFBB
:1007A0000FBECDBF1A8219821C821B821E821D823F
:1007B00040E050E06AE172E0CE01019697DF87E702
:1007C00092E0C3DD892B09F444C087E792E09BDD0A
:1007D000F82E8F8318860D811E810F5F1F4FB80181
:1007E000CE0101965DDF882361F029813A818D81F8
:1007F0009E81BE01695F7F4F820F931F9ED41E832F
:100800000D838AE0F812DBCF18861F821A861986BC
:100810001C861B86BE016F5F7F4FCE0107968EDF61
:10082000CE01079614DF8F819885F5D218861F8236
:100830001A8619861C861B86BE016F5F7F4FCE010C
:1008400007967CDFCE01079698DF8F819885E3D2EB
:10085000B6CF89819A81DFD22C960FB6F894DEBF8D
:100860000FBECDBFDF91CF911F910F91FF900895E3
:1008700078DD811125C080E090E0892B41F080E097
:1008800090E0892B21F00E94000081111BC080E0C4
:1008900090E0892B41F080E090E0892B21F00E94CC
:1008A0000000811112C080E090E0892B99F080E077
:1008B00090E0892B79F00E940000811109C0089511
:1008C00064DFD9CF0E940000E2CF0E940000EBCF8E
:1008D0000C94000008951F920F920FB60F921124EE
:1008E0002F933F938F939F93AF93BF938091730206
:1008F00090917402A0917502B091760230917202CB
:1009000023E0230F2D3720F40196A11DB11D05C052
:1009100026E8230F0296A11DB11D20937202809339
:10092000730290937402A0937502B0937602809143
:100930006E0290916F02A0917002B09171020196C7
:10094000A11DB11D80936E0290936F02A09370025F
:10095000B0937102BF91AF919F918F913F912F9171
:100960000F900FBE0F901F9018951F920F920FB609
:100970000F9211240BB60F922F933F934F935F93D7
:100980006F937F938F939F93AF93BF93EF93FF9357
:1009900087E792E0EFDCFF91EF91BF91AF919F91DC
:1009A0008F917F916F915F914F913F912F910F9018
:1009B0000BBE0F900FBE0F901F9018951F920F92B5
:1009C0000FB60F9211240BB60F922F938F939F9314
:1009D000EF93FF93E0918702F09188028081E0918C
:1009E0008D02F0918E0282FD12C090818091900262
:1009F0008F5F8F7320919102821751F0E0919002E6
:100A0000F0E0E958FD4F958F8093900201C08081FE
:100A1000FF91EF919F918F912F910F900BBE0F90AF
:100A20000FBE0F901F9018951F920F920FB60F9246
:100A300011240BB60F922F933F934F935F936F93B5
:100A40007F938F939F93AF93BF93CF93DF93EF9356
:100A5000FF9383E017DDEC0182E014DDC80FD91F9E
:100A60008EE010DDC80FD91F8FE00CDDC80FD91F35
:100A700082E108DDC80FD91F83E104DD8C0F9D1FC3
:100A800021E0181619060CF020E020931C03FF91BA
:100A9000EF91DF91CF91BF91AF919F918F917F9116
:100AA0006F915F914F913F912F910F900BBE0F90DF
:100AB0000FBE0F901F90189580911403909115030D
:100AC000AAC1E7E7F2E01382128288EE93E0A0E089
:100AD000B0E084839583A683B7838AE092E0918314
:100AE000808385EC90E09587848784EC90E09787FD
:100AF000868780EC90E0918B808B81EC90E0938BEB
:100B0000828B82EC90E0958B848B86EC90E0978BC7
:100B1000868B118E128E138E148E10921B03E4E1BD
:100B2000F3E011821082138212821582148240E057
:100B300050E06AE172E0CF01D9CD789484B582604B
:100B400084BD84B5816084BD85B5826085BD85B571
:100B5000816085BD80916E00816080936E001092EF
:100B6000810080918100826080938100809181006A
:100B700081608093810080918000816080938000FB
:100B80008091B10084608093B1008091B000816059
:100B90008093B00080919100826080939100809159
:100BA000910081608093910080919000816080939A
:100BB00090008091A10082608093A1008091A100AB
:100BC00081608093A1008091A00081608093A0004B
:100BD00080912101826080932101809121018160B7
:100BE0008093210180912001816080932001809178
:100BF0007A00846080937A0080917A00826080938A
:100C00007A0080917A00816080937A0080917A00E6
:100C1000806880937A001092C100F89414BC15BCCF
:100C200016BC89EF87BD84B5826084BD85B58360BD
:100C300085BD80916E00826080936E007894E09113
:100C40008702F091880282E08083E0918302F09134
:100C500084021082E0918502F091860280E1808317
:100C600010928F02E0918B02F0918C0286E08083DB
:100C7000E0918902F0918A02808180618083E09115
:100C80008902F0918A02808188608083E0918902E4
:100C9000F0918A02808180688083E0918902F091DE
:100CA0008A0280818F7D808361E08DE064DC60E07A
:100CB00083E061DC60E082E05EDC60E08EE05BDCD3
:100CC00060E08FE058DC60E082E155DC60E083E1C9
:100CD00052DC60E086E14FDCCBDDFECFEE0FFF1F84
:100CE000881F8BBF0790F691E02D1994CF93DF9367
:100CF0008230910510F482E090E0E0911F03F091C2
:100D0000200320E030E0C0E0D0E0309711F14081D6
:100D1000518148175907C0F04817590761F482817B
:100D20009381209719F09B838A832BC09093200393
:100D300080931F0326C02115310519F04217530770
:100D400018F49A01BE01DF01EF010280F381E02D6A
:100D5000DCCF2115310509F1281B390B2430310571
:100D600090F412968D919C9113976115710521F065
:100D7000FB019383828304C09093200380931F031D
:100D8000FD01329644C0FD01E20FF31F8193919360
:100D9000225031092D933C933AC020911D0330918C
:100DA0001E03232B41F42091020230910302309361
:100DB0001E0320931D032091000230910102211592
:100DC000310541F42DB73EB7409104025091050220
:100DD000241B350BE0911D03F0911E03E217F3076E
:100DE000A0F42E1B3F0B2817390778F0AC014E5F9B
:100DF0005F4F2417350748F04E0F5F1F50931E03B7
:100E000040931D038193919302C0E0E0F0E0CF0195
:100E1000DF91CF9108950F931F93CF93DF930097A6
:100E200009F48CC0FC0132971382128200911F03D7
:100E3000109120030115110581F420813181820F69
:100E4000931F20911D0330911E032817390779F550
:100E5000F0931E03E0931D0371C0D80140E050E001
:100E6000AE17BF0750F412962D913C911397AD0128
:100E70002115310509F1D901F3CF9D01DA01338341
:100E8000228360817181860F971F8217930769F40F
:100E9000EC0128813981260F371F2E5F3F4F3183A8
:100EA00020838A819B8193838283452B29F4F0934D
:100EB0002003E0931F0342C01396FC93EE93129716
:100EC000ED01499159919E01240F351FE217F30757
:100ED00071F480819181840F951F029611969C93E5
:100EE0008E938281938113969C938E931297E0E068
:100EF000F0E0D80112968D919C911397009719F00C
:100F0000F8018C01F6CF8D919C9198012E5F3F4F97
:100F1000820F931F20911D0330911E03281739075C
:100F200069F4309729F41092200310921F0302C035
:100F30001382128210931E0300931D03DF91CF9141
:100F40001F910F9108956F927F928F929F92AF920F
:100F5000BF92CF92DF92EF92FF920F931F93CF93A6
:100F6000DF93EC01009781F4CB01DF91CF911F91CA
:100F70000F91FF90EF90DF90CF90BF90AF909F9038
:100F80008F907F906F90B2CEFC01E60FF71F9C010F
:100F900022503109E217F30708F4A8C0D9010D91D6
:100FA0001C91119706171707A8F00530110508F4D2
:100FB0009BC0C80104978617970708F495C0025094
:100FC0001109061B170B019311936D937C93CF01AD
:100FD00022DF8AC05B01A01AB10A4C01800E911E6B
:100FE000A0911F03B091200340E050E0E12CF12CD0
:100FF000109709F44AC0A815B905D1F56D907C90F9
:101000001197630182E0C80ED11CCA14DB0480F181
:10101000A3014A195B096A0182E0C80ED11C12962D
:10102000BC9012971396AC91B5E0CB16D10440F06A
:10103000B282A38351834083D9016D937C930AC00C
:101040000E5F1F4FC301800F911FF90191838083B1
:10105000EB2DFA2FE114F10431F0D7011396FC9334
:10106000EE93129741C0F0932003E0931F033CC01E
:101070008D919C9111974817590708F4AC017D0197
:1010800012960D90BC91A02DB3CF80911D0390912D
:101090001E0388159905E1F446175707C8F4809197
:1010A000000290910102009741F48DB79EB74091E4
:1010B000040250910502841B950BE817F907B0F460
:1010C000F0931E03E0931D03F901718360830CC04C
:1010D000CB010CDE7C01009749F0A801BE011BD0BA
:1010E000CE0199DEC70104C0CE0102C080E090E0CD
:1010F000DF91CF911F910F91FF90EF90DF90CF90F4
:10110000BF90AF909F908F907F906F90089581E0F7
:1011100090E0F89419C0FB01DC0102C001900D922F
:1011200041505040D8F70895FB01DC018D910190AA
:1011300080190110D9F3990B0895FB01DC0101908E
:101140000D920020E1F7089511E0C5E1D1E000E043
:1011500005C0802FFE01C2DD2196011DC631D107D9
:0A11600080E00807B1F7F894FFCF14
:10116A0000002103800000000000DB01450174013A
:10117A002102A501830197010D0A00756E6B6E6F3E
:10118A00776E20636F6D6D616E640044454255470A
:10119A0020444154413A20456E746572696E672055
:1011AA0049444C452073746174652E004445425588
:1011BA004720444154413A20456E746572696E670E
:0E11CA00204552524F522073746174652E00FE
:00000001FF
