:1000000015C1000042C1000040C100003EC1000017
:100010003CC100003AC1000038C1000036C10000F8
:1000200034C1000032C1000030C100002EC1000008
:100030002CC100002AC1000028C1000026C1000018
:1000400024C1000022C1000020C100001EC1000028
:100050001CC1000079C5000018C10000CCC400001C
:1000600014C100003BC5000010C500000EC1000017
:100070000CC100000AC1000008C1000006C1000058
:1000800004C1000002C1000000C10000FEC0000069
:10009000FCC00000FAC00000F8C00000F6C000007C
:1000A000F4C00000F2C00000F0C00000EEC000008C
:1000B000ECC00000EAC00000E8C00000E6C000009C
:1000C000E4C00000E2C00000E0C00000DEC00000AC
:1000D000DCC00000DAC00000D8C00000D6C00000BC
:1000E000D4C0000070027302620266026A02AA02B1
:1000F00077027B028102850289028F0293029702B6
:10010000AA029D02A102A5020000220025002800EB
:100110002B002E003100340002010000050108010F
:100120000B0100002100240027002A002D003000D0
:10013000330001010000040107010A010000200052
:100140002300260029002C002F00320000010000AF
:10015000030106010901050505050705080808084A
:10016000020202020A0A080804040404010101014F
:10017000010101010303030303030303040707074A
:100180000C0C0C0C0C0C0C0C0202020206060606EF
:10019000060606060B0B0B0B0B0B0B0B01021020BC
:1001A00020080810204010204080020102010804AD
:1001B0000201010204081020408080402010080441
:1001C000020180040201804020100804020108049A
:1001D00002010102040810204080010204081020DE
:1001E000408000000A0B02090C0D0E0807030401F1
:1001F00000000000000000000000000000000000FF
:1002000000000000000000000000000000001211CB
:1002100010000000000000000000000000000000CE
:100220000000000000000000F205EC0511241FBED4
:10023000CFEFD1E2DEBFCDBF00E00CBF23E0A4E8EA
:10024000B2E001C01D92A339B207E1F712E0A0E0CD
:10025000B2E0EAE5F6E100E00BBF02C007900D92C4
:10026000A438B107D9F711E0C5E1D1E000E005C03D
:1002700021970109802FFE01A9D7C431D10780E061
:100280000807B1F71AD50C941C0BBACECF92DF92A7
:10029000EF92FF920F931F93CF93DF936C017A013C
:1002A0008B01C0E0D0E0CE15DF0589F0D8016D915B
:1002B0008D01D601ED91FC910190F081E02DC601F8
:1002C0001995892B11F47E0102C02196ECCFC7014C
:1002D000DF91CF911F910F91FF90EF90DF90CF9022
:1002E0000895089580E090E00895FC01538D448DB9
:1002F000252F30E0842F90E0821B930B541710F0D1
:10030000CF96089501970895FC01918D828D9817DD
:1003100061F0828DDF01A80FB11D5D968C91928DE9
:100320009F5F9F73928F90E008958FEF9FEF0895E6
:10033000FC01918D828D981731F0828DE80FF11DAF
:10034000858D90E008958FEF9FEF0895FC01918DCA
:10035000228D892F90E0805C9F4F821B91098F73C3
:10036000992708958DE892E0F1DF21E0892B09F4C7
:1003700020E0822F0895FC01848DDF01A80FB11DBC
:10038000A35ABF4F2C91848D90E001968F739927CB
:10039000848FA689B7892C93A089B1898C918064B8
:1003A0008C93938D848D981306C00288F389E02D79
:1003B00080818F7D80830895EF92FF920F931F932A
:1003C000CF93DF93EC0181E0888F9B8D8C8D981308
:1003D00005C0E889F989808185FD23C0F62E0B8D43
:1003E00010E00F5F1F4F0F731127E02E8C8DE81266
:1003F0000BC00FB607FCFACFE889F989808185FF29
:10040000F5CFCE01B8DFF2CF8B8DFE01E80FF11DE5
:10041000E35AFF4FF0820B8FEA89FB89808180626B
:1004200007C0EE89FF896083E889F989808180644B
:10043000808381E090E0DF91CF911F910F91FF9039
:10044000EF900895CF93DF93EC01888D8823C1F05E
:10045000EA89FB89808185FD05C0A889B9898C91CD
:1004600086FD0EC00FB607FCF5CF808185FFF2CF69
:10047000A889B9898C9185FFEDCFCE017CDFE8CFCB
:10048000DF91CF91089590E0FC01EE51FE4F449131
:10049000FC01E456FE4F2491FC01EA5AFE4F949170
:1004A000992309F466C0442309F454C050E0FA01CA
:1004B0003197E231F10508F04DC08827EE58FF4F23
:1004C0008F4F84C6809180008F7707C08091800015
:1004D0008F7D03C080918000877F809380003AC029
:1004E00084B58F7702C084B58F7D84BD33C0809181
:1004F000B0008F7703C08091B0008F7D8093B000F3
:1005000029C0809190008F7707C0809190008F7DE7
:1005100003C080919000877F809390001BC08091E2
:10052000A0008F7707C08091A0008F7D03C08091CD
:10053000A000877F8093A0000DC0809120018F775D
:1005400007C0809120018F7D03C080912001877FAB
:1005500080932001E92FF0E0EE0FFF1FE45CFE4FD7
:10056000A591B491EC912E2381E090E021F480E0FC
:10057000089580E090E00895CF93DF9390E0FC0130
:10058000E456FE4F2491FC01EA5AFE4F84918823E1
:1005900061F190E0880F991FFC01EE5DFE4FC5915F
:1005A000D491FC01E85FFE4FA591B491611109C09F
:1005B0009FB7F8948881209582238883EC912E231D
:1005C0000BC0623061F49FB7F8943881822F809518
:1005D00083238883EC912E2B2C939FBF06C08FB76B
:1005E000F894E8812E2B28838FBFDF91CF91089557
:1005F0000E94FF0A0F931F93CF93DF93EC01888132
:100600009981009729F02A813B812617370780F4CA
:100610008B016F5F7F4F0FD7009761F099838883BD
:100620001B830A832C813D81232B11F4FC01108252
:1006300081E001C080E0DF91CF911F910F9108957B
:10064000CF93DF93EC0188819981009709F05BD605
:10065000198218821D821C821B821A82DF91CF911F
:100660000895EF92FF920F931F93CF93DF93EC01C6
:100670007B018A01BA01BEDF811103C0CE01E0DF38
:1006800006C01D830C83B70188819981CED7CE0126
:10069000DF91CF911F910F91FF90EF900895CF932D
:1006A000DF93EC01FB018617970751F060817181A0
:1006B0006115710521F044815581D3DF01C0C0DF90
:1006C000CE01DF91CF910895BC0180E393E0E7DF95
:1006D00081E0809336030895FC0111821082138219
:1006E0001282158214826115710549F0FB01019097
:1006F0000020E9F73197AF01461B570BB2CF0895A1
:10070000FC0180819181FFC5CF92DF92EF92FF9231
:100710000F931F93CF93DF93CDB7DEB72F970FB60D
:10072000F894DEBF0FBECDBF7C01809181031B8694
:100730001A861D861C861F861E864AE08E010F5F64
:100740001F4FB80190E0BFD4F80101900020E9F7F5
:100750003197AF01401B510BB801CE010A9681DFE2
:100760001A8219821C821B821E821D82BE01665F54
:100770007F4FC80194DFF70124813581C080D1808B
:10078000ED80FE80C114D104B1F12115310589F04D
:10079000E20EF31EB701C8012DDF882361F1298124
:1007A0003A818D819E81B601820F931F3ED7FE82D2
:1007B000ED824D815E8169817A818DE892E066DD0E
:1007C00042E050E064E272E08DE892E05FDDC80153
:1007D00097DFCE010A9694DF2F960FB6F894DEBF0E
:1007E0000FBECDBFDF91CF911F910F91FF90EF9082
:1007F000DF90CF900895C80123DFDBCFEF92FF9207
:100800000F931F93CF93DF9300D000D0CDB7DEB707
:100810008C01FC0184819581892BA1F0E080F1801D
:1008200067E272E0C701F8D6892B89F06AE272E0CC
:10083000C701F2D6892B69F06DE272E0C701ECD6F0
:10084000892B49F082E080938103F12C14C090E061
:1008500003C091E001C092E0E091810384E0E89F51
:10086000F0011124EF57FC4FE90FF11D82818093B5
:100870008103FF24F3941A8219821C821B821E8238
:100880001D82B801CE0101960ADFCE0101963CDF40
:10089000CE01019635DF8F2D26960FB6F894DEBF78
:1008A0000FBECDBFDF91CF911F910F91FF90EF90C1
:1008B0000895FF920F931F93CF93DF9300D000D042
:1008C000CDB7DEB78DE892E041DD892B09F454C045
:1008D0008DE892E019DDF82E89831A8200912E03AB
:1008E00010912F030F5F1F4FB8018AE293E082DE61
:1008F000882391F020912A0330912B0380912E03BD
:1009000090912F03BE016F5F7F4F820F931F8DD693
:1009100010932F0300932E038AE0F812D3CF1A828C
:1009200019821C821B821E821D826AE273E0CE0144
:100930000196B5DECE01019661DF182FCE0101963A
:10094000DFDE111111C01A8219821C821B821E82E5
:100950001D826AE273E0CE010196A1DECE0101960E
:10096000B3DECE010196CCDE40E050E066E272E0FC
:100970008AE293E076DEA6CF26960FB6F894DEBF25
:100980000FBECDBFDF91CF911F910F91FF900895C2
:10099000E9DC811125C080E090E0892B41F080E006
:1009A00090E0892B21F00E94000081111BC080E0A3
:1009B00090E0892B41F080E090E0892B21F00E94AB
:1009C0000000811112C080E090E0892B99F080E056
:1009D00090E0892B79F00E940000811109C00895F0
:1009E00068DFD9CF0E940000E2CF0E940000EBCF69
:1009F0000C94000008951F920F920FB60F921124CD
:100A00002F933F938F939F93AF93BF9380918902CE
:100A100090918A02A0918B02B0918C023091880251
:100A200023E0230F2D3720F40196A11DB11D05C031
:100A300026E8230F0296A11DB11D20938802809302
:100A4000890290938A02A0938B02B0938C028091CA
:100A5000840290918502A0918602B091870201964E
:100A6000A11DB11D8093840290938502A0938602FC
:100A7000B0938702BF91AF919F918F913F912F913A
:100A80000F900FBE0F901F9018951F920F920FB6E8
:100A90000F9211240BB60F922F933F934F935F93B6
:100AA0006F937F938F939F93AF93BF93EF93FF9336
:100AB0008DE892E060DCFF91EF91BF91AF919F9143
:100AC0008F917F916F915F914F913F912F910F90F7
:100AD0000BBE0F900FBE0F901F9018951F920F9294
:100AE0000FB60F9211240BB60F922F938F939F93F3
:100AF000EF93FF93E0919D02F0919E028081E0913F
:100B0000A302F091A40282FD12C090818091A602FE
:100B10008F5F8F732091A702821751F0E091A60298
:100B2000F0E0E357FD4F958F8093A60201C08081CE
:100B3000FF91EF919F918F912F910F900BBE0F908E
:100B40000FBE0F901F9018951F920F920FB60F9225
:100B500011240BB60F922F933F934F935F936F9394
:100B60007F938F939F93AF93BF93CF93DF93EF9335
:100B7000FF9383E088DCEC0182E085DCC80FD91F9D
:100B80008EE081DCC80FD91F8FE07DDCC80FD91F34
:100B900082E179DCC80FD91F83E175DC8C0F9D1FC2
:100BA00021E0181619060CF020E020938203FF9133
:100BB000EF91DF91CF91BF91AF919F918F917F91F5
:100BC0006F915F914F913F912F910F900BBE0F90BE
:100BD0000FBE0F901F9018958AE293E091DD80E39D
:100BE00093E08ECDEDE8F2E01382128288EE93E07E
:100BF000A0E0B0E084839583A683B78386E192E08A
:100C00009183808385EC90E09587848784EC90E0E5
:100C10009787868780EC90E0918B808B81EC90E0C9
:100C2000938B828B82EC90E0958B848B86EC90E0AA
:100C3000978B868B118E128E138E148E8CE0E6E0CD
:100C4000F2E0A3E8B3E001900D928A95E1F71092EB
:100C50008103E7E3F3E08CE292E5AAE9B4E4808360
:100C60009183A283B38384839583A683B78380878C
:100C70009187A287B38784879587A687B787808B5C
:100C8000918BA28BB38B848B958BA68BB78B808F2C
:100C9000918FA28FB38F848F958FA68FB78F80A3EC
:100CA00091A3A2A3B3A366E272E080E393E014DD14
:100CB00066E272E08AE293E00FCDCF93DF9300D03B
:100CC00000D0CDB7DEB7789484B5826084BD84B59A
:100CD000816084BD85B5826085BD85B5816085BD37
:100CE00080916E00816080936E00109281008091EF
:100CF0008100826080938100809181008160809377
:100D00008100809180008160809380008091B1009B
:100D100084608093B1008091B00081608093B000C6
:100D20008091910082608093910080919100816018
:100D300080939100809190008160809390008091D9
:100D4000A10082608093A1008091A10081608093C6
:100D5000A1008091A00081608093A000809121017A
:100D60008260809321018091210181608093210123
:100D70008091200181608093200180917A008460BD
:100D800080937A0080917A00826080937A008091CB
:100D90007A00816080937A0080917A0080688093E5
:100DA0007A001092C100F89414BC15BC16BC89EFEF
:100DB00087BD84B5826084BD85B5836085BD809123
:100DC0006E00826080936E007894E0919D02F091B5
:100DD0009E0282E08083E0919902F0919A02108253
:100DE000E0919B02F0919C0280E180831092A50229
:100DF000E091A102F091A20286E08083E0919F023F
:100E0000F091A002808180618083E0919F02F09147
:100E1000A002808188608083E0919F02F091A0020F
:100E2000808180688083E0919F02F091A0028081A0
:100E30008F7D808361E08DE09FDB60E083E09CDB61
:100E400060E082E099DB60E08EE096DB60E08FE0BE
:100E500093DB60E082E190DB60E083E18DDB60E0CA
:100E600086E18ADB13E08CE2C82E82E5D82E8AE97F
:100E7000E82E84E4F82E80918103823099F008F402
:100E800020C1833009F41DC167E472E0CE010196F0
:100E900023DCCE01019638DCCE01019631DC1092C4
:100EA00081030FC180918003882309F486C060917B
:100EB0003703709138038091390390913A0355D1EB
:100EC00077FD08C0653071050CF475C06C31710593
:100ED00009F471C060913B0370913C0380913D0324
:100EE00090913E0342D1635071096330710508F45B
:100EF00062C060915B0370915C0380915D0390918F
:100F00005E0333D16430710508F455C060E372E0CC
:100F1000CE010196E1DBCE010196F6DBCE01019612
:100F2000EFDB10938103C0923703D0923803E09235
:100F30003903F0923A03C0923B03D0923C03E09213
:100F40003D03F0923E03C0923F03D0924003E092F3
:100F50004103F0924203C0924303D0924403E092D3
:100F60004503F0924603C0924703D0924803E092B3
:100F70004903F0924A03C0924B03D0924C03E09293
:100F80004D03F0924E03C0924F03D0925003E09273
:100F90005103F0925203C0925303D0925403E09253
:100FA0005503F0925603C0925703D0925803E09233
:100FB0005903F0925A0310928003609137037091A5
:100FC00038038091390390913A03CFD077FD08C060
:100FD000653071050CF475C06C31710509F471C090
:100FE00060913B0370913C0380913D0390913E03DF
:100FF000BCD0635071096330710508F462C0609120
:101000005B0370915C0380915D0390915E03ADD0B2
:101010006430710508F455C060E372E0CE010196BA
:101020005BDBCE01019670DBCE01019669DB10938C
:101030008103C0923703D0923803E0923903F092D3
:101040003A03C0923B03D0923C03E0923D03F092FE
:101050003E03C0923F03D0924003E0924103F092DE
:101060004203C0924303D0924403E0924503F092BE
:101070004603C0924703D0924803E0924903F0929E
:101080004A03C0924B03D0924C03E0924D03F0927E
:101090004E03C0924F03D0925003E0925103F0925E
:1010A0005203C0925303D0925403E0925503F0923E
:1010B0005603C0925703D0925803E0925903F0921E
:1010C0005A0366DCD8CEBB27FB015527AA27880F19
:1010D000991FAA1FA41710F0A41B83955051B9F7AC
:1010E000A05DAA3308F0A95DA193009779F7B1112B
:1010F000B1931192CB0100C0DC01FC01672F71910B
:101100007723E1F7329704C07C916D9370836291ED
:10111000AE17BF07C8F3089557FD9058440F551FE9
:1011200059F05F3F71F04795880F97FB991F61F069
:101130009F3F79F087950895121613061406551FE0
:10114000F2CF4695F1DF08C0161617061806991F4C
:10115000F1CF86957105610508940895E894BB2741
:1011600066277727CB0197F9089504D06894B111C9
:10117000F6CF0895D9DF88F09F5790F0B92F9927BF
:10118000B751A0F0D1F0660F771F881F991F1AF092
:10119000BA95C9F712C0B13081F0E0DFB1E008952F
:1011A000DDCF672F782F8827B85F39F0B93FCCF3B0
:1011B000869577956795B395D9F73EF49095809588
:1011C000709561957F4F8F4F9F4F0895EE0FFF1FD2
:1011D000881F8BBF0790F691E02D1994CF93DF9372
:1011E0008230910510F482E090E0E0919103F0915B
:1011F000920320E030E0C0E0D0E0309711F1408170
:10120000518148175907C0F04817590761F4828186
:101210009381209719F09B838A832BC0909392032C
:101220008093910326C02115310519F04217530709
:1012300018F49A01BE01DF01EF010280F381E02D75
:10124000DCCF2115310509F1281B390B243031057C
:1012500090F412968D919C9113976115710521F070
:10126000FB019383828304C0909392038093910344
:10127000FD01329644C0FD01E20FF31F819391936B
:10128000225031092D933C933AC020918F03309125
:101290009003232B41F420910202309103023093FA
:1012A000900320938F0320910002309101022115B9
:1012B000310541F42DB73EB740910402509105022B
:1012C000241B350BE0918F03F0919003E217F30795
:1012D000A0F42E1B3F0B2817390778F0AC014E5FA6
:1012E0005F4F2417350748F04E0F5F1F5093900350
:1012F00040938F038193919302C0E0E0F0E0CF012F
:10130000DF91CF9108950F931F93CF93DF930097B1
:1013100009F48CC0FC013297138212820091910370
:10132000109192030115110581F420813181820F02
:10133000931F20918F03309190032817390779F577
:10134000F0939003E0938F0371C0D80140E050E028
:10135000AE17BF0750F412962D913C911397AD0133
:101360002115310509F1D901F3CF9D01DA0133834C
:10137000228360817181860F971F8217930769F41A
:10138000EC0128813981260F371F2E5F3F4F3183B3
:1013900020838A819B8193838283452B29F4F09358
:1013A0009203E093910342C01396FC93EE9312973D
:1013B000ED01499159919E01240F351FE217F30762
:1013C00071F480819181840F951F029611969C93F0
:1013D0008E938281938113969C938E931297E0E073
:1013E000F0E0D80112968D919C911397009719F017
:1013F000F8018C01F6CF8D919C9198012E5F3F4FA3
:10140000820F931F20918F03309190032817390783
:1014100069F4309729F4109292031092910302C05C
:10142000138212821093900300938F03DF91CF9168
:101430001F910F9108956F927F928F929F92AF921A
:10144000BF92CF92DF92EF92FF920F931F93CF93B1
:10145000DF93EC01009781F4CB01DF91CF911F91D5
:101460000F91FF90EF90DF90CF90BF90AF909F9043
:101470008F907F906F90B2CEFC01E60FF71F9C011A
:1014800022503109E217F30708F4A8C0D9010D91E1
:101490001C91119706171707A8F00530110508F4DD
:1014A0009BC0C80104978617970708F495C002509F
:1014B0001109061B170B019311936D937C93CF01B8
:1014C00022DF8AC05B01A01AB10A4C01800E911E76
:1014D000A0919103B091920340E050E0E12CF12CF7
:1014E000109709F44AC0A815B905D1F56D907C9004
:1014F0001197630182E0C80ED11CCA14DB0480F18D
:10150000A3014A195B096A0182E0C80ED11C129638
:10151000BC9012971396AC91B5E0CB16D10440F075
:10152000B282A38351834083D9016D937C930AC017
:101530000E5F1F4FC301800F911FF90191838083BC
:10154000EB2DFA2FE114F10431F0D7011396FC933F
:10155000EE93129741C0F0939203E09391033CC045
:101560008D919C9111974817590708F4AC017D01A2
:1015700012960D90BC91A02DB3CF80918F039091C6
:10158000900388159905E1F446175707C8F4809130
:10159000000290910102009741F48DB79EB74091EF
:1015A000040250910502841B950BE817F907B0F46B
:1015B000F0939003E0938F03F901718360830CC073
:1015C000CB010CDE7C01009749F0A801BE011BD0C5
:1015D000CE0199DEC70104C0CE0102C080E090E0D8
:1015E000DF91CF911F910F91FF90EF90DF90CF90FF
:1015F000BF90AF909F908F907F906F90089581E003
:1016000090E0F89419C0FB01DC0102C001900D923A
:1016100041505040D8F70895FB01DC018D910190B5
:1016200080190110D9F3990B0895FB01DC01019099
:101630000D920020E1F7089511E0C5E1D1E000E04E
:1016400005C0802FFE01C2DD2196011DC631D107E4
:0A16500080E00807B1F7F894FFCF1F
:10165A000000930380000103030300030303000057
:10166A00000000000000DC01460175012202A6010B
:10167A00840198010D0A005534005536005537008B
:10168A004552524F522E20554E4B4E4F574E2043E5
:10169A004F4D4D414E4400435249544943414C2019
:1016AA004552524F522120554E4B4E4F574E2053C2
:1016BA00544154452E20434F4D4D554E49434154B4
:1016CA00494F4E205245534554205245515549528F
:0416DA004544000083
:00000001FF
