:1000000015C1000042C1000040C100003EC1000017
:100010003CC100003AC1000038C1000036C10000F8
:1000200034C1000032C1000030C100002EC1000008
:100030002CC100002AC1000028C1000026C1000018
:1000400024C1000022C1000020C100001EC1000028
:100050001CC1000069C5000018C10000BCC400003C
:1000600014C100002BC5000000C500000EC1000037
:100070000CC100000AC1000008C1000006C1000058
:1000800004C1000002C1000000C10000FEC0000069
:10009000FCC00000FAC00000F8C00000F6C000007C
:1000A000F4C00000F2C00000F0C00000EEC000008C
:1000B000ECC00000EAC00000E8C00000E6C000009C
:1000C000E4C00000E2C00000E0C00000DEC00000AC
:1000D000DCC00000DAC00000D8C00000D6C00000BC
:1000E000D4C0000070027302620266026A02AA02B1
:1000F00077027B028102850289028F0293029702B6
:10010000AA029D02A102A5020000220025002800EB
:100110002B002E003100340002010000050108010F
:100120000B0100002100240027002A002D003000D0
:10013000330001010000040107010A010000200052
:100140002300260029002C002F00320000010000AF
:10015000030106010901050505050705080808084A
:10016000020202020A0A080804040404010101014F
:10017000010101010303030303030303040707074A
:100180000C0C0C0C0C0C0C0C0202020206060606EF
:10019000060606060B0B0B0B0B0B0B0B01021020BC
:1001A00020080810204010204080020102010804AD
:1001B0000201010204081020408080402010080441
:1001C000020180040201804020100804020108049A
:1001D00002010102040810204080010204081020DE
:1001E000408000000A0B02090C0D0E0807030401F1
:1001F00000000000000000000000000000000000FF
:1002000000000000000000000000000000001211CB
:1002100010000000000000000000000000000000CE
:100220000000000000000000DF05DC0511241FBEF7
:10023000CFEFD1E2DEBFCDBF00E00CBF23E0A6E8E8
:10024000B2E001C01D92AF38B207E1F712E0A0E0C2
:10025000B2E0EAE2F6E100E00BBF02C007900D92C7
:10026000A638B107D9F711E0C5E1D1E000E005C03B
:1002700021970109802FFE0191D7C431D10780E079
:100280000807B1F702D50C94040BBACECF92DF92D7
:10029000EF92FF920F931F93CF93DF936C017A013C
:1002A0008B01C0E0D0E0CE15DF0589F0D8016D915B
:1002B0008D01D601ED91FC910190F081E02DC601F8
:1002C0001995892B11F47E0102C02196ECCFC7014C
:1002D000DF91CF911F910F91FF90EF90DF90CF9022
:1002E0000895089580E090E00895FC01538D448DB9
:1002F000252F30E0842F90E0821B930B541710F0D1
:10030000CF96089501970895FC01918D828D9817DD
:1003100061F0828DDF01A80FB11D5D968C91928DE9
:100320009F5F9F73928F90E008958FEF9FEF0895E6
:10033000FC01918D828D981731F0828DE80FF11DAF
:10034000858D90E008958FEF9FEF0895FC01918DCA
:10035000228D892F90E0805C9F4F821B91098F73C3
:10036000992708958FE892E0F1DF21E0892B09F4C5
:1003700020E0822F0895FC01848DDF01A80FB11DBC
:10038000A35ABF4F2C91848D90E001968F739927CB
:10039000848FA689B7892C93A089B1898C918064B8
:1003A0008C93938D848D981306C00288F389E02D79
:1003B00080818F7D80830895EF92FF920F931F932A
:1003C000CF93DF93EC0181E0888F9B8D8C8D981308
:1003D00005C0E889F989808185FD23C0F62E0B8D43
:1003E00010E00F5F1F4F0F731127E02E8C8DE81266
:1003F0000BC00FB607FCFACFE889F989808185FF29
:10040000F5CFCE01B8DFF2CF8B8DFE01E80FF11DE5
:10041000E35AFF4FF0820B8FEA89FB89808180626B
:1004200007C0EE89FF896083E889F989808180644B
:10043000808381E090E0DF91CF911F910F91FF9039
:10044000EF900895CF93DF93EC01888D8823C1F05E
:10045000EA89FB89808185FD05C0A889B9898C91CD
:1004600086FD0EC00FB607FCF5CF808185FFF2CF69
:10047000A889B9898C9185FFEDCFCE017CDFE8CFCB
:10048000DF91CF91089590E0FC01EE51FE4F449131
:10049000FC01E456FE4F2491FC01EA5AFE4F949170
:1004A000992309F466C0442309F454C050E0FA01CA
:1004B0003197E231F10508F04DC08827EE58FF4F23
:1004C0008F4F6CC6809180008F7707C0809180002D
:1004D0008F7D03C080918000877F809380003AC029
:1004E00084B58F7702C084B58F7D84BD33C0809181
:1004F000B0008F7703C08091B0008F7D8093B000F3
:1005000029C0809190008F7707C0809190008F7DE7
:1005100003C080919000877F809390001BC08091E2
:10052000A0008F7707C08091A0008F7D03C08091CD
:10053000A000877F8093A0000DC0809120018F775D
:1005400007C0809120018F7D03C080912001877FAB
:1005500080932001E92FF0E0EE0FFF1FE45CFE4FD7
:10056000A591B491EC912E2381E090E021F480E0FC
:10057000089580E090E00895CF93DF9390E0FC0130
:10058000E456FE4F2491FC01EA5AFE4F84918823E1
:1005900061F190E0880F991FFC01EE5DFE4FC5915F
:1005A000D491FC01E85FFE4FA591B491611109C09F
:1005B0009FB7F8948881209582238883EC912E231D
:1005C0000BC0623061F49FB7F8943881822F809518
:1005D00083238883EC912E2B2C939FBF06C08FB76B
:1005E000F894E8812E2B28838FBFDF91CF91089557
:1005F000EED70F931F93CF93DF93EC0188819981FE
:10060000009729F02A813B812617370780F48B0158
:100610006F5F7F4FF8D6009761F0998388831B83C3
:100620000A832C813D81232B11F4FC01108281E08F
:1006300001C080E0DF91CF911F910F910895CF937A
:10064000DF93EC0188819981009709F044D61982E3
:1006500018821D821C821B821A82DF91CF9108951D
:10066000EF92FF920F931F93CF93DF93EC017B01E7
:100670008A01BA01BEDF811103C0CE01E0DF06C0EE
:100680001D830C83B70188819981B7D7CE01DF9193
:10069000CF911F910F91FF90EF900895CF93DF932B
:1006A000EC01FB018617970751F06081718161159C
:1006B000710521F044815581D3DF01C0C0DFCE0137
:1006C000DF91CF910895BC018CE293E0E7DF81E0F8
:1006D000809332030895FC011182108213821282EA
:1006E000158214826115710549F0FB01019000200B
:1006F000E9F73197AF01461B570BB2CF0895FC01C4
:1007000080819181E8C5CF92DF92EF92FF920F93A3
:100710001F93CF93DF93CDB7DEB72F970FB6F89423
:10072000DEBF0FBECDBF7C0180917D031B861A8684
:100730001D861C861F861E864AE08E010F5F1F4F96
:10074000B80190E0A8D4F80101900020E9F73197B2
:10075000AF01401B510BB801CE010A9681DF1A820E
:1007600019821C821B821E821D82BE01665F7F4F22
:10077000C80194DFF70124813581C080D180ED80EC
:10078000FE80C114D104B1F12115310589F0E20ECA
:10079000F31EB701C8012DDF882361F129813A8159
:1007A0008D819E81B601820F931F27D7FE82ED8235
:1007B0004D815E8169817A818FE892E067DD42E058
:1007C00050E064E272E08FE892E060DDC80197DFFC
:1007D000CE010A9694DF2F960FB6F894DEBF0FBEB7
:1007E000CDBFDF91CF911F910F91FF90EF90DF90E0
:1007F000CF900895C80123DFDBCF0F931F93CF93D2
:10080000DF9300D000D0CDB7DEB7FC012481358165
:10081000232BA1F00081118167E272E0C801E4D6C8
:10082000892B71F06AE272E0C801DED6892B51F0A3
:100830006DE272E0C801D8D6892B31F010E013C008
:1008400080E003C081E001C082E0E0917D0394E09C
:10085000E99FF0011124E358FC4FE80FF11D82815C
:1008600080937D0311E060E372E0CE01019633DFF7
:10087000CE01019648DFCE01019641DF812F2696F9
:100880000FB6F894DEBF0FBECDBFDF91CF911F91A1
:100890000F910895FF920F931F93CF93DF93CDB7DE
:1008A000DEB72C970FB6F894DEBF0FBECDBF66E261
:1008B00072E0CE0101960FDF8FE892E047DD892BD1
:1008C00009F447C08FE892E01FDDF82E8F83188669
:1008D0000D811E810F5F1F4FB801CE01019689DE89
:1008E000882361F029813A818D819E81BE01695FF3
:1008F0007F4F820F931F81D61E830D838AE0F812EB
:10090000DBCF18861F821A8619861C861B86BE01BD
:100910006F5F7F4FCE010796C1DECE0107966DDF78
:10092000182FCE010796EBDE1111C6CF18861F8255
:100930001A8619861C861B86BE016F5F7F4FCE010B
:100940000796ACDECE010796BEDECE010796D7DE57
:10095000B3CFCE010196D3DE2C960FB6F894DEBF4E
:100960000FBECDBFDF91CF911F910F91FF900895E2
:10097000F9DC811125C080E090E0892B41F080E016
:1009800090E0892B21F00E94000081111BC080E0C3
:1009900090E0892B41F080E090E0892B21F00E94CB
:1009A0000000811112C080E090E0892B99F080E076
:1009B00090E0892B79F00E940000811109C0089510
:1009C00069DFD9CF0E940000E2CF0E940000EBCF88
:1009D0000C94000008951F920F920FB60F921124ED
:1009E0002F933F938F939F93AF93BF9380918B02ED
:1009F00090918C02A0918D02B0918E0230918A026A
:100A000023E0230F2D3720F40196A11DB11D05C051
:100A100026E8230F0296A11DB11D20938A02809320
:100A20008B0290938C02A0938D02B0938E028091E2
:100A3000860290918702A0918802B0918902019666
:100A4000A11DB11D8093860290938702A093880216
:100A5000B0938902BF91AF919F918F913F912F9158
:100A60000F900FBE0F901F9018951F920F920FB608
:100A70000F9211240BB60F922F933F934F935F93D6
:100A80006F937F938F939F93AF93BF93EF93FF9356
:100A90008FE892E070DCFF91EF91BF91AF919F9151
:100AA0008F917F916F915F914F913F912F910F9017
:100AB0000BBE0F900FBE0F901F9018951F920F92B4
:100AC0000FB60F9211240BB60F922F938F939F9313
:100AD000EF93FF93E0919F02F091A0028081E0915B
:100AE000A502F091A60282FD12C090818091A80219
:100AF0008F5F8F732091A902821751F0E091A802B5
:100B0000F0E0E157FD4F958F8093A80201C08081EE
:100B1000FF91EF919F918F912F910F900BBE0F90AE
:100B20000FBE0F901F9018951F920F920FB60F9245
:100B300011240BB60F922F933F934F935F936F93B4
:100B40007F938F939F93AF93BF93CF93DF93EF9355
:100B5000FF9383E098DCEC0182E095DCC80FD91F9D
:100B60008EE091DCC80FD91F8FE08DDCC80FD91F34
:100B700082E189DCC80FD91F83E185DC8C0F9D1FC2
:100B800021E0181619060CF020E020937E03FF9157
:100B9000EF91DF91CF91BF91AF919F918F917F9115
:100BA0006F915F914F913F912F910F900BBE0F90DE
:100BB0000FBE0F901F9018958CE293E0A0CDEFE848
:100BC000F2E01382128288EE93E0A0E0B0E084832A
:100BD0009583A683B78386E192E09183808385EC39
:100BE00090E09587848784EC90E09787868780ECF7
:100BF00090E0918B808B81EC90E0938B828B82ECE8
:100C000090E0958B848B86EC90E0978B868B118E91
:100C1000128E138E148E8CE0E6E0F2E0AFE7B3E0C4
:100C200001900D928A95E1F710927D03E3E3F3E0E2
:100C30008CE292E5AAE9B4E480839183A283B38332
:100C400084839583A683B78380879187A287B387A0
:100C500084879587A687B787808B918BA28BB38B70
:100C6000848B958BA68BB78B808F918FA28FB38F40
:100C7000848F958FA68FB78F80A391A3A2A3B3A3D0
:100C800066E272E08CE293E026CDCF93DF9300D052
:100C900000D0CDB7DEB7789484B5826084BD84B5CA
:100CA000816084BD85B5826085BD85B5816085BD67
:100CB00080916E00816080936E001092810080911F
:100CC00081008260809381008091810081608093A7
:100CD0008100809180008160809380008091B100CC
:100CE00084608093B1008091B00081608093B000F7
:100CF0008091910082608093910080919100816049
:100D00008093910080919000816080939000809109
:100D1000A10082608093A1008091A10081608093F6
:100D2000A1008091A00081608093A00080912101AA
:100D30008260809321018091210181608093210153
:100D40008091200181608093200180917A008460ED
:100D500080937A0080917A00826080937A008091FB
:100D60007A00816080937A0080917A008068809315
:100D70007A001092C100F89414BC15BC16BC89EF1F
:100D800087BD84B5826084BD85B5836085BD809153
:100D90006E00826080936E007894E0919F02F091E3
:100DA000A00282E08083E0919B02F0919C0210827D
:100DB000E0919D02F0919E0280E180831092A70253
:100DC000E091A302F091A40286E08083E091A10269
:100DD000F091A202808180618083E091A102F09174
:100DE000A202808188608083E091A102F091A2023A
:100DF000808180688083E091A102F091A2028081CD
:100E00008F7D808361E08DE0B7DB60E083E0B4DB61
:100E100060E082E0B1DB60E08EE0AEDB60E08FE0BE
:100E2000ABDB60E082E1A8DB60E083E1A5DB60E0B2
:100E300086E1A2DB13E08CE2C82E82E5D82E8AE997
:100E4000E82E84E4F82E80917D03823099F008F436
:100E500020C1833009F41DC16AE472E0CE0101961D
:100E60003ADCCE0101964FDCCE01019648DC1092AF
:100E70007D030FC180917C03882309F486C06091B3
:100E8000330370913403809135039091360355D12B
:100E900077FD08C0653071050CF475C06C317105C3
:100EA00009F471C060913703709138038091390360
:100EB00090913A0342D1635071096330710508F48F
:100EC00062C06091570370915803809159039091CB
:100ED0005A0333D16430710508F455C063E372E0FE
:100EE000CE010196F8DBCE0101960DDCCE01019614
:100EF00006DC10937D03C0923303D0923403E0925A
:100F00003503F0923603C0923703D0923803E09253
:100F10003903F0923A03C0923B03D0923C03E09233
:100F20003D03F0923E03C0923F03D0924003E09213
:100F30004103F0924203C0924303D0924403E092F3
:100F40004503F0924603C0924703D0924803E092D3
:100F50004903F0924A03C0924B03D0924C03E092B3
:100F60004D03F0924E03C0924F03D0925003E09293
:100F70005103F0925203C0925303D0925403E09273
:100F80005503F092560310927C03609133037091E5
:100F900034038091350390913603CFD077FD08C09C
:100FA000653071050CF475C06C31710509F471C0C0
:100FB00060913703709138038091390390913A031F
:100FC000BCD0635071096330710508F462C0609150
:100FD0005703709158038091590390915A03ADD0F3
:100FE0006430710508F455C063E372E0CE010196E8
:100FF00072DBCE01019687DBCE01019680DB109378
:101000007D03C0923303D0923403E0923503F09213
:101010003603C0923703D0923803E0923903F0923E
:101020003A03C0923B03D0923C03E0923D03F0921E
:101030003E03C0923F03D0924003E0924103F092FE
:101040004203C0924303D0924403E0924503F092DE
:101050004603C0924703D0924803E0924903F092BE
:101060004A03C0924B03D0924C03E0924D03F0929E
:101070004E03C0924F03D0925003E0925103F0927E
:101080005203C0925303D0925403E0925503F0925E
:1010900056036EDCD8CEBB27FB015527AA27880F45
:1010A000991FAA1FA41710F0A41B83955051B9F7DC
:1010B000A05DAA3308F0A95DA193009779F7B1115B
:1010C000B1931192CB0100C0DC01FC01672F71913B
:1010D0007723E1F7329704C07C916D93708362911E
:1010E000AE17BF07C8F3089557FD9058440F551F1A
:1010F00059F05F3F71F04795880F97FB991F61F09A
:101100009F3F79F087950895121613061406551F10
:10111000F2CF4695F1DF08C0161617061806991F7C
:10112000F1CF86957105610508940895E894BB2771
:1011300066277727CB0197F9089504D06894B111F9
:10114000F6CF0895D9DF88F09F5790F0B92F9927EF
:10115000B751A0F0D1F0660F771F881F991F1AF0C2
:10116000BA95C9F712C0B13081F0E0DFB1E008955F
:10117000DDCF672F782F8827B85F39F0B93FCCF3E0
:10118000869577956795B395D9F73EF490958095B8
:10119000709561957F4F8F4F9F4F0895EE0FFF1F02
:1011A000881F8BBF0790F691E02D1994CF93DF93A2
:1011B0008230910510F482E090E0E0918D03F0918F
:1011C0008E0320E030E0C0E0D0E0309711F14081A4
:1011D000518148175907C0F04817590761F48281B7
:1011E0009381209719F09B838A832BC090938E0361
:1011F00080938D0326C02115310519F0421753073E
:1012000018F49A01BE01DF01EF010280F381E02DA5
:10121000DCCF2115310509F1281B390B24303105AC
:1012200090F412968D919C9113976115710521F0A0
:10123000FB019383828304C090938E0380938D037C
:10124000FD01329644C0FD01E20FF31F819391939B
:10125000225031092D933C933AC020918B03309159
:101260008C03232B41F4209102023091030230932E
:101270008C0320938B0320910002309101022115F1
:10128000310541F42DB73EB740910402509105025B
:10129000241B350BE0918B03F0918C03E217F307CD
:1012A000A0F42E1B3F0B2817390778F0AC014E5FD6
:1012B0005F4F2417350748F04E0F5F1F50938C0384
:1012C00040938B038193919302C0E0E0F0E0CF0163
:1012D000DF91CF9108950F931F93CF93DF930097E2
:1012E00009F48CC0FC0132971382128200918D03A5
:1012F00010918E030115110581F420813181820F37
:10130000931F20918B0330918C032817390779F5AF
:10131000F0938C03E0938B0371C0D80140E050E060
:10132000AE17BF0750F412962D913C911397AD0163
:101330002115310509F1D901F3CF9D01DA0133837C
:10134000228360817181860F971F8217930769F44A
:10135000EC0128813981260F371F2E5F3F4F3183E3
:1013600020838A819B8193838283452B29F4F09388
:101370008E03E0938D0342C01396FC93EE93129775
:10138000ED01499159919E01240F351FE217F30792
:1013900071F480819181840F951F029611969C9320
:1013A0008E938281938113969C938E931297E0E0A3
:1013B000F0E0D80112968D919C911397009719F047
:1013C000F8018C01F6CF8D919C9198012E5F3F4FD3
:1013D000820F931F20918B0330918C0328173907BC
:1013E00069F4309729F410928E0310928D0302C095
:1013F0001382128210938C0300938B03DF91CF91A1
:101400001F910F9108956F927F928F929F92AF924A
:10141000BF92CF92DF92EF92FF920F931F93CF93E1
:10142000DF93EC01009781F4CB01DF91CF911F9105
:101430000F91FF90EF90DF90CF90BF90AF909F9073
:101440008F907F906F90B2CEFC01E60FF71F9C014A
:1014500022503109E217F30708F4A8C0D9010D9111
:101460001C91119706171707A8F00530110508F40D
:101470009BC0C80104978617970708F495C00250CF
:101480001109061B170B019311936D937C93CF01E8
:1014900022DF8AC05B01A01AB10A4C01800E911EA6
:1014A000A0918D03B0918E0340E050E0E12CF12C2F
:1014B000109709F44AC0A815B905D1F56D907C9034
:1014C0001197630182E0C80ED11CCA14DB0480F1BD
:1014D000A3014A195B096A0182E0C80ED11C129669
:1014E000BC9012971396AC91B5E0CB16D10440F0A6
:1014F000B282A38351834083D9016D937C930AC048
:101500000E5F1F4FC301800F911FF90191838083EC
:10151000EB2DFA2FE114F10431F0D7011396FC936F
:10152000EE93129741C0F0938E03E0938D033CC07D
:101530008D919C9111974817590708F4AC017D01D2
:1015400012960D90BC91A02DB3CF80918B039091FA
:101550008C0388159905E1F446175707C8F4809164
:10156000000290910102009741F48DB79EB740911F
:10157000040250910502841B950BE817F907B0F49B
:10158000F0938C03E0938B03F901718360830CC0AB
:10159000CB010CDE7C01009749F0A801BE011BD0F5
:1015A000CE0199DEC70104C0CE0102C080E090E008
:1015B000DF91CF911F910F91FF90EF90DF90CF902F
:1015C000BF90AF909F908F907F906F90089581E033
:1015D00090E0F89419C0FB01DC0102C001900D926B
:1015E00041505040D8F70895FB01DC018D910190E6
:1015F00080190110D9F3990B0895FB01DC010190CA
:101600000D920020E1F7089511E0C5E1D1E000E07E
:1016100005C0802FFE01C2DD2196011DC631D10714
:0A16200080E00807B1F7F894FFCF4F
:10162A0000008F0380000103030303030303010186
:10163A00010100000000DC01460175012202A60139
:10164A00840198010D0A00553400553600553700BB
:10165A005535004552524F522E20554E4B4E4F573C
:10166A004E20434F4D4D414E440043524954494345
:10167A00414C204552524F522120554E4B4E4F5706
:10168A004E2053544154452E20434F4D4D554E49FB
:10169A00434154494F4E20524553455420524551D7
:0616AA00554952454400C1
:020000023000CC
:10E000000D9489F10D94B2F10D94B2F10D94B2F129
:10E010000D94B2F10D94B2F10D94B2F10D94B2F1F0
:10E020000D94B2F10D94B2F10D94B2F10D94B2F1E0
:10E030000D94B2F10D94B2F10D94B2F10D94B2F1D0
:10E040000D94B2F10D94B2F10D94B2F10D94B2F1C0
:10E050000D94B2F10D94B2F10D94B2F10D94B2F1B0
:10E060000D94B2F10D94B2F10D94B2F10D94B2F1A0
:10E070000D94B2F10D94B2F10D94B2F10D94B2F190
:10E080000D94B2F10D94B2F10D94B2F10D94B2F180
:10E090000D94B2F10D94B2F10D94B2F10D94B2F170
:10E0A0000D94B2F10D94B2F10D94B2F10D94B2F160
:10E0B0000D94B2F10D94B2F10D94B2F10D94B2F150
:10E0C0000D94B2F10D94B2F10D94B2F10D94B2F140
:10E0D0000D94B2F10D94B2F10D94B2F10D94B2F130
:10E0E0000D94B2F141546D656761323536300041AF
:10E0F000726475696E6F206578706C6F72657220DE
:10E1000073746B3530305632206279204D4C530099
:10E11000426F6F746C6F616465723E004875683F52
:10E1200000436F6D70696C6564206F6E203D200048
:10E130004350552054797065202020203D20005FF9
:10E140005F4156525F415243485F5F3D2000415658
:10E1500052204C696243205665723D20004743437C
:10E160002056657273696F6E203D20004350552024
:10E1700049442020202020203D20004C6F7720663D
:10E18000757365202020203D20004869676820665F
:10E190007573652020203D200045787420667573D6
:10E1A00065202020203D20004C6F636B2066757336
:10E1B000652020203D20004D617220203720323024
:10E1C000313300312E362E3800342E332E350056A2
:10E1D00023202020414444522020206F7020636F70
:10E1E00064652020202020696E73747275637469E1
:10E1F0006F6E2061646472202020496E74657272B3
:10E20000757074006E6F20766563746F7200726A49
:10E210006D702020006A6D70200057686174207056
:10E220006F72743A00506F7274206E6F7420737541
:10E2300070706F72746564004D7573742062652030
:10E2400061206C6574746572002000577269747483
:10E25000696E672045450052656164696E672045B7
:10E26000450045452065727220636E743D00504F35
:10E27000525400303D5A65726F2061646472003FF1
:10E280003D43505520737461747300403D454550C3
:10E29000524F4D207465737400423D426C696E6B41
:10E2A000204C454400453D44756D70204545505215
:10E2B0004F4D00463D44756D7020464C415348001B
:10E2C000483D48656C70004C3D4C69737420492F83
:10E2D0004F20506F72747300513D51756974005234
:10E2E0003D44756D702052414D00563D73686F7707
:10E2F00020696E7465727275707420566563746FF0
:10E30000727300593D506F727420626C696E6B00BD
:10E310002A0011241FBECFEFD1E2DEBFCDBF01E046
:10E320000CBF12E0A0E0B2E0EEE1FDEF03E00BBFB6
:10E3300002C007900D92A030B107D9F712E0A0E01B
:10E34000B2E001C01D92AE30B107E1F70F9460F367
:10E350000D948DFE01E20EBF0FEF0DBF11241FBE05
:10E360000D9460F30D9400F020E030E040ED57E0B4
:10E3700005C0FA013197F1F72F5F3F4F2817390792
:10E38000C0F308959C01260F311DC901A0E0B0E043
:10E390002F5F3F4FABBFFC018791882361F08093D3
:10E3A000C6008091C00086FFFCCF8091C0008064D1
:10E3B0008093C000EACF08958DE08093C6008091DD
:10E3C000C00086FFFCCF8091C00080648093C000B5
:10E3D0008AE08093C6008091C00086FFFCCF8091C8
:10E3E000C00080648093C00008950F94C2F10F9420
:10E3F000DCF10895FC019081992359F09093C600B7
:10E400008091C00086FFFCCF8091C0008064809323
:10E41000C0003196992379F70895282F982F929567
:10E420009F70892F805D8A3308F0895F8093C600D2
:10E430008091C00086FFFCCF8091C00080648093F3
:10E44000C000822F8F70982F905D9A3308F0995FEB
:10E450009093C6008091C00086FFFCCF8091C000E1
:10E4600080648093C00008959C01FB01853691056E
:10E470001CF46330710594F0C90164E670E00F94F8
:10E480002EFE605D7F4F6093C6008091C00086FFC6
:10E49000FCCF8091C00080648093C0002B30310598
:10E4A00014F43297B4F0C90164E670E00F942EFEC4
:10E4B0006AE070E00F942EFE605D7F4F6093C600AF
:10E4C0008091C00086FFFCCF8091C0008064809363
:10E4D000C000C9016AE070E00F942EFEC0968093E0
:10E4E000C6008091C00086FFFCCF8091C000806490
:10E4F0008093C00008951F93182F8EE692EE60E07F
:10E500000F94C2F11093C6008091C00086FFFCCF2B
:10E510008091C00080648093C0000F94DCF11F9153
:10E5200008952F923F924F925F926F927F928F92B7
:10E530009F92AF92BF92CF92DF92EF92FF920F9392
:10E540001F93DF93CF93CDB7DEB762970FB6F894E2
:10E55000DEBF0FBECDBF382E622ECA01DB015C01CB
:10E560006D01772420E2222E2E010894411C511CBB
:10E570008BC081E0A81680E0B80681E0C80680E084
:10E58000D80628F0C601AA27BB270F940DF2BB2797
:10E59000AD2D9C2D8B2D0F940DF28A2D0F940DF225
:10E5A0002092C6008091C00086FFFCCF8091C00001
:10E5B00080648093C0009DE29093C6008091C0006B
:10E5C00086FFFCCF8091C00080648093C0002092C1
:10E5D000C6008091C00086FFFCCF8091C00080649F
:10E5E0008093C00019828601750188249924A1E0D6
:10E5F0003A1651F03A1620F0B2E03B1661F409C029
:10E600000BBFF701779007C0C7010F9477FE782EF4
:10E6100002C0F7017080872D0F940DF22092C60082
:10E620008091C00086FFFCCF8091C0008064809301
:10E63000C000872D8052F401EF70F0708F3520F408
:10E64000E40DF51D708204C0E40DF51D8EE280839B
:10E650000894E11CF11C011D111D0894811C911CE2
:10E6600090E18916910409F0C2CF80E190E0A0E02A
:10E67000B0E0A80EB91ECA1EDB1E198AC2010F9493
:10E68000FAF10F94DCF16A94662009F072CF629679
:10E690000FB6F894DEBF0FBECDBFCF91DF911F91B3
:10E6A0000F91FF90EF90DF90CF90BF90AF909F9031
:10E6B0008F907F906F905F904F903F902F90089534
:10E6C0002F923F924F925F926F927F928F929F9282
:10E6D000AF92BF92CF92DF92EF92FF920F931F9370
:10E6E000DF93CF93CDB7DEB7CD53D1400FB6F894BB
:10E6F000DEBF0FBECDBF01E20EBF0FEF0DBF94B75F
:10E70000F894A89514BE80916000886180936000A1
:10E7100010926000789493FF05C0E0910002F091A0
:10E7200001021995279A2F9A8091C00082608093E8
:10E73000C00080E18093C40088E18093C1000000A4
:10E74000EE24FF24870144E0A42EB12CCC24DD2448
:10E7500024C0C5010197F1F70894E11CF11C011DCB
:10E76000111D21E2E2162EE4F20620E0020720E06D
:10E77000120718F031E0C32ED12CC801B70127ECE5
:10E780003BE140E050E00F9441FE611571058105C9
:10E79000910519F485B1805885B98091C00087FD35
:10E7A00003C0C114D104A9F2A6014F5F5F4FC25E3E
:10E7B000DE4F59834883CE51D140C25EDE4F8881FF
:10E7C0009981CE51D140019711F00D9410FEC05D9A
:10E7D000DE4F19821882C053D14060E0C15DDE4F28
:10E7E0001882CF52D14088249924C35DDE4F19820C
:10E7F0001882CD52D140C05EDE4F188219821A8233
:10E800001B82C052D140CE5CDE4F188219821A8220
:10E810001B82C253D140EE24FF2487010BBFF701B6
:10E8200007911691C45CDE4F19830883CC53D14005
:10E830000D940BFEC25EDE4F28813981CE51D1404E
:10E840002130310509F52091C600C25EDE4F1982E4
:10E850001882CE51D14022C02F5F3F4F4F4F5F4FA4
:10E86000213082E138078AE7480780E0580780F0C6
:10E87000C45CDE4FE881F981CC53D140EF5FFF4F9C
:10E8800019F0EE27FF27099420E030E040E050E047
:10E890008091C00087FFE0CF2091C600C35DDE4FAE
:10E8A00048815981CD52D1404F5F5F4FC35DDE4FEC
:10E8B00059834883CD52D140213209F063C64A3092
:10E8C000510508F05FC60894811C911C53E0851621
:10E8D000910409F059C600E010E018C081E280936D
:10E8E000C6008091C00086FFFCCF8091C00080648C
:10E8F0008093C0002F5F3F4F2931310579F70F9486
:10E90000DCF10F5F1F4F0530110519F020E030E0FA
:10E91000E5CF10920A0210920B0210920C02109294
:10E920000D02109206021092070210920802109235
:10E930000902109202021092030210920402109235
:10E9400005028FEE90EE60E00F94F5F180E191EE1C
:10E9500060E00F94C2F18091C00087FFFCCF9091DE
:10E96000C600903608F09F759032B8F09093C600BC
:10E970008091C00086FFFCCF8091C00080648093AE
:10E98000C000A0E2A093C6008091C00086FFFCCF2B
:10E990008091C00080648093C000983409F4D7C18E
:10E9A0009934B8F4923409F459C1933458F490333B
:10E9B00019F1903308F4E3C59F33A1F1903409F0C5
:10E9C000DEC5BDC0953409F470C1963409F0D7C5D1
:10E9D00098C1923509F42BC2933538F49C3409F46C
:10E9E000F5C1913509F0CBC518C2963509F445C279
:10E9F000993509F0C4C567C483E792EE62E00F94CD
:10EA0000F5F110920602109207021092080210927D
:10EA1000090210920A0210920B0210920C0210923C
:10EA20000D0213C18FE792EE62E00F94F5F18FEEC5
:10EA300090EE60E00F94F5F181E291EE60E00F94CA
:10EA4000C2F187EB91EE60E00F94F5F180E391EE77
:10EA500060E00F94C2F184EE90EE60E00F94F5F167
:10EA60008FE391EE60E00F94C2F186E090E061E008
:10EA700070E00F9434F20F94DCF18DE591EE60E0DC
:10EA80000F94C2F189EC91EE60E00F94F5F18EE401
:10EA900091EE60E00F94C2F183EC91EE60E00F9490
:10EAA000F5F18CE691EE60E00F94C2F18EE10F94E7
:10EAB0000DF288E90F940DF281E00F940DF20F949E
:10EAC000DCF18BE791EE60E00F94C2F119E0E0E039
:10EAD000F0E010935700E4918E2F0F940DF20F94F5
:10EAE000DCF18AE891EE60E00F94C2F1E3E0F0E03F
:10EAF00010935700E4918E2F0F940DF20F94DCF1D8
:10EB000089E991EE60E00F94C2F1E2E0F0E0109349
:10EB10005700E4918E2F0F940DF20F94DCF188EAE8
:10EB200091EE60E00F94C2F1E1E0F0E01093570045
:10EB30001491812F0F940DF20F94DCF107CF8BE825
:10EB400092EE62E00F94F5F18BE492EE60E00F94A8
:10EB5000F5F10F94DCF100E010E019C0C8016F2D51
:10EB60000F947FFEFF2031F489E492EE60E00F9471
:10EB7000C2F10BC0F092C6008091C00086FFFCCFAE
:10EB80008091C00080648093C0000F5F1F4FC80158
:10EB900081519F41A0E0B0E0ABBFFC01F790BAE229
:10EBA000FB1621F0E2E000301E07C1F60F94DCF105
:10EBB0000F94DCF187E592EE60E00F94F5F10F948D
:10EBC000DCF1CC24DD2400E010E01EC0C8010F946D
:10EBD00077FEF82E882331F489E492EE60E00F94FA
:10EBE000C2F10BC08093C6008091C00086FFFCCFAD
:10EBF0008091C00080648093C000FE1419F00894D6
:10EC0000C11CD11C0F5F1F4FC80181519F41A0E063
:10EC1000B0E0ABBFFC01E790FAE2EF1621F022E092
:10EC20000030120799F60F94DCF10F94DCF182E6C4
:10EC300092EE60E00F94C2F1C60161E070E00F94C3
:10EC400034F20F94DCF10F94DCF110920202109276
:10EC50000302109204021092050278CE89E992EE26
:10EC600062E00F94F5F1279A2F9A16C02F9880E052
:10EC700090E0E0EDF7E03197F1F7019684369105E9
:10EC8000C1F72F9A80E090E0E0EDF7E03197F1F7DF
:10EC9000019684369105C1F78091C00087FFE6CFC9
:10ECA0008091C00087FFFCCF64C485EA92EE62E0E9
:10ECB0000F94F5F140910202509103026091040219
:10ECC0007091050281E020E10F9491F2809102029F
:10ECD00090910302A0910402B091050280509F4FD1
:10ECE000AF4FBF4F8093020290930302A0930402A0
:10ECF000B093050280509041A040B04008F426CE69
:10ED0000A4CF83EB92EE62E00F94F5F140910602FE
:10ED100050910702609108027091090280E020E1A1
:10ED20000F9491F28091060290910702A09108023F
:10ED3000B091090280509F4FAF4FBF4F80930602A2
:10ED400090930702A0930802B0930902FFCD80ECD4
:10ED500092EE62E00F94F5F183E792EE60E00F949B
:10ED6000F5F18FE792EE60E00F94F5F18BE892EE0B
:10ED700060E00F94F5F189E992EE60E00F94F5F10F
:10ED800085EA92EE60E00F94F5F183EB92EE60E09D
:10ED90000F94F5F180EC92EE60E00F94F5F187ECC2
:10EDA00092EE60E00F94F5F188ED92EE60E00F9442
:10EDB000F5F18FED92EE60E00F94F5F18AEE92EEB0
:10EDC00060E00F94F5F183E093EEBDCD87EC92EE19
:10EDD00062E00F94F5F181E40F947BF282E40F94EA
:10EDE0007BF283E40F947BF284E40F947BF285E45E
:10EDF0000F947BF286E40F947BF287E40F947BF20E
:10EE000088E40F947BF28AE40F947BF28BE40F94F6
:10EE10007BF28CE40F947BF299CD88ED92EE62E068
:10EE20000F94F5F1772473948824992409C48FED05
:10EE300092EE62E00F94F5F140910A0250910B02BC
:10EE400060910C0270910D0282E020E10F9491F22A
:10EE500080910A0290910B02A0910C02B0910D02D8
:10EE600080509F4FAF4FBF4F80930A0290930B0289
:10EE7000A0930C02B0930D0269CD8AEE92EE62E08F
:10EE80000F94F5F184EE90EE60E00F94F5F18FECC5
:10EE900091EE60E00F94F5F1662477244301CC5D98
:10EEA000DE4F19821882C452D140D401C301B695F5
:10EEB000A79597958795CA5DDE4F88839983AA8326
:10EEC000BB83C652D140CC5DDE4FA881B981C4520C
:10EED000D1401196CC5DDE4FB983A883C452D14096
:10EEE000CD0162E070E00F9434F2B0E2B093C6005E
:10EEF0008091C00086FFFCCF8091C0008064809329
:10EF0000C000EDE2E093C6008091C00086FFFCCF18
:10EF10008091C00080648093C000F0E2F093C6004E
:10EF20008091C00086FFFCCF8091C00080648093F8
:10EF3000C000CA5DDE4FE880F9800A811B81C6529D
:10EF4000D140BB27A12F902F8F2D0F940DF2CA5DBA
:10EF5000DE4F8881C652D1400F940DF2B0E2FB2EF5
:10EF6000F092C6008091C00086FFFCCF8091C00067
:10EF700080648093C0000DE30093C6008091C000C0
:10EF800086FFFCCF8091C00080648093C00010E2B7
:10EF90001093C6008091C00086FFFCCF8091C00016
:10EFA00080648093C0008BBEF3012791C65DDE4F65
:10EFB0002883CA52D140A22EBB24CC24DD2408943D
:10EFC000611C711C811C911C8BBEF3018791282E42
:10EFD0003324442455240894611C711C811C911C09
:10EFE0008BBEF3013791C55DDE4F3883CB52D140E4
:10EFF0000894611C711C811C911C8BBEF30147910C
:10F00000C45DDE4F4883CC52D140ADEFEA2EAFEF66
:10F01000FA2EAFEF0A2FAFEF1A2F6E0C7F1C801E57
:10F02000911E142D032DF22CEE24EA0CFB1C0C1D5A
:10F030001D1D0F940DF220E22093C6008091C000A8
:10F0400086FFFCCF8091C00080648093C000C65DC5
:10F05000DE4F8881CA52D1400F940DF230E23093D6
:10F06000C6008091C00086FFFCCF8091C000806404
:10F070008093C000C45DDE4F8881CC52D1400F9494
:10F080000DF240E24093C6008091C00086FFFCCFA5
:10F090008091C00080648093C000C55DDE4F888190
:10F0A000CB52D1400F940DF250E25093C6008091A4
:10F0B000C00086FFFCCF8091C00080648093C000B8
:10F0C0008FEFE8168FEFF80680E0080780E018075A
:10F0D00031F484E092EE60E00F94C2F1DFC0D80119
:10F0E000C7018070907CA070B0708050904CA040A0
:10F0F000B040D1F52FEF3FE340E050E0E222F322B1
:10F1000004231523CA5DDE4FA880B980CA80DB8046
:10F11000C652D140AE0CBF1CC01ED11EAA0CBB1CD7
:10F12000CC1CDD1C8EE092EE60E00F94C2F1BB2798
:10F13000A12F902F8F2D0F940DF28E2D0F940DF285
:10F1400030E23093C6008091C00086FFFCCF8091F2
:10F15000C00080648093C0004EE34093C60080915D
:10F16000C00086FFFCCF87C08EE09EEFA0E0B0E03D
:10F17000E822F9220A231B239CE0E91694E9F90608
:10F1800090E0090790E0190709F088C0C45DDE4FE0
:10F19000A881CC52D140EA2EFF2400E010E0102FCD
:10F1A0000F2DFE2CEE24C55DDE4FB881CB52D14031
:10F1B000EB0EF11C011D111DD601C501817090706F
:10F1C000A070B070DC0199278827E80EF91E0A1F8D
:10F1D0001B1F20EF30E040E050E0A222B322C42207
:10F1E000D52241E1AA0CBB1CCC1CDD1C4A95D1F7F1
:10F1F000EA0CFB1C0C1D1D1D81E090E0A0E0B0E0BE
:10F20000282239224A225B2235E1220C331C441C7D
:10F21000551C3A95D1F7E20CF31C041D151D57013E
:10F220006801AA0CBB1CCC1CDD1C85E192EE60E0E1
:10F230000F94C2F1C801AA27BB270F940DF2BB2778
:10F24000A12F902F8F2D0F940DF28E2D0F940DF274
:10F2500090E29093C6008091C00086FFFCCF809121
:10F26000C00080648093C000AEE3A093C60080918C
:10F27000C00086FFFCCF8091C00080648093C000F6
:10F28000C601AA27BB270F940DF2BB27AD2D9C2DDD
:10F290008B2D0F940DF28A2D0F940DF20F94DCF14B
:10F2A000CC5DDE4FE881F981C452D140F99709F471
:10F2B0004DCBF4E0EF2EF12C012D112D6E0C7F1CA7
:10F2C000801E911EF2CD83E093EE62E00F94F5F183
:10F2D0008AE192EE60E00F94C2F18091C00087FF56
:10F2E000FCCF1091C6001F751093C6008091C0001E
:10F2F00086FFFCCF8091C00080648093C0000F9493
:10F30000DCF1812F81548A3108F036C1163409F4BA
:10F3100095C0173490F4133409F44EC0143430F40B
:10F320001134F1F0123409F01DC130C0143409F465
:10F3300059C0153409F016C16BC01A3409F4C4C0A1
:10F340001B3438F4173409F48FC0183409F00AC19B
:10F35000A1C01B3409F4D2C01C3409F003C1E8C0B9
:10F360008FEF81B90DC082B1809582B980E090E0C5
:10F37000E0EDF7E03197F1F70196883C9105C1F790
:10F380008091C00087FFEFCF12B8EFC08FEF84B934
:10F390000DC085B1809585B980E090E0E0EDF7E0A3
:10F3A0003197F1F70196883C9105C1F78091C00033
:10F3B00087FFEFCF15B8D9C08FEF87B90DC088B1DF
:10F3C000809588B980E090E0E0EDF7E03197F1F7C3
:10F3D0000196883C9105C1F78091C00087FFEFCF6F
:10F3E00018B8C3C08FEF8AB90DC08BB180958BB9A7
:10F3F00080E090E0E0EDF7E03197F1F70196883C8E
:10F400009105C1F78091C00087FFEFCF1BB8ADC059
:10F410008FEF8DB90DC08EB180958EB980E090E0F0
:10F42000E0EDF7E03197F1F70196883C9105C1F7DF
:10F430008091C00087FFEFCF1EB897C08FEF80BBD1
:10F440000DC081B3809581BB80E090E0E0EDF7E0F6
:10F450003197F1F70196883C9105C1F78091C00082
:10F4600087FFEFCF11BA81C08FEF83BB0DC084B38C
:10F47000809584BB80E090E0E0EDF7E03197F1F714
:10F480000196883C9105C1F78091C00087FFEFCFBE
:10F4900014BA6BC08FEF809301010FC080910201FD
:10F4A00080958093020180E090E0E0EDF7E03197F5
:10F4B000F1F70196883C9105C1F78091C00087FF64
:10F4C000EDCF1092020151C08FEF809304010FC065
:10F4D0008091050180958093050180E090E0E0ED4A
:10F4E000F7E03197F1F70196883C9105C1F78091DB
:10F4F000C00087FFEDCF1092050137C08FEF8093DA
:10F5000007010FC08091080180958093080180E079
:10F5100090E0E0EDF7E03197F1F70196883C910536
:10F52000C1F78091C00087FFEDCF109208011DC088
:10F530008FEF80930A010FC080910B01809580931B
:10F540000B0180E090E0E0EDF7E03197F1F70196F4
:10F55000883C9105C1F78091C00087FFEDCF1092E4
:10F560000B0103C085E292EEEEC98091C00087FFD7
:10F57000FCCF8091C600EAC988E392EEE4C98CE131
:10F5800091EEE1C988249924933011F1943028F444
:10F59000913089F09230B8F408C0953061F195301F
:10F5A000F0F0963009F048C043C02B3109F042C951
:10F5B00091E06BE13FC96227C15DDE4F2883CF52E6
:10F5C000D14092E037C9B22FA0E0622793E032C960
:10F5D000822F90E0A82BB92B622794E02BC92E3004
:10F5E00009F039C3622795E0C05DDE4F19821882A9
:10F5F000C053D1401FC9E1E0F0E0EC0FFD1FC05D3A
:10F60000DE4F08811981C053D140E00FF11F2083E4
:10F610000F5F1F4FC05DDE4F19830883C053D14079
:10F6200062270A171B0709F005C9D80196E002C92D
:10F63000261709F010C303C0973009F0FBC87724E0
:10F640009981933109F412C19431C8F4963009F4C8
:10F65000D8C0973050F4923009F406C1933009F4C1
:10F660006DC0913009F059C253C0913109F477C08F
:10F67000923108F0BBC0903109F04FC2F5C098310B
:10F6800009F487C0993150F4953109F4EFC09531F0
:10F6900008F4C6C1963109F040C2C2C19A3109F4DA
:10F6A0006CC09A3108F491C09B3109F45BC09D3164
:10F6B00009F033C29D81903359F48F81882311F46E
:10F6C0009EE11CC0813011F091E018C098E916C08D
:10F6D000892F807591F0903539F4E0E0F0E089E011
:10F6E0008093570094910AC0983539F4E3E0F0E034
:10F6F00089E080935700949101C090E01A821B82A8
:10F700008D818C831D829E831F8227E030E009C299
:10F710001A8288E08B8381E48C8386E58D8382E581
:10F720008E8389E48F8383E5888780E589878FE5E9
:10F730008A8782E38B872BE030E0F3C18A818139AD
:10F7400041F0823941F0803911F48FE005C080E04A
:10F7500003C082E001C08AE01A828B8344C0772410
:10F76000739482C08D81882311F48EE12CC0813086
:10F7700011F081E028C088E926C01A82E1E0F0E0BB
:10F7800089E08093570084918B831C8224E030E0D1
:10F79000C8C18B81803589F48C81883039F4E2E0EE
:10F7A000F0E089E08093570084910DC0E0E0F0E044
:10F7B00089E080935700849106C0E3E0F0E089E09F
:10F7C0008093570084911A82DFCF8D81836C99E0FA
:10F7D000E1E0F0E0082E90935700E89507B600FCB2
:10F7E000FDCF1A821B8223E030E09BC180EC8A832C
:10F7F000CE5CDE4F188219821A821B82C253D1401E
:10F800008EC18A8190E0A0E0B0E0582F44273327D2
:10F8100022278B8190E0A0E0B0E0DC0199278827C7
:10F82000282B392B4A2B5B2B8D8190E0A0E0B0E098
:10F83000282B392B4A2B5B2B8C8190E0A0E0B0E089
:10F84000BA2FA92F982F8827282B392B4A2B5B2BCF
:10F85000220F331F441F551FC05EDE4F288339839C
:10F860004A835B83C052D1401A8259C13A81C95C34
:10F87000DE4F3883C753D140CA5CDE4F1882C6536F
:10F88000D1408B81C82EDD24CA5CDE4F488159816E
:10F89000C653D140C42AD52A933109F082C0CE5C28
:10F8A000DE4F88819981AA81BB81C253D1408050AB
:10F8B000904CA340B04030F583E0CE5CDE4FE88052
:10F8C000F9800A811B81C253D140F70100935B008C
:10F8D00080935700E89507B600FCFDCFCE5CDE4F65
:10F8E000088119812A813B81C253D14000501F4FAA
:10F8F0002F4F3F4FCE5CDE4F088319832A833B8313
:10F90000C253D140C05EDE4F488159816A817B81FC
:10F91000C052D140DE011B9631E08C9111962C91A2
:10F9200011971296C75CDE4F2883C953D140C85C3B
:10F93000DE4F1882C853D14090E0C85CDE4FE881AA
:10F94000F981C853D1408E2B9F2B0C01FA01609393
:10F950005B0030935700E89511244E5F5F4F6F4F67
:10F960007F4F0EEFE02E0FEFF02ECE0CDF1CC114F8
:10F97000D10499F685E0C05EDE4F088119812A81A5
:10F980003B81C052D140F80120935B008093570027
:10F99000E89507B600FCFDCF81E180935700E8951C
:10F9A00035C0C05EDE4F88819981AA81BB81C0527B
:10F9B000D140B695A795979587957C018601ABE0D8
:10F9C000AA2EB12CAC0EBD1E0BC0D5016D915D01F0
:10F9D000C7010F947FFE0894E11CF11C01501040F8
:10F9E0000115110591F7A60160E070E0440F551F65
:10F9F000661F771FC05EDE4FE880F9800A811B8199
:10FA0000C052D1404E0D5F1D601F711F1A82C05E33
:10FA1000DE4F488359836A837B83C052D1407FC0C5
:10FA2000FA80C55CDE4FF882CB53D140C65CDE4F16
:10FA30001882CA53D1408B81C82EDD24C65CDE4FAC
:10FA400008811981CA53D140C02AD12A1A828981DA
:10FA5000BE016D5F7F4F843121F59601C05EDE4FA0
:10FA6000E880F9800A811B81C052D1400BBFF701A9
:10FA700087919691DB018C9311969C936E5F7F4FDB
:10FA8000D801C7010296A11DB11DC05EDE4F88835B
:10FA90009983AA83BB83C052D14022503040F1F6F3
:10FAA00036C0C05EDE4F288139814A815B81C052F9
:10FAB000D1400894C108D108760100E010E0089414
:10FAC000C11CD11C0894E11CF11C011D111DE20E8A
:10FAD000F31E041F151F21BDBB27A52F942F832FB5
:10FAE00082BD2F5F3F4F4F4F5F4FF89A80B5DB01CC
:10FAF0008D93BD012E153F054007510761F7C05E8C
:10FB0000DE4F288339834A835B83C052D1409601FC
:10FB10002D5F3F4FFB01108204C080EC8A8322E0FE
:10FB200030E08BE18093C6008091C00086FFFCCF5F
:10FB30008091C00080648093C000C15DDE4FF88179
:10FB4000CF52D140F093C6008091C00086FFFCCF19
:10FB50008091C00080648093C000432F3093C60022
:10FB60008091C00086FFFCCF8091C00080648093AC
:10FB7000C000922F2093C6008091C00086FFFCCF6A
:10FB80008091C00080648093C0008EE08093C600A6
:10FB90008091C00086FFFCCF8091C000806480937C
:10FBA000C00065E1C15DDE4FE880CF52D1406E25D7
:10FBB00069276427FE01319610C090819093C6009A
:10FBC0008091C00086FFFCCF31968091C000806498
:10FBD0008093C0006927215030402115310569F715
:10FBE0006093C6008091C00086FFFCCF8091C0006A
:10FBF00080648093C00085B1805885B9772081F4F6
:10FC0000C15DDE4F0881CF52D1400F5FC15DDE4F35
:10FC10000883CF52D14090E0A0E0B0E00D941AF4F8
:10FC200027982F9880E090E020ED37E0F901319798
:10FC3000F1F7019684369105C9F700008091C00064
:10FC40008D7F8093C00081E180935700E895EE2777
:10FC5000FF270994FFCF90E00D941AF497FB092E2B
:10FC600007260AD077FD04D02ED006D000201AF443
:10FC7000709561957F4F0895F6F7909581959F4F08
:10FC80000895A1E21A2EAA1BBB1BFD010DC0AA1FDD
:10FC9000BB1FEE1FFF1FA217B307E407F50720F0F5
:10FCA000A21BB30BE40BF50B661F771F881F991F70
:10FCB0001A9469F760957095809590959B01AC01B9
:10FCC000BD01CF010895AA1BBB1B51E107C0AA1FAC
:10FCD000BB1FA617B70710F0A61BB70B881F991FED
:10FCE0005A95A9F780959095BC01CD010895F99991
:10FCF000FECF92BD81BDF89A992780B50895262F31
:10FD0000F999FECF1FBA92BD81BD20BD0FB6F89400
:0EFD1000FA9AF99A0FBE01960895F894FFCF63
:040000033000E000E9
:00000001FF