:100000004FC100007EC100007CC100007AC1000029
:1000100078C1000076C1000074C1000072C1000008
:1000200070C100006EC100006CC100006AC1000018
:1000300068C1000066C1000064C1000062C1000028
:1000400060C1000010C500005CC100005AC1000082
:10005000BAC60000A4C5000054C100000C947F097A
:1000600050C1000013C30000E8C200004AC10000F4
:1000700048C1000046C1000044C1000042C1000068
:10008000C5C400003EC100003CC100003AC10000F0
:1000900038C1000036C1000034C1000032C1000088
:1000A00030C100002EC1000084C400002AC100003D
:1000B00028C1000026C1000024C100004DC400007A
:1000C00020C100001EC100001CC100001AC10000B8
:1000D00018C1000016C1000014C1000012C10000C8
:1000E00010C10000F014061536154E15661596154C
:1000F000A6166F027202610265026B02A902760205
:100100007A028002840288028E0292029602A9027A
:100110009C02A002A402B40B100BF10B620B760B35
:10012000F10BF10B8B0BF10BF10BDD0BF10BF10B69
:100130009F0BF10BC80BF10BF10B240B390B4D0B83
:100140004E414E494E495459494E46CDCCCC3D0ABC
:10015000D7233C17B7D13877CC2B329595E6241F9F
:10016000B14F0A000020410000C84200401C462058
:10017000BCBE4CCA1B0E5AAEC59D740000210024A3
:100180000027002A002D0030003300010100000488
:100190000107010A0100002200250028002B002E83
:1001A000003100340002010000050108010B0100CC
:1001B0000020002300260029002C002F0032000020
:1001C00001000003010601090105050505070508F1
:1001D000080808020202020A0A08080404040401CA
:1001E00001010101010101030303030303030304EC
:1001F0000707070C0C0C0C0C0C0C0C02020202067C
:10020000060606060606060B0B0B0B0B0B0B0B016B
:100210000210202008081020401020408002010217
:1002200001080402010102040810204080804020DF
:10023000100804020180040201804020100804021A
:100240000108040201010204081020408001020498
:10025000081020408000000A0B02090C0D0E080750
:100260000304010000000000000000000000000086
:10027000000000000000000000000000000000007E
:10028000001211100000000000000000000000003B
:1002900000000000000000000000000023171B17F2
:1002A00011241FBECFEFD1E2DEBFCDBF00E00CBFF7
:1002B00012E0A0E0B2E0EEEBFBE300E00BBF02C017
:1002C00007900D92A036B107D9F724E0A0E6B2E07E
:1002D00001C01D92A63AB207E1F711E0CFE4D1E0E8
:1002E00000E006C021970109802FFE010E94981BA3
:1002F000CE34D10780E00807A9F70E94E00C0C94E7
:10030000CE1D7ECE089580E090E00895FC01538DCF
:10031000448D252F30E0842F90E0821B930B5417DF
:1003200010F0CF96089501970895FC01918D828D6C
:10033000981761F0828DDF01A80FB11D5D968C9139
:10034000928D9F5F9F73928F90E008958FEF9FEF44
:100350000895FC01918D828D981731F0828DE80F00
:10036000F11D858D90E008958FEF9FEF0895FC01BA
:10037000918D228D892F90E0805C9F4F821B910987
:100380008F739927089586E692E0F1DF21E0892BAB
:1003900009F420E0822F0895FC01848DDF01A80F6D
:1003A000B11DA35ABF4F2C91848D90E001968F739D
:1003B0009927848FA689B7892C93A089B1898C91BC
:1003C00080648C93938D848D981306C00288F38982
:1003D000E02D80818F7D80830895EF92FF920F93AF
:1003E0001F93CF93DF93EC0181E0888F9B8D8C8DE1
:1003F000981305C0E889F989808185FD23C0F62E10
:100400000B8D10E00F5F1F4F0F731127E02E8C8DA7
:10041000E8120BC00FB607FCFACFE889F989808192
:1004200085FFF5CFCE01B8DFF2CF8B8DFE01E80F4F
:10043000F11DE35AFF4FF0820B8FEA89FB8980811F
:10044000806207C0EE89FF896083E889F98980812D
:100450008064808381E090E0DF91CF911F910F91C4
:10046000FF90EF900895CF93DF93EC01888D882360
:10047000C1F0EA89FB89808185FD05C0A889B98919
:100480008C9186FD0EC00FB607FCF5CF808185FFED
:10049000F2CFA889B9898C9185FFEDCFCE017CDFA1
:1004A000E8CFDF91CF91089590E0FC013197E231E0
:1004B000F10508F04EC08827E758FF4F8F4F0C9486
:1004C000981B809180008F7703C0809180008F7D82
:1004D00080938000089580918000877FF9CF84B554
:1004E0008F7702C084B58F7D84BD08958091B00060
:1004F0008F7703C08091B0008F7D8093B000089506
:10050000809190008F7707C0809190008F7D03C00D
:1005100080919000877F8093900008958091A00043
:100520008F7707C08091A0008F7D03C08091A000CD
:10053000877F8093A0000895809120018F7707C066
:10054000809120018F7D03C080912001877F80935F
:1005500020010895CF93DF93282F30E0F901EB5A63
:10056000FD4F8491F901E15FFD4FD491F901E7530B
:10057000FE4FC491CC2389F0811196DFEC2FF0E07F
:10058000EE0FFF1FE155FE4FA591B491EC91ED23C5
:1005900081E090E021F480E002C080E090E0DF9113
:1005A000CF910895CF93C1E086E692E0E0DE892BFB
:1005B00079F086E692E0B9DE8A3019F4C0936002E1
:1005C000F3CF81328CF3682F84E993E02ED7ECCF00
:1005D000CF910895D8DE811125C080E090E0892B6D
:1005E00041F080E090E0892B21F00E940000811111
:1005F0001BC080E090E0892B41F080E090E0892BE7
:1006000021F00E940000811112C080E090E0892B4F
:1006100099F080E090E0892B79F00E940000811130
:1006200009C00895BFDFD9CF0E940000E2CF0E9429
:100630000000EBCF0C94000008951F920F920FB6AC
:100640000F9211240BB60F922F933F934F935F930A
:100650006F937F938F939F93AF93BF93EF93FF938A
:1006600086E692E099DEFF91EF91BF91AF919F9165
:100670008F917F916F915F914F913F912F910F904B
:100680000BBE0F900FBE0F901F9018951F920F92E8
:100690000FB60F9211240BB60F922F938F939F9347
:1006A000EF93FF93E0917602F09177028081E091E1
:1006B0007C02F0917D0282FD12C0908180917F02C8
:1006C0008F5F8F7320918002821751F0E0917F023B
:1006D000F0E0EA59FD4F958F80937F0201C0808141
:1006E000FF91EF919F918F912F910F900BBE0F90E3
:1006F0000FBE0F901F9018951F93CF93DF93282F55
:1007000030E0F901EB5AFD4F8491F901E15FFD4FB3
:10071000D491F901E753FE4FC491CC23C1F0162FB9
:100720008111C2DEEC2FF0E0EE0FFF1FEB56FE4F03
:10073000A591B4918FB7F894111105C09C91ED2F3C
:10074000E095E92302C0EC91ED2BEC938FBFDF9194
:10075000CF911F910895CF92DF92EF92FF920F9366
:100760001F93CF93DF936C018B017A01EC01CE597B
:10077000DD4F888187FF04C0FB011182108224C0F5
:100780008CE08C9D90018D9D300D11248881A901F4
:10079000480F511D87FD5A958091930390E04817AB
:1007A000590794F48881A901480F511D87FD5A9576
:1007B000CA01FA01EE0FFF1F8E0F9F1FFC01ED5FB4
:1007C000FC4F808186FD19C088818F5F88838CE013
:1007D0008C9D90018D9D300D11248881A901480FB9
:1007E000511D87FD5A958091930390E04817590752
:1007F000B4F488818C303CF112C08881280F311DFF
:1008000087FD3A95F901EE0FFF1F2E0F3F1FF901EB
:10081000ED5FFC4F808160E08F736EDFD5CFF80114
:1008200080819181049680349C4918F480E49CE98D
:1008300004C0F801808191810496F701918380833F
:100840008FEF888344C0F801408151818881B901CC
:10085000680F711D87FD7A95CB01FB01EE0FFF1F1D
:100860008E0F9F1FFC01ED5FFC4F81819281840FF1
:10087000951FF701918380838881A901480F511D3D
:1008800087FD5A95CA01FA01EE0FFF1F8E0F9F1FB9
:10089000FC01ED5FFC4F808186FF19C08881280F25
:1008A000311D87FD3A95F901EE0FFF1F2E0F3F1FF7
:1008B000F901ED5FFC4F808161E08F73DF91CF9193
:1008C0001F910F91FF90EF90DF90CF9015CFDF91A8
:1008D000CF911F910F91FF90EF90DF90CF900895EF
:1008E000CF93DF9390E0FC01E15FFD4F2491FC0189
:1008F000E753FE4F8491882361F190E0880F991FA0
:10090000FC01E558FE4FC591D491FC01EB56FE4F1A
:10091000A591B491611109C09FB7F8948881209581
:1009200082238883EC912E230BC0623061F49FB741
:10093000F8943881822F809583238883EC912E2B25
:100940002C939FBF06C08FB7F894E8812E2B288385
:100950008FBFDF91CF9108951F920F920FB60F9224
:1009600011240BB60F922F933F934F935F936F9386
:100970007F938F939F93AF93BF93EF93FF9348E23F
:1009800051E064E271E080E090E0E5DEFF91EF91FC
:10099000BF91AF919F918F917F916F915F914F9197
:1009A0003F912F910F900BBE0F900FBE0F901F9095
:1009B00018951F920F920FB60F9211240BB60F923B
:1009C0002F933F934F935F936F937F938F939F9357
:1009D000AF93BF93EF93FF9348EA50E064EA70E06F
:1009E00083E090E0B8DEFF91EF91BF91AF919F91CE
:1009F0008F917F916F915F914F913F912F910F90C8
:100A00000BBE0F900FBE0F901F9018951F920F9264
:100A10000FB60F9211240BB60F922F933F934F9363
:100A20005F936F937F938F939F93AF93BF93EF9356
:100A3000FF9348E950E064E970E082E090E08BDEEB
:100A4000FF91EF91BF91AF919F918F917F916F91A6
:100A50005F914F913F912F910F900BBE0F900FBE62
:100A60000F901F9018951F920F920FB60F9211249E
:100A70000BB60F922F933F934F935F936F937F9398
:100A80008F939F93AF93BF93EF93FF9348E850E00A
:100A900064E870E081E090E05EDEFF91EF91BF914D
:100AA000AF919F918F917F916F915F914F913F9106
:100AB0002F910F900BBE0F900FBE0F901F901895A7
:100AC000CF93DF93FC012381211111C0EC01161695
:100AD000170614F461E001C060E088810DDE61E07A
:100AE00089810ADE60E08981DF91CF9105CEDF91B7
:100AF000CF910895CF93DF93EC01862F68834983CC
:100B00002A8361E0EDDE61E08981EADE61E08A81CD
:100B1000E7DE61E08A81F0DD81E08B83DF91CF91B8
:100B20000895FC0188E29BE6AEE6BEE480839183F3
:100B3000A283B38384839583A683B78380879187B9
:100B4000A287B38784879587A687B787808B918B89
:100B5000A28BB38B848B958BA68BB78B808F918F59
:100B6000A28FB38F848F958FA68FB78F80A391A309
:100B7000A2A3B3A384A395A3A6A3B7A3DF019C96C6
:100B8000E458FF4F48E25BE66EE67EE4AE17BF072F
:100B900029F04D935D936D937D93F8CF08951F9247
:100BA0000F920FB60F9211240BB60F922F933F9313
:100BB0004F935F936F937F938F939F93AF93BF9365
:100BC000EF93FF93CF93DF93CDB7DEB76397DEBF8D
:100BD000CDBF83E0BFDC21E0892B09F420E029832D
:100BE00082E0B8DC21E0892B09F420E02A838EE042
:100BF000B1DC21E0892B09F420E02B838FE0AADC13
:100C000021E0892B09F420E02C8382E1A3DC21E0A0
:100C1000892B09F420E02D8383E19CDC21E0892BE2
:100C200009F420E02E8387E195DC21E0892B09F48B
:100C300020E02F8389E18EDC21E0892B09F420E07C
:100C4000288785E287DC21E0892B09F420E02987C9
:100C500083E280DC21E0892B09F420E02A8781E20D
:100C600079DC21E0892B09F420E02B878FE172DC0D
:100C700021E0892B09F420E02C878DE26BDC21E058
:100C8000892B09F420E02D878BE264DC21E0892B9D
:100C900009F420E02E8789E25DDC21E0892B09F44C
:100CA00020E02F8787E256DC21E0892B09F420E041
:100CB000288B8BE14FDC21E0892B09F420E0298B84
:100CC0008DE148DC21E0892B09F420E02A8B80E2C9
:100CD00041DC21E0892B09F020E02B8BFE013196CD
:100CE000ABE5B4E0CE01449621912D93E817F907C6
:100CF000D9F780914A048823C1F120915B04809147
:100D00005C0490E0820F911D892B39F081E0809383
:100D1000910461E080919004EFDC20915D0480916A
:100D20005E0490E0820F911D892B39F081E0809361
:100D3000890461E080918804DFDC20915F04809168
:100D4000600490E0820F911D20916C04820F911D30
:100D500020916D04820F911D892B39F081E08093E1
:100D6000810461E080918004C7DC8091450490910A
:100D70004604A0914704B09148040196A11DB11DFD
:100D80008093450490934604A0934704B09348048D
:100D900063960FB6F894DEBF0FBECDBFDF91CF9143
:100DA000FF91EF91BF91AF919F918F917F916F9143
:100DB0005F914F913F912F910F900BBE0F900FBEFF
:100DC0000F901F9018951F920F920FB60F9211243B
:100DD0008F9380914904823019F481E080936102FD
:100DE0008F910F900FBE0F901F9018950F931F9328
:100DF000CF93DF93CDB7DEB72F970FB6F894DEBF52
:100E00000FBECDBF8C01809149041B861A861D86BA
:100E10001C861F861E864AE0BE016F5F7F4F90E0F2
:100E20000E940E18BE016F5F7F4FCE010A9641D31C
:100E3000BE01665F7F4FCE01019695D3F8014481D4
:100E4000558160817181CE010196C2D2811103C0AA
:100E5000CE010196FDD24D815E8169817A8186E65F
:100E600092E0EED142E050E06AE272E086E692E083
:100E7000E7D1CE01019647D3CE010A9644D32F96EF
:100E80000FB6F894DEBF0FBECDBFDF91CF911F919B
:100E90000F910895CF93DF9300D000D0CDB7DEB788
:100EA0006DE472E0CE01019666D3CE0101969EDF1D
:100EB000CE01019628D326960FB6F894DEBF0FBE5A
:100EC000CDBFDF91CF9108950F931F93CF93DF9301
:100ED00000D000D0CDB7DEB78C0160E572E059D20A
:100EE000811114C063E572E0C80153D2811110C0B2
:100EF00066E572E0C8014DD281110CC06DE472E06C
:100F0000C80147D2882321F1E3E005C0E0E003C037
:100F1000E1E001C0E2E08091490494E0E99FF00142
:100F20001124E75BFB4FE80FF11D82818093490498
:100F3000833061F469E572E0CE0101961CD3CE01E5
:100F4000019654DFCE010196DED201C0A3DF81E01D
:100F500026960FB6F894DEBF0FBECDBFDF91CF91BE
:100F60001F910F910895BC018DE993E0B7D281E004
:100F70008093A30308950F931F93CF93DF9300D023
:100F800000D0CDB7DEB78C01093E83E0180738F0FA
:100F9000003D87E0180728F000ED17E002C008EEDA
:100FA00013E04AE0B801CE010196B2D2CE0101961B
:100FB0001DDFCE010196A7D290919A03903398F548
:100FC00080919B0328E830E0281B310987FD339589
:100FD000220F331F220F331F021713078CF080914B
:100FE0009C0348E552E0481B510987FD5395440F87
:100FF000551F440F551F9801401751070CF49A01D3
:1010000022503109220F331F4FB7F894892F90E0F7
:10101000FC01EE0FFF1F8E0F9F1FFC01ED5FFC4FC9
:10102000328321834FBF26960FB6F894DEBF0FBEE2
:10103000CDBFDF91CF911F910F910895CF93DF9393
:1010400000D000D0CDB7DEB7BC01CE0101968BD267
:10105000CE010196CBDECE01019655D283E080937E
:10106000490426960FB6F894DEBF0FBECDBFDF91C0
:10107000CF910895CF93C82FEEE8F4E08383682FD3
:1010800082813ADBE6E8F4E0C3836C2F828134DBB3
:10109000EEE7F4E0C3836C2F8281CF912DCB84EAFD
:1010A00093E03FDD81E080934904F4DE81E0E2CF0C
:1010B0004F925F926F927F928F929F92AF92BF9268
:1010C000CF92DF92EF92FF92CF93DF93C0914104D2
:1010D000D0914204BE0180E090E00E94C1194B0112
:1010E0005C014090D0035090D1036090D203709087
:1010F000D303A30192010E94F21A6B017C0120E04C
:1011000030E0A9010E94881B18165CF420E030E052
:1011100048EC52E4C701B6010E94881B18165CF027
:101120001FC020E030E048EC52ECC701B6010E943D
:10113000BD1987FF15C020E030E048EC52E4C30140
:10114000B2010E94F31A6093D0037093D10380938D
:10115000D2039093D3030E945C1BCB010CDF0BC026
:101160008092D0039092D103A092D203B092D30385
:10117000CE0101DF94DF10924504109246041092D4
:10118000470410924804DF91CF91FF90EF90DF90D9
:10119000CF90BF90AF909F908F907F906F905F9017
:1011A0004F900895CF93DF9300D000D0CDB7DEB736
:1011B000109245041092460410924704109248047D
:1011C00060914104709142044AE0CE010196A0D1A1
:1011D000CE0101960BDECE01019695D180E090E024
:1011E000AAE7B4E48093D0039093D103A093D203F1
:1011F000B093D30381E08093200426960FB6F89431
:10120000DEBF0FBECDBFDF91CF9108956CE272E0DB
:10121000C0D091E0811190E0892F0895FC012481D4
:1012200035816217730720F480819181009729F43A
:101230001092960486E994E00895860F971F08950A
:10124000CF92DF92EF92FF920F931F93CF93DF9392
:101250006C017A018B01C0E0D0E0CE15DF0589F08A
:10126000D8016D918D01D601ED91FC910190F08135
:10127000E02DC6011995892B11F47E0102C021963B
:10128000ECCFC701DF91CF911F910F91FF90EF90AD
:10129000DF90CF9008950E94B11DFC018081918163
:1012A000009711F00C94F71760E070E0CB010895FF
:1012B0000F931F93CF93DF93EC018881998100975F
:1012C00029F02A813B812617370788F48B016F5F4D
:1012D0007F4F0E94CD1C009761F0998388831B8308
:1012E0000A832C813D81232B11F4FC01108281E0C3
:1012F00001C080E0DF91CF911F910F9108951F925F
:101300000F920FB60F9211242F933F938F939F93B9
:10131000AF93BF9380919C0490919D04A0919E04F3
:10132000B0919F0430919B0423E0230F2D3720F4CC
:101330000196A11DB11D05C026E8230F0296A11D2F
:10134000B11D20939B0480939C0490939D04A093D3
:101350009E04B0939F048091970490919804A0916B
:101360009904B0919A040196A11DB11D8093970430
:1013700090939804A0939904B0939A04BF91AF916D
:101380009F918F913F912F910F900FBE0F901F90C3
:101390001895FC0124813581232B31F421E061155E
:1013A0007105A1F0FB0108C0FC01808191816115EC
:1013B000710531F421E0FC018081882339F005C0FA
:1013C0000E94BE1D21E0892B09F020E0822F0895A4
:1013D000EF92FF920F931F93CF93DF93FC01248131
:1013E00035816115710511F480E018C04115510572
:1013F000A1F07B01EC018A01020F131FB80158DF35
:10140000882391F3288139818C819D81B701820FD6
:10141000931F0E94C71D1D830C8381E0DF91CF9134
:101420001F910F91FF90EF900895CF93DF931F923C
:101430001F92CDB7DEB769831A8241E050E0BE014A
:101440006F5F7F4FC5DF0F900F90DF91CF910895B1
:10145000CF93DF93EC0188819981009711F00E946E
:10146000351C198218821D821C821B821A82DF9110
:10147000CF910895EF92FF920F931F93CF93DF9335
:10148000EC017B018A01BA0113DF811103C0CE0197
:10149000DFDF07C01D830C83B701888199810E941B
:1014A000C71DCE01DF91CF911F910F91FF90EF905B
:1014B0000895CF93DF93EC016115710551F0FB01A5
:1014C00001900020E9F73197AF01461B570BD2DF9F
:1014D00001C0BEDFCE01DF91CF910895CF93DF939E
:1014E000EC01FB018617970751F06081718161154E
:1014F000710521F044815581BDDF01C0A9DFCE0116
:10150000DF91CF910895FC01808191810C94351C6D
:101510000F931F93CF93DF93CDB7DEB761970FB6CD
:10152000F894DEBF0FBECDBF8C01CB01F801118254
:101530001082138212821582148250E0BE016F5F06
:101540007F4F0E940418BE016F5F7F4FC801B1DF5B
:1015500061960FB6F894DEBF0FBECDBFDF91CF917D
:101560001F910F910895FC01118210821382128243
:1015700015821482B3CFFC01118210821382128271
:10158000158214826115710549F0FB01019000205C
:10159000E9F73197AF01461B570B6CCF0895BF9207
:1015A000CF92DF92EF92FF920F931F93CF93DF932F
:1015B000CDB7DEB72C970FB6F894DEBF0FBECDBF08
:1015C0006C016CE272E0CE010796D5DF6CE272E04E
:1015D000C601DFDEBB24B3948111B12CE12CF12CC8
:1015E000D60114968D919C911597E816F90608F08E
:1015F00046C1B701C60112DEDC01EC914E2FEE0FA1
:10160000550B660B770BFA01E654F109E531F1054C
:1016100008F0E7C08827E557FF4F8F4F0C94981BC1
:10162000CE010796F3DD882309F405C1CE010796A4
:1016300034DEF80160837183828393836CE272E00D
:10164000CE01079636DFF7C0CE010796DFDD88238F
:1016500009F4F4C0CE01079620DED8016D937D9386
:101660008D939C9313976CE272E0CE01079621DF75
:10167000E5C0CE010796CADD882309F4E2C0CE0199
:1016800007960BDEF80160837183828393836CE29B
:1016900072E0CE0107960DDFD4C0CE010796B6DD0D
:1016A000882309F4D1C0CE010796F7DDD8016D93E8
:1016B0007D938D939C9313976CE272E0CE01079615
:1016C000F8DEC2C0CE010796A1DD882309F4BFC0B1
:1016D000CE010796E2DDF8016083718382839383F4
:1016E0006CE272E0CE010796E4DEB1C0CE0107964F
:1016F0008DDD882309F4AEC0CE010796CEDDD8017A
:101700006D937D938D939C9313976CE272E0CE0161
:101710000796CFDE9FC0CE01079678DD882309F4B7
:101720009CC0CE010796B9DDF80160837183828386
:1017300093836CE272E0CE010796BBDE8EC0CE01D1
:10174000079664DD882309F48BC0CE010796A5DDDA
:10175000D8016D937D938D939C9313976CE272E007
:10176000CE010796A6DE7CC0CE0107964FDD88230A
:1017700009F479C0CE01079690DDF801608371838A
:10178000828393836CE272E0CE01079692DE6BC097
:10179000CE0107963BDD882309F468C0CE01079689
:1017A0007CDDD8016D937D938D939C9313976CE2B0
:1017B00072E0CE0107967DDE59C0CE01079626DD88
:1017C000882309F456C0CE01079667DDF8016083CF
:1017D0007183828393836CE272E0CE01079669DEA7
:1017E00048C0B701C6011ADDDC018C91803344F496
:1017F000B701C60113DDFC0180818E3251F4BAC0FD
:10180000B701C6010BDDDC018C918A330CF4B2C048
:10181000EFCFB701C60102DDFC0180818C3209F4F3
:10182000A9C0B701C601FADCDC018C918D3209F444
:10183000A1C0B12C20C004EA13E01DC00CEA13E0E3
:101840001AC000EB13E017C004EB13E014C008EB60
:1018500013E011C00CEB13E00EC008EA13E00BC05C
:1018600000EC13E008C004EC13E005C008EC13E042
:1018700002C00CEC13E0FFEFEF1AFF0AB1CECE016D
:101880000796C4DC882341F0CE01079606DDF801F7
:101890006083718382839383B1100BC06CE572E027
:1018A000CE01019668DECE010196A0DACE01019646
:1018B0002ADE28E23BE64EE65EE46091AC037091DE
:1018C000AD038091AE039091AF030E94BD198111C9
:1018D00010C08091290490912A04A0912B04B0910A
:1018E0002C048093AC039093AD03A093AE03B0930C
:1018F000AF0328E23BE64EE65EE46091B0037091F0
:10190000B1038091B2039091B3030E94BD1981117C
:1019100010C080912D0490912E04A0912F04B091BD
:1019200030048093B0039093B103A093B203B093BB
:10193000B30328E23BE64EE65EE46091B4037091A7
:10194000B5038091B6039091B7030E94BD19811130
:1019500023C08091310490913204A0913304B0915E
:1019600034048093B4039093B503A093B603B0936B
:10197000B70312C0B701C60151DCDC018C918C3277
:1019800011F46EE205C0B701C60148DCFC016081BC
:10199000CE0107964ADD6FCFCE010796B4DD8B2DC1
:1019A0002C960FB6F894DEBF0FBECDBFDF91CF915E
:1019B0001F910F91FF90EF90DF90CF90BF9008950F
:1019C000CF93DF93CDB7DEB768970FB6F894DEBF3D
:1019D0000FBECDBF789484B5826084BD84B581602C
:1019E00084BD85B5826085BD85B5816085BD8091EA
:1019F0006E00816080936E00109281008091810062
:101A00008260809381008091810081608093810059
:101A1000809180008160809380008091B10084601B
:101A20008093B1008091B00081608093B00080917C
:101A300091008260809391008091910081608093F9
:101A40009100809190008160809390008091A1002E
:101A500082608093A1008091A10081608093A100A9
:101A60008091A00081608093A0008091210182601C
:101A700080932101809121018160809321018091D7
:101A8000200181608093200180917A00846080939E
:101A90007A0080917A00826080937A0080917A0047
:101AA000816080937A0080917A00806880937A00C8
:101AB0001092C100F89414BC15BC16BC89EF87BD08
:101AC00084B5826084BD85B5836085BD80916E00DC
:101AD000826080936E00109280001092810080E3FB
:101AE00098EF9093850080938400809181008160BD
:101AF0008093810080916F00816080936F00789463
:101B0000E0917602F091770282E08083E0917202A8
:101B1000F09173021082E0917402F091750280E1FD
:101B2000808310927E02E0917A02F0917B0286E03F
:101B30008083E0917802F0917902808180618083D6
:101B4000E0917802F0917902808188608083E09151
:101B50007802F0917902808180688083E091780238
:101B6000F091790280818F7D808361E08DE00E9419
:101B7000700462E083E00E94700462E082E00E94F0
:101B8000700462E08EE00E94700462E08FE00E94C8
:101B9000700462E082E10E94700462E083E10E94CE
:101BA000700462E087E10E94700462E089E10E94B3
:101BB000700462E085E20E94700462E083E20E94A9
:101BC000700462E081E20E94700462E08FE10E9492
:101BD000700462E08DE20E94700462E08BE20E9479
:101BE000700462E089E20E94700462E087E20E9471
:101BF000700462E08BE10E94700462E08DE10E945B
:101C0000700462E080E20E94700480919A03803345
:101C100008F053C061E08BE00E94700480919A0349
:101C2000E82FF0E09F01220F331FE20FF31FED5F5B
:101C3000FC4F9081907C9B60908310929B0310924C
:101C40009C036CE00E948C1B9CE0899FB0011124D6
:101C500040E050E09A01260F371FF901EE0FFF1FF9
:101C60002E0F3F1FF901ED5FFC4F908196FD18C0CC
:101C70004F5F5F4F4C30510569F7813011F00C9484
:101C8000E5161092800082E080938100109285001A
:101C900010928400B19A80916F00826080936F00EF
:101CA000E0919A03F0E0CF01880F991FE80FF91F28
:101CB000ED5FFC4F80818064808380E090E05BD9A1
:101CC00028E14AE16CE18EE694E00E947A0561E049
:101CD00088E20E94700461E08CE20E94700461E07E
:101CE0008AE20E94700426E246E367E38EE894E00D
:101CF0000E947A052EE34EE260E386E894E00E94BB
:101D00007A0528E34CE36DE38EE794E00E947A05C0
:101D100028E14AE16CE186E794E00E947A0580EFD1
:101D2000282E88ED382E80916002882301F11092D0
:101D3000600264E973E0CE01019615DCCE010196E4
:101D4000C3D8182FCE010196DEDB11110BC064E958
:101D500073E0CE01019607DCCE01019604D9CE01D5
:101D60000196D1DB6CE272E084E993E0A2DB809122
:101D70004904813009F460C0B0F0823009F42CC30A
:101D8000833011F40C94E1166AE472E0CE010196FE
:101D9000F2DBCE01019652D9CE010196B4DB10924E
:101DA00049040C94E1160BE514E0D8018D918D01E6
:101DB0001C8A1B8A1E8A1D8A188E1F8A4AE0BE0151
:101DC0006F5F7F4F90E00E94FA17BE016F5F7F4FF9
:101DD000CE0143966EDBBE016D5E7F4FCE01019654
:101DE000C2DB41E050E068E272E0CE010196F0DA39
:101DF000882311F40C9415174D815E8169817A81D5
:101E000086E692E01DDACE0101967DDBCE01439697
:101E10007ADBB4E00E361B0741F641E050E068E2A1
:101E200072E086E692E00CDA42E050E06AE272E0AC
:101E300086E692E005DAC5C78091A303882309F4FA
:101E4000C0C71092A3036DE973E0CE0101968BDB4E
:101E5000CE010196A4DB182FCE01019654DB11238D
:101E600009F4AFC76091A4037091A5038091A60304
:101E70009091A7030E94571B6430710564F462308F
:101E800071050CF0A0C261157105D1F061307105CA
:101E900009F486C00FC26430710509F47BC26C314D
:101EA000710509F007C280E090E0A0E8BFE38093ED
:101EB000D0039093D103A093D203B093D303F4C182
:101EC0002091290430912A0440912B0450912C0434
:101ED0006091AC037091AD038091AE039091AF031C
:101EE0000E94BD1987FF05C080E090E0A0E8BFEB2D
:101EF00004C080E090E0A0E8BFE38093D00390931B
:101F0000D103A093D203B093D30320912D04309139
:101F10002E0440912F04509130046091B0037091D1
:101F2000B1038091B2039091B3030E94BD1987FF62
:101F300005C080E090E0A0E8BFEB04C080E090E046
:101F4000A0E8BFE38093D4039093D503A093D60376
:101F5000B093D7032091310430913204409133047F
:101F6000509134046091B4037091B5038091B6032D
:101F70009091B7030E94BD1987FF05C080E090E0F3
:101F8000A0E8BFEB04C080E090E0A0E8BFE380934E
:101F9000D8039093D903A093DA03B093DB0386C1EF
:101FA000C090B403D090B503E090B603F090B703AF
:101FB0008090310490903204A0903304B0903404A7
:101FC000A5019401C701B6010E94BD198823D1F073
:101FD000A5019401C701B6010E94BD1987FF05C084
:101FE00080E090E0A0E8BFEB04C080E090E0A0E8D3
:101FF000BFE38093F0039093F103A093F203B093B7
:10200000F30352C1C0902904D0902A04E0902B041D
:10201000F0902C048090AC039090AD03A090AE03A0
:10202000B090AF03A5019401C701B6010E94BD198C
:10203000811126C02091B0033091B1034091B203C9
:102040005091B30360912D0470912E0480912F0460
:10205000909130040E94BD19882309F425C1109283
:10206000D4031092D5031092D6031092D703109286
:10207000D0031092D1031092D2031092D30333C035
:10208000A5019401C701B6010E94BD1987FF11C0C7
:1020900080E090E0A0E8BFE38093D4039093D50361
:1020A000A093D603B093D703A7019601C501B4014D
:1020B00010C080E090E0A0E8BFEB8093D403909341
:1020C000D503A093D603B093D703A5019401C7010C
:1020D000B6010E94F21A6093D0037093D1038093EB
:1020E000D2039093D303C0902D04D0902E04E0909F
:1020F0002F04F09030048090B0039090B103A09032
:10210000B203B090B303A5019401C701B6010E94C8
:10211000BD19811111C01092DC031092DD031092E1
:10212000DE031092DF031092D8031092D9031092AD
:10213000DA031092DB0333C0A5019401C701B60195
:102140000E94BD1987FF11C080E090E0A0E8BFE3C6
:102150008093DC039093DD03A093DE03B093DF0351
:10216000A7019601C501B40110C080E090E0A0E88D
:10217000BFEB8093DC039093DD03A093DE03B09369
:10218000DF03A5019401C701B6010E94F21A609312
:10219000D8037093D9038093DA039093DB03809084
:1021A000D0039090D103A090D203B090D303C090FD
:1021B000D803D090D903E090DA03F090DB03A701B5
:1021C0009601C501B4010E94881B1816CCF5A50123
:1021D0009401C701B6010E94F21A9B01AC010E9452
:1021E000F31A6093E0037093E1038093E20390930A
:1021F000E303A7019601C701B6010E94F31A609399
:10220000E4037093E5038093E6039093E703A5014D
:1022100094010E94F21A6093E8037093E90380939B
:10222000EA039093EB0380E090E0A0E8BFE38093A3
:10223000EC039093ED03A093EE03B093EF0334C04F
:10224000A7019601C501B4010E94F21A9B01AC01DD
:102250000E94F31A6093E0037093E1038093E2031A
:102260009093E303A5019401C501B4010E94F31A00
:102270006093E4037093E5038093E6039093E70390
:10228000A70196010E94F21A6093E8037093E90394
:102290008093EA039093EB031092EC031092ED030A
:1022A0001092EE031092EF0310924A0480E00E9415
:1022B0003A0889C06091A8037091A9038091AA038C
:1022C0009091AB030E94571B6430710531F065306B
:1022D000710531F06330710569F50E94D20873C051
:1022E000109245041092460410924704109248043C
:1022F00060914104709142044AE0CE01019608D9F0
:10230000CE0101960E94F606CE010196FCD860919E
:1023100041047091420480E090E00E94C1196093F2
:10232000D0037093D1038093D2039093D303109280
:10233000200449C06091C8037091C9038091CA0309
:102340009091CB030E94571B6130710541F01CF442
:10235000672BC9F10CC0643071054CF434C0109285
:10236000790460E0809178040E947C032CC028E20C
:102370003BE64EE65EE46091C0037091C10380913C
:10238000C2039091C303F9D7882369F08091200498
:102390008823C9F010924504109246041092470415
:1023A0001092480410C06DE272E0CE010196E3D8AD
:1023B000CE0101960E941E08CE010196A4D884EA9F
:1023C00093E00E94910580914904813009F0F9C49D
:1023D00082E080934904F5C480916102882309F466
:1023E000F0C46091A4037091A5038091A60390911D
:1023F000A7030E94571B6430710564F462307105B5
:102400000CF0DDC46115710571F06130710509F4DE
:10241000FBC0ACC36430710509F4B0C26C31710506
:1024200009F4C2C2A3C380EC90EE90938500809320
:1024300084002091290430912A0440912B0450916A
:102440002C046091AC037091AD038091AE03909128
:10245000AF0393D7882341F16091D0037091D103EA
:102460008091D2039091D3030E94571B8EE894E091
:102470000E9460052091D0033091D1034091D20396
:102480005091D3036091290470912A0480912B0408
:1024900090912C040E94F31A6093290470932A04EB
:1024A00080932B0490932C0420912D0430912E04C2
:1024B00040912F04509130046091B0037091B103AA
:1024C0008091B2039091B30358D7882341F1609172
:1024D000D4037091D5038091D6039091D7030E94C5
:1024E000571B86E894E00E9460052091D403309148
:1024F000D5034091D6035091D70360912D0470917C
:102500002E0480912F04909130040E94F31A60935E
:102510002D0470932E0480932F0490933004209107
:10252000310430913204409133045091340460916D
:10253000B4037091B5038091B6039091B7031DD792
:10254000882341F16091D8037091D9038091DA0317
:102550009091DB030E94571B8EE794E00E94600578
:102560002091D8033091D9034091DA035091DB03D5
:10257000609131047091320480913304909134045D
:102580000E94F31A609331047093320480933304F1
:10259000909334042091290430912A0440912B0413
:1025A00050912C046091AC037091AD038091AE0307
:1025B0009091AF03E2D6811102C420912D04309195
:1025C0002E0440912F04509130046091B00370911B
:1025D000B1038091B2039091B303CFD68111EFC3C1
:1025E00020913104309132044091330450913404ED
:1025F0006091B4037091B5038091B6039091B703D5
:10260000BCD68111DCC3A2C38BEF92EF90938500FF
:10261000809384002091310430913204409133043E
:10262000509134046091B4037091B5038091B60366
:102630009091B703A2D68823B9F16091F00370910D
:10264000F1038091F2039091F3030E94571B8EE7F0
:1026500094E00E9460052091F0033091F1034091D5
:10266000F2035091F3036091310470913204809130
:10267000330490913404B7D79B01AC0160933104CB
:102680007093320480933304909334046091B403C4
:102690007091B5038091B6039091B7036ED6811106
:1026A00049C10E944F0846C120E030E040E85FE3A6
:1026B0006091EC037091ED038091EE039091EF0334
:1026C0005CD6811191C08090290490902A04A0903A
:1026D0002B04B0902C042091AC033091AD034091B9
:1026E000AE035091AF03C501B40147D6882309F466
:1026F00021C14090E8035090E9036090EA03709094
:10270000EB0320E030E0A901C301B2010E94881B65
:10271000C090D403D090D503E090D603F090D703B7
:1027200087FD3CC0A7019601C501B4015CD7609349
:10273000290470932A0480932B0490932C042091F5
:10274000DC033091DD034091DE035091DF036091A3
:102750002D0470912E0480912F049091300443D762
:1027600060932D0470932E0480932F049093300473
:102770002091E0033091E1034091E2035091E303A3
:10278000C301B20130D76093E8037093E9038093EB
:10279000EA039093EB03C701B6018FC02091E403D5
:1027A0003091E5034091E6035091E703C301B20184
:1027B0001AD76093E8037093E9038093EA03909338
:1027C000EB03A7019601C501B4010DD7609329045D
:1027D00070932A0480932B0490932C04C701B601B4
:1027E00066D78EE894E0A4C0C0902D04D0902E044B
:1027F000E0902F04F09030042091B0033091B103A9
:102800004091B2035091B303C701B601B6D58823F6
:1028100009F490C08090E8039090E903A090EA0347
:10282000B090EB0320E030E0A901C501B40170D7FE
:1028300087FD51C04090D4035090D5036090D603DB
:102840007090D703A30192016091290470912A042A
:1028500080912B0490912C04C6D660932904709328
:102860002A0480932B0490932C042091DC03309154
:10287000DD034091DE035091DF03C701B601B3D6FB
:1028800060932D0470932E0480932F049093300452
:102890002091E0033091E1034091E2035091E30382
:1028A000C501B401A0D66093E8037093E903809357
:1028B000EA039093EB03C301B201F9D68EE894E0EA
:1028C0000E9460056091DC037091DD038091DE035E
:1028D0009091DF032AC02091E4033091E5034091F9
:1028E000E6035091E703C501B4017DD66093E80388
:1028F0007093E9038093EA039093EB038090DC03E9
:102900009090DD03A090DE03B090DF03A501940159
:10291000C701B60168D660932D0470932E0480938E
:102920002F0490933004C501B401C1D686E894E029
:102930000E9460052091290430912A0440912B04C3
:1029400050912C046091AC037091AD038091AE0363
:102950009091AF0312D5811132C220912D04309194
:102960002E0440912F04509130046091B003709177
:10297000B1038091B2039091B30342CE60914504BC
:10298000709146048091470490914804FAD42091B4
:10299000CC033091CD034091CE035091CF03B8D6F4
:1029A00018160CF00CC2D2C130928500209284001F
:1029B0006091D0037091D1038091D2039091D303A1
:1029C00076D6CB01770FAA0BBB0BFC013197E73012
:1029D000F10508F0F4C18827EE58FF4F8F4FA8C6C5
:1029E00080915B04811105C06FEF7FEF8EE894E06A
:1029F0005DC01092290410922A0410922B041092A8
:102A00002C0480E090E0A0E0B0E4A7C020E030E03B
:102A10004AE754E46091290470912A0480912B04C0
:102A200090912C04AAD487FF1CC061E070E08EE86E
:102A300094E00E94600520E030E040E85FE36091B0
:102A4000290470912A0480912B0490912C04CBD5F9
:102A50006093290470932A0480932B0490932C0490
:102A6000AEC180E090E0A0E4B0E477C088E79CE2EB
:102A7000909385008093840080915B04882309F4FF
:102A8000B3CF1092290410922A0410922B041092B2
:102A90002C0480E090E0A0E8B0E45FC080915D0489
:102AA000811107C06FEF7FEF86E894E00E94600518
:102AB00086C110922D0410922E0410922F041092B1
:102AC000300480E090E0A0EAB0E447C020E030E0CD
:102AD0004AE754E460912D0470912E0480912F04F4
:102AE000909130044AD487FF1CC061E070E086E812
:102AF00094E00E94600520E030E040E85FE36091F0
:102B00002D0470912E0480912F04909130046BD588
:102B100060932D0470932E0480932F0490933004BF
:102B20004EC180E090E0A0ECB0E417C088E79CE2E2
:102B3000909385008093840080915D04882309F43C
:102B4000B1CF10922D0410922E0410922F041092E7
:102B5000300480E090E0A0EEB0E48093D003909346
:102B6000D103A093D203B093D30329C16091A803EA
:102B70007091A9038091AA039091AB0398D564301A
:102B8000710539F065307105A9F06330710509F000
:102B900078C08091450490914604A0914704B0917B
:102BA000480485369105A105B10508F408C10E94C5
:102BB000580805C18091450490914604A0914704AE
:102BC000B091480485369105A105B10508F4F7C018
:102BD0008090D0039090D103A090D203B090D30303
:102BE00020E030E04AE754E4C501B401FBD46B01B6
:102BF0007C0120E030E0A9018BD5181654F420E0C8
:102C000030E048EC52E4C701B60182D5181654F002
:102C10001DC020E030E048EC52ECC701B601ADD356
:102C200087FF14C020E030E048EC52E4C501B40155
:102C3000D9D46093D0037093D1038093D20390933F
:102C4000D3033AD5CB010E94BB0712C080E090E0CD
:102C5000AAE7B4E48093D0039093D103A093D20366
:102C6000B093D30388EE93E00E94BB070E944F0805
:102C700010924504109246041092470410924804A2
:102C80009EC06091C8037091C9038091CA0390915E
:102C9000CB030DD56430710508F491C08090C0035A
:102CA0009090C103A090C203B090C30328E23BE61A
:102CB0004EE65EE4C501B40160D3882309F45FC029
:102CC00080912004882309F441C0809145049091AB
:102CD0004604A0914704B091480485369105A105AA
:102CE000B10508F46CC0109245041092460410928D
:102CF000470410924804E0904104F0904204B70168
:102D000080E090E03ED32B013C019B01AC01C5016A
:102D1000B401FED41816ECF4A3019201C501B4016C
:102D200061D420E030E048EC52E4F2D4181624F4E8
:102D3000C7018C599F4F1CC0C501B401BDD470930D
:102D4000420460934104CB010E94BB070E944F08DC
:102D500036C0A5019401C301B20144D420E030E0A3
:102D600048EC52E4D5D418163CF7C70184569109B3
:102D700090934204809341040E94BB0720C060E30B
:102D800072E0CE0101960E94BB0ACE0101960E941C
:102D9000F606CE0101960E94830A67E472E0CE0136
:102DA00001960E94BB0ACE0101960E94F606CE0152
:102DB00001960E94830A84EA93E00E949105109292
:102DC00061020E94EA020C94930E823069F4109220
:102DD000900080939100109295001092940088BB0F
:102DE000809371000C94500E833071F41092A00007
:102DF00082E08093A1001092A5001092A40089BBEC
:102E0000809372000C94500E81110C94500E10920D
:102E1000200182E08093210110922501109224016B
:102E20008ABB809373000C94500ECE0101960E94D1
:102E3000280A0C94FC0E84E993E00E94830A8DE931
:102E400093E00C94830A109269021092680288EE53
:102E500093E0A0E0B0E080936A0290936B02A093AD
:102E60006C02B0936D028AE192E0909367028093C6
:102E7000660285EC90E0909373028093720284EC7A
:102E800090E0909375028093740280EC90E09093B0
:102E900077028093760281EC90E0909379028093A0
:102EA000780282EC90E090937B0280937A0286EC29
:102EB00090E090937D0280937C0210927F021092AA
:102EC000800210928102109282021092920410925B
:102ED000930410929404109295041092910410920D
:102EE0008A0410928B0410928C0410928D0410921C
:102EF0008904109282041092830410928404109228
:102F000085041092810410927A0410927B0410922E
:102F10007C0410927D041092790410927204109235
:102F2000730410927404109275041092710480E17D
:102F3000E6E0F2E0ABE4B4E001900D928A95E1F7AF
:102F400081E080934A0410924904EBE5F4E0119289
:102F500084E0EE36F807D9F71092290410922A047B
:102F600010922B0410922C0410922D0410922E0417
:102F700010922F04109230041092310410923204F7
:102F8000109233041092340488E097E09093420446
:102F9000809341041092200484EA93E00E949105FA
:102FA0006CE272E08DE993E00E94BB0A809193038A
:102FB0008033A0F491E0980F9093930380939A0349
:102FC00090E0FC01EE0FFF1F8E0F9F1FFC01ED5FD5
:102FD000FC4F88EB9BE09283818303C08FEF80934B
:102FE0009A036CE272E084E993E00C94BB0A6627D2
:102FF00077272DC0BB274A3031F4992322F4BDE254
:10300000909581959F4F0BC04532510518F4423081
:1030100008F004C0FB011082CB010895BB27FB011F
:103020005527AA27880F991FAA1FA41710F0A41BC1
:1030300083955051B9F7A05DAA3308F0A95DA1931B
:10304000009779F7B111B1931192CB0186C16F92BC
:103050007F928F929F92AF92BF92CF92DF92EF9228
:10306000FF920F931F93CF93DF93EC017B016115C8
:10307000710519F0DB018D939C938E010F5F1F4F3B
:103080007880872D90E049D1892B11F0E801F5CFA8
:10309000BDE27B1205C00F5F1F4F7980C1E008C001
:1030A000EBE27E1204C08E010E5F1F4F7980C0E0FC
:1030B0006801F1E0CF1AD10843E050E068E471E024
:1030C000C60133D1892BE9F4680122E0C20ED11C7C
:1030D00045E050E063E471E0C60127D1892B21F47B
:1030E000680187E0C80ED11CE114F10419F0D70182
:1030F000CD92DC92C111F9C060E070E080E89FE7FA
:10310000FDC043E050E060E471E0C6010ED1892BC0
:1031100051F4E114F10409F4EDC00E5F1F4FF70103
:1031200011830083E7C0680160E070E0CB0100E03C
:1031300010E0F601D0EDD70DDA3050F52C2F2260DB
:10314000622E2C2F2870C2FF05C0211127C00F5FEF
:103150001F4F24C0222311F001501109A5E0B0E057
:103160009B01AC0126D24B015C01880C991CAA1C66
:10317000BB1CC501B4016D0F711D811D911D683906
:10318000A9E97A078A07A9E19A0740F0C66005C055
:10319000DE3F51F4C3FD44C0C8606C2EBFEFCB1AB4
:1031A000DB0A7080C62DC5CF2D2F2F7D2531C1F5AF
:1031B00040814D3211F4C06106C04B3221F031968E
:1031C00021E030E006C03296D60111964C9122E003
:1031D00030E0A0EDA40FAA3018F0E21BF30B20C0E2
:1031E00040E050E04038BCE05B075CF49A01220FFD
:1031F000331F220F331F420F531F440F551F4A0F17
:10320000511D3196DF0111972C91A0EDA20FAA302C
:1032100048F3C4FF03C0519541955109040F151F90
:10322000C1FF07C0E114F10421F03197D701ED93FC
:10323000FC93A7D0C370C33019F06B017C0106C0AA
:103240006B017C01F7FAF094F7F8F09420E030E09D
:10325000A901C701B60191D0882309F443C017FF23
:1032600006C0119501951109CFE5D1E002C0C7E76D
:10327000D1E05E01B8E1AB1AB1084601BE2DAF2D19
:1032800090E2E92EF12C0E151F057CF0FE01259130
:10329000359145915491B4018B2F9A2FD3D04B0186
:1032A000B82FA92F0E191F09EECF2497F594E79494
:1032B000CA15DB0541F76401EB2EFA2E8E2D880F1F
:1032C0008F2D881F8F3F41F020E030E0A901C7011A
:1032D000B60153D0811106C082E290E09093A10420
:1032E0008093A004C701B60109C060E070E080E8E7
:1032F0009FEF04C060E070E080EC9FE7DF91CF912A
:103300001F910F91FF90EF90DF90CF90BF90AF9003
:103310009F908F907F906F9008959111F6C08032AA
:1033200019F089508550D0F70895FB01DC01415018
:10333000504088F08D9181341CF08B350CF4805E08
:10334000659161341CF06B350CF4605E861B611175
:1033500071F3990B0895881BFCCFDC01FC01672FEA
:1033600071917723E1F7329704C07C916D9370835C
:103370006291AE17BF07C8F3089540D008F481E00A
:103380000895E89409C097FB3EF490958095709558
:1033900061957F4F8F4F9F4F9923A9F0F92F96E9A1
:1033A000BB279395F695879577956795B795F11116
:1033B000F8CFFAF4BB0F11F460FF1BC06F5F7F4FB3
:1033C0008F4F9F4F16C0882311F096E911C07723C5
:1033D00021F09EE8872F762F05C0662371F096E8CE
:1033E000862F70E060E02AF09A95660F771F881F9D
:1033F000DAF7880F9695879597F90895990F000841
:10340000550FAA0BE0E8FEEF16161706E807F907B6
:10341000C0F012161306E407F50798F0621B730B51
:10342000840B950B39F40A2661F0232B242B252BD2
:1034300021F408950A2609F4A140A6958FEF811D75
:10344000811D08950BD07BC06CD028F071D018F08E
:10345000952309F05DC062C01124A5C081D0A0F3FE
:10346000959FD1F3950F50E0551F629FF001729F19
:10347000BB27F00DB11D639FAA27F00DB11DAA1F38
:10348000649F6627B00DA11D661F829F2227B00D85
:10349000A11D621F739FB00DA11D621F839FA00D10
:1034A000611D221F749F3327A00D611D231F849F60
:1034B000600D211D822F762F6A2F11249F575040B7
:1034C0008AF0E1F088234AF0EE0FFF1FBB1F661F52
:1034D000771F881F91505040A9F79E3F510570F00B
:1034E00017C061C05F3FECF3983EDCF3869577959B
:1034F0006795B795F795E7959F5FC1F7FE2B880F06
:10350000911D9695879597F908959927882708958D
:1035100097F99F6780E870E060E008959FEF80EC86
:10352000089500240A941616170618060906089529
:1035300000240A9412161306140605060895092E8F
:103540000394000C11F4882352F0BB0F40F4BF2BFE
:1035500011F460FF04C06F5F7F4F8F4F9F4F08953E
:1035600057FD9058440F551F59F05F3F71F0479534
:10357000880F97FB991F61F09F3F79F08795089519
:10358000121613061406551FF2CF4695F1DF08C038
:10359000161617061806991FF1CF86957105610555
:1035A00008940895E894BB2766277727CB0197F9FD
:1035B000089509D0A59F900DB49F900DA49F800DF4
:1035C000911D11240895A29FB001B39FC001A39F34
:1035D000700D811D1124911DB29F700D811D11244C
:1035E000911D08955058BB27AA270ED0A8CF99DF68
:1035F00030F09EDF20F031F49F3F11F41EF48ECFA7
:103600000EF4E095E7FB84CFE92FAADF80F3BA1729
:10361000620773078407950718F071F49EF5C2CF0F
:103620000EF4E0950B2EBA2FA02D0B01B9019001DD
:103630000C01CA01A0011124FF27591B99F0593F21
:1036400050F4503E68F11A16F040A22F232F342F69
:103650004427585FF3CF469537952795A795F040B7
:103660005395C9F77EF41F16BA0B620B730B840BCC
:10367000BAF09150A1F0FF0FBB1F661F771F881F84
:10368000C2F70EC0BA0F621F731F841F48F48795DC
:1036900077956795B795F7959E3F08F0B3CF9395CB
:1036A000880F08F09927EE0F97958795089504D015
:1036B0006894B11178CF08955BDF88F09F5790F040
:1036C000B92F9927B751A0F0D1F0660F771F881F47
:1036D000991F1AF0BA95C9F712C0B13081F062DFB4
:1036E000B1E008955FCF672F782F8827B85F39F052
:1036F000B93FCCF3869577956795B395D9F73EF4A6
:1037000090958095709561957F4F8F4F9F4F08954D
:1037100075DE08F48FEF0895991B79E004C0991FB6
:10372000961708F0961B881F7A95C9F7809508951B
:10373000EE0FFF1F881F8BBF0790F691E02D1994A5
:10374000CF93DF938230910510F482E090E0E09116
:10375000A404F091A50420E030E0C0E0D0E0309770
:1037600011F14081518148175907C0F04817590796
:1037700061F482819381209719F09B838A832BC007
:103780009093A5048093A40426C02115310519F057
:103790004217530718F49A01BE01DF01EF010280BE
:1037A000F381E02DDCCF2115310509F1281B390B00
:1037B0002430310590F412968D919C9113976115E8
:1037C000710521F0FB019383828304C09093A504CB
:1037D0008093A404FD01329644C0FD01E20FF31F63
:1037E00081939193225031092D933C933AC02091BB
:1037F000A2043091A304232B41F4209102023091C2
:1038000003023093A3042093A2042091000230917C
:1038100001022115310541F42DB73EB74091040254
:1038200050910502241B350BE091A204F091A304F2
:10383000E217F307A0F42E1B3F0B2817390778F087
:10384000AC014E5F5F4F2417350748F04E0F5F1FE6
:103850005093A3044093A2048193919302C0E0E0AB
:10386000F0E0CF01DF91CF9108950F931F93CF9395
:10387000DF93009709F48CC0FC0132971382128207
:103880000091A4041091A5040115110581F4208173
:103890003181820F931F2091A2043091A304281735
:1038A000390779F5F093A304E093A20471C0D8011D
:1038B00040E050E0AE17BF0750F412962D913C91B6
:1038C0001397AD012115310509F1D901F3CF9D0100
:1038D000DA013383228360817181860F971F8217FB
:1038E000930769F4EC0128813981260F371F2E5F79
:1038F0003F4F318320838A819B8193838283452B31
:1039000029F4F093A504E093A40442C01396FC9319
:10391000EE931297ED01499159919E01240F351FA5
:10392000E217F30771F480819181840F951F02964D
:1039300011969C938E938281938113969C938E9380
:103940001297E0E0F0E0D80112968D919C911397C8
:10395000009719F0F8018C01F6CF8D919C91980198
:103960002E5F3F4F820F931F2091A2043091A3043A
:103970002817390769F4309729F41092A50410929A
:10398000A40402C0138212821093A3040093A20421
:10399000DF91CF911F910F9108956F927F928F9237
:1039A0009F92AF92BF92CF92DF92EF92FF920F93CE
:1039B0001F93CF93DF93EC01009781F4CB01DF914C
:1039C000CF911F910F91FF90EF90DF90CF90BF901C
:1039D000AF909F908F907F906F90B2CEFC01E60FDA
:1039E000F71F9C0122503109E217F30708F4A8C021
:1039F000D9010D911C91119706171707A8F00530F2
:103A0000110508F49BC0C80104978617970708F4AE
:103A100095C002501109061B170B019311936D936A
:103A20007C93CF0122DF8AC05B01A01AB10A4C014E
:103A3000800E911EA091A404B091A50440E050E036
:103A4000E12CF12C109709F44AC0A815B905D1F55D
:103A50006D907C901197630182E0C80ED11CCA144E
:103A6000DB0480F1A3014A195B096A0182E0C80EF8
:103A7000D11C1296BC9012971396AC91B5E0CB1660
:103A8000D10440F0B282A38351834083D9016D9366
:103A90007C930AC00E5F1F4FC301800F911FF90175
:103AA00091838083EB2DFA2FE114F10431F0D701DB
:103AB0001396FC93EE93129741C0F093A504E09304
:103AC000A4043CC08D919C9111974817590708F4A4
:103AD000AC017D0112960D90BC91A02DB3CF8091C9
:103AE000A2049091A30488159905E1F4461757079D
:103AF000C8F48091000290910102009741F48DB7C3
:103B00009EB74091040250910502841B950BE81763
:103B1000F907B0F4F093A304E093A204F9017183D0
:103B200060830CC0CB010CDE7C01009749F0A8013A
:103B3000BE011BD0CE0199DEC70104C0CE0102C078
:103B400080E090E0DF91CF911F910F91FF90EF9077
:103B5000DF90CF90BF90AF909F908F907F906F90AD
:103B6000089581E090E0F89419C0FB01DC0102C0E7
:103B700001900D9241505040D8F70895FB01DC01AF
:103B80008D91019080190110D9F3990B0895FB01D3
:103B9000DC0101900D920020E1F7089511E0CFE4DF
:103BA000D1E000E005C0802FFE01C2DD2196011D9D
:0E3BB000C035D10780E00807B1F7F894FFCFC9
:103BBE000000A604800001030303030303030000B7
:103BCE0000000001020300000000ED012009860143
:103BDE003302B7019501A90120000D0A00453300FB
:103BEE004552524F522E20554E4B4E4F574E20435C
:103BFE004F4D4D414E440045300045320055350085
:103C0E005534005536005537004531005731000008
:00000001FF
