:100000004FC100007EC100007CC100007AC1000029
:1000100078C1000076C1000074C1000072C1000008
:1000200070C100006EC100006CC100006AC1000018
:1000300068C1000066C1000064C1000062C1000028
:1000400060C10000F6C700005CC100005AC100009A
:100050000C9448090C94B50854C100000C94CC09C8
:1000600050C10000D1C50000A6C500004AC1000073
:1000700048C1000046C1000044C1000042C1000068
:10008000ABC700003EC100003CC100003AC1000007
:1000900038C1000036C1000034C1000032C1000088
:1000A00030C100002EC100006AC700002AC1000054
:1000B00028C1000026C1000024C1000033C7000091
:1000C00020C100001EC100001CC100001AC10000B8
:1000D00018C1000016C1000014C1000012C10000C8
:1000E00010C100009614AC14DC14FC141415441553
:1000F00062165505580547054B0551058F055C05EA
:10010000600566056A056E05740578057C058F0532
:10011000820586058A053E0C9A0B7B0CEC0B000CC5
:100120007B0C7B0C150C7B0C7B0C670C7B0C7B0C11
:10013000290C7B0C520C7B0C7B0CAE0BC30BD70B2E
:100140004E414E494E495459494E46CDCCCC3D0ABC
:10015000D7233C17B7D13877CC2B329595E6241F9F
:10016000B14F0A000020410000C84200401C462058
:10017000BCBE4CCA1B0E5AAEC59D740000210024A3
:100180000027002A002D0030003300010100000488
:100190000107010A0100002200250028002B002E83
:1001A000003100340002010000050108010B0100CC
:1001B0000020002300260029002C002F0032000020
:1001C00001000003010601090105050505070508F1
:1001D000080808020202020A0A08080404040401CA
:1001E00001010101010101030303030303030304EC
:1001F0000707070C0C0C0C0C0C0C0C02020202067C
:10020000060606060606060B0B0B0B0B0B0B0B016B
:100210000210202008081020401020408002010217
:1002200001080402010102040810204080804020DF
:10023000100804020180040201804020100804021A
:100240000108040201010204081020408001020498
:10025000081020408000000A0B02090C0D0E080750
:100260000304010000000000000000000000000086
:10027000000000000000000000000000000000007E
:10028000001211100000000000000000000000003B
:10029000000000000000000000000000C316BB16B4
:1002A00011241FBECFEFD1E2DEBFCDBF00E00CBFF7
:1002B00012E0A0E0B2E0EAEEFAE300E00BBF02C019
:1002C00007900D92A837B107D9F724E0A8E7B2E06C
:1002D00001C01D92A83BB207E1F711E0CFE4D1E0E5
:1002E00000E006C021970109802FFE010E942E1B0D
:1002F000CE34D10780E00807A9F70E946B0D0C945B
:10030000641D7ECE0F931F93CF93DF93CDB7DEB7DF
:100310002F970FB6F894DEBF0FBECDBF8C01809132
:100320005D041B861A861D861C861F861E864AE073
:10033000BE016F5F7F4F90E00E94A417BE016F5F08
:100340007F4FCE010A960E94AE0ABE01665F7F4FC4
:10035000CE0101960E943D0BF801448155816081D8
:100360007181CE0101960E943D0A811104C0CE0127
:1003700001960E947D0A4D815E8169817A818AE7BA
:1003800092E0ABD742E050E06AE272E08AE792E0A6
:10039000A4D7CE0101960E94D80ACE010A960E94E7
:1003A000D80A2F960FB6F894DEBF0FBECDBFDF91EF
:1003B000CF911F910F910895CF93DF9300D000D07C
:1003C000CDB7DEB765E672E0CE0101960E94450B1F
:1003D000CE01019697DFCE0101960E94D80A26969B
:1003E0000FB6F894DEBF0FBECDBFDF91CF91089559
:1003F0000F931F93CF93DF9300D000D0CDB7DEB71C
:100400008C0168E672E00E94160A811116C06BE644
:1004100072E0C8010E94160A811111C06EE672E0F6
:10042000C8010E94160A81110CC065E672E0C8017D
:10043000FDD7882331F1E3E005C0E0E003C0E1E04F
:1004400001C0E2E080915D0494E0E99FF001112495
:10045000E35AFB4FE80FF11D838180935D048330E5
:1004600071F461E772E0CE0101960E94450BCE0166
:10047000019648DFCE0101960E94D80A01C09CDF98
:1004800081E026960FB6F894DEBF0FBECDBFDF9198
:10049000CF911F910F910895BC0181EB93E00E94D1
:1004A000C30A81E08093B70308950F931F93CF93FE
:1004B000DF9300D000D0CDB7DEB78C01093E83E0DA
:1004C000180738F0003D87E0180728F000ED17E026
:1004D00002C008EE13E04AE0B801CE0101960E9486
:1004E000DD0ACE0101960EDFCE0101960E94D80AE8
:1004F0009091AE03903398F58091AF0328E830E0F7
:10050000281B310987FD3395220F331F220F331F1C
:10051000021713078CF08091B00348E552E0481BA6
:10052000510987FD5395440F551F440F551F9801DE
:10053000401751070CF49A0122503109220F331F42
:100540004FB7F894892F90E0FC01EE0FFF1F8E0F3C
:100550009F1FFC01E95EFC4F328321834FBF26962B
:100560000FB6F894DEBF0FBECDBFDF91CF911F91C4
:100570000F910895CF93DF9300D000D0CDB7DEB7B1
:10058000BC01CE0101960E943D0BCE010196BADE60
:10059000CE0101960E94D80A83E080935D042696DE
:1005A0000FB6F894DEBF0FBECDBFDF91CF91089597
:1005B000CF93C82FECE9F4E08383682F828182D344
:1005C000E4E9F4E0C3836C2F82817CD3ECE8F4E0AF
:1005D000C3836C2F8281CF9175C388EB93E087D55D
:1005E00081E080935D04E8DE81E0E2CF4F925F928C
:1005F0006F927F928F929F92AF92BF92CF92DF9233
:10060000EF92FF92CF93DF93C0915504D09156049F
:10061000BE0180E090E00E9457194B015C014090C0
:10062000E4035090E5036090E6037090E703A301B4
:1006300092010E94881A6B017C0120E030E0A90140
:100640000E941E1B18165CF420E030E048EC52E4D7
:10065000C701B6010E941E1B18165CF01FC020E0E7
:1006600030E048EC52ECC701B6010E94531987FFF5
:1006700015C020E030E048EC52E4C301B2010E9412
:10068000891A6093E4037093E5038093E6039093E3
:10069000E7030E94F21ACB0108DF0BC08092E4034B
:1006A0009092E503A092E603B092E703CE01FDDE4F
:1006B00094DF1092590410925A0410925B04109225
:1006C0005C04DF91CF91FF90EF90DF90CF90BF90CF
:1006D000AF909F908F907F906F905F904F90089514
:1006E000CF93DF93CDB7DEB764970FB6F894DEBF34
:1006F0000FBECDBF80915E04882309F497C08FE0C0
:10070000B9D221E0892B09F420E0298382E0B2D21A
:1007100021E0892B09F420E02A838EE0ABD221E08E
:10072000892B09F420E02B8383E0A4D221E0892BDC
:1007300009F420E02C8382E19DD221E0892B09F489
:1007400020E02D8383E196D221E0892B09F420E07B
:100750002E8387E18FD221E0892B09F420E02F83BB
:1007600089E188D221E0892B09F420E0288785E2FD
:1007700081D221E0892B09F420E0298783E27AD213
:1007800021E0892B09F420E02A8781E273D221E05D
:10079000892B09F420E02B878FE16CD221E0892B93
:1007A00009F420E02C878DE265D221E0892B09F441
:1007B00020E02D878BE25ED221E0892B09F420E036
:1007C0002E8789E257D221E0892B09F420E02F8778
:1007D00087E250D221E0892B09F420E0288B8BE1BD
:1007E00049D221E0892B09F420E0298B8DE142D206
:1007F00021E0892B09F420E02A8B8FE23BD221E013
:10080000892B09F420E02B8B80E234D221E0892B64
:1008100009F420E02C8BFE013196A0E7B4E0CE0174
:10082000459621912D93E817F907D9F780915F0438
:10083000882309F444C0209170048091710490E0F1
:10084000820F911D892B39F081E080939F0461E034
:1008500080919E0437D2209172048091730490E0BD
:10086000820F911D892B39F081E08093970461E01C
:100870008091960427D2209174048091750490E0B1
:10088000820F911D20918104820F911D209182047D
:10089000820F911D20918304820F911D892B79F085
:1008A00081E080938F0461E080918E0464960FB69E
:1008B000F894DEBF0FBECDBFDF91CF9103C2649627
:1008C0000FB6F894DEBF0FBECDBFDF91CF91089574
:1008D000089580E090E00895FC01538D448D252F0C
:1008E00030E0842F90E0821B930B541710F0CF96CA
:1008F000089501970895FC01918D828D981761F0FC
:10090000828DDF01A80FB11D5D968C91928D9F5F46
:100910009F73928F90E008958FEF9FEF0895FC01F1
:10092000918D828D981731F0828DE80FF11D858DA4
:1009300090E008958FEF9FEF0895FC01918D228D37
:10094000892F90E0805C9F4F821B91098F739927BC
:1009500008958AE792E0F1DF21E0892B09F420E095
:10096000822F0895FC01848DDF01A80FB11DA35AC9
:10097000BF4F2C91848D90E001968F739927848FBF
:10098000A689B7892C93A089B1898C9180648C93B6
:10099000938D848D981306C00288F389E02D8081A1
:1009A0008F7D80830895EF92FF920F931F93CF93D3
:1009B000DF93EC0181E0888F9B8D8C8D981305C0AF
:1009C000E889F989808185FD23C0F62E0B8D10E022
:1009D0000F5F1F4F0F731127E02E8C8DE8120BC095
:1009E0000FB607FCFACFE889F989808185FFF5CF3A
:1009F000CE01B8DFF2CF8B8DFE01E80FF11DE35A77
:100A0000FF4FF0820B8FEA89FB898081806207C0EB
:100A1000EE89FF896083E889F98980818064808319
:100A200081E090E0DF91CF911F910F91FF90EF90C7
:100A30000895CF93DF93EC01888D8823C1F0EA8974
:100A4000FB89808185FD05C0A889B9898C9186FDC7
:100A50000EC00FB607FCF5CF808185FFF2CFA889C5
:100A6000B9898C9185FFEDCFCE017CDFE8CFDF9196
:100A7000CF91089590E0FC013197E231F10508F043
:100A80004EC08827E758FF4F8F4F0C942E1B809144
:100A900080008F7703C0809180008F7D80938000DD
:100AA000089580918000877FF9CF84B58F7702C049
:100AB00084B58F7D84BD08958091B0008F7703C089
:100AC0008091B0008F7D8093B00008958091900058
:100AD0008F7707C0809190008F7D03C08091900038
:100AE000877F8093900008958091A0008F7707C042
:100AF0008091A0008F7D03C08091A000877F8093AC
:100B0000A0000895809120018F7707C08091200177
:100B10008F7D03C080912001877F809320010895FD
:100B2000CF93C1E08AE792E008DF892B79F08AE76A
:100B300092E0E1DE8A3019F4C0937802F3CF81327B
:100B40008CF3682F88EA93E0C5D4ECCFCF91089559
:100B500000DF811125C080E090E0892B41F080E02A
:100B600090E0892B21F00E94000081111BC080E0E1
:100B700090E0892B41F080E090E0892B21F00E94E9
:100B80000000811112C080E090E0892B99F080E094
:100B900090E0892B79F00E940000811109C008952E
:100BA000BFDFD9CF0E940000E2CF0E940000EBCF50
:100BB0000C94000008951F920F920FB60F9211240B
:100BC0000BB60F922F933F934F935F936F937F9347
:100BD0008F939F93AF93BF93EF93FF938AE792E036
:100BE000C1DEFF91EF91BF91AF919F918F917F9166
:100BF0006F915F914F913F912F910F900BBE0F908E
:100C00000FBE0F901F9018951F920F920FB60F9264
:100C100011240BB60F922F938F939F93EF93FF9313
:100C2000E0918A02F0918B028081E0919002F09134
:100C3000910282FD12C09081809193028F5F8F7329
:100C400020919402821751F0E0919302F0E0E6586F
:100C5000FD4F958F8093930201C08081FF91EF91AA
:100C60009F918F912F910F900BBE0F900FBE0F9001
:100C70001F901895CF93DF93282F30E0F901EB5A9E
:100C8000FD4F8491F901E15FFD4FD491F901E753E4
:100C9000FE4FC491CC2389F08111ECDEEC2FF0E003
:100CA000EE0FFF1FE155FE4FA591B491EC91ED239E
:100CB00081E090E021F480E002C080E090E0DF91EC
:100CC000CF9108951F93CF93DF93282F30E0F90140
:100CD000EB5AFD4F8491F901E15FFD4FD491F90189
:100CE000E753FE4FC491CC23C1F0162F8111C2DE11
:100CF000EC2FF0E0EE0FFF1FEB56FE4FA591B491E5
:100D00008FB7F894111105C09C91ED2FE095E92360
:100D100002C0EC91ED2BEC938FBFDF91CF911F912F
:100D20000895CF92DF92EF92FF920F931F93CF938C
:100D3000DF936C018B017A01EC01CC55DB4F88818C
:100D400087FF04C0FB011182108224C08CE08C9DBF
:100D500090018D9D300D11248881A901480F511DEE
:100D600087FD5A958091A70390E04817590794F49E
:100D70008881A901480F511D87FD5A95CA01FA01C2
:100D8000EE0FFF1F8E0F9F1FFC01E95EFC4F80815D
:100D900086FD19C088818F5F88838CE08C9D9001CF
:100DA0008D9D300D11248881A901480F511D87FDAB
:100DB0005A958091A70390E048175907B4F48881A9
:100DC0008C303CF112C08881280F311D87FD3A9587
:100DD000F901EE0FFF1F2E0F3F1FF901E95EFC4FD7
:100DE000808160E08F736EDFD5CFF80180819181C3
:100DF000049680349C4918F480E49CE904C0F8010E
:100E0000808191810496F701918380838FEF88839D
:100E100044C0F801408151818881B901680F711D7A
:100E200087FD7A95CB01FB01EE0FFF1F8E0F9F1FF1
:100E3000FC01E95EFC4F81819281840F951FF701CF
:100E4000918380838881A901480F511D87FD5A95A0
:100E5000CA01FA01EE0FFF1F8E0F9F1FFC01E95E12
:100E6000FC4F808186FF19C08881280F311D87FDC6
:100E70003A95F901EE0FFF1F2E0F3F1FF901E95EB2
:100E8000FC4F808161E08F73DF91CF911F910F91B3
:100E9000FF90EF90DF90CF9015CFDF91CF911F9112
:100EA0000F91FF90EF90DF90CF900895CF93DF9355
:100EB00090E0FC01E15FFD4F2491FC01E753FE4F00
:100EC0008491882361F190E0880F991FFC01E55817
:100ED000FE4FC591D491FC01EB56FE4FA591B49104
:100EE000611109C09FB7F894888120958223888377
:100EF000EC912E230BC0623061F49FB7F8943881D7
:100F0000822F809583238883EC912E2B2C939FBF77
:100F100006C08FB7F894E8812E2B28838FBFDF910E
:100F2000CF9108951F920F920FB60F9211240BB616
:100F30000F922F933F934F935F936F937F938F9372
:100F40009F93AF93BF93EF93FF9348E251E064E226
:100F500071E080E090E0E5DEFF91EF91BF91AF910D
:100F60009F918F917F916F915F914F913F912F91C1
:100F70000F900BBE0F900FBE0F901F9018951F92F1
:100F80000F920FB60F9211240BB60F922F933F932F
:100F90004F935F936F937F938F939F93AF93BF9381
:100FA000EF93FF9348EA50E064EA70E083E090E05A
:100FB000B8DEFF91EF91BF91AF919F918F917F919B
:100FC0006F915F914F913F912F910F900BBE0F90BA
:100FD0000FBE0F901F9018951F920F920FB60F9291
:100FE00011240BB60F922F933F934F935F936F9300
:100FF0007F938F939F93AF93BF93EF93FF9348E9B2
:1010000050E064E970E082E090E08BDEFF91EF91C8
:10101000BF91AF919F918F917F916F915F914F9110
:101020003F912F910F900BBE0F900FBE0F901F900E
:1010300018951F920F920FB60F9211240BB60F92B4
:101040002F933F934F935F936F937F938F939F93D0
:10105000AF93BF93EF93FF9348E850E064E870E0EC
:1010600081E090E05EDEFF91EF91BF91AF919F91A3
:101070008F917F916F915F914F913F912F910F9041
:101080000BBE0F900FBE0F901F901895CF93DF935C
:10109000FC012381211111C0EC011616170614F46E
:1010A00061E001C060E088810DDE61E089810ADED7
:1010B00060E08981DF91CF9105CEDF91CF910895D6
:1010C000CF93DF93EC01862F688349832A8361E005
:1010D000EDDE61E08981EADE61E08A81E7DE61E0E0
:1010E0008A81F0DD81E08B83DF91CF910895FC014F
:1010F00080EF93E2A4E7B9E480839183A283B38372
:1011000084839583A683B78380879187A287B387DB
:1011100084879587A687B787808B918BA28BB38BAB
:10112000848B958BA68BB78B808F918FA28FB38F7B
:10113000848F958FA68FB78F80A391A3A2A3B3A30B
:1011400084A395A3A6A3B7A3DF019C96E458FF4F01
:1011500040EF53E264E779E4AE17BF0729F04D93FF
:101160005D936D937D93F8CF08951F920F920FB604
:101170000F9211240BB60F922F933F934F935F93CF
:101180006F937F938F939F93AF93BF93CF93DF938F
:10119000EF93FF938FE06EDDEC0182E06BDDC80F13
:1011A000D91F8EE067DDC80FD91F83E063DDC80F4C
:1011B000D91F82E15FDDC80FD91F83E15BDDC80F56
:1011C000D91F87E157DDC80FD91F89E153DDC80F4B
:1011D000D91F85E24FDDC80FD91F83E24BDDC80F51
:1011E000D91F81E247DDC80FD91F8FE143DDC80F4A
:1011F000D91F8DE23FDDC80FD91F8BE23BDDC80F41
:10120000D91F89E237DDC80FD91F87E233DDC80F48
:10121000D91F8BE12FDDC80FD91F8DE12BDDC80F42
:10122000D91F8FE227DDC80FD91F80E223DD8C0F85
:101230009D1F21E0181619060CF020E020935E0493
:101240008091590490915A04A0915B04B0915C0480
:101250000196A11DB11D8093590490935A04A09347
:101260005B04B0935C04FF91EF91DF91CF91BF914C
:10127000AF919F918F917F916F915F914F913F912E
:101280002F910F900BBE0F900FBE0F901F901895CF
:101290001F920F920FB60F9211248F9380915D04CD
:1012A000823019F481E0809379028F910F900FBE04
:1012B0000F901F901895FC012481358162177307E8
:1012C00020F480819181009729F41092A80488EA83
:1012D00094E00895860F971F0895CF92DF92EF92C2
:1012E000FF920F931F93CF93DF936C017A018B01D1
:1012F000C0E0D0E0CE15DF0589F0D8016D918D01F9
:10130000D601ED91FC910190F081E02DC601199577
:10131000892B11F47E0102C02196ECCFC701DF9129
:10132000CF911F910F91FF90EF90DF90CF90089594
:101330000E94471DFC0180819181009711F00C945F
:101340008D1760E070E0CB0108950F931F93CF934A
:10135000DF93EC0188819981009729F02A813B81F4
:101360002617370788F48B016F5F7F4F0E94631C3D
:10137000009761F0998388831B830A832C813D81C8
:10138000232B11F4FC01108281E001C080E0DF9189
:10139000CF911F910F9108951F920F920FB60F9248
:1013A00011242F933F938F939F93AF93BF9380917B
:1013B000AE049091AF04A091B004B091B10430910B
:1013C000AD0423E0230F2D3720F40196A11DB11D9C
:1013D00005C026E8230F0296A11DB11D2093AD0480
:1013E0008093AE049093AF04A093B004B093B10483
:1013F0008091A9049091AA04A091AB04B091AC048F
:101400000196A11DB11D8093A9049093AA04A093F5
:10141000AB04B093AC04BF91AF919F918F913F917A
:101420002F910F900FBE0F901F901895FC012481F3
:101430003581232B31F421E061157105A1F0FB0109
:1014400008C0FC01808191816115710531F421E0B2
:10145000FC018081882339F005C00E94541D21E0E1
:10146000892B09F020E0822F08956CE272E0DEDF24
:1014700091E0811190E0892F0895EF92FF920F93F0
:101480001F93CF93DF93FC01248135816115710592
:1014900011F480E018C041155105A1F07B01EC0169
:1014A0008A01020F131FB80150DF882391F32881AE
:1014B00039818C819D81B701820F931F0E945D1D30
:1014C0001D830C8381E0DF91CF911F910F91FF90DD
:1014D000EF900895CF93DF931F921F92CDB7DEB7A1
:1014E00069831A8241E050E0BE016F5F7F4FC5DF24
:1014F0000F900F90DF91CF910895CF93DF93EC0180
:1015000088819981009711F00E94CB1B1982188263
:101510001D821C821B821A82DF91CF910895EF9267
:10152000FF920F931F93CF93DF93EC017B018A010E
:10153000BA010BDF811103C0CE01DFDF07C01D83BD
:101540000C83B701888199810E945D1DCE01DF91D6
:10155000CF911F910F91FF90EF900895CF93DF935C
:10156000EC016115710551F0FB0101900020E9F7D4
:101570003197AF01461B570BD2DF01C0BEDFCE0152
:10158000DF91CF910895CF93DF93EC01FB01861794
:10159000970751F0608171816115710521F04481D7
:1015A0005581BDDF01C0A9DFCE01DF91CF91089544
:1015B000FC01808191810C94CB1B0F931F93CF93DF
:1015C000DF93CDB7DEB761970FB6F894DEBF0FBEDD
:1015D000CDBF8C01CB01F8011182108213821282DF
:1015E0001582148250E0BE016F5F7F4F0E949A17F0
:1015F000BE016F5F7F4FC801B1DF61960FB6F894EF
:10160000DEBF0FBECDBFDF91CF911F910F91089527
:10161000CF93DF9300D000D0CDB7DEB7109259043E
:1016200010925A0410925B0410925C04609155046D
:10163000709156044AE0CE010196BFDFCE010196BB
:101640000E948201CE010196B3DF80E090E0AAE71C
:10165000B4E48093E4039093E503A093E603B0938E
:10166000E70381E08093340426960FB6F894DEBF3A
:101670000FBECDBFDF91CF910895FC011182108282
:1016800013821282158214827ECFFC011182108295
:1016900013821282158214826115710549F0FB01D3
:1016A00001900020E9F73197AF01461B570B37CF68
:1016B0000895BF92CF92DF92EF92FF920F931F9304
:1016C000CF93DF93CDB7DEB72C970FB6F894DEBF7C
:1016D0000FBECDBF6C016CE272E0CE010796D5DF84
:1016E0006CE272E0C601A2DEBB24B3948111B12C7E
:1016F000E12CF12CD60114968D919C911597E8164A
:10170000F90608F046C1B701C601D5DDDC01EC9150
:101710004E2FEE0F550B660B770BFA01E654F109CD
:10172000E531F10508F0E7C08827E557FF4F8F4FF7
:101730000C942E1BCE01079698DE882309F405C170
:10174000CE010796F7DDF80160837183828393836E
:101750006CE272E0CE01079601DFF7C0CE0107967A
:1017600084DE882309F4F4C0CE010796E3DDD801B6
:101770006D937D938D939C9313976CE272E0CE01F1
:101780000796ECDEE5C0CE0107966FDE882309F4EC
:10179000E2C0CE010796CEDDF801608371838283BB
:1017A00093836CE272E0CE010796D8DED4C0CE01FE
:1017B00007965BDE882309F4D1C0CE010796BADD17
:1017C000D8016D937D938D939C9313976CE272E097
:1017D000CE010796C3DEC2C0CE01079646DE88233F
:1017E00009F4BFC0CE010796A5DDF80160837183BF
:1017F000828393836CE272E0CE010796AFDEB1C0C4
:10180000CE01079632DE882309F4AEC0CE010796DA
:1018100091DDD8016D937D938D939C9313976CE22A
:1018200072E0CE0107969ADE9FC0CE0107961DDEBC
:10183000882309F49CC0CE0107967CDDF801608303
:101840007183828393836CE272E0CE01079686DE19
:101850008EC0CE01079609DE882309F48BC0CE0125
:10186000079668DDD8016D937D938D939C931397B4
:101870006CE272E0CE01079671DE7CC0CE01079665
:10188000F4DD882309F479C0CE01079653DDF80111
:1018900060837183828393836CE272E0CE0107964A
:1018A0005DDE6BC0CE010796E0DD882309F468C0D9
:1018B000CE0107963FDDD8016D937D938D939C9368
:1018C00013976CE272E0CE01079648DE59C0CE0154
:1018D0000796CBDD882309F456C0CE0107962ADD92
:1018E000F80160837183828393836CE272E0CE019E
:1018F000079634DE48C0B701C601DDDCDC018C91FF
:10190000803344F4B701C601D6DCFC0180818E32FD
:1019100051F4BBC0B701C601CEDCDC018C918A3327
:101920000CF4B3C0EFCFB701C601C5DCFC01808168
:101930008C3209F4AAC0B701C601BDDCDC018C9170
:101940008D3209F4A2C0B12C20C008EB13E01DC0F9
:1019500000EC13E01AC004EC13E017C008EC13E02D
:1019600014C00CEC13E011C000ED13E00EC00CEB42
:1019700013E00BC004ED13E008C008ED13E005C050
:101980000CED13E002C000EE13E0FFEFEF1AFF0AC8
:10199000B1CECE01079669DD882341F0CE010796CE
:1019A000C9DCF8016083718382839383B1100CC01A
:1019B00064E772E0CE01019668DECE0101960E94D6
:1019C0008201CE010196F4DD20EF33E244E759E4D1
:1019D0006091C0037091C1038091C2039091C303D1
:1019E0000E945319811110C080913D0490913E04D2
:1019F000A0913F04B09140048093C0039093C10331
:101A0000A093C203B093C30320EF33E244E759E449
:101A10006091C4037091C5038091C6039091C70380
:101A20000E945319811110C0809141049091420489
:101A3000A0914304B09144048093C4039093C503E0
:101A4000A093C603B093C70320EF33E244E759E401
:101A50006091C8037091C9038091CA039091CB0330
:101A60000E945319811123C080914504909146042E
:101A7000A0914704B09148048093C8039093C90390
:101A8000A093CA03B093CB0312C0B701C60113DC05
:101A9000DC018C918C3211F46EE205C0B701C601F5
:101AA0000ADCFC016081CE01079614DD6ECFCE0109
:101AB00007967EDD8B2D2C960FB6F894DEBF0FBEF9
:101AC000CDBFDF91CF911F910F91FF90EF90DF90ED
:101AD000CF90BF900895CF93DF93CDB7DEB76C97CB
:101AE0000FB6F894DEBF0FBECDBF789484B5826088
:101AF00084BD84B5816084BD85B5826085BD85B5B2
:101B0000816085BD80916E00816080936E0010922F
:101B100081008091810082608093810080918100AA
:101B2000816080938100809180008160809380003B
:101B30008091B10084608093B1008091B000816099
:101B40008093B00080919100826080939100809199
:101B500091008160809391008091900081608093DA
:101B600090008091A10082608093A1008091A100EB
:101B700081608093A1008091A00081608093A0008B
:101B800080912101826080932101809121018160F7
:101B900080932101809120018160809320018091B8
:101BA0007A00846080937A0080917A0082608093CA
:101BB0007A0080917A00816080937A0080917A0027
:101BC000806880937A001092C100F89414BC15BC10
:101BD00016BC89EF87BD84B5826084BD85B58360FE
:101BE00085BD80916E00826080936E0010928000AF
:101BF0001092810080E690EF90938500809384009E
:101C00008091810082608093810080916F0081606B
:101C100080936F007894E0918A02F0918B0282E0C9
:101C20008083E0918602F09187021082E091880221
:101C3000F091890280E1808310929202E0918E02FD
:101C4000F0918F0286E08083E0918C02F0918D020A
:101C5000808180618083E0918C02F0918D0280818F
:101C600088608083E0918C02F0918D028081806891
:101C70008083E0918C02F0918D0280818F7D808342
:101C800061E08DE013D962E08FE010D962E082E07C
:101C90000DD962E08EE00AD962E083E007D962E004
:101CA00082E104D962E083E101D962E087E1FED8F4
:101CB00062E089E1FBD862E085E2F8D862E083E285
:101CC000F5D862E081E2F2D862E08FE1EFD862E01D
:101CD0008DE2ECD862E08BE2E9D862E089E2E6D8F6
:101CE00062E087E2E3D862E08BE1E0D862E08DE178
:101CF000DDD862E08FE2DAD862E080E2D7D8809166
:101D0000AE03803308F051C061E089E3CFD8809101
:101D1000AE03E82FF0E09F01220F331FE20FF31F05
:101D2000E95EFC4F9081907C996390831092AF03A1
:101D30001092B0036CE00E94221B9CE0899FB001CE
:101D4000112440E050E09A01260F371FF901EE0FF1
:101D5000FF1F2E0F3F1FF901E95EFC4F908196FD9A
:101D600017C04F5F5F4F4C30510569F7813009F064
:101D7000D1C71092800082E080938100109285008C
:101D800010928400B19A80916F00826080936F00FE
:101D9000E091AE03F0E0CF01880F991FE80FF91F23
:101DA000E95EFC4F80818064808380E090E00E9447
:101DB000550228E14AE16CE184E894E081D961E0D0
:101DC00088E274D861E08CE271D861E08AE26ED872
:101DD00026E246E367E38CE994E072D92EE34EE213
:101DE00060E384E994E06CD928E34CE36DE38CE88C
:101DF00094E066D9412C512C80E8682E8FE3782E30
:101E000098E1292E96EF392E80917802882311F1DE
:101E10001092780268EA73E0CE0101962EDCCE01C2
:101E200001960E94F801182FCE010196C1DB111115
:101E30000CC068EA73E0CE0101961FDCCE0101966A
:101E40000E944C02CE010196B3DB6CE272E088EA9C
:101E500093E084DB80915D04813009F460C0A8F0D8
:101E6000823009F426C3833009F451C762E672E078
:101E7000CE0101960ADCCE0101960E94BA02CE0183
:101E8000019696DB10925D0442C70E94700300E742
:101E900014E0D8018D918D011C8A1B8A1E8A1D8A2F
:101EA000188E1F8A4AE0BE016F5F7F4F90E00E944C
:101EB0009017BE016F5F7F4FCE0143964FDBBE018F
:101EC0006D5E7F4FCE010196D8DB41E050E068E2C5
:101ED00072E0CE010196D1DA882309F447C74D811B
:101EE0005E8169817A818AE792E0F7D9CE01019615
:101EF0005FDBCE0143965CDBB4E004381B0749F698
:101F000041E050E068E272E08AE792E0E6D942E020
:101F100050E06AE272E08AE792E0DFD9F8C6809189
:101F2000B703882309F4F3C61092B70361EB73E09B
:101F3000CE010196A2DBCE010196BBDB182FCE01AC
:101F4000019636DB112309F4E2C66DE272E0CE01A0
:101F500001969BDBCE0101960E948201CE01019683
:101F600027DB6091B8037091B9038091BA03909117
:101F7000BB030E94ED1A6430710564F46230710590
:101F80000CF08EC261157105B1F06130710509F474
:101F90008EC00FC26430710509F469C26C317105DD
:101FA00009F007C24092E4035092E5036092E60311
:101FB0007092E703F8C120913D0430913E044091B6
:101FC0003F04509140046091C0037091C10380911F
:101FD000C2039091C3030E94531987FF0DC080E094
:101FE00090E0A0E8BFEB8093E4039093E503A09317
:101FF000E603B093E70308C04092E4035092E50380
:102000006092E6037092E70320914104309142040C
:1020100040914304509144046091C4037091C503FE
:102020008091C6039091C7030E94531987FF0DC08A
:1020300080E090E0A0E8BFEB8093E8039093E90391
:10204000A093EA03B093EB0308C04092E8035092D8
:10205000E9036092EA037092EB032091450430910A
:10206000460440914704509148046091C803709120
:10207000C9038091CA039091CB030E94531987FF33
:102080000DC080E090E0A0E8BFEB8093EC0390935C
:10209000ED03A093EE03B093EF0385C14092EC03F0
:1020A0005092ED036092EE037092EF037CC1C090FA
:1020B000C803D090C903E090CA03F090CB0380908E
:1020C000450490904604A0904704B0904804A501B0
:1020D0009401C701B6010E9453198823F1F0A501AC
:1020E0009401C701B6010E94531987FF0DC080E01B
:1020F00090E0A0E8BFEB8093040490930504A093C4
:102100000604B09307044FC14092040450920504A2
:10211000609206047092070446C1C0903D04D090BE
:102120003E04E0903F04F09040048090C003909003
:10213000C103A090C203B090C303A5019401C701DD
:10214000B6010E945319811126C02091C403309119
:10215000C5034091C6035091C7036091410470913B
:10216000420480914304909144040E9453198823AF
:1021700009F419C11092E8031092E9031092EA03DE
:102180001092EB031092E4031092E5031092E60321
:102190001092E7032FC0A5019401C701B6010E9468
:1021A000531987FF0DC04092E8035092E9036092F3
:1021B000EA037092EB03A7019601C501B40110C0B8
:1021C00080E090E0A0E8BFEB8093E8039093E90300
:1021D000A093EA03B093EB03A5019401C701B601F4
:1021E0000E94881A6093E4037093E5038093E603EA
:1021F0009093E703C0904104D0904204E0904304E0
:10220000F09044048090C4039090C503A090C6034E
:10221000B090C703A5019401C701B6010E945319EC
:10222000811111C01092F0031092F1031092F20389
:102230001092F3031092EC031092ED031092EE0350
:102240001092EF032FC0A5019401C701B6010E94AF
:10225000531987FF0DC04092F0035092F103609232
:10226000F2037092F303A7019601C501B40110C0F7
:1022700080E090E0A0E8BFEB8093F0039093F1033F
:10228000A093F203B093F303A5019401C701B60133
:102290000E94881A6093EC037093ED038093EE0321
:1022A0009093EF038090E4039090E503A090E60301
:1022B000B090E703C090EC03D090ED03E090EE0304
:1022C000F090EF03A7019601C501B4010E941E1B07
:1022D0001816ACF5A5019401C701B6010E94881A31
:1022E0009B01AC010E94891A6093F4037093F5037B
:1022F0008093F6039093F703A7019601C701B601F7
:102300000E94891A6093F8037093F9038093FA038B
:102310009093FB03A50194010E94881A6093FC032B
:102320007093FD038093FE039093FF03409200049B
:1023300050920104609202047092030434C0A70119
:102340009601C501B4010E94881A9B01AC010E944C
:10235000891A6093F4037093F5038093F6039093C6
:10236000F703A5019401C501B4010E94891A609385
:10237000F8037093F9038093FA039093FB03A7018A
:1023800096010E94881A6093FC037093FD0380936A
:10239000FE039093FF031092000410920104109228
:1023A00002041092030410925F0480E00E94D8029D
:1023B00077C06091BC037091BD038091BE03909182
:1023C000BF030E94ED1A6430710531F0653071056C
:1023D00029F06330710559F51BD962C01092590478
:1023E00010925A0410925B0410925C0460915504A0
:1023F000709156044AE0CE010196DFD8CE010196D5
:102400000E948201CE010196D3D86091550470914B
:10241000560480E090E04BD76093E4037093E503AB
:102420008093E6039093E7031092340439C06091DF
:10243000DC037091DD038091DE039091DF030E9445
:10244000ED1A6430710560F120EF33E244E759E49E
:102450006091D4037091D5038091D6039091D703F6
:1024600022D7882369F0809134048823C9F0109220
:10247000590410925A0410925B0410925C0410C02C
:1024800065E472E0CE01019600D9CE0101960E946A
:10249000BA02CE0101968CD888EB93E00E947708AF
:1024A00080915D04813009F032C482E080935D0444
:1024B0002EC40E94700380917902882309F427C4F6
:1024C0006091B8037091B9038091BA039091BB03F6
:1024D0000E94ED1A6430710564F4623071050CF0ED
:1024E00014C46115710571F06130710509F4F7C00C
:1024F000E3C26430710509F4E7C16C31710509F478
:10250000F9C1DAC28FE89DEF909385008093840033
:1025100020913D0430913E0440913F04509140048D
:102520006091C0037091C1038091C2039091C30375
:10253000BAD6882339F16091E4037091E503809164
:10254000E6039091E7030E94ED1A8CE994E00E9463
:1025500046082091E4033091E5034091E603509151
:10256000E70360913D0470913E0480913F04909197
:102570004004CFD760933D0470933E0480933F04A2
:1025800090934004209141043091420440914304CF
:10259000509144046091C4037091C5038091C603B7
:1025A0009091C70380D6882339F16091E803709138
:1025B000E9038091EA039091EB030E94ED1A84E90C
:1025C00094E00E9446082091E8033091E90340918D
:1025D000EA035091EB0360914104709142048091B1
:1025E00043049091440495D760934104709342044E
:1025F0008093430490934404209145043091460411
:1026000040914704509148046091C8037091C903F8
:102610008091CA039091CB0346D6882331F1609113
:10262000EC037091ED038091EE039091EF03D5D709
:102630008CE894E00E9446082091EC033091ED0371
:102640004091EE035091EF03609145047091460470
:1026500080914704909148045CD76093450470933F
:102660004604809347049093480420913D043091A0
:102670003E0440913F04509140046091C00370912A
:10268000C1038091C2039091C3030DD681113DC354
:1026900020914104309142044091430450914404FC
:1026A0006091C4037091C5038091C6039091C703E4
:1026B000FAD581112AC320914504309146044091F6
:1026C0004704509148046091C8037091C9038091F8
:1026D000CA039091CB03E7D5811117C3F3C28FE8EA
:1026E0009DEF909385008093840020914504309164
:1026F000460440914704509148046091C80370918A
:10270000C9038091CA039091CB03CDD5882349F1A9
:10271000609104047091050480910604909107046F
:102720005CD78CE894E00E94460820910404309124
:10273000050440910604509107046091450470918E
:1027400046048091470490914804E3D69B01AC0174
:102750006093450470934604809347049093480423
:10276000B2CF20E030E040E85FE360910004709178
:102770000104809102049091030495D58111C5C292
:1027800080903D0490903E04A0903F04B09040049F
:102790002091C0033091C1034091C2035091C30303
:1027A000C501B40180D5882309F4AFC28091FC0330
:1027B0009091FD03A091FE03B091FF03898F9A8F42
:1027C000AB8FBC8F20E030E0A901BC01CD0136D732
:1027D000C090E803D090E903E090EA03F090EB03A7
:1027E00087FD4CC0A7019601C501B40192D6609344
:1027F0003D0470933E0480933F04909340042091E5
:10280000F0033091F1034091F2035091F303609192
:10281000410470914204809143049091440479D61C
:102820006093410470934204809343049093440462
:102830002091F4033091F5034091F6035091F70392
:10284000698D7A8D8B8D9C8D64D66093FC0370931B
:10285000FD038093FE039093FF03C701B601BDD62D
:102860008CE994E00E9446086091F0037091F103B6
:102870008091F2039091F303B0D6C4C02091F80385
:102880003091F9034091FA035091FB03698D7A8DE1
:102890008B8D9C8D3ED66093FC037093FD038093DB
:1028A000FE039093FF03A7019601C501B40131D641
:1028B00060933D0470933E0480933F0490934004E2
:1028C000C701B6018AD638C06091590470915A0484
:1028D00080915B0490915C04EAD42091E0033091F4
:1028E000E1034091E2035091E303A8D618160CF0DF
:1028F0000CC2E8C130928500209284006091E4030C
:102900007091E5038091E6039091E70366D6CB01D1
:10291000770FAA0BBB0BFC013197E730F10508F0EC
:10292000F4C18827EE58FF4F8F4F98C680917004EE
:10293000811105C06FEF7FEF8CE994E065C01092C4
:102940003D0410923E0410923F041092400480E037
:1029500090E0A0E0B0E447C020E030E04AE754E473
:1029600060913D0470913E0480913F049091400439
:102970009AD487FF1CC061E070E08CE994E00E946B
:10298000460820E030E040E85FE360913D0470914C
:102990003E0480913F0490914004BBD560933D0478
:1029A00070933E0480933F0490934004AEC180E056
:1029B00090E0A0E4B0E417C080E69AEE9093850022
:1029C0008093840080917004882309F4B3CF10921F
:1029D0003D0410923E0410923F041092400480E0A7
:1029E00090E0A0E8B0E48093E4039093E503A09323
:1029F000E603B093E70389C180917204811107C097
:102A00006FEF7FEF84E994E00E9446087EC1109248
:102A1000410410924204109243041092440480E056
:102A200090E0A0EAB0E4DFCF20E030E04AE754E4F1
:102A30006091410470914204809143049091440458
:102A400032D487FF1CC061E070E084E994E00E940A
:102A5000460820E030E040E85FE360914104709177
:102A60004204809143049091440453D560934104FF
:102A700070934204809343049093440446C180E0E1
:102A800090E0A0ECB0E4AFCF80E69AEE90938500A2
:102A90008093840080917204882309F4B1CF10924E
:102AA000410410924204109243041092440480E0C6
:102AB00090E0A0EEB0E497CF6091BC037091BD03AD
:102AC0008091BE039091BF0388D56430710539F0C1
:102AD00065307105A9F06330710509F078C0809107
:102AE000590490915A04A0915B04B0915C0485361E
:102AF0009105A105B10508F408C10E94F60205C1BF
:102B00008091590490915A04A0915B04B0915C04A7
:102B100085369105A105B10508F4F7C08090E4035E
:102B20009090E503A090E603B090E70320E030E04A
:102B30004AE754E4C501B401EBD46B017C0120E009
:102B400030E0A9017BD5181654F420E030E048ECC1
:102B500052E4C701B60172D5181654F01DC020E02A
:102B600030E048EC52ECC701B6019DD387FF14C09A
:102B700020E030E048EC52E4C501B401C9D46093D0
:102B8000E4037093E5038093E6039093E7032AD56B
:102B9000CB010E94550212C080E090E0AAE7B4E4A5
:102BA0008093E4039093E503A093E603B093E703D7
:102BB00088EE93E00E9455020E94ED0210925904A3
:102BC00010925A0410925B0410925C049EC06091B3
:102BD000DC037091DD038091DE039091DF03FDD46F
:102BE0006430710508F491C08090D4039090D503AF
:102BF000A090D603B090D70320EF33E244E759E426
:102C0000C501B40150D3882309F45FC08091340416
:102C1000882309F457C08091590490915A04A091D7
:102C20005B04B0915C0485369105A105B10508F4FB
:102C30006CC01092590410925A0410925B041092C6
:102C40005C040091550410915604B80180E090E0B6
:102C50002ED36B017C019B01AC01C501B401EED404
:102C6000181684F4A7019601C501B40151D420E0DF
:102C700030E048EC52E4E2D41816D4F4C8018C5980
:102C80009F4F0FC0A5019401C701B60141D420E0B8
:102C900030E048EC52E4D2D4181654F4C8018456FB
:102CA000910990935604809355040E9455022DC0BB
:102CB000C501B40197D47093560460935504CB01B9
:102CC0000E9455020E94ED0220C068E472E0CE012D
:102CD00001960E94450BCE0101960E948201CE0111
:102CE00001960E94D80A6FE572E0CE0101960E941B
:102CF000450BCE0101960E948201CE0101960E94F1
:102D0000D80A88EB93E00E947708109279020E941B
:102D1000A8057AC8823061F41092900080939100E7
:102D2000109295001092940088BB8093710030C877
:102D3000833069F41092A00082E08093A100109289
:102D4000A5001092A40089BB8093720021C8811154
:102D50001FC81092200182E080932101109225016A
:102D6000109224018ABB8093730012C8CE01019691
:102D70000E947D0AB4C888EA93E00E94D80A81EBD9
:102D800093E00C94D80A10927D0210927C0288EE97
:102D900093E0A0E0B0E080937E0290937F02A09346
:102DA0008002B09381028AE192E090937B0280934B
:102DB0007A0285EC90E0909387028093860284ECFF
:102DC00090E0909389028093880280EC90E0909349
:102DD0008B0280938A0281EC90E090938D02809325
:102DE0008C0282EC90E090938F0280938E0286ECAE
:102DF00090E090939102809390021092930210922F
:102E0000940210929502109296021092A0041092D1
:102E1000A1041092A2041092A30410929F04109295
:102E200098041092990410929A0410929B041092A4
:102E300097041092900410929104109292041092B0
:102E4000930410928F0410928804109289041092B7
:102E50008A0410928B041092870480E1E6E0F2E08D
:102E6000A0E6B4E001900D928A95E1F781E08093AD
:102E70005F0410925D04E0E7F4E0119284E0E4382E
:102E8000F807D9F710923D0410923E0410923F04C7
:102E90001092400410924104109242041092430494
:102EA0001092440410924504109246041092470474
:102EB0001092480488E097E090935604809355045C
:102EC0001092340488EB93E00E9477086CE272E081
:102ED00081EB93E00E94450B8091A7038033A0F41F
:102EE00091E0980F9093A7038093AE0390E0FC01CC
:102EF000EE0FFF1F8E0F9F1FFC01E95EFC4F88EB5A
:102F00009BE09283818303C08FEF8093AE036CE2DA
:102F100072E088EA93E00C94450B662777272DC072
:102F2000BB274A3031F4992322F4BDE29095819574
:102F30009F4F0BC04532510518F4423008F004C0D1
:102F4000FB011082CB010895BB27FB015527AA275F
:102F5000880F991FAA1FA41710F0A41B8395505126
:102F6000B9F7A05DAA3308F0A95DA193009779F79E
:102F7000B111B1931192CB0186C16F927F928F9262
:102F80009F92AF92BF92CF92DF92EF92FF920F93F8
:102F90001F93CF93DF93EC017B016115710519F04D
:102FA000DB018D939C938E010F5F1F4F7880872DDF
:102FB00090E049D1892B11F0E801F5CFBDE27B12F9
:102FC00005C00F5F1F4F7980C1E008C0EBE27E12A1
:102FD00004C08E010E5F1F4F7980C0E06801F1E0F0
:102FE000CF1AD10843E050E068E471E0C60133D164
:102FF000892BE9F4680122E0C20ED11C45E050E0C3
:1030000063E471E0C60127D1892B21F4680187E0D0
:10301000C80ED11CE114F10419F0D701CD92DC9255
:10302000C111F9C060E070E080E89FE7FDC043E0B7
:1030300050E060E471E0C6010ED1892B51F4E11437
:10304000F10409F4EDC00E5F1F4FF70111830083F7
:10305000E7C0680160E070E0CB0100E010E0F6013D
:10306000D0EDD70DDA3050F52C2F2260622E2C2FA8
:103070002870C2FF05C0211127C00F5F1F4F24C059
:10308000222311F001501109A5E0B0E09B01AC0131
:1030900026D24B015C01880C991CAA1CBB1CC501E3
:1030A000B4016D0F711D811D911D6839A9E97A0761
:1030B0008A07A9E19A0740F0C66005C0DE3F51F4D7
:1030C000C3FD44C0C8606C2EBFEFCB1ADB0A708012
:1030D000C62DC5CF2D2F2F7D2531C1F540814D3215
:1030E00011F4C06106C04B3221F0319621E030E08E
:1030F00006C03296D60111964C9122E030E0A0ED48
:10310000A40FAA3018F0E21BF30B20C040E050E0FF
:103110004038BCE05B075CF49A01220F331F220F9A
:10312000331F420F531F440F551F4A0F511D319635
:10313000DF0111972C91A0EDA20FAA3048F3C4FF34
:1031400003C0519541955109040F151FC1FF07C0D8
:10315000E114F10421F03197D701ED93FC93A7D04E
:10316000C370C33019F06B017C0106C06B017C0198
:10317000F7FAF094F7F8F09420E030E0A901C701E5
:10318000B60191D0882309F443C017FF06C01195FA
:1031900001951109CFE5D1E002C0C7E7D1E05E019A
:1031A000B8E1AB1AB1084601BE2DAF2D90E2E92E71
:1031B000F12C0E151F057CF0FE01259135914591EE
:1031C0005491B4018B2F9A2FD3D04B01B82FA92F34
:1031D0000E191F09EECF2497F594E794CA15DB0565
:1031E00041F76401EB2EFA2E8E2D880F8F2D881F4C
:1031F0008F3F41F020E030E0A901C701B60153D074
:10320000811106C082E290E09093B3048093B204EF
:10321000C701B60109C060E070E080E89FEF04C01C
:1032200060E070E080EC9FE7DF91CF911F910F91FC
:10323000FF90EF90DF90CF90BF90AF909F908F90D6
:103240007F906F9008959111F6C0803219F08950E7
:103250008550D0F70895FB01DC014150504088F0C3
:103260008D9181341CF08B350CF4805E6591613456
:103270001CF06B350CF4605E861B611171F3990BC9
:103280000895881BFCCFDC01FC01672F7191772327
:10329000E1F7329704C07C916D9370836291AE1711
:1032A000BF07C8F3089540D008F481E00895E8947A
:1032B00009C097FB3EF490958095709561957F4F7E
:1032C0008F4F9F4F9923A9F0F92F96E9BB2793952C
:1032D000F695879577956795B795F111F8CFFAF43C
:1032E000BB0F11F460FF1BC06F5F7F4F8F4F9F4F6D
:1032F00016C0882311F096E911C0772321F09EE8CB
:10330000872F762F05C0662371F096E8862F70E030
:1033100060E02AF09A95660F771F881FDAF7880F0A
:103320009695879597F90895990F0008550FAA0B60
:10333000E0E8FEEF16161706E807F907C0F01216C8
:103340001306E407F50798F0621B730B840B950BCB
:1033500039F40A2661F0232B242B252B21F4089520
:103360000A2609F4A140A6958FEF811D811D0895BD
:103370000BD07BC06CD028F071D018F0952309F0E9
:103380005DC062C01124A5C081D0A0F3959FD1F388
:10339000950F50E0551F629FF001729FBB27F00D03
:1033A000B11D639FAA27F00DB11DAA1F649F662758
:1033B000B00DA11D661F829F2227B00DA11D621FA7
:1033C000739FB00DA11D621F839FA00D611D221F61
:1033D000749F3327A00D611D231F849F600D211D45
:1033E000822F762F6A2F11249F5750408AF0E1F0E8
:1033F00088234AF0EE0FFF1FBB1F661F771F881F31
:1034000091505040A9F79E3F510570F017C061C020
:103410005F3FECF3983EDCF3869577956795B7951B
:10342000F795E7959F5FC1F7FE2B880F911D969545
:10343000879597F9089599278827089597F99F67A1
:1034400080E870E060E008959FEF80EC089500242C
:103450000A941616170618060906089500240A94F9
:1034600012161306140605060895092E0394000C7F
:1034700011F4882352F0BB0F40F4BF2B11F460FF0E
:1034800004C06F5F7F4F8F4F9F4F089557FD905837
:10349000440F551F59F05F3F71F04795880F97FB18
:1034A000991F61F09F3F79F08795089512161306D2
:1034B0001406551FF2CF4695F1DF08C01616170601
:1034C0001806991FF1CF8695710561050894089536
:1034D000E894BB2766277727CB0197F9089509D091
:1034E000A59F900DB49F900DA49F800D911D112458
:1034F0000895A29FB001B39FC001A39F700D811DCD
:103500001124911DB29F700D811D1124911D0895EC
:103510005058BB27AA270ED0A8CF99DF30F09EDFE6
:1035200020F031F49F3F11F41EF48ECF0EF4E0959D
:10353000E7FB84CFE92FAADF80F3BA17620773078E
:103540008407950718F071F49EF5C2CF0EF4E0954C
:103550000B2EBA2FA02D0B01B90190010C01CA014D
:10356000A0011124FF27591B99F0593F50F4503EF8
:1035700068F11A16F040A22F232F342F4427585FEA
:10358000F3CF469537952795A795F0405395C9F702
:103590007EF41F16BA0B620B730B840BBAF09150BA
:1035A000A1F0FF0FBB1F661F771F881FC2F70EC059
:1035B000BA0F621F731F841F48F48795779567952C
:1035C000B795F7959E3F08F0B3CF9395880F08F015
:1035D0009927EE0F97958795089504D06894B111B7
:1035E00078CF08955BDF88F09F5790F0B92F992727
:1035F000B751A0F0D1F0660F771F881F991F1AF0FE
:10360000BA95C9F712C0B13081F062DFB1E0089518
:103610005FCF672F782F8827B85F39F0B93FCCF399
:10362000869577956795B395D9F73EF490958095F3
:10363000709561957F4F8F4F9F4F089575DE08F409
:103640008FEF0895991B79E004C0991F961708F031
:10365000961B881F7A95C9F780950895EE0FFF1F76
:10366000881F8BBF0790F691E02D1994CF93DF93BD
:103670008230910510F482E090E0E091B604F09180
:10368000B70420E030E0C0E0D0E0309711F1408195
:10369000518148175907C0F04817590761F48281D2
:1036A0009381209719F09B838A832BC09093B70452
:1036B0008093B60426C02115310519F0421753072F
:1036C00018F49A01BE01DF01EF010280F381E02DC1
:1036D000DCCF2115310509F1281B390B24303105C8
:1036E00090F412968D919C9113976115710521F0BC
:1036F000FB019383828304C09093B7048093B60444
:10370000FD01329644C0FD01E20FF31F81939193B6
:10371000225031092D933C933AC02091B40430914A
:10372000B504232B41F4209102023091030230931F
:10373000B5042093B40420910002309101022115B8
:10374000310541F42DB73EB7409104025091050276
:10375000241B350BE091B404F091B504E217F30794
:10376000A0F42E1B3F0B2817390778F0AC014E5FF1
:103770005F4F2417350748F04E0F5F1F5093B50475
:103780004093B4048193919302C0E0E0F0E0CF0154
:10379000DF91CF9108950F931F93CF93DF930097FD
:1037A00009F48CC0FC013297138212820091B60496
:1037B0001091B7040115110581F420813181820F28
:1037C000931F2091B4043091B5042817390779F577
:1037D000F093B504E093B40471C0D80140E050E028
:1037E000AE17BF0750F412962D913C911397AD017F
:1037F0002115310509F1D901F3CF9D01DA01338398
:10380000228360817181860F971F8217930769F465
:10381000EC0128813981260F371F2E5F3F4F3183FE
:1038200020838A819B8193838283452B29F4F093A3
:10383000B704E093B60442C01396FC93EE9312973C
:10384000ED01499159919E01240F351FE217F307AD
:1038500071F480819181840F951F029611969C933B
:103860008E938281938113969C938E931297E0E0BE
:10387000F0E0D80112968D919C911397009719F062
:10388000F8018C01F6CF8D919C9198012E5F3F4FEE
:10389000820F931F2091B4043091B5042817390783
:1038A00069F4309729F41092B7041092B60402C05C
:1038B000138212821093B5040093B404DF91CF9168
:1038C0001F910F9108956F927F928F929F92AF9266
:1038D000BF92CF92DF92EF92FF920F931F93CF93FD
:1038E000DF93EC01009781F4CB01DF91CF911F9121
:1038F0000F91FF90EF90DF90CF90BF90AF909F908F
:103900008F907F906F90B2CEFC01E60FF71F9C0165
:1039100022503109E217F30708F4A8C0D9010D912C
:103920001C91119706171707A8F00530110508F428
:103930009BC0C80104978617970708F495C00250EA
:103940001109061B170B019311936D937C93CF0103
:1039500022DF8AC05B01A01AB10A4C01800E911EC1
:10396000A091B604B091B70440E050E0E12CF12CF6
:10397000109709F44AC0A815B905D1F56D907C904F
:103980001197630182E0C80ED11CCA14DB0480F1D8
:10399000A3014A195B096A0182E0C80ED11C129684
:1039A000BC9012971396AC91B5E0CB16D10440F0C1
:1039B000B282A38351834083D9016D937C930AC063
:1039C0000E5F1F4FC301800F911FF9019183808308
:1039D000EB2DFA2FE114F10431F0D7011396FC938B
:1039E000EE93129741C0F093B704E093B6043CC045
:1039F0008D919C9111974817590708F4AC017D01EE
:103A000012960D90BC91A02DB3CF8091B4049091EB
:103A1000B50488159905E1F446175707C8F4809155
:103A2000000290910102009741F48DB79EB740913A
:103A3000040250910502841B950BE817F907B0F4B6
:103A4000F093B504E093B404F901718360830CC072
:103A5000CB010CDE7C01009749F0A801BE011BD010
:103A6000CE0199DEC70104C0CE0102C080E090E023
:103A7000DF91CF911F910F91FF90EF90DF90CF904A
:103A8000BF90AF909F908F907F906F90089581E04E
:103A900090E0F89419C0FB01DC0102C001900D9286
:103AA00041505040D8F70895FB01DC018D91019001
:103AB00080190110D9F3990B0895FB01DC010190E5
:103AC0000D920020E1F7089511E0CFE4D1E000E08D
:103AD00005C0802FFE01C2DD2196011DC035D10732
:0A3AE00080E00807B1F7F894FFCF6B
:103AEA000000B8048000010303030303030300007A
:103AFA0000000001020300000000D3046D096C04F9
:103B0A0019059D047B048F0420000D0A007072655C
:103B1A00706172696E6720666F7220657865637579
:103B2A0074696F6E004533004552524F522E20552C
:103B3A004E4B4E4F574E20434F4D4D414E4400453C
:103B4A00300045320055350055340055360055379A
:083B5A00004531005731000065
:020000023000CC
:10E000000D9489F10D94B2F10D94B2F10D94B2F129
:10E010000D94B2F10D94B2F10D94B2F10D94B2F1F0
:10E020000D94B2F10D94B2F10D94B2F10D94B2F1E0
:10E030000D94B2F10D94B2F10D94B2F10D94B2F1D0
:10E040000D94B2F10D94B2F10D94B2F10D94B2F1C0
:10E050000D94B2F10D94B2F10D94B2F10D94B2F1B0
:10E060000D94B2F10D94B2F10D94B2F10D94B2F1A0
:10E070000D94B2F10D94B2F10D94B2F10D94B2F190
:10E080000D94B2F10D94B2F10D94B2F10D94B2F180
:10E090000D94B2F10D94B2F10D94B2F10D94B2F170
:10E0A0000D94B2F10D94B2F10D94B2F10D94B2F160
:10E0B0000D94B2F10D94B2F10D94B2F10D94B2F150
:10E0C0000D94B2F10D94B2F10D94B2F10D94B2F140
:10E0D0000D94B2F10D94B2F10D94B2F10D94B2F130
:10E0E0000D94B2F141546D656761323536300041AF
:10E0F000726475696E6F206578706C6F72657220DE
:10E1000073746B3530305632206279204D4C530099
:10E11000426F6F746C6F616465723E004875683F52
:10E1200000436F6D70696C6564206F6E203D200048
:10E130004350552054797065202020203D20005FF9
:10E140005F4156525F415243485F5F3D2000415658
:10E1500052204C696243205665723D20004743437C
:10E160002056657273696F6E203D20004350552024
:10E1700049442020202020203D20004C6F7720663D
:10E18000757365202020203D20004869676820665F
:10E190007573652020203D200045787420667573D6
:10E1A00065202020203D20004C6F636B2066757336
:10E1B000652020203D20004D617220203720323024
:10E1C000313300312E362E3800342E332E350056A2
:10E1D00023202020414444522020206F7020636F70
:10E1E00064652020202020696E73747275637469E1
:10E1F0006F6E2061646472202020496E74657272B3
:10E20000757074006E6F20766563746F7200726A49
:10E210006D702020006A6D70200057686174207056
:10E220006F72743A00506F7274206E6F7420737541
:10E2300070706F72746564004D7573742062652030
:10E2400061206C6574746572002000577269747483
:10E25000696E672045450052656164696E672045B7
:10E26000450045452065727220636E743D00504F35
:10E27000525400303D5A65726F2061646472003FF1
:10E280003D43505520737461747300403D454550C3
:10E29000524F4D207465737400423D426C696E6B41
:10E2A000204C454400453D44756D70204545505215
:10E2B0004F4D00463D44756D7020464C415348001B
:10E2C000483D48656C70004C3D4C69737420492F83
:10E2D0004F20506F72747300513D51756974005234
:10E2E0003D44756D702052414D00563D73686F7707
:10E2F00020696E7465727275707420566563746FF0
:10E30000727300593D506F727420626C696E6B00BD
:10E310002A0011241FBECFEFD1E2DEBFCDBF01E046
:10E320000CBF12E0A0E0B2E0EEE1FDEF03E00BBFB6
:10E3300002C007900D92A030B107D9F712E0A0E01B
:10E34000B2E001C01D92AE30B107E1F70F9460F367
:10E350000D948DFE01E20EBF0FEF0DBF11241FBE05
:10E360000D9460F30D9400F020E030E040ED57E0B4
:10E3700005C0FA013197F1F72F5F3F4F2817390792
:10E38000C0F308959C01260F311DC901A0E0B0E043
:10E390002F5F3F4FABBFFC018791882361F08093D3
:10E3A000C6008091C00086FFFCCF8091C0008064D1
:10E3B0008093C000EACF08958DE08093C6008091DD
:10E3C000C00086FFFCCF8091C00080648093C000B5
:10E3D0008AE08093C6008091C00086FFFCCF8091C8
:10E3E000C00080648093C00008950F94C2F10F9420
:10E3F000DCF10895FC019081992359F09093C600B7
:10E400008091C00086FFFCCF8091C0008064809323
:10E41000C0003196992379F70895282F982F929567
:10E420009F70892F805D8A3308F0895F8093C600D2
:10E430008091C00086FFFCCF8091C00080648093F3
:10E44000C000822F8F70982F905D9A3308F0995FEB
:10E450009093C6008091C00086FFFCCF8091C000E1
:10E4600080648093C00008959C01FB01853691056E
:10E470001CF46330710594F0C90164E670E00F94F8
:10E480002EFE605D7F4F6093C6008091C00086FFC6
:10E49000FCCF8091C00080648093C0002B30310598
:10E4A00014F43297B4F0C90164E670E00F942EFEC4
:10E4B0006AE070E00F942EFE605D7F4F6093C600AF
:10E4C0008091C00086FFFCCF8091C0008064809363
:10E4D000C000C9016AE070E00F942EFEC0968093E0
:10E4E000C6008091C00086FFFCCF8091C000806490
:10E4F0008093C00008951F93182F8EE692EE60E07F
:10E500000F94C2F11093C6008091C00086FFFCCF2B
:10E510008091C00080648093C0000F94DCF11F9153
:10E5200008952F923F924F925F926F927F928F92B7
:10E530009F92AF92BF92CF92DF92EF92FF920F9392
:10E540001F93DF93CF93CDB7DEB762970FB6F894E2
:10E55000DEBF0FBECDBF382E622ECA01DB015C01CB
:10E560006D01772420E2222E2E010894411C511CBB
:10E570008BC081E0A81680E0B80681E0C80680E084
:10E58000D80628F0C601AA27BB270F940DF2BB2797
:10E59000AD2D9C2D8B2D0F940DF28A2D0F940DF225
:10E5A0002092C6008091C00086FFFCCF8091C00001
:10E5B00080648093C0009DE29093C6008091C0006B
:10E5C00086FFFCCF8091C00080648093C0002092C1
:10E5D000C6008091C00086FFFCCF8091C00080649F
:10E5E0008093C00019828601750188249924A1E0D6
:10E5F0003A1651F03A1620F0B2E03B1661F409C029
:10E600000BBFF701779007C0C7010F9477FE782EF4
:10E6100002C0F7017080872D0F940DF22092C60082
:10E620008091C00086FFFCCF8091C0008064809301
:10E63000C000872D8052F401EF70F0708F3520F408
:10E64000E40DF51D708204C0E40DF51D8EE280839B
:10E650000894E11CF11C011D111D0894811C911CE2
:10E6600090E18916910409F0C2CF80E190E0A0E02A
:10E67000B0E0A80EB91ECA1EDB1E198AC2010F9493
:10E68000FAF10F94DCF16A94662009F072CF629679
:10E690000FB6F894DEBF0FBECDBFCF91DF911F91B3
:10E6A0000F91FF90EF90DF90CF90BF90AF909F9031
:10E6B0008F907F906F905F904F903F902F90089534
:10E6C0002F923F924F925F926F927F928F929F9282
:10E6D000AF92BF92CF92DF92EF92FF920F931F9370
:10E6E000DF93CF93CDB7DEB7CD53D1400FB6F894BB
:10E6F000DEBF0FBECDBF01E20EBF0FEF0DBF94B75F
:10E70000F894A89514BE80916000886180936000A1
:10E7100010926000789493FF05C0E0910002F091A0
:10E7200001021995279A2F9A8091C00082608093E8
:10E73000C00080E18093C40088E18093C1000000A4
:10E74000EE24FF24870144E0A42EB12CCC24DD2448
:10E7500024C0C5010197F1F70894E11CF11C011DCB
:10E76000111D21E2E2162EE4F20620E0020720E06D
:10E77000120718F031E0C32ED12CC801B70127ECE5
:10E780003BE140E050E00F9441FE611571058105C9
:10E79000910519F485B1805885B98091C00087FD35
:10E7A00003C0C114D104A9F2A6014F5F5F4FC25E3E
:10E7B000DE4F59834883CE51D140C25EDE4F8881FF
:10E7C0009981CE51D140019711F00D9410FEC05D9A
:10E7D000DE4F19821882C053D14060E0C15DDE4F28
:10E7E0001882CF52D14088249924C35DDE4F19820C
:10E7F0001882CD52D140C05EDE4F188219821A8233
:10E800001B82C052D140CE5CDE4F188219821A8220
:10E810001B82C253D140EE24FF2487010BBFF701B6
:10E8200007911691C45CDE4F19830883CC53D14005
:10E830000D940BFEC25EDE4F28813981CE51D1404E
:10E840002130310509F52091C600C25EDE4F1982E4
:10E850001882CE51D14022C02F5F3F4F4F4F5F4FA4
:10E86000213082E138078AE7480780E0580780F0C6
:10E87000C45CDE4FE881F981CC53D140EF5FFF4F9C
:10E8800019F0EE27FF27099420E030E040E050E047
:10E890008091C00087FFE0CF2091C600C35DDE4FAE
:10E8A00048815981CD52D1404F5F5F4FC35DDE4FEC
:10E8B00059834883CD52D140213209F063C64A3092
:10E8C000510508F05FC60894811C911C53E0851621
:10E8D000910409F059C600E010E018C081E280936D
:10E8E000C6008091C00086FFFCCF8091C00080648C
:10E8F0008093C0002F5F3F4F2931310579F70F9486
:10E90000DCF10F5F1F4F0530110519F020E030E0FA
:10E91000E5CF10920A0210920B0210920C02109294
:10E920000D02109206021092070210920802109235
:10E930000902109202021092030210920402109235
:10E9400005028FEE90EE60E00F94F5F180E191EE1C
:10E9500060E00F94C2F18091C00087FFFCCF9091DE
:10E96000C600903608F09F759032B8F09093C600BC
:10E970008091C00086FFFCCF8091C00080648093AE
:10E98000C000A0E2A093C6008091C00086FFFCCF2B
:10E990008091C00080648093C000983409F4D7C18E
:10E9A0009934B8F4923409F459C1933458F490333B
:10E9B00019F1903308F4E3C59F33A1F1903409F0C5
:10E9C000DEC5BDC0953409F470C1963409F0D7C5D1
:10E9D00098C1923509F42BC2933538F49C3409F46C
:10E9E000F5C1913509F0CBC518C2963509F445C279
:10E9F000993509F0C4C567C483E792EE62E00F94CD
:10EA0000F5F110920602109207021092080210927D
:10EA1000090210920A0210920B0210920C0210923C
:10EA20000D0213C18FE792EE62E00F94F5F18FEEC5
:10EA300090EE60E00F94F5F181E291EE60E00F94CA
:10EA4000C2F187EB91EE60E00F94F5F180E391EE77
:10EA500060E00F94C2F184EE90EE60E00F94F5F167
:10EA60008FE391EE60E00F94C2F186E090E061E008
:10EA700070E00F9434F20F94DCF18DE591EE60E0DC
:10EA80000F94C2F189EC91EE60E00F94F5F18EE401
:10EA900091EE60E00F94C2F183EC91EE60E00F9490
:10EAA000F5F18CE691EE60E00F94C2F18EE10F94E7
:10EAB0000DF288E90F940DF281E00F940DF20F949E
:10EAC000DCF18BE791EE60E00F94C2F119E0E0E039
:10EAD000F0E010935700E4918E2F0F940DF20F94F5
:10EAE000DCF18AE891EE60E00F94C2F1E3E0F0E03F
:10EAF00010935700E4918E2F0F940DF20F94DCF1D8
:10EB000089E991EE60E00F94C2F1E2E0F0E0109349
:10EB10005700E4918E2F0F940DF20F94DCF188EAE8
:10EB200091EE60E00F94C2F1E1E0F0E01093570045
:10EB30001491812F0F940DF20F94DCF107CF8BE825
:10EB400092EE62E00F94F5F18BE492EE60E00F94A8
:10EB5000F5F10F94DCF100E010E019C0C8016F2D51
:10EB60000F947FFEFF2031F489E492EE60E00F9471
:10EB7000C2F10BC0F092C6008091C00086FFFCCFAE
:10EB80008091C00080648093C0000F5F1F4FC80158
:10EB900081519F41A0E0B0E0ABBFFC01F790BAE229
:10EBA000FB1621F0E2E000301E07C1F60F94DCF105
:10EBB0000F94DCF187E592EE60E00F94F5F10F948D
:10EBC000DCF1CC24DD2400E010E01EC0C8010F946D
:10EBD00077FEF82E882331F489E492EE60E00F94FA
:10EBE000C2F10BC08093C6008091C00086FFFCCFAD
:10EBF0008091C00080648093C000FE1419F00894D6
:10EC0000C11CD11C0F5F1F4FC80181519F41A0E063
:10EC1000B0E0ABBFFC01E790FAE2EF1621F022E092
:10EC20000030120799F60F94DCF10F94DCF182E6C4
:10EC300092EE60E00F94C2F1C60161E070E00F94C3
:10EC400034F20F94DCF10F94DCF110920202109276
:10EC50000302109204021092050278CE89E992EE26
:10EC600062E00F94F5F1279A2F9A16C02F9880E052
:10EC700090E0E0EDF7E03197F1F7019684369105E9
:10EC8000C1F72F9A80E090E0E0EDF7E03197F1F7DF
:10EC9000019684369105C1F78091C00087FFE6CFC9
:10ECA0008091C00087FFFCCF64C485EA92EE62E0E9
:10ECB0000F94F5F140910202509103026091040219
:10ECC0007091050281E020E10F9491F2809102029F
:10ECD00090910302A0910402B091050280509F4FD1
:10ECE000AF4FBF4F8093020290930302A0930402A0
:10ECF000B093050280509041A040B04008F426CE69
:10ED0000A4CF83EB92EE62E00F94F5F140910602FE
:10ED100050910702609108027091090280E020E1A1
:10ED20000F9491F28091060290910702A09108023F
:10ED3000B091090280509F4FAF4FBF4F80930602A2
:10ED400090930702A0930802B0930902FFCD80ECD4
:10ED500092EE62E00F94F5F183E792EE60E00F949B
:10ED6000F5F18FE792EE60E00F94F5F18BE892EE0B
:10ED700060E00F94F5F189E992EE60E00F94F5F10F
:10ED800085EA92EE60E00F94F5F183EB92EE60E09D
:10ED90000F94F5F180EC92EE60E00F94F5F187ECC2
:10EDA00092EE60E00F94F5F188ED92EE60E00F9442
:10EDB000F5F18FED92EE60E00F94F5F18AEE92EEB0
:10EDC00060E00F94F5F183E093EEBDCD87EC92EE19
:10EDD00062E00F94F5F181E40F947BF282E40F94EA
:10EDE0007BF283E40F947BF284E40F947BF285E45E
:10EDF0000F947BF286E40F947BF287E40F947BF20E
:10EE000088E40F947BF28AE40F947BF28BE40F94F6
:10EE10007BF28CE40F947BF299CD88ED92EE62E068
:10EE20000F94F5F1772473948824992409C48FED05
:10EE300092EE62E00F94F5F140910A0250910B02BC
:10EE400060910C0270910D0282E020E10F9491F22A
:10EE500080910A0290910B02A0910C02B0910D02D8
:10EE600080509F4FAF4FBF4F80930A0290930B0289
:10EE7000A0930C02B0930D0269CD8AEE92EE62E08F
:10EE80000F94F5F184EE90EE60E00F94F5F18FECC5
:10EE900091EE60E00F94F5F1662477244301CC5D98
:10EEA000DE4F19821882C452D140D401C301B695F5
:10EEB000A79597958795CA5DDE4F88839983AA8326
:10EEC000BB83C652D140CC5DDE4FA881B981C4520C
:10EED000D1401196CC5DDE4FB983A883C452D14096
:10EEE000CD0162E070E00F9434F2B0E2B093C6005E
:10EEF0008091C00086FFFCCF8091C0008064809329
:10EF0000C000EDE2E093C6008091C00086FFFCCF18
:10EF10008091C00080648093C000F0E2F093C6004E
:10EF20008091C00086FFFCCF8091C00080648093F8
:10EF3000C000CA5DDE4FE880F9800A811B81C6529D
:10EF4000D140BB27A12F902F8F2D0F940DF2CA5DBA
:10EF5000DE4F8881C652D1400F940DF2B0E2FB2EF5
:10EF6000F092C6008091C00086FFFCCF8091C00067
:10EF700080648093C0000DE30093C6008091C000C0
:10EF800086FFFCCF8091C00080648093C00010E2B7
:10EF90001093C6008091C00086FFFCCF8091C00016
:10EFA00080648093C0008BBEF3012791C65DDE4F65
:10EFB0002883CA52D140A22EBB24CC24DD2408943D
:10EFC000611C711C811C911C8BBEF3018791282E42
:10EFD0003324442455240894611C711C811C911C09
:10EFE0008BBEF3013791C55DDE4F3883CB52D140E4
:10EFF0000894611C711C811C911C8BBEF30147910C
:10F00000C45DDE4F4883CC52D140ADEFEA2EAFEF66
:10F01000FA2EAFEF0A2FAFEF1A2F6E0C7F1C801E57
:10F02000911E142D032DF22CEE24EA0CFB1C0C1D5A
:10F030001D1D0F940DF220E22093C6008091C000A8
:10F0400086FFFCCF8091C00080648093C000C65DC5
:10F05000DE4F8881CA52D1400F940DF230E23093D6
:10F06000C6008091C00086FFFCCF8091C000806404
:10F070008093C000C45DDE4F8881CC52D1400F9494
:10F080000DF240E24093C6008091C00086FFFCCFA5
:10F090008091C00080648093C000C55DDE4F888190
:10F0A000CB52D1400F940DF250E25093C6008091A4
:10F0B000C00086FFFCCF8091C00080648093C000B8
:10F0C0008FEFE8168FEFF80680E0080780E018075A
:10F0D00031F484E092EE60E00F94C2F1DFC0D80119
:10F0E000C7018070907CA070B0708050904CA040A0
:10F0F000B040D1F52FEF3FE340E050E0E222F322B1
:10F1000004231523CA5DDE4FA880B980CA80DB8046
:10F11000C652D140AE0CBF1CC01ED11EAA0CBB1CD7
:10F12000CC1CDD1C8EE092EE60E00F94C2F1BB2798
:10F13000A12F902F8F2D0F940DF28E2D0F940DF285
:10F1400030E23093C6008091C00086FFFCCF8091F2
:10F15000C00080648093C0004EE34093C60080915D
:10F16000C00086FFFCCF87C08EE09EEFA0E0B0E03D
:10F17000E822F9220A231B239CE0E91694E9F90608
:10F1800090E0090790E0190709F088C0C45DDE4FE0
:10F19000A881CC52D140EA2EFF2400E010E0102FCD
:10F1A0000F2DFE2CEE24C55DDE4FB881CB52D14031
:10F1B000EB0EF11C011D111DD601C501817090706F
:10F1C000A070B070DC0199278827E80EF91E0A1F8D
:10F1D0001B1F20EF30E040E050E0A222B322C42207
:10F1E000D52241E1AA0CBB1CCC1CDD1C4A95D1F7F1
:10F1F000EA0CFB1C0C1D1D1D81E090E0A0E0B0E0BE
:10F20000282239224A225B2235E1220C331C441C7D
:10F21000551C3A95D1F7E20CF31C041D151D57013E
:10F220006801AA0CBB1CCC1CDD1C85E192EE60E0E1
:10F230000F94C2F1C801AA27BB270F940DF2BB2778
:10F24000A12F902F8F2D0F940DF28E2D0F940DF274
:10F2500090E29093C6008091C00086FFFCCF809121
:10F26000C00080648093C000AEE3A093C60080918C
:10F27000C00086FFFCCF8091C00080648093C000F6
:10F28000C601AA27BB270F940DF2BB27AD2D9C2DDD
:10F290008B2D0F940DF28A2D0F940DF20F94DCF14B
:10F2A000CC5DDE4FE881F981C452D140F99709F471
:10F2B0004DCBF4E0EF2EF12C012D112D6E0C7F1CA7
:10F2C000801E911EF2CD83E093EE62E00F94F5F183
:10F2D0008AE192EE60E00F94C2F18091C00087FF56
:10F2E000FCCF1091C6001F751093C6008091C0001E
:10F2F00086FFFCCF8091C00080648093C0000F9493
:10F30000DCF1812F81548A3108F036C1163409F4BA
:10F3100095C0173490F4133409F44EC0143430F40B
:10F320001134F1F0123409F01DC130C0143409F465
:10F3300059C0153409F016C16BC01A3409F4C4C0A1
:10F340001B3438F4173409F48FC0183409F00AC19B
:10F35000A1C01B3409F4D2C01C3409F003C1E8C0B9
:10F360008FEF81B90DC082B1809582B980E090E0C5
:10F37000E0EDF7E03197F1F70196883C9105C1F790
:10F380008091C00087FFEFCF12B8EFC08FEF84B934
:10F390000DC085B1809585B980E090E0E0EDF7E0A3
:10F3A0003197F1F70196883C9105C1F78091C00033
:10F3B00087FFEFCF15B8D9C08FEF87B90DC088B1DF
:10F3C000809588B980E090E0E0EDF7E03197F1F7C3
:10F3D0000196883C9105C1F78091C00087FFEFCF6F
:10F3E00018B8C3C08FEF8AB90DC08BB180958BB9A7
:10F3F00080E090E0E0EDF7E03197F1F70196883C8E
:10F400009105C1F78091C00087FFEFCF1BB8ADC059
:10F410008FEF8DB90DC08EB180958EB980E090E0F0
:10F42000E0EDF7E03197F1F70196883C9105C1F7DF
:10F430008091C00087FFEFCF1EB897C08FEF80BBD1
:10F440000DC081B3809581BB80E090E0E0EDF7E0F6
:10F450003197F1F70196883C9105C1F78091C00082
:10F4600087FFEFCF11BA81C08FEF83BB0DC084B38C
:10F47000809584BB80E090E0E0EDF7E03197F1F714
:10F480000196883C9105C1F78091C00087FFEFCFBE
:10F4900014BA6BC08FEF809301010FC080910201FD
:10F4A00080958093020180E090E0E0EDF7E03197F5
:10F4B000F1F70196883C9105C1F78091C00087FF64
:10F4C000EDCF1092020151C08FEF809304010FC065
:10F4D0008091050180958093050180E090E0E0ED4A
:10F4E000F7E03197F1F70196883C9105C1F78091DB
:10F4F000C00087FFEDCF1092050137C08FEF8093DA
:10F5000007010FC08091080180958093080180E079
:10F5100090E0E0EDF7E03197F1F70196883C910536
:10F52000C1F78091C00087FFEDCF109208011DC088
:10F530008FEF80930A010FC080910B01809580931B
:10F540000B0180E090E0E0EDF7E03197F1F70196F4
:10F55000883C9105C1F78091C00087FFEDCF1092E4
:10F560000B0103C085E292EEEEC98091C00087FFD7
:10F57000FCCF8091C600EAC988E392EEE4C98CE131
:10F5800091EEE1C988249924933011F1943028F444
:10F59000913089F09230B8F408C0953061F195301F
:10F5A000F0F0963009F048C043C02B3109F042C951
:10F5B00091E06BE13FC96227C15DDE4F2883CF52E6
:10F5C000D14092E037C9B22FA0E0622793E032C960
:10F5D000822F90E0A82BB92B622794E02BC92E3004
:10F5E00009F039C3622795E0C05DDE4F19821882A9
:10F5F000C053D1401FC9E1E0F0E0EC0FFD1FC05D3A
:10F60000DE4F08811981C053D140E00FF11F2083E4
:10F610000F5F1F4FC05DDE4F19830883C053D14079
:10F6200062270A171B0709F005C9D80196E002C92D
:10F63000261709F010C303C0973009F0FBC87724E0
:10F640009981933109F412C19431C8F4963009F4C8
:10F65000D8C0973050F4923009F406C1933009F4C1
:10F660006DC0913009F059C253C0913109F477C08F
:10F67000923108F0BBC0903109F04FC2F5C098310B
:10F6800009F487C0993150F4953109F4EFC09531F0
:10F6900008F4C6C1963109F040C2C2C19A3109F4DA
:10F6A0006CC09A3108F491C09B3109F45BC09D3164
:10F6B00009F033C29D81903359F48F81882311F46E
:10F6C0009EE11CC0813011F091E018C098E916C08D
:10F6D000892F807591F0903539F4E0E0F0E089E011
:10F6E0008093570094910AC0983539F4E3E0F0E034
:10F6F00089E080935700949101C090E01A821B82A8
:10F700008D818C831D829E831F8227E030E009C299
:10F710001A8288E08B8381E48C8386E58D8382E581
:10F720008E8389E48F8383E5888780E589878FE5E9
:10F730008A8782E38B872BE030E0F3C18A818139AD
:10F7400041F0823941F0803911F48FE005C080E04A
:10F7500003C082E001C08AE01A828B8344C0772410
:10F76000739482C08D81882311F48EE12CC0813086
:10F7700011F081E028C088E926C01A82E1E0F0E0BB
:10F7800089E08093570084918B831C8224E030E0D1
:10F79000C8C18B81803589F48C81883039F4E2E0EE
:10F7A000F0E089E08093570084910DC0E0E0F0E044
:10F7B00089E080935700849106C0E3E0F0E089E09F
:10F7C0008093570084911A82DFCF8D81836C99E0FA
:10F7D000E1E0F0E0082E90935700E89507B600FCB2
:10F7E000FDCF1A821B8223E030E09BC180EC8A832C
:10F7F000CE5CDE4F188219821A821B82C253D1401E
:10F800008EC18A8190E0A0E0B0E0582F44273327D2
:10F8100022278B8190E0A0E0B0E0DC0199278827C7
:10F82000282B392B4A2B5B2B8D8190E0A0E0B0E098
:10F83000282B392B4A2B5B2B8C8190E0A0E0B0E089
:10F84000BA2FA92F982F8827282B392B4A2B5B2BCF
:10F85000220F331F441F551FC05EDE4F288339839C
:10F860004A835B83C052D1401A8259C13A81C95C34
:10F87000DE4F3883C753D140CA5CDE4F1882C6536F
:10F88000D1408B81C82EDD24CA5CDE4F488159816E
:10F89000C653D140C42AD52A933109F082C0CE5C28
:10F8A000DE4F88819981AA81BB81C253D1408050AB
:10F8B000904CA340B04030F583E0CE5CDE4FE88052
:10F8C000F9800A811B81C253D140F70100935B008C
:10F8D00080935700E89507B600FCFDCFCE5CDE4F65
:10F8E000088119812A813B81C253D14000501F4FAA
:10F8F0002F4F3F4FCE5CDE4F088319832A833B8313
:10F90000C253D140C05EDE4F488159816A817B81FC
:10F91000C052D140DE011B9631E08C9111962C91A2
:10F9200011971296C75CDE4F2883C953D140C85C3B
:10F93000DE4F1882C853D14090E0C85CDE4FE881AA
:10F94000F981C853D1408E2B9F2B0C01FA01609393
:10F950005B0030935700E89511244E5F5F4F6F4F67
:10F960007F4F0EEFE02E0FEFF02ECE0CDF1CC114F8
:10F97000D10499F685E0C05EDE4F088119812A81A5
:10F980003B81C052D140F80120935B008093570027
:10F99000E89507B600FCFDCF81E180935700E8951C
:10F9A00035C0C05EDE4F88819981AA81BB81C0527B
:10F9B000D140B695A795979587957C018601ABE0D8
:10F9C000AA2EB12CAC0EBD1E0BC0D5016D915D01F0
:10F9D000C7010F947FFE0894E11CF11C01501040F8
:10F9E0000115110591F7A60160E070E0440F551F65
:10F9F000661F771FC05EDE4FE880F9800A811B8199
:10FA0000C052D1404E0D5F1D601F711F1A82C05E33
:10FA1000DE4F488359836A837B83C052D1407FC0C5
:10FA2000FA80C55CDE4FF882CB53D140C65CDE4F16
:10FA30001882CA53D1408B81C82EDD24C65CDE4FAC
:10FA400008811981CA53D140C02AD12A1A828981DA
:10FA5000BE016D5F7F4F843121F59601C05EDE4FA0
:10FA6000E880F9800A811B81C052D1400BBFF701A9
:10FA700087919691DB018C9311969C936E5F7F4FDB
:10FA8000D801C7010296A11DB11DC05EDE4F88835B
:10FA90009983AA83BB83C052D14022503040F1F6F3
:10FAA00036C0C05EDE4F288139814A815B81C052F9
:10FAB000D1400894C108D108760100E010E0089414
:10FAC000C11CD11C0894E11CF11C011D111DE20E8A
:10FAD000F31E041F151F21BDBB27A52F942F832FB5
:10FAE00082BD2F5F3F4F4F4F5F4FF89A80B5DB01CC
:10FAF0008D93BD012E153F054007510761F7C05E8C
:10FB0000DE4F288339834A835B83C052D1409601FC
:10FB10002D5F3F4FFB01108204C080EC8A8322E0FE
:10FB200030E08BE18093C6008091C00086FFFCCF5F
:10FB30008091C00080648093C000C15DDE4FF88179
:10FB4000CF52D140F093C6008091C00086FFFCCF19
:10FB50008091C00080648093C000432F3093C60022
:10FB60008091C00086FFFCCF8091C00080648093AC
:10FB7000C000922F2093C6008091C00086FFFCCF6A
:10FB80008091C00080648093C0008EE08093C600A6
:10FB90008091C00086FFFCCF8091C000806480937C
:10FBA000C00065E1C15DDE4FE880CF52D1406E25D7
:10FBB00069276427FE01319610C090819093C6009A
:10FBC0008091C00086FFFCCF31968091C000806498
:10FBD0008093C0006927215030402115310569F715
:10FBE0006093C6008091C00086FFFCCF8091C0006A
:10FBF00080648093C00085B1805885B9772081F4F6
:10FC0000C15DDE4F0881CF52D1400F5FC15DDE4F35
:10FC10000883CF52D14090E0A0E0B0E00D941AF4F8
:10FC200027982F9880E090E020ED37E0F901319798
:10FC3000F1F7019684369105C9F700008091C00064
:10FC40008D7F8093C00081E180935700E895EE2777
:10FC5000FF270994FFCF90E00D941AF497FB092E2B
:10FC600007260AD077FD04D02ED006D000201AF443
:10FC7000709561957F4F0895F6F7909581959F4F08
:10FC80000895A1E21A2EAA1BBB1BFD010DC0AA1FDD
:10FC9000BB1FEE1FFF1FA217B307E407F50720F0F5
:10FCA000A21BB30BE40BF50B661F771F881F991F70
:10FCB0001A9469F760957095809590959B01AC01B9
:10FCC000BD01CF010895AA1BBB1B51E107C0AA1FAC
:10FCD000BB1FA617B70710F0A61BB70B881F991FED
:10FCE0005A95A9F780959095BC01CD010895F99991
:10FCF000FECF92BD81BDF89A992780B50895262F31
:10FD0000F999FECF1FBA92BD81BD20BD0FB6F89400
:0EFD1000FA9AF99A0FBE01960895F894FFCF63
:040000033000E000E9
:00000001FF